{
  "_format": "hh-sol-artifact-1",
  "contractName": "PendleAdapter",
  "sourceName": "contracts/oracle-entry/adapters/PendleAdapter.sol",
  "abi": [
    {
      "inputs": [
        {
          "internalType": "contract IAddressManager",
          "name": "_addressManager",
          "type": "address"
        },
        {
          "internalType": "contract IPPYLpOracle",
          "name": "_pendleOracle",
          "type": "address"
        },
        {
          "internalType": "uint32",
          "name": "_twapDuration",
          "type": "uint32"
        },
        {
          "internalType": "uint32",
          "name": "_allowedPriceDuration",
          "type": "uint32"
        }
      ],
      "stateMutability": "nonpayable",
      "type": "constructor"
    },
    {
      "anonymous": false,
      "inputs": [
        {
          "indexed": true,
          "internalType": "address",
          "name": "baseAsset",
          "type": "address"
        },
        {
          "indexed": true,
          "internalType": "address",
          "name": "quoteAsset",
          "type": "address"
        },
        {
          "indexed": true,
          "internalType": "uint40",
          "name": "timestamp",
          "type": "uint40"
        },
        {
          "indexed": false,
          "internalType": "uint128",
          "name": "price",
          "type": "uint128"
        }
      ],
      "name": "AssetPriceUpdated",
      "type": "event"
    },
    {
      "anonymous": false,
      "inputs": [
        {
          "indexed": true,
          "internalType": "address",
          "name": "baseAsset",
          "type": "address"
        },
        {
          "indexed": true,
          "internalType": "address",
          "name": "quoteAsset",
          "type": "address"
        },
        {
          "indexed": true,
          "internalType": "address",
          "name": "market",
          "type": "address"
        }
      ],
      "name": "AssetsToMarketSet",
      "type": "event"
    },
    {
      "inputs": [],
      "name": "addressManager",
      "outputs": [
        {
          "internalType": "contract IAddressManager",
          "name": "",
          "type": "address"
        }
      ],
      "stateMutability": "view",
      "type": "function"
    },
    {
      "inputs": [],
      "name": "allowedPriceDuration",
      "outputs": [
        {
          "internalType": "uint32",
          "name": "",
          "type": "uint32"
        }
      ],
      "stateMutability": "view",
      "type": "function"
    },
    {
      "inputs": [
        {
          "internalType": "address",
          "name": "",
          "type": "address"
        },
        {
          "internalType": "address",
          "name": "",
          "type": "address"
        }
      ],
      "name": "assetsToMarket",
      "outputs": [
        {
          "internalType": "address",
          "name": "",
          "type": "address"
        }
      ],
      "stateMutability": "view",
      "type": "function"
    },
    {
      "inputs": [
        {
          "internalType": "address",
          "name": "baseAsset",
          "type": "address"
        },
        {
          "internalType": "address",
          "name": "quoteAsset",
          "type": "address"
        },
        {
          "internalType": "uint40",
          "name": "timestamp",
          "type": "uint40"
        }
      ],
      "name": "getPrice",
      "outputs": [
        {
          "internalType": "uint128",
          "name": "",
          "type": "uint128"
        }
      ],
      "stateMutability": "view",
      "type": "function"
    },
    {
      "inputs": [
        {
          "internalType": "address",
          "name": "asset",
          "type": "address"
        },
        {
          "internalType": "uint40",
          "name": "timestamp",
          "type": "uint40"
        }
      ],
      "name": "getSinglePrice",
      "outputs": [
        {
          "internalType": "uint128",
          "name": "",
          "type": "uint128"
        }
      ],
      "stateMutability": "view",
      "type": "function"
    },
    {
      "inputs": [],
      "name": "pendleOracle",
      "outputs": [
        {
          "internalType": "contract IPPYLpOracle",
          "name": "",
          "type": "address"
        }
      ],
      "stateMutability": "view",
      "type": "function"
    },
    {
      "inputs": [
        {
          "internalType": "address",
          "name": "baseAsset",
          "type": "address"
        },
        {
          "internalType": "address",
          "name": "quoteAsset",
          "type": "address"
        },
        {
          "internalType": "address",
          "name": "market",
          "type": "address"
        }
      ],
      "name": "setAssetsToMarket",
      "outputs": [],
      "stateMutability": "nonpayable",
      "type": "function"
    },
    {
      "inputs": [],
      "name": "targetDecimals",
      "outputs": [
        {
          "internalType": "uint8",
          "name": "",
          "type": "uint8"
        }
      ],
      "stateMutability": "view",
      "type": "function"
    },
    {
      "inputs": [],
      "name": "twapDuration",
      "outputs": [
        {
          "internalType": "uint32",
          "name": "",
          "type": "uint32"
        }
      ],
      "stateMutability": "view",
      "type": "function"
    },
    {
      "inputs": [
        {
          "internalType": "uint40",
          "name": "timestamp",
          "type": "uint40"
        },
        {
          "components": [
            {
              "internalType": "address",
              "name": "baseAsset",
              "type": "address"
            },
            {
              "internalType": "address",
              "name": "quoteAsset",
              "type": "address"
            }
          ],
          "internalType": "struct PendleAdapter.AssetData[]",
          "name": "assets",
          "type": "tuple[]"
        }
      ],
      "name": "updateAssetPrices",
      "outputs": [],
      "stateMutability": "nonpayable",
      "type": "function"
    },
    {
      "inputs": [
        {
          "internalType": "uint40",
          "name": "timestamp",
          "type": "uint40"
        },
        {
          "components": [
            {
              "internalType": "address",
              "name": "baseAsset",
              "type": "address"
            },
            {
              "internalType": "address",
              "name": "quoteAsset",
              "type": "address"
            }
          ],
          "internalType": "struct PendleAdapter.AssetData[]",
          "name": "assets",
          "type": "tuple[]"
        },
        {
          "internalType": "uint128[]",
          "name": "prices",
          "type": "uint128[]"
        }
      ],
      "name": "updateAssetPricesByCega",
      "outputs": [],
      "stateMutability": "nonpayable",
      "type": "function"
    }
  ],
  "bytecode": "0x610120346100f157601f610dcd38819003918201601f19168301916001600160401b038311848410176100f5578084926080946040528339810103126100f15780516001600160a01b039182821682036100f157602081015192831683036100f157610079606061007260408401610109565b9201610109565b91601260805260e05261010092835260a05260c052604051610cb2918261011b83396080518261098c015260a05182818161065d0152610a83015260c0518281816108110152610ac1015260e051828181610176015281816103d401528181610578015261094401525181818160ac01526106390152f35b5f80fd5b634e487b7160e01b5f52604160045260245ffd5b519063ffffffff821682036100f15756fe6080604090808252600480361015610015575f80fd5b5f3560e01c918263234df57e14610aa75750816326d8954514610a67578163307767d0146109fe57816331286546146109b057816336c1387e146109735781633ab76e9f146109305781636d7110b41461089f57816373e5db041461051a57816395c1ecb714610385578163b1435789146100df575063f32abc2914610099575f80fd5b346100db575f3660031901126100db57517f00000000000000000000000000000000000000000000000000000000000000006001600160a01b03168152602090f35b5f80fd5b9050346100db5760603660031901126100db576100fa610b11565b906024926024359067ffffffffffffffff918281116100db576101209036908501610b25565b93604435928484116100db57366023850112156100db57838201359485116100db576005973660248760051b870101116100db57815163383e6b8b60e11b8152986001600160a01b0395602094909190858c82817f00000000000000000000000000000000000000000000000000000000000000008c165afa9b8c1561034c575f9c610356575b508588602487519e8f928391633b9033c960e01b83523387840152165afa9b8c1561034c575f9c61031d575b506101fb859b9a9b516101e581610b56565b60029d60028252611a1b60f11b89830152610ba8565b61021f855161020981610b56565b6002815261034360f41b888201528a8d14610ba8565b64ffffffffff5f9a16995b8b811061023357005b8061025e886102588f9461025161024c828f8990610c44565b610c68565b958d610c44565b01610c68565b918b82101561030b578682861b87010135926001600160801b0384168094036100db578f7f527209b1666cd029a9ab6982e2da3f99874c5edfccb53927349bd5cf5185cf218f936001968f8e926102d18f96839751906102bd82610b56565b815261323960f01b86820152841515610ba8565b1693845f525f83528d5f20951694855f5282528c5f20865f5282528c5f20816001600160801b03198254161790558c51908152a40161022a565b86603285634e487b7160e01b5f52525ffd5b61033e919c50863d8811610345575b6103368183610b86565b810190610c2c565b9a5f6101d3565b503d61032c565b85513d5f823e3d90fd5b610377919c50863d881161037e575b61036f8183610b86565b810190610c0d565b9a5f6101a7565b503d610365565b9050346100db5760603660031901126100db576103a0610ae5565b6103a8610afb565b926044359360018060a01b03928386168096036100db57825163383e6b8b60e11b8152602095868282817f00000000000000000000000000000000000000000000000000000000000000008a165afa91821561034c5791879187935f926104f8575b506024908751948593849263279ee9ef60e01b84523390840152165afa9081156104ee5785929161045b915f916104d1575b5085519061044982610b56565b60018252601960f91b89830152610ba8565b61047f845161046981610b56565b6002815261032360f41b88820152881515610ba8565b1692835f5260018552825f20911693845f52525f20836bffffffffffffffffffffffff60a01b8254161790557f190f18c0d8caa817f0de57f168623ebff14a0fa99fd15053cbad9b0f624e9e675f80a4005b6104e89150883d8a11610345576103368183610b86565b5f61043c565b84513d5f823e3d90fd5b602491925061051390843d861161037e5761036f8183610b86565b919061040a565b9050346100db57816003193601126100db57610534610b11565b60249260243567ffffffffffffffff81116100db576105569036908501610b25565b825163383e6b8b60e11b8152919290916020916001600160a01b0391838189817f000000000000000000000000000000000000000000000000000000000000000087165afa90811561087857839185915f91610882575b508351633b9033c960e01b8152338b8201529485916024918391165afa928315610878575f93610859575b506105fd82516105e781610b56565b60029460028252611a1b60f11b87830152610ba8565b64ffffffffff8097169687421180610809575b610637915083999699519061062482610b56565b6002825261068760f31b87830152610ba8565b7f00000000000000000000000000000000000000000000000000000000000000008116947f000000000000000000000000000000000000000000000000000000000000000063ffffffff165f5b8a811061068d57005b80898b8e8a8f6044898f8c8f9a8f9561025882826106b461024c8f968d966106ba98610c44565b9d610c44565b981696875f525f86528d855f20991698895f528652845f20905f5285526107076001600160801b039a8b865f205416158651916106f683610b56565b825261343760f01b88830152610ba8565b865f5260018552835f20885f5285528a8d855f20541694519687958694635d842b7f60e11b86528501528301525afa9081156107ff578e9392918c915f916107cb575b50906001967f527209b1666cd029a9ab6982e2da3f99874c5edfccb53927349bd5cf5185cf2192166107968d8d519061078282610b56565b815261323960f01b84820152821515610ba8565b835f525f82528b5f20855f5282528b5f20865f5282528b5f20816001600160801b03198254161790558b51908152a401610684565b94505083813d83116107f8575b6107e28183610b86565b810103126100db5791518d92908b90600161074a565b503d6107d8565b89513d5f823e3d90fd5b5063ffffffff7f00000000000000000000000000000000000000000000000000000000000000001688018181116108465761063791164210610610565b60118a634e487b7160e01b5f525260245ffd5b610871919350843d8611610345576103368183610b86565b915f6105d8565b82513d5f823e3d90fd5b6108999150823d841161037e5761036f8183610b86565b5f6105ad565b82346100db5760603660031901126100db576108b9610ae5565b906108c2610afb565b6044359064ffffffffff82168092036100db5760209360018060a01b038091165f525f8552835f2091165f528352815f20905f5282526001600160801b03815f2054169061092a815161091481610b56565b6002815261323960f01b85820152831515610ba8565b51908152f35b82346100db575f3660031901126100db57517f00000000000000000000000000000000000000000000000000000000000000006001600160a01b03168152602090f35b82346100db575f3660031901126100db576020905160ff7f0000000000000000000000000000000000000000000000000000000000000000168152f35b82346100db57806003193601126100db576020906109cc610ae5565b6109d4610afb565b6001600160a01b039182165f90815260018552838120918316815290845282902054915191168152f35b82346100db57806003193601126100db57610a17610ae5565b9060243564ffffffffff81168091036100db5760209260018060a01b03165f525f8352815f2060015f528352815f20905f5282526001600160801b03815f2054169061092a815161091481610b56565b82346100db575f3660031901126100db576020905163ffffffff7f0000000000000000000000000000000000000000000000000000000000000000168152f35b346100db575f3660031901126100db5760209063ffffffff7f0000000000000000000000000000000000000000000000000000000000000000168152f35b600435906001600160a01b03821682036100db57565b602435906001600160a01b03821682036100db57565b6004359064ffffffffff821682036100db57565b9181601f840112156100db5782359167ffffffffffffffff83116100db576020808501948460061b0101116100db57565b6040810190811067ffffffffffffffff821117610b7257604052565b634e487b7160e01b5f52604160045260245ffd5b90601f8019910116810190811067ffffffffffffffff821117610b7257604052565b15610bb05750565b6040519062461bcd60e51b82528160208060048301528251908160248401525f935b828510610bf4575050604492505f838284010152601f80199101168101030190fd5b8481018201518686016044015293810193859350610bd2565b908160209103126100db57516001600160a01b03811681036100db5790565b908160209103126100db575180151581036100db5790565b9190811015610c545760061b0190565b634e487b7160e01b5f52603260045260245ffd5b356001600160a01b03811681036100db579056fea2646970667358221220c0d223fbf9ff6a422822ed6302c33a14cc6c632d5518b63fac98cfb99ab6176564736f6c63430008180033",
  "linkReferences": {},
  "deployedLinkReferences": {}
}