{
  "_format": "hh-sol-artifact-1",
  "contractName": "BulkActionsEntry",
  "sourceName": "contracts/BulkActionsEntry.sol",
  "abi": [
    {
      "inputs": [
        {
          "internalType": "address",
          "name": "_cegaState",
          "type": "address"
        }
      ],
      "stateMutability": "nonpayable",
      "type": "constructor"
    },
    {
      "inputs": [],
      "name": "TRADER_ADMIN_ROLE",
      "outputs": [
        {
          "internalType": "bytes32",
          "name": "",
          "type": "bytes32"
        }
      ],
      "stateMutability": "view",
      "type": "function"
    },
    {
      "inputs": [
        {
          "internalType": "address[]",
          "name": "vaultAddresses",
          "type": "address[]"
        }
      ],
      "name": "bulkCalculateCurrentYield",
      "outputs": [],
      "stateMutability": "nonpayable",
      "type": "function"
    },
    {
      "inputs": [
        {
          "internalType": "address[]",
          "name": "vaultAddresses",
          "type": "address[]"
        }
      ],
      "name": "bulkCalculateVaultFinalPayoffs",
      "outputs": [],
      "stateMutability": "nonpayable",
      "type": "function"
    },
    {
      "inputs": [
        {
          "internalType": "address[]",
          "name": "vaultAddresses",
          "type": "address[]"
        }
      ],
      "name": "bulkCheckBarriers",
      "outputs": [],
      "stateMutability": "nonpayable",
      "type": "function"
    },
    {
      "inputs": [
        {
          "internalType": "address[]",
          "name": "vaultAddresses",
          "type": "address[]"
        }
      ],
      "name": "bulkCollectFees",
      "outputs": [],
      "stateMutability": "nonpayable",
      "type": "function"
    },
    {
      "inputs": [
        {
          "components": [
            {
              "internalType": "string",
              "name": "productName",
              "type": "string"
            },
            {
              "internalType": "address",
              "name": "vaultAddress",
              "type": "address"
            },
            {
              "internalType": "uint256",
              "name": "amount",
              "type": "uint256"
            }
          ],
          "internalType": "struct IBulkActionsEntry.MoveAssetsToProductParams[]",
          "name": "params",
          "type": "tuple[]"
        }
      ],
      "name": "bulkMoveAssetsToProducts",
      "outputs": [],
      "stateMutability": "nonpayable",
      "type": "function"
    },
    {
      "inputs": [
        {
          "internalType": "address[]",
          "name": "vaultAddresses",
          "type": "address[]"
        }
      ],
      "name": "bulkOpenVaultDeposits",
      "outputs": [],
      "stateMutability": "nonpayable",
      "type": "function"
    },
    {
      "inputs": [
        {
          "components": [
            {
              "internalType": "address",
              "name": "vaultAddress",
              "type": "address"
            },
            {
              "internalType": "uint256",
              "name": "maxProcessCount",
              "type": "uint256"
            }
          ],
          "internalType": "struct IBulkActionsEntry.ProcessQueueParams[]",
          "name": "params",
          "type": "tuple[]"
        }
      ],
      "name": "bulkProcessDepositQueues",
      "outputs": [],
      "stateMutability": "nonpayable",
      "type": "function"
    },
    {
      "inputs": [
        {
          "components": [
            {
              "internalType": "address",
              "name": "vaultAddress",
              "type": "address"
            },
            {
              "internalType": "uint256",
              "name": "maxProcessCount",
              "type": "uint256"
            }
          ],
          "internalType": "struct IBulkActionsEntry.ProcessQueueParams[]",
          "name": "params",
          "type": "tuple[]"
        }
      ],
      "name": "bulkProcessWithdrawalQueues",
      "outputs": [],
      "stateMutability": "nonpayable",
      "type": "function"
    },
    {
      "inputs": [
        {
          "internalType": "address[]",
          "name": "vaultAddresses",
          "type": "address[]"
        }
      ],
      "name": "bulkRolloverVaults",
      "outputs": [],
      "stateMutability": "nonpayable",
      "type": "function"
    },
    {
      "inputs": [
        {
          "components": [
            {
              "internalType": "address",
              "name": "vaultAddress",
              "type": "address"
            },
            {
              "internalType": "address",
              "name": "receiver",
              "type": "address"
            },
            {
              "internalType": "uint256",
              "name": "amount",
              "type": "uint256"
            }
          ],
          "internalType": "struct IBulkActionsEntry.SendAssetsToTradeParams[]",
          "name": "params",
          "type": "tuple[]"
        }
      ],
      "name": "bulkSendAssetsToTrade",
      "outputs": [],
      "stateMutability": "nonpayable",
      "type": "function"
    },
    {
      "inputs": [
        {
          "components": [
            {
              "internalType": "address",
              "name": "vaultAddress",
              "type": "address"
            },
            {
              "internalType": "uint256",
              "name": "tradeDate",
              "type": "uint256"
            },
            {
              "internalType": "uint256",
              "name": "tradeExpiry",
              "type": "uint256"
            },
            {
              "internalType": "uint256",
              "name": "aprBps",
              "type": "uint256"
            },
            {
              "internalType": "uint256",
              "name": "tenorInDays",
              "type": "uint256"
            }
          ],
          "internalType": "struct IBulkActionsEntry.SetTradeDataParams[]",
          "name": "params",
          "type": "tuple[]"
        }
      ],
      "name": "bulkSetTradeData",
      "outputs": [],
      "stateMutability": "nonpayable",
      "type": "function"
    },
    {
      "inputs": [
        {
          "components": [
            {
              "internalType": "address",
              "name": "vaultAddress",
              "type": "address"
            },
            {
              "internalType": "uint256",
              "name": "index",
              "type": "uint256"
            },
            {
              "internalType": "string",
              "name": "asset",
              "type": "string"
            },
            {
              "internalType": "uint256",
              "name": "strikeAbsoluteValue",
              "type": "uint256"
            },
            {
              "internalType": "uint256",
              "name": "barrierAbsoluteValue",
              "type": "uint256"
            }
          ],
          "internalType": "struct IBulkActionsEntry.UpdateOptionBarrierParams[]",
          "name": "params",
          "type": "tuple[]"
        }
      ],
      "name": "bulkUpdateOptionBarriers",
      "outputs": [],
      "stateMutability": "nonpayable",
      "type": "function"
    },
    {
      "inputs": [],
      "name": "cegaState",
      "outputs": [
        {
          "internalType": "contract ICegaState",
          "name": "",
          "type": "address"
        }
      ],
      "stateMutability": "view",
      "type": "function"
    }
  ],
  "bytecode": "0x60a0346100ab57601f61127d38819003918201601f19168301916001600160401b038311848410176100b0578084926020946040528339810103126100ab57516001600160a01b038116908190036100ab576080526040516111b690816100c782396080518181816101190152818161045e015281816105d8015281816107c8015281816108ab015281816109d601528181610a9601528181610b1701528181610c820152610e100152f35b600080fd5b634e487b7160e01b600052604160045260246000fdfe6080604081815260048036101561001557600080fd5b600092833560e01c90816304519a2a14610d9e575080631615a38614610c0e57806322cbb4ba14610ac55780632f87045c14610a8157838163753a78dc1461097d5781638340bc6f146108735781638aa205211461076f5781639ae2dd4d146106c55781639d0ee11d146105a057508063a115a37c14610408578063c6134df2146103c957838163ea5498211461031157508063efdc64f41461022e5763f1a346e8146100c157600080fd5b82913461022a57602036600319011261022a5781356001600160401b038111610225576100f19036908401610eed565b8251630ddd3b3160e21b815233858201529094916001600160a01b03916024919060208184817f000000000000000000000000000000000000000000000000000000000000000088165afa90811561021b57906101559186916101ed575b50610fd0565b835b878110610162578480f35b8361017e610179610174848c8761102a565b611050565b61112b565b1661018d610174838b8661102a565b90803b156101e957875163a480ca7960e01b8152918616828a0152869082908690829084905af180156101df57906101cb92916101d0575b50611005565b610157565b6101d990610f6e565b386101c5565b87513d88823e3d90fd5b8680fd5b61020e915060203d8111610214575b6102068183610f97565b810190610fb8565b3861014f565b503d6101fc565b86513d87823e3d90fd5b505050fd5b5050fd5b503461030d57602090816003193601126103095780356001600160401b0381116103055761025f9036908301610eed565b9390855b85811061026e578680f35b6001600160a01b038581610289610179610174868c8961102a565b1691602461029b610174868c8961102a565b8b8851958694859363bcd0fb2f60e01b8552168b8401525af180156102fb579086916102d2575b50506102cd90611005565b610263565b813d83116102f4575b6102e58183610f97565b810103126101e95784386102c2565b503d6102db565b84513d8a823e3d90fd5b8480fd5b8380fd5b8280fd5b9290503461022a57602036600319011261022a5781356001600160401b038111610225576103429036908401610eed565b8491945b818110610351578280f35b6001600160a01b038061036b61017961017485878c61102a565b169061037b61017484868b61102a565b90823b156103c55760248692838951958694859363b379e0bf60e01b8552168c8401525af180156103bb57906103b692916101d05750611005565b610346565b85513d86823e3d90fd5b8580fd5b505034610404578160031936011261040457602090517f264001e901c3e181f17cd2c6cec22c2e23d9dd662da12dcafc2619e16b7cd0248152f35b5080fd5b503461030d5760209182600319360112610309578382356001600160401b0381116104045761043a9036908501610eed565b8351630ddd3b3160e21b81523381870152602495926001600160a01b0391888189817f000000000000000000000000000000000000000000000000000000000000000087165afa9081156101df57906104999187916105895750610fd0565b845b8381106104a6578580f35b826104b8610179610174848887611084565b166104c7610174838786611084565b8a6104d3848887611084565b0135916104ed6104e4858988611084565b8b8101906110a6565b60606104fd878b8a969596611084565b013594608061050d888c8b611084565b013594833b15610585578e968d968f8e978d968a9661055193519c8d9b8c9a8b99638fef16d560e01b8b52169089015287015260a0604487015260a48601916110d8565b916064840152608483015203925af1801561057b579061057692916101d05750611005565b61049b565b88513d89823e3d90fd5b8c80fd5b61020e91508a3d8c11610214576102068183610f97565b9290503461022a576105b136610f22565b8251630ddd3b3160e21b815233858201526001600160a01b039592919060209081816024817f00000000000000000000000000000000000000000000000000000000000000008c165afa90811561021b57906106139186916106ae5750610fd0565b835b828110610620578480f35b87610632610179610174848789611064565b16610641610174838688611064565b8361064d848789611064565b0135823b156106aa57885163f14c1b7960e01b81526001600160a01b03909216828b0190815260208101919091529091879183919082908490829060400103925af180156101df57906106a592916101d05750611005565b610615565b8780fd5b61020e9150833d8511610214576102068183610f97565b9290503461022a57602036600319011261022a5781356001600160401b038111610225576106f69036908401610eed565b8491945b818110610705578280f35b6001600160a01b038061071f61017961017485878c61102a565b169061072f61017484868b61102a565b90823b156103c55760248692838951958694859363b732f2f160e01b8552168c8401525af180156103bb579061076a92916101d05750611005565b6106fa565b9290503461022a57602036600319011261022a5781356001600160401b038111610225576107a09036908401610eed565b8251630ddd3b3160e21b815233858201529094916001600160a01b03916024919060208184817f000000000000000000000000000000000000000000000000000000000000000088165afa90811561021b57906108039186916101ed5750610fd0565b835b878110610810578480f35b83610822610179610174848c8761102a565b16610831610174838b8661102a565b90803b156101e9578751632bd492a160e11b8152918616828a0152869082908690829084905af180156101df579061086e92916101d05750611005565b610805565b9290503461022a5761088436610f22565b8251630ddd3b3160e21b815233858201526001600160a01b039592919060209081816024817f00000000000000000000000000000000000000000000000000000000000000008c165afa90811561021b57906108e69186916106ae5750610fd0565b835b8281106108f3578480f35b87610905610179610174848789611064565b16610914610174838688611064565b83610920848789611064565b0135823b156106aa5788516340e8d70360e01b81526001600160a01b03909216828b0190815260208101919091529091879183919082908490829060400103925af180156101df579061097892916101d05750611005565b6108e8565b9290503461022a57602036600319011261022a5781356001600160401b038111610225576109ae9036908401610eed565b8251630ddd3b3160e21b815233858201529094916001600160a01b03916024919060208184817f000000000000000000000000000000000000000000000000000000000000000088165afa90811561021b5790610a119186916101ed5750610fd0565b835b878110610a1e578480f35b83610a30610179610174848c8761102a565b16610a3f610174838b8661102a565b90803b156101e9578751632d367ead60e21b8152918616828a0152869082908690829084905af180156101df5790610a7c92916101d05750611005565b610a13565b505034610404578160031936011261040457517f00000000000000000000000000000000000000000000000000000000000000006001600160a01b03168152602090f35b50903461030d5760209081600319360112610309578383356001600160401b03811161040457610af89036908601610eed565b8351630ddd3b3160e21b81523387820152919590916001600160a01b037f000000000000000000000000000000000000000000000000000000000000000081169260249288818581885afa90811561057b5790610b5b9188916105895750610fd0565b855b858110610b68578680f35b89610b9b8a8a610ba1858b610b87610b8183838a611109565b806110a6565b969095610b9584848b611109565b01611050565b96611109565b013591883b15610c0a578b5163ba4fe16560e01b8152606087820152938b93859384938a91610bd49160648701916110d8565b92168a84015260448301520381838a5af18015610c005790610bfb92916101d05750611005565b610b5d565b89513d8a823e3d90fd5b8a80fd5b503461030d576020918260031936011261030957838235936001600160401b039485811161030d573660238201121561030d578085013595861161030d576024918282019183369160a08a02010111610309578451630ddd3b3160e21b815233878201526001600160a01b039390828183817f000000000000000000000000000000000000000000000000000000000000000089165afa9081156101df5790610cbd918791610d875750610fd0565b845b888110610cca578580f35b84610cdc610179610174848d89611074565b16878a86866080610d27876060610d1e8288610cfc61017483838c611074565b97610d0883838c611074565b01359a610d1683838c611074565b013598611074565b0135958c611074565b013593853b15610d83578d958c958c958f95889460a497519a8b998a98638e575a8560e01b8a5216908801528c8701526044860152606485015260848401525af1801561057b5790610d7e92916101d05750611005565b610cbf565b8b80fd5b61020e9150843d8611610214576102068183610f97565b929050346103095783602093846003193601126104045783356001600160401b039586821161030957366023830112156103095781860135968711610309576024918281019083369160608b0201011161030557630ddd3b3160e21b845233878501526001600160a01b0393828185817f000000000000000000000000000000000000000000000000000000000000000089165afa9081156101df5790610e4b918791610d875750610fd0565b845b888110610e58578580f35b84610e6a610179610174848d876110f9565b1689610e7a6101748483876110f9565b9189610e9685610e8f89610b9583888c6110f9565b94886110f9565b0135813b15610ee9578a5163010d690960e31b8152938916848d015291881687840152604483019190915287908290606490829084905af1801561057b5790610ee492916101d05750611005565b610e4d565b8980fd5b9181601f84011215610f1d578235916001600160401b038311610f1d576020808501948460051b010111610f1d57565b600080fd5b906020600319830112610f1d576004356001600160401b0392838211610f1d5780602383011215610f1d578160040135938411610f1d5760248460061b83010111610f1d576024019190565b6001600160401b038111610f8157604052565b634e487b7160e01b600052604160045260246000fd5b90601f801991011681019081106001600160401b03821117610f8157604052565b90816020910312610f1d57518015158103610f1d5790565b15610fd757565b60405162461bcd60e51b81526020600482015260066024820152653430333a544160d01b6044820152606490fd5b60001981146110145760010190565b634e487b7160e01b600052601160045260246000fd5b919081101561103a5760051b0190565b634e487b7160e01b600052603260045260246000fd5b356001600160a01b0381168103610f1d5790565b919081101561103a5760061b0190565b919081101561103a5760a0020190565b919081101561103a5760051b81013590609e1981360301821215610f1d570190565b903590601e1981360301821215610f1d57018035906001600160401b038211610f1d57602001918136038313610f1d57565b908060209392818452848401376000828201840152601f01601f1916010190565b919081101561103a576060020190565b919081101561103a5760051b81013590605e1981360301821215610f1d570190565b604051631634c6a360e31b81526001600160a01b03916020908290600490829086165afa90811561119d5760009161116257501690565b6020813d8211611195575b8161117a60209383610f97565b81010312610404575190828216820361119257501690565b80fd5b3d915061116d565b6040513d6000823e3d90fdfea164736f6c6343000811000a",
  "linkReferences": {},
  "deployedLinkReferences": {}
}