{
  "_format": "hh-sol-artifact-1",
  "contractName": "FCNVault",
  "sourceName": "contracts/FCNVault.sol",
  "abi": [
    {
      "inputs": [
        {
          "internalType": "address",
          "name": "_asset",
          "type": "address"
        },
        {
          "internalType": "string",
          "name": "_tokenName",
          "type": "string"
        },
        {
          "internalType": "string",
          "name": "_tokenSymbol",
          "type": "string"
        }
      ],
      "stateMutability": "nonpayable",
      "type": "constructor"
    },
    {
      "anonymous": false,
      "inputs": [
        {
          "indexed": true,
          "internalType": "address",
          "name": "owner",
          "type": "address"
        },
        {
          "indexed": true,
          "internalType": "address",
          "name": "spender",
          "type": "address"
        },
        {
          "indexed": false,
          "internalType": "uint256",
          "name": "value",
          "type": "uint256"
        }
      ],
      "name": "Approval",
      "type": "event"
    },
    {
      "anonymous": false,
      "inputs": [
        {
          "indexed": true,
          "internalType": "address",
          "name": "previousOwner",
          "type": "address"
        },
        {
          "indexed": true,
          "internalType": "address",
          "name": "newOwner",
          "type": "address"
        }
      ],
      "name": "OwnershipTransferred",
      "type": "event"
    },
    {
      "anonymous": false,
      "inputs": [
        {
          "indexed": true,
          "internalType": "address",
          "name": "from",
          "type": "address"
        },
        {
          "indexed": true,
          "internalType": "address",
          "name": "to",
          "type": "address"
        },
        {
          "indexed": false,
          "internalType": "uint256",
          "name": "value",
          "type": "uint256"
        }
      ],
      "name": "Transfer",
      "type": "event"
    },
    {
      "inputs": [
        {
          "internalType": "address",
          "name": "owner",
          "type": "address"
        },
        {
          "internalType": "address",
          "name": "spender",
          "type": "address"
        }
      ],
      "name": "allowance",
      "outputs": [
        {
          "internalType": "uint256",
          "name": "",
          "type": "uint256"
        }
      ],
      "stateMutability": "view",
      "type": "function"
    },
    {
      "inputs": [
        {
          "internalType": "address",
          "name": "spender",
          "type": "address"
        },
        {
          "internalType": "uint256",
          "name": "amount",
          "type": "uint256"
        }
      ],
      "name": "approve",
      "outputs": [
        {
          "internalType": "bool",
          "name": "",
          "type": "bool"
        }
      ],
      "stateMutability": "nonpayable",
      "type": "function"
    },
    {
      "inputs": [],
      "name": "asset",
      "outputs": [
        {
          "internalType": "address",
          "name": "",
          "type": "address"
        }
      ],
      "stateMutability": "view",
      "type": "function"
    },
    {
      "inputs": [
        {
          "internalType": "address",
          "name": "account",
          "type": "address"
        }
      ],
      "name": "balanceOf",
      "outputs": [
        {
          "internalType": "uint256",
          "name": "",
          "type": "uint256"
        }
      ],
      "stateMutability": "view",
      "type": "function"
    },
    {
      "inputs": [
        {
          "internalType": "uint256",
          "name": "shares",
          "type": "uint256"
        }
      ],
      "name": "convertToAssets",
      "outputs": [
        {
          "internalType": "uint256",
          "name": "",
          "type": "uint256"
        }
      ],
      "stateMutability": "view",
      "type": "function"
    },
    {
      "inputs": [
        {
          "internalType": "uint256",
          "name": "assets",
          "type": "uint256"
        }
      ],
      "name": "convertToShares",
      "outputs": [
        {
          "internalType": "uint256",
          "name": "",
          "type": "uint256"
        }
      ],
      "stateMutability": "view",
      "type": "function"
    },
    {
      "inputs": [],
      "name": "decimals",
      "outputs": [
        {
          "internalType": "uint8",
          "name": "",
          "type": "uint8"
        }
      ],
      "stateMutability": "view",
      "type": "function"
    },
    {
      "inputs": [
        {
          "internalType": "address",
          "name": "spender",
          "type": "address"
        },
        {
          "internalType": "uint256",
          "name": "subtractedValue",
          "type": "uint256"
        }
      ],
      "name": "decreaseAllowance",
      "outputs": [
        {
          "internalType": "bool",
          "name": "",
          "type": "bool"
        }
      ],
      "stateMutability": "nonpayable",
      "type": "function"
    },
    {
      "inputs": [
        {
          "internalType": "uint256",
          "name": "assets",
          "type": "uint256"
        },
        {
          "internalType": "address",
          "name": "receiver",
          "type": "address"
        }
      ],
      "name": "deposit",
      "outputs": [
        {
          "internalType": "uint256",
          "name": "",
          "type": "uint256"
        }
      ],
      "stateMutability": "nonpayable",
      "type": "function"
    },
    {
      "inputs": [],
      "name": "fcnProduct",
      "outputs": [
        {
          "internalType": "contract FCNProduct",
          "name": "",
          "type": "address"
        }
      ],
      "stateMutability": "view",
      "type": "function"
    },
    {
      "inputs": [
        {
          "internalType": "address",
          "name": "spender",
          "type": "address"
        },
        {
          "internalType": "uint256",
          "name": "addedValue",
          "type": "uint256"
        }
      ],
      "name": "increaseAllowance",
      "outputs": [
        {
          "internalType": "bool",
          "name": "",
          "type": "bool"
        }
      ],
      "stateMutability": "nonpayable",
      "type": "function"
    },
    {
      "inputs": [],
      "name": "name",
      "outputs": [
        {
          "internalType": "string",
          "name": "",
          "type": "string"
        }
      ],
      "stateMutability": "view",
      "type": "function"
    },
    {
      "inputs": [],
      "name": "owner",
      "outputs": [
        {
          "internalType": "address",
          "name": "",
          "type": "address"
        }
      ],
      "stateMutability": "view",
      "type": "function"
    },
    {
      "inputs": [
        {
          "internalType": "uint256",
          "name": "shares",
          "type": "uint256"
        }
      ],
      "name": "redeem",
      "outputs": [
        {
          "internalType": "uint256",
          "name": "",
          "type": "uint256"
        }
      ],
      "stateMutability": "nonpayable",
      "type": "function"
    },
    {
      "inputs": [],
      "name": "renounceOwnership",
      "outputs": [],
      "stateMutability": "nonpayable",
      "type": "function"
    },
    {
      "inputs": [],
      "name": "symbol",
      "outputs": [
        {
          "internalType": "string",
          "name": "",
          "type": "string"
        }
      ],
      "stateMutability": "view",
      "type": "function"
    },
    {
      "inputs": [],
      "name": "totalAssets",
      "outputs": [
        {
          "internalType": "uint256",
          "name": "",
          "type": "uint256"
        }
      ],
      "stateMutability": "view",
      "type": "function"
    },
    {
      "inputs": [],
      "name": "totalSupply",
      "outputs": [
        {
          "internalType": "uint256",
          "name": "",
          "type": "uint256"
        }
      ],
      "stateMutability": "view",
      "type": "function"
    },
    {
      "inputs": [
        {
          "internalType": "address",
          "name": "to",
          "type": "address"
        },
        {
          "internalType": "uint256",
          "name": "amount",
          "type": "uint256"
        }
      ],
      "name": "transfer",
      "outputs": [
        {
          "internalType": "bool",
          "name": "",
          "type": "bool"
        }
      ],
      "stateMutability": "nonpayable",
      "type": "function"
    },
    {
      "inputs": [
        {
          "internalType": "address",
          "name": "from",
          "type": "address"
        },
        {
          "internalType": "address",
          "name": "to",
          "type": "address"
        },
        {
          "internalType": "uint256",
          "name": "amount",
          "type": "uint256"
        }
      ],
      "name": "transferFrom",
      "outputs": [
        {
          "internalType": "bool",
          "name": "",
          "type": "bool"
        }
      ],
      "stateMutability": "nonpayable",
      "type": "function"
    },
    {
      "inputs": [
        {
          "internalType": "address",
          "name": "newOwner",
          "type": "address"
        }
      ],
      "name": "transferOwnership",
      "outputs": [],
      "stateMutability": "nonpayable",
      "type": "function"
    }
  ],
  "bytecode": "0x6080604052346200038e57620012ef803803806200001d8162000393565b9283398101906060818303126200038e5780516001600160a01b039283821692918390036200038e5760208281015190926001600160401b03918281116200038e57836200006d918301620003b9565b9260408201518381116200038e57620000879201620003b9565b82518281116200028e576003918254916001958684811c9416801562000383575b888510146200036d578190601f9485811162000317575b508890858311600114620002b057600092620002a4575b505060001982861b1c191690861b1783555b80519384116200028e5760049586548681811c9116801562000283575b828210146200026e5783811162000223575b5080928511600114620001b55750938394918492600095620001a9575b50501b92600019911b1c19161790555b600580546001600160a01b0319808216339081179093556040519490939291167f8be0079c531659141344cd1fd0a4f28419497f9722a3daafe3b4186f6b6457e0600080a381600654161760065533906007541617600755610ec390816200042c8239f35b01519350388062000134565b92919084601f1981168860005285600020956000905b89838310620002085750505010620001ed575b50505050811b01905562000144565b01519060f884600019921b161c1916905538808080620001de565b858701518955909701969485019488935090810190620001cb565b87600052816000208480880160051c82019284891062000264575b0160051c019087905b8281106200025757505062000117565b6000815501879062000247565b925081926200023e565b602288634e487b7160e01b6000525260246000fd5b90607f169062000105565b634e487b7160e01b600052604160045260246000fd5b015190503880620000d6565b90889350601f19831691876000528a6000209260005b8c828210620003005750508411620002e7575b505050811b018355620000e8565b015160001983881b60f8161c19169055388080620002d9565b8385015186558c97909501949384019301620002c6565b90915085600052886000208580850160051c8201928b861062000363575b918a91869594930160051c01915b82811062000353575050620000bf565b600081558594508a910162000343565b9250819262000335565b634e487b7160e01b600052602260045260246000fd5b93607f1693620000a8565b600080fd5b6040519190601f01601f191682016001600160401b038111838210176200028e57604052565b919080601f840112156200038e5782516001600160401b0381116200028e57602090620003ef601f8201601f1916830162000393565b928184528282870101116200038e5760005b8181106200041757508260009394955001015290565b85810183015184820184015282016200040156fe6040608081526004908136101561001557600080fd5b600091823560e01c806301e1d114146109bb57806306fdde03146108c757806307a2d13a146108a7578063095ea7b31461087d57806318160ddd1461085e57806323b872dd14610794578063313ce5671461077857806338d52e0f1461074f57806339509351146106ff5780636e553f651461062e57806370a08231146105f7578063715018a61461059a5780638da5cb5b1461057157806395d89b411461046d578063a457c2d7146103c9578063a9059cbb14610398578063b1a635181461036f578063c6e6f59214610348578063db006a7514610223578063dd62ed3e146101d65763f2fde38b1461010857600080fd5b346101d25760203660031901126101d257610121610a21565b9061012a610a52565b6001600160a01b03918216928315610180575050600554826bffffffffffffffffffffffff60a01b821617600555167f8be0079c531659141344cd1fd0a4f28419497f9722a3daafe3b4186f6b6457e08380a380f35b906020608492519162461bcd60e51b8352820152602660248201527f4f776e61626c653a206e6577206f776e657220697320746865207a65726f206160448201526564647265737360d01b6064820152fd5b8280fd5b50503461021f578060031936011261021f57806020926101f4610a21565b6101fc610a3c565b6001600160a01b0391821683526001865283832091168252845220549051908152f35b5080fd5b5090346101d25760209283600319360112610345578235610242610a52565b61024b81610e56565b9333156102f85733835282865283832054908282106102aa575081903384528387520383832055806002540360025582519081527fddf252ad1be2c89b69c2b068fc378daa952ba7f163c4a11628f55a4df523b3ef853392a351908152f35b845162461bcd60e51b8152908101879052602260248201527f45524332303a206275726e20616d6f756e7420657863656564732062616c616e604482015261636560f01b6064820152608490fd5b835162461bcd60e51b8152908101869052602160248201527f45524332303a206275726e2066726f6d20746865207a65726f206164647265736044820152607360f81b6064820152608490fd5b80fd5b509134610345576020366003190112610345575061036860209235610e83565b9051908152f35b50503461021f578160031936011261021f5760075490516001600160a01b039091168152602090f35b50503461021f578060031936011261021f576020906103c26103b8610a21565b6024359033610b05565b5160018152f35b5082346103455782600319360112610345576103e3610a21565b918360243592338152600160205281812060018060a01b038616825260205220549082821061041c576020856103c28585038733610c73565b608490602086519162461bcd60e51b8352820152602560248201527f45524332303a2064656372656173656420616c6c6f77616e63652062656c6f77604482015264207a65726f60d81b6064820152fd5b5091903461021f578160031936011261021f57805191809380549160019083821c92828516948515610567575b60209586861081146105545785895290811561053057506001146104d8575b6104d487876104ca828c0383610aaa565b51918291826109d8565b0390f35b81529295507f8a35acfbc15ff81a39ae7d344fd709f28e8600b4aa8c65c6b64bfe7fe36bd19b5b82841061051d57505050826104d4946104ca928201019438806104b9565b80548685018801529286019281016104ff565b60ff19168887015250505050151560051b83010192506104ca826104d438806104b9565b634e487b7160e01b845260228352602484fd5b93607f169361049a565b50503461021f578160031936011261021f5760055490516001600160a01b039091168152602090f35b83346103455780600319360112610345576105b3610a52565b600580546001600160a01b0319811690915581906001600160a01b03167f8be0079c531659141344cd1fd0a4f28419497f9722a3daafe3b4186f6b6457e08280a380f35b50503461021f57602036600319011261021f5760209181906001600160a01b0361061f610a21565b16815280845220549051908152f35b5090346101d257806003193601126101d257610648610a3c565b91610651610a52565b61065b8135610e83565b926001600160a01b03169081156106bc575060209361067c84600254610ae2565b6002558181528085528281208481540190557fddf252ad1be2c89b69c2b068fc378daa952ba7f163c4a11628f55a4df523b3ef858451868152a351908152f35b606490602084519162461bcd60e51b8352820152601f60248201527f45524332303a206d696e7420746f20746865207a65726f2061646472657373006044820152fd5b50503461021f578060031936011261021f576103c2602092610748610722610a21565b338352600186528483206001600160a01b03821684528652918490205460243590610ae2565b9033610c73565b50503461021f578160031936011261021f5760065490516001600160a01b039091168152602090f35b50503461021f578160031936011261021f576020905160068152f35b5082903461021f57606036600319011261021f576107b0610a21565b6107b8610a3c565b91846044359460018060a01b0384168152600160205281812033825260205220549060001982036107f2575b6020866103c2878787610b05565b84821061081b5750918391610810602096956103c295033383610c73565b9193948193506107e4565b606490602087519162461bcd60e51b8352820152601d60248201527f45524332303a20696e73756666696369656e7420616c6c6f77616e63650000006044820152fd5b50503461021f578160031936011261021f576020906002549051908152f35b50503461021f578060031936011261021f576020906103c261089d610a21565b6024359033610c73565b509134610345576020366003190112610345575061036860209235610e56565b5090346101d257826003193601126101d257805191836003549060019082821c9282811680156109b1575b602095868610821461099e575084885290811561097c5750600114610923575b6104d486866104ca828b0383610aaa565b929550600383527fc2575a0e9e593c00f959f8c92f12db2869c3395a3b0502d05e2516446f71f85b5b82841061096957505050826104d4946104ca928201019438610912565b805486850188015292860192810161094c565b60ff191687860152505050151560051b83010192506104ca826104d438610912565b634e487b7160e01b845260229052602483fd5b93607f16936108f2565b50503461021f578160031936011261021f57602090610368610d75565b6020808252825181830181905290939260005b828110610a0d57505060409293506000838284010152601f8019910116010190565b8181018601518482016040015285016109eb565b600435906001600160a01b0382168203610a3757565b600080fd5b602435906001600160a01b0382168203610a3757565b6005546001600160a01b03163303610a6657565b606460405162461bcd60e51b815260206004820152602060248201527f4f776e61626c653a2063616c6c6572206973206e6f7420746865206f776e65726044820152fd5b90601f8019910116810190811067ffffffffffffffff821117610acc57604052565b634e487b7160e01b600052604160045260246000fd5b91908201809211610aef57565b634e487b7160e01b600052601160045260246000fd5b6001600160a01b03908116918215610c205716918215610bcf57600082815280602052604081205491808310610b7b57604082827fddf252ad1be2c89b69c2b068fc378daa952ba7f163c4a11628f55a4df523b3ef958760209652828652038282205586815220818154019055604051908152a3565b60405162461bcd60e51b815260206004820152602660248201527f45524332303a207472616e7366657220616d6f756e7420657863656564732062604482015265616c616e636560d01b6064820152608490fd5b60405162461bcd60e51b815260206004820152602360248201527f45524332303a207472616e7366657220746f20746865207a65726f206164647260448201526265737360e81b6064820152608490fd5b60405162461bcd60e51b815260206004820152602560248201527f45524332303a207472616e736665722066726f6d20746865207a65726f206164604482015264647265737360d81b6064820152608490fd5b6001600160a01b03908116918215610d245716918215610cd45760207f8c5be1e5ebec7d5bd14f71427d1e84f3dd0314c0f7b2291e5b200ac8c7c3b925918360005260018252604060002085600052825280604060002055604051908152a3565b60405162461bcd60e51b815260206004820152602260248201527f45524332303a20617070726f766520746f20746865207a65726f206164647265604482015261737360f01b6064820152608490fd5b60405162461bcd60e51b8152602060048201526024808201527f45524332303a20617070726f76652066726f6d20746865207a65726f206164646044820152637265737360e01b6064820152608490fd5b600754604051632988bb9f60e21b81523060048201526001600160a01b0391610200919082908290602490829087165afa918215610e1757600092610dbc575b5050905090565b81813d8311610e10575b610dd08183610aaa565b8101031261021f5760a0810151926101a08201519081160361021f5760096101c0820151101561021f576101e00151801515036103455750803880610db5565b503d610dc6565b6040513d6000823e3d90fd5b81810292918115918404141715610aef57565b8115610e40570490565b634e487b7160e01b600052601260045260246000fd5b6002548015610e7c57610e74610e7992610e6e610d75565b90610e23565b610e36565b90565b5050600090565b600254610e8e610d75565b9081158015610eae575b610ea957610e7490610e7993610e23565b505090565b508015610e9856fea164736f6c6343000811000a",
  "linkReferences": {},
  "deployedLinkReferences": {}
}