{
  "_format": "hh-sol-artifact-1",
  "contractName": "LOVProduct",
  "sourceName": "contracts/LOVProduct.sol",
  "abi": [
    {
      "inputs": [
        {
          "internalType": "address",
          "name": "_cegaState",
          "type": "address"
        },
        {
          "internalType": "address",
          "name": "_asset",
          "type": "address"
        },
        {
          "internalType": "string",
          "name": "_name",
          "type": "string"
        },
        {
          "internalType": "uint256",
          "name": "_managementFeeBps",
          "type": "uint256"
        },
        {
          "internalType": "uint256",
          "name": "_yieldFeeBps",
          "type": "uint256"
        },
        {
          "internalType": "uint256",
          "name": "_maxDepositAmountLimit",
          "type": "uint256"
        },
        {
          "internalType": "uint256",
          "name": "_minDepositAmount",
          "type": "uint256"
        },
        {
          "internalType": "uint256",
          "name": "_minWithdrawalAmount",
          "type": "uint256"
        },
        {
          "internalType": "uint256[]",
          "name": "_initialLeverages",
          "type": "uint256[]"
        }
      ],
      "stateMutability": "nonpayable",
      "type": "constructor"
    },
    {
      "anonymous": false,
      "inputs": [
        {
          "indexed": true,
          "internalType": "address",
          "name": "vaultAddress",
          "type": "address"
        },
        {
          "indexed": false,
          "internalType": "uint256",
          "name": "amount",
          "type": "uint256"
        }
      ],
      "name": "AssetsReceivedFromCegaState",
      "type": "event"
    },
    {
      "anonymous": false,
      "inputs": [
        {
          "indexed": true,
          "internalType": "address",
          "name": "vaultAddress",
          "type": "address"
        },
        {
          "indexed": true,
          "internalType": "address",
          "name": "receiver",
          "type": "address"
        },
        {
          "indexed": false,
          "internalType": "uint256",
          "name": "amount",
          "type": "uint256"
        },
        {
          "indexed": false,
          "internalType": "enum VaultStatus",
          "name": "vaultStatus",
          "type": "uint8"
        }
      ],
      "name": "AssetsSentToTrade",
      "type": "event"
    },
    {
      "anonymous": false,
      "inputs": [
        {
          "indexed": true,
          "internalType": "address",
          "name": "vaultAddress",
          "type": "address"
        },
        {
          "indexed": false,
          "internalType": "bool",
          "name": "isKnockedIn",
          "type": "bool"
        }
      ],
      "name": "BarriersChecked",
      "type": "event"
    },
    {
      "anonymous": false,
      "inputs": [
        {
          "indexed": true,
          "internalType": "address",
          "name": "vaultAddress",
          "type": "address"
        },
        {
          "indexed": true,
          "internalType": "address",
          "name": "receiver",
          "type": "address"
        },
        {
          "indexed": false,
          "internalType": "uint256",
          "name": "amount",
          "type": "uint256"
        }
      ],
      "name": "DepositProcessed",
      "type": "event"
    },
    {
      "anonymous": false,
      "inputs": [
        {
          "indexed": true,
          "internalType": "address",
          "name": "receiver",
          "type": "address"
        },
        {
          "indexed": false,
          "internalType": "uint256",
          "name": "leverage",
          "type": "uint256"
        },
        {
          "indexed": false,
          "internalType": "uint256",
          "name": "amount",
          "type": "uint256"
        }
      ],
      "name": "DepositQueued",
      "type": "event"
    },
    {
      "anonymous": false,
      "inputs": [
        {
          "indexed": true,
          "internalType": "address",
          "name": "vaultAddress",
          "type": "address"
        },
        {
          "indexed": false,
          "internalType": "uint256",
          "name": "managementFee",
          "type": "uint256"
        },
        {
          "indexed": false,
          "internalType": "uint256",
          "name": "yieldFee",
          "type": "uint256"
        },
        {
          "indexed": false,
          "internalType": "uint256",
          "name": "totalFee",
          "type": "uint256"
        },
        {
          "indexed": false,
          "internalType": "enum VaultStatus",
          "name": "vaultStatus",
          "type": "uint8"
        }
      ],
      "name": "FeesCollected",
      "type": "event"
    },
    {
      "anonymous": false,
      "inputs": [
        {
          "indexed": false,
          "internalType": "uint256",
          "name": "leverage",
          "type": "uint256"
        },
        {
          "indexed": false,
          "internalType": "bool",
          "name": "isDepositQueueOpen",
          "type": "bool"
        }
      ],
      "name": "IsDepositQueueOpenUpdated",
      "type": "event"
    },
    {
      "anonymous": false,
      "inputs": [
        {
          "indexed": true,
          "internalType": "address",
          "name": "vaultAddress",
          "type": "address"
        },
        {
          "indexed": false,
          "internalType": "bool",
          "name": "isKnockIn",
          "type": "bool"
        }
      ],
      "name": "KnockInStatusUpdated",
      "type": "event"
    },
    {
      "anonymous": false,
      "inputs": [
        {
          "indexed": true,
          "internalType": "address",
          "name": "cegaState",
          "type": "address"
        },
        {
          "indexed": true,
          "internalType": "address",
          "name": "asset",
          "type": "address"
        },
        {
          "indexed": false,
          "internalType": "string",
          "name": "name",
          "type": "string"
        },
        {
          "indexed": false,
          "internalType": "uint256",
          "name": "managementFeeBps",
          "type": "uint256"
        },
        {
          "indexed": false,
          "internalType": "uint256",
          "name": "yieldFeeBps",
          "type": "uint256"
        },
        {
          "indexed": false,
          "internalType": "uint256",
          "name": "maxDepositAmountLimit",
          "type": "uint256"
        },
        {
          "indexed": false,
          "internalType": "uint256",
          "name": "minDepositAmount",
          "type": "uint256"
        },
        {
          "indexed": false,
          "internalType": "uint256",
          "name": "minWithdrawalAmount",
          "type": "uint256"
        },
        {
          "indexed": false,
          "internalType": "uint256[]",
          "name": "initialLeverages",
          "type": "uint256[]"
        }
      ],
      "name": "LOVProductCreated",
      "type": "event"
    },
    {
      "anonymous": false,
      "inputs": [
        {
          "indexed": false,
          "internalType": "uint256",
          "name": "leverage",
          "type": "uint256"
        },
        {
          "indexed": false,
          "internalType": "bool",
          "name": "isAllowed",
          "type": "bool"
        }
      ],
      "name": "LeverageUpdated",
      "type": "event"
    },
    {
      "anonymous": false,
      "inputs": [
        {
          "indexed": false,
          "internalType": "uint256",
          "name": "managementFeeBps",
          "type": "uint256"
        }
      ],
      "name": "ManagementFeeBpsUpdated",
      "type": "event"
    },
    {
      "anonymous": false,
      "inputs": [
        {
          "indexed": false,
          "internalType": "uint256",
          "name": "leverage",
          "type": "uint256"
        },
        {
          "indexed": false,
          "internalType": "uint256",
          "name": "maxDepositAmountLimit",
          "type": "uint256"
        }
      ],
      "name": "MaxDepositAmountLimitUpdated",
      "type": "event"
    },
    {
      "anonymous": false,
      "inputs": [
        {
          "indexed": false,
          "internalType": "uint256",
          "name": "minDepositAmount",
          "type": "uint256"
        }
      ],
      "name": "MinDepositAmountUpdated",
      "type": "event"
    },
    {
      "anonymous": false,
      "inputs": [
        {
          "indexed": false,
          "internalType": "uint256",
          "name": "minWithdrawalAmount",
          "type": "uint256"
        }
      ],
      "name": "MinWithdrawalAmountUpdated",
      "type": "event"
    },
    {
      "anonymous": false,
      "inputs": [
        {
          "indexed": true,
          "internalType": "address",
          "name": "vaultAddress",
          "type": "address"
        },
        {
          "indexed": false,
          "internalType": "uint256",
          "name": "barrierBps",
          "type": "uint256"
        },
        {
          "indexed": false,
          "internalType": "uint256",
          "name": "barrierAbsoluteValue",
          "type": "uint256"
        },
        {
          "indexed": false,
          "internalType": "uint256",
          "name": "strikeBps",
          "type": "uint256"
        },
        {
          "indexed": false,
          "internalType": "uint256",
          "name": "strikeAbsoluteValue",
          "type": "uint256"
        },
        {
          "indexed": false,
          "internalType": "string",
          "name": "asset",
          "type": "string"
        },
        {
          "indexed": false,
          "internalType": "string",
          "name": "oracleName",
          "type": "string"
        },
        {
          "indexed": false,
          "internalType": "enum OptionBarrierType",
          "name": "barrierType",
          "type": "uint8"
        }
      ],
      "name": "OptionBarrierAdded",
      "type": "event"
    },
    {
      "anonymous": false,
      "inputs": [
        {
          "indexed": true,
          "internalType": "address",
          "name": "vaultAddress",
          "type": "address"
        },
        {
          "indexed": false,
          "internalType": "uint256",
          "name": "index",
          "type": "uint256"
        },
        {
          "indexed": false,
          "internalType": "string",
          "name": "_asset",
          "type": "string"
        },
        {
          "indexed": false,
          "internalType": "string",
          "name": "_oracleName",
          "type": "string"
        }
      ],
      "name": "OptionBarrierOracleUpdated",
      "type": "event"
    },
    {
      "anonymous": false,
      "inputs": [
        {
          "indexed": true,
          "internalType": "address",
          "name": "vaultAddress",
          "type": "address"
        },
        {
          "indexed": false,
          "internalType": "uint256",
          "name": "index",
          "type": "uint256"
        },
        {
          "indexed": false,
          "internalType": "string",
          "name": "asset",
          "type": "string"
        }
      ],
      "name": "OptionBarrierRemoved",
      "type": "event"
    },
    {
      "anonymous": false,
      "inputs": [
        {
          "indexed": true,
          "internalType": "address",
          "name": "vaultAddress",
          "type": "address"
        },
        {
          "indexed": false,
          "internalType": "uint256",
          "name": "index",
          "type": "uint256"
        },
        {
          "indexed": false,
          "internalType": "string",
          "name": "_asset",
          "type": "string"
        },
        {
          "indexed": false,
          "internalType": "uint256",
          "name": "_strikeAbsoluteValue",
          "type": "uint256"
        },
        {
          "indexed": false,
          "internalType": "uint256",
          "name": "_barrierAbsoluteValue",
          "type": "uint256"
        }
      ],
      "name": "OptionBarrierUpated",
      "type": "event"
    },
    {
      "anonymous": false,
      "inputs": [
        {
          "indexed": true,
          "internalType": "address",
          "name": "vaultAddress",
          "type": "address"
        },
        {
          "indexed": false,
          "internalType": "uint256",
          "name": "_tradeDate",
          "type": "uint256"
        },
        {
          "indexed": false,
          "internalType": "uint256",
          "name": "_tradeExpiry",
          "type": "uint256"
        },
        {
          "indexed": false,
          "internalType": "uint256",
          "name": "_aprBps",
          "type": "uint256"
        },
        {
          "indexed": false,
          "internalType": "uint256",
          "name": "_tenorInDays",
          "type": "uint256"
        }
      ],
      "name": "TradeDataSet",
      "type": "event"
    },
    {
      "anonymous": false,
      "inputs": [
        {
          "indexed": true,
          "internalType": "address",
          "name": "vaultAddress",
          "type": "address"
        },
        {
          "indexed": false,
          "internalType": "string",
          "name": "_tokenSymbol",
          "type": "string"
        },
        {
          "indexed": false,
          "internalType": "string",
          "name": "_tokenName",
          "type": "string"
        },
        {
          "indexed": false,
          "internalType": "uint256",
          "name": "_vaultStart",
          "type": "uint256"
        },
        {
          "indexed": false,
          "internalType": "uint256",
          "name": "_leverage",
          "type": "uint256"
        }
      ],
      "name": "VaultCreated",
      "type": "event"
    },
    {
      "anonymous": false,
      "inputs": [
        {
          "indexed": true,
          "internalType": "address",
          "name": "vaultAddress",
          "type": "address"
        },
        {
          "indexed": false,
          "internalType": "uint256",
          "name": "finalPayoffAmount",
          "type": "uint256"
        },
        {
          "indexed": false,
          "internalType": "enum VaultStatus",
          "name": "vaultStatus",
          "type": "uint8"
        }
      ],
      "name": "VaultFinalPayoffCalculated",
      "type": "event"
    },
    {
      "anonymous": false,
      "inputs": [
        {
          "indexed": true,
          "internalType": "address",
          "name": "vaultAddress",
          "type": "address"
        }
      ],
      "name": "VaultMetadataUpdated",
      "type": "event"
    },
    {
      "anonymous": false,
      "inputs": [
        {
          "indexed": true,
          "internalType": "address",
          "name": "vaultAddress",
          "type": "address"
        }
      ],
      "name": "VaultRemoved",
      "type": "event"
    },
    {
      "anonymous": false,
      "inputs": [
        {
          "indexed": true,
          "internalType": "address",
          "name": "vaultAddress",
          "type": "address"
        },
        {
          "indexed": false,
          "internalType": "uint256",
          "name": "vaultStart",
          "type": "uint256"
        },
        {
          "indexed": false,
          "internalType": "enum VaultStatus",
          "name": "vaultStatus",
          "type": "uint8"
        }
      ],
      "name": "VaultRollover",
      "type": "event"
    },
    {
      "anonymous": false,
      "inputs": [
        {
          "indexed": true,
          "internalType": "address",
          "name": "vaultAddress",
          "type": "address"
        },
        {
          "indexed": false,
          "internalType": "enum VaultStatus",
          "name": "vaultStatus",
          "type": "uint8"
        }
      ],
      "name": "VaultStatusUpdated",
      "type": "event"
    },
    {
      "anonymous": false,
      "inputs": [
        {
          "indexed": true,
          "internalType": "address",
          "name": "vaultAddress",
          "type": "address"
        },
        {
          "indexed": true,
          "internalType": "address",
          "name": "receiver",
          "type": "address"
        },
        {
          "indexed": false,
          "internalType": "uint256",
          "name": "amountShares",
          "type": "uint256"
        },
        {
          "indexed": false,
          "internalType": "uint256",
          "name": "amountAssets",
          "type": "uint256"
        }
      ],
      "name": "WithdrawalProcessed",
      "type": "event"
    },
    {
      "anonymous": false,
      "inputs": [
        {
          "indexed": true,
          "internalType": "address",
          "name": "vaultAddress",
          "type": "address"
        },
        {
          "indexed": true,
          "internalType": "address",
          "name": "receiver",
          "type": "address"
        },
        {
          "indexed": false,
          "internalType": "uint256",
          "name": "amountShares",
          "type": "uint256"
        }
      ],
      "name": "WithdrawalQueued",
      "type": "event"
    },
    {
      "anonymous": false,
      "inputs": [
        {
          "indexed": false,
          "internalType": "uint256",
          "name": "yieldFeeBps",
          "type": "uint256"
        }
      ],
      "name": "YieldFeeBpsUpdated",
      "type": "event"
    },
    {
      "inputs": [
        {
          "internalType": "address",
          "name": "vaultAddress",
          "type": "address"
        },
        {
          "components": [
            {
              "internalType": "uint256",
              "name": "barrierBps",
              "type": "uint256"
            },
            {
              "internalType": "uint256",
              "name": "barrierAbsoluteValue",
              "type": "uint256"
            },
            {
              "internalType": "uint256",
              "name": "strikeBps",
              "type": "uint256"
            },
            {
              "internalType": "uint256",
              "name": "strikeAbsoluteValue",
              "type": "uint256"
            },
            {
              "internalType": "string",
              "name": "asset",
              "type": "string"
            },
            {
              "internalType": "string",
              "name": "oracleName",
              "type": "string"
            },
            {
              "internalType": "enum OptionBarrierType",
              "name": "barrierType",
              "type": "uint8"
            }
          ],
          "internalType": "struct OptionBarrier",
          "name": "optionBarrier",
          "type": "tuple"
        }
      ],
      "name": "addOptionBarrier",
      "outputs": [],
      "stateMutability": "nonpayable",
      "type": "function"
    },
    {
      "inputs": [
        {
          "internalType": "uint256",
          "name": "leverage",
          "type": "uint256"
        },
        {
          "internalType": "uint256",
          "name": "amount",
          "type": "uint256"
        }
      ],
      "name": "addToDepositQueue",
      "outputs": [],
      "stateMutability": "nonpayable",
      "type": "function"
    },
    {
      "inputs": [
        {
          "internalType": "address",
          "name": "vaultAddress",
          "type": "address"
        },
        {
          "internalType": "uint256",
          "name": "amountShares",
          "type": "uint256"
        }
      ],
      "name": "addToWithdrawalQueue",
      "outputs": [],
      "stateMutability": "nonpayable",
      "type": "function"
    },
    {
      "inputs": [],
      "name": "asset",
      "outputs": [
        {
          "internalType": "address",
          "name": "",
          "type": "address"
        }
      ],
      "stateMutability": "view",
      "type": "function"
    },
    {
      "inputs": [
        {
          "internalType": "address",
          "name": "vaultAddress",
          "type": "address"
        }
      ],
      "name": "calculateCurrentYield",
      "outputs": [],
      "stateMutability": "nonpayable",
      "type": "function"
    },
    {
      "inputs": [
        {
          "internalType": "address",
          "name": "vaultAddress",
          "type": "address"
        }
      ],
      "name": "calculateVaultFinalPayoff",
      "outputs": [
        {
          "internalType": "uint256",
          "name": "vaultFinalPayoff",
          "type": "uint256"
        }
      ],
      "stateMutability": "nonpayable",
      "type": "function"
    },
    {
      "inputs": [],
      "name": "cegaState",
      "outputs": [
        {
          "internalType": "contract ICegaState",
          "name": "",
          "type": "address"
        }
      ],
      "stateMutability": "view",
      "type": "function"
    },
    {
      "inputs": [
        {
          "internalType": "address",
          "name": "vaultAddress",
          "type": "address"
        }
      ],
      "name": "checkBarriers",
      "outputs": [],
      "stateMutability": "nonpayable",
      "type": "function"
    },
    {
      "inputs": [
        {
          "internalType": "address",
          "name": "vaultAddress",
          "type": "address"
        }
      ],
      "name": "collectFees",
      "outputs": [],
      "stateMutability": "nonpayable",
      "type": "function"
    },
    {
      "inputs": [
        {
          "internalType": "string",
          "name": "_tokenName",
          "type": "string"
        },
        {
          "internalType": "string",
          "name": "_tokenSymbol",
          "type": "string"
        },
        {
          "internalType": "uint256",
          "name": "_vaultStart",
          "type": "uint256"
        },
        {
          "internalType": "uint256",
          "name": "_leverage",
          "type": "uint256"
        }
      ],
      "name": "createVault",
      "outputs": [
        {
          "internalType": "address",
          "name": "vaultAddress",
          "type": "address"
        }
      ],
      "stateMutability": "nonpayable",
      "type": "function"
    },
    {
      "inputs": [
        {
          "internalType": "uint256",
          "name": "",
          "type": "uint256"
        },
        {
          "internalType": "uint256",
          "name": "",
          "type": "uint256"
        }
      ],
      "name": "depositQueues",
      "outputs": [
        {
          "internalType": "uint256",
          "name": "amount",
          "type": "uint256"
        },
        {
          "internalType": "address",
          "name": "receiver",
          "type": "address"
        }
      ],
      "stateMutability": "view",
      "type": "function"
    },
    {
      "inputs": [
        {
          "internalType": "uint256",
          "name": "leverage",
          "type": "uint256"
        }
      ],
      "name": "getDepositQueueCount",
      "outputs": [
        {
          "internalType": "uint256",
          "name": "",
          "type": "uint256"
        }
      ],
      "stateMutability": "view",
      "type": "function"
    },
    {
      "inputs": [
        {
          "internalType": "uint256",
          "name": "leverage",
          "type": "uint256"
        }
      ],
      "name": "getVaultAddresses",
      "outputs": [
        {
          "internalType": "address[]",
          "name": "",
          "type": "address[]"
        }
      ],
      "stateMutability": "view",
      "type": "function"
    },
    {
      "inputs": [
        {
          "internalType": "address",
          "name": "vaultAddress",
          "type": "address"
        }
      ],
      "name": "getVaultMetadata",
      "outputs": [
        {
          "components": [
            {
              "internalType": "uint256",
              "name": "vaultStart",
              "type": "uint256"
            },
            {
              "internalType": "uint256",
              "name": "tradeDate",
              "type": "uint256"
            },
            {
              "internalType": "uint256",
              "name": "tradeExpiry",
              "type": "uint256"
            },
            {
              "internalType": "uint256",
              "name": "aprBps",
              "type": "uint256"
            },
            {
              "internalType": "uint256",
              "name": "tenorInDays",
              "type": "uint256"
            },
            {
              "internalType": "uint256",
              "name": "underlyingAmount",
              "type": "uint256"
            },
            {
              "internalType": "uint256",
              "name": "currentAssetAmount",
              "type": "uint256"
            },
            {
              "internalType": "uint256",
              "name": "totalCouponPayoff",
              "type": "uint256"
            },
            {
              "internalType": "uint256",
              "name": "vaultFinalPayoff",
              "type": "uint256"
            },
            {
              "internalType": "uint256",
              "name": "queuedWithdrawalsSharesAmount",
              "type": "uint256"
            },
            {
              "internalType": "uint256",
              "name": "queuedWithdrawalsCount",
              "type": "uint256"
            },
            {
              "internalType": "uint256",
              "name": "optionBarriersCount",
              "type": "uint256"
            },
            {
              "internalType": "uint256",
              "name": "leverage",
              "type": "uint256"
            },
            {
              "internalType": "address",
              "name": "vaultAddress",
              "type": "address"
            },
            {
              "internalType": "enum VaultStatus",
              "name": "vaultStatus",
              "type": "uint8"
            },
            {
              "internalType": "bool",
              "name": "isKnockedIn",
              "type": "bool"
            },
            {
              "components": [
                {
                  "internalType": "uint256",
                  "name": "barrierBps",
                  "type": "uint256"
                },
                {
                  "internalType": "uint256",
                  "name": "barrierAbsoluteValue",
                  "type": "uint256"
                },
                {
                  "internalType": "uint256",
                  "name": "strikeBps",
                  "type": "uint256"
                },
                {
                  "internalType": "uint256",
                  "name": "strikeAbsoluteValue",
                  "type": "uint256"
                },
                {
                  "internalType": "string",
                  "name": "asset",
                  "type": "string"
                },
                {
                  "internalType": "string",
                  "name": "oracleName",
                  "type": "string"
                },
                {
                  "internalType": "enum OptionBarrierType",
                  "name": "barrierType",
                  "type": "uint8"
                }
              ],
              "internalType": "struct OptionBarrier[]",
              "name": "optionBarriers",
              "type": "tuple[]"
            }
          ],
          "internalType": "struct FCNVaultMetadata",
          "name": "",
          "type": "tuple"
        }
      ],
      "stateMutability": "view",
      "type": "function"
    },
    {
      "inputs": [
        {
          "internalType": "uint256",
          "name": "",
          "type": "uint256"
        }
      ],
      "name": "leverages",
      "outputs": [
        {
          "internalType": "bool",
          "name": "isAllowed",
          "type": "bool"
        },
        {
          "internalType": "bool",
          "name": "isDepositQueueOpen",
          "type": "bool"
        },
        {
          "internalType": "uint256",
          "name": "maxDepositAmountLimit",
          "type": "uint256"
        },
        {
          "internalType": "uint256",
          "name": "sumVaultUnderlyingAmounts",
          "type": "uint256"
        },
        {
          "internalType": "uint256",
          "name": "queuedDepositsTotalAmount",
          "type": "uint256"
        }
      ],
      "stateMutability": "view",
      "type": "function"
    },
    {
      "inputs": [],
      "name": "managementFeeBps",
      "outputs": [
        {
          "internalType": "uint256",
          "name": "",
          "type": "uint256"
        }
      ],
      "stateMutability": "view",
      "type": "function"
    },
    {
      "inputs": [],
      "name": "minDepositAmount",
      "outputs": [
        {
          "internalType": "uint256",
          "name": "",
          "type": "uint256"
        }
      ],
      "stateMutability": "view",
      "type": "function"
    },
    {
      "inputs": [],
      "name": "minWithdrawalAmount",
      "outputs": [
        {
          "internalType": "uint256",
          "name": "",
          "type": "uint256"
        }
      ],
      "stateMutability": "view",
      "type": "function"
    },
    {
      "inputs": [],
      "name": "name",
      "outputs": [
        {
          "internalType": "string",
          "name": "",
          "type": "string"
        }
      ],
      "stateMutability": "view",
      "type": "function"
    },
    {
      "inputs": [
        {
          "internalType": "address",
          "name": "vaultAddress",
          "type": "address"
        }
      ],
      "name": "openVaultDeposits",
      "outputs": [],
      "stateMutability": "nonpayable",
      "type": "function"
    },
    {
      "inputs": [
        {
          "internalType": "address",
          "name": "vaultAddress",
          "type": "address"
        },
        {
          "internalType": "uint256",
          "name": "maxProcessCount",
          "type": "uint256"
        }
      ],
      "name": "processDepositQueue",
      "outputs": [],
      "stateMutability": "nonpayable",
      "type": "function"
    },
    {
      "inputs": [
        {
          "internalType": "address",
          "name": "vaultAddress",
          "type": "address"
        },
        {
          "internalType": "uint256",
          "name": "maxProcessCount",
          "type": "uint256"
        }
      ],
      "name": "processWithdrawalQueue",
      "outputs": [],
      "stateMutability": "nonpayable",
      "type": "function"
    },
    {
      "inputs": [
        {
          "internalType": "address",
          "name": "vaultAddress",
          "type": "address"
        },
        {
          "internalType": "uint256",
          "name": "amount",
          "type": "uint256"
        }
      ],
      "name": "receiveAssetsFromCegaState",
      "outputs": [],
      "stateMutability": "nonpayable",
      "type": "function"
    },
    {
      "inputs": [
        {
          "internalType": "address",
          "name": "vaultAddress",
          "type": "address"
        },
        {
          "internalType": "uint256",
          "name": "index",
          "type": "uint256"
        },
        {
          "internalType": "string",
          "name": "_asset",
          "type": "string"
        }
      ],
      "name": "removeOptionBarrier",
      "outputs": [],
      "stateMutability": "nonpayable",
      "type": "function"
    },
    {
      "inputs": [
        {
          "internalType": "uint256",
          "name": "leverage",
          "type": "uint256"
        },
        {
          "internalType": "uint256",
          "name": "i",
          "type": "uint256"
        }
      ],
      "name": "removeVault",
      "outputs": [],
      "stateMutability": "nonpayable",
      "type": "function"
    },
    {
      "inputs": [
        {
          "internalType": "address",
          "name": "vaultAddress",
          "type": "address"
        }
      ],
      "name": "rolloverVault",
      "outputs": [],
      "stateMutability": "nonpayable",
      "type": "function"
    },
    {
      "inputs": [
        {
          "internalType": "address",
          "name": "vaultAddress",
          "type": "address"
        },
        {
          "internalType": "address",
          "name": "receiver",
          "type": "address"
        },
        {
          "internalType": "uint256",
          "name": "amount",
          "type": "uint256"
        }
      ],
      "name": "sendAssetsToTrade",
      "outputs": [],
      "stateMutability": "nonpayable",
      "type": "function"
    },
    {
      "inputs": [
        {
          "internalType": "uint256",
          "name": "_leverage",
          "type": "uint256"
        },
        {
          "internalType": "bool",
          "name": "_isDepositQueueOpen",
          "type": "bool"
        }
      ],
      "name": "setIsDepositQueueOpen",
      "outputs": [],
      "stateMutability": "nonpayable",
      "type": "function"
    },
    {
      "inputs": [
        {
          "internalType": "address",
          "name": "vaultAddress",
          "type": "address"
        },
        {
          "internalType": "bool",
          "name": "newState",
          "type": "bool"
        }
      ],
      "name": "setKnockInStatus",
      "outputs": [],
      "stateMutability": "nonpayable",
      "type": "function"
    },
    {
      "inputs": [
        {
          "internalType": "uint256",
          "name": "_managementFeeBps",
          "type": "uint256"
        }
      ],
      "name": "setManagementFeeBps",
      "outputs": [],
      "stateMutability": "nonpayable",
      "type": "function"
    },
    {
      "inputs": [
        {
          "internalType": "uint256",
          "name": "_leverage",
          "type": "uint256"
        },
        {
          "internalType": "uint256",
          "name": "_maxDepositAmountLimit",
          "type": "uint256"
        }
      ],
      "name": "setMaxDepositAmountLimit",
      "outputs": [],
      "stateMutability": "nonpayable",
      "type": "function"
    },
    {
      "inputs": [
        {
          "internalType": "uint256",
          "name": "_minDepositAmount",
          "type": "uint256"
        }
      ],
      "name": "setMinDepositAmount",
      "outputs": [],
      "stateMutability": "nonpayable",
      "type": "function"
    },
    {
      "inputs": [
        {
          "internalType": "uint256",
          "name": "_minWithdrawalAmount",
          "type": "uint256"
        }
      ],
      "name": "setMinWithdrawalAmount",
      "outputs": [],
      "stateMutability": "nonpayable",
      "type": "function"
    },
    {
      "inputs": [
        {
          "internalType": "address",
          "name": "vaultAddress",
          "type": "address"
        },
        {
          "internalType": "uint256",
          "name": "_tradeDate",
          "type": "uint256"
        },
        {
          "internalType": "uint256",
          "name": "_tradeExpiry",
          "type": "uint256"
        },
        {
          "internalType": "uint256",
          "name": "_aprBps",
          "type": "uint256"
        },
        {
          "internalType": "uint256",
          "name": "_tenorInDays",
          "type": "uint256"
        }
      ],
      "name": "setTradeData",
      "outputs": [],
      "stateMutability": "nonpayable",
      "type": "function"
    },
    {
      "inputs": [
        {
          "internalType": "address",
          "name": "vaultAddress",
          "type": "address"
        },
        {
          "components": [
            {
              "internalType": "uint256",
              "name": "vaultStart",
              "type": "uint256"
            },
            {
              "internalType": "uint256",
              "name": "tradeDate",
              "type": "uint256"
            },
            {
              "internalType": "uint256",
              "name": "tradeExpiry",
              "type": "uint256"
            },
            {
              "internalType": "uint256",
              "name": "aprBps",
              "type": "uint256"
            },
            {
              "internalType": "uint256",
              "name": "tenorInDays",
              "type": "uint256"
            },
            {
              "internalType": "uint256",
              "name": "underlyingAmount",
              "type": "uint256"
            },
            {
              "internalType": "uint256",
              "name": "currentAssetAmount",
              "type": "uint256"
            },
            {
              "internalType": "uint256",
              "name": "totalCouponPayoff",
              "type": "uint256"
            },
            {
              "internalType": "uint256",
              "name": "vaultFinalPayoff",
              "type": "uint256"
            },
            {
              "internalType": "uint256",
              "name": "queuedWithdrawalsSharesAmount",
              "type": "uint256"
            },
            {
              "internalType": "uint256",
              "name": "queuedWithdrawalsCount",
              "type": "uint256"
            },
            {
              "internalType": "uint256",
              "name": "optionBarriersCount",
              "type": "uint256"
            },
            {
              "internalType": "uint256",
              "name": "leverage",
              "type": "uint256"
            },
            {
              "internalType": "address",
              "name": "vaultAddress",
              "type": "address"
            },
            {
              "internalType": "enum VaultStatus",
              "name": "vaultStatus",
              "type": "uint8"
            },
            {
              "internalType": "bool",
              "name": "isKnockedIn",
              "type": "bool"
            },
            {
              "components": [
                {
                  "internalType": "uint256",
                  "name": "barrierBps",
                  "type": "uint256"
                },
                {
                  "internalType": "uint256",
                  "name": "barrierAbsoluteValue",
                  "type": "uint256"
                },
                {
                  "internalType": "uint256",
                  "name": "strikeBps",
                  "type": "uint256"
                },
                {
                  "internalType": "uint256",
                  "name": "strikeAbsoluteValue",
                  "type": "uint256"
                },
                {
                  "internalType": "string",
                  "name": "asset",
                  "type": "string"
                },
                {
                  "internalType": "string",
                  "name": "oracleName",
                  "type": "string"
                },
                {
                  "internalType": "enum OptionBarrierType",
                  "name": "barrierType",
                  "type": "uint8"
                }
              ],
              "internalType": "struct OptionBarrier[]",
              "name": "optionBarriers",
              "type": "tuple[]"
            }
          ],
          "internalType": "struct FCNVaultMetadata",
          "name": "metadata",
          "type": "tuple"
        }
      ],
      "name": "setVaultMetadata",
      "outputs": [],
      "stateMutability": "nonpayable",
      "type": "function"
    },
    {
      "inputs": [
        {
          "internalType": "address",
          "name": "vaultAddress",
          "type": "address"
        },
        {
          "internalType": "enum VaultStatus",
          "name": "_vaultStatus",
          "type": "uint8"
        }
      ],
      "name": "setVaultStatus",
      "outputs": [],
      "stateMutability": "nonpayable",
      "type": "function"
    },
    {
      "inputs": [
        {
          "internalType": "uint256",
          "name": "_yieldFeeBps",
          "type": "uint256"
        }
      ],
      "name": "setYieldFeeBps",
      "outputs": [],
      "stateMutability": "nonpayable",
      "type": "function"
    },
    {
      "inputs": [
        {
          "internalType": "uint256",
          "name": "_leverage",
          "type": "uint256"
        },
        {
          "internalType": "bool",
          "name": "_isAllowed",
          "type": "bool"
        }
      ],
      "name": "updateAllowedLeverage",
      "outputs": [],
      "stateMutability": "nonpayable",
      "type": "function"
    },
    {
      "inputs": [
        {
          "internalType": "address",
          "name": "vaultAddress",
          "type": "address"
        },
        {
          "internalType": "uint256",
          "name": "index",
          "type": "uint256"
        },
        {
          "internalType": "string",
          "name": "_asset",
          "type": "string"
        },
        {
          "internalType": "uint256",
          "name": "_strikeAbsoluteValue",
          "type": "uint256"
        },
        {
          "internalType": "uint256",
          "name": "_barrierAbsoluteValue",
          "type": "uint256"
        }
      ],
      "name": "updateOptionBarrier",
      "outputs": [],
      "stateMutability": "nonpayable",
      "type": "function"
    },
    {
      "inputs": [
        {
          "internalType": "address",
          "name": "vaultAddress",
          "type": "address"
        },
        {
          "internalType": "uint256",
          "name": "index",
          "type": "uint256"
        },
        {
          "internalType": "string",
          "name": "_asset",
          "type": "string"
        },
        {
          "internalType": "string",
          "name": "newOracleName",
          "type": "string"
        }
      ],
      "name": "updateOptionBarrierOracle",
      "outputs": [],
      "stateMutability": "nonpayable",
      "type": "function"
    },
    {
      "inputs": [
        {
          "internalType": "address",
          "name": "",
          "type": "address"
        }
      ],
      "name": "vaults",
      "outputs": [
        {
          "internalType": "uint256",
          "name": "vaultStart",
          "type": "uint256"
        },
        {
          "internalType": "uint256",
          "name": "tradeDate",
          "type": "uint256"
        },
        {
          "internalType": "uint256",
          "name": "tradeExpiry",
          "type": "uint256"
        },
        {
          "internalType": "uint256",
          "name": "aprBps",
          "type": "uint256"
        },
        {
          "internalType": "uint256",
          "name": "tenorInDays",
          "type": "uint256"
        },
        {
          "internalType": "uint256",
          "name": "underlyingAmount",
          "type": "uint256"
        },
        {
          "internalType": "uint256",
          "name": "currentAssetAmount",
          "type": "uint256"
        },
        {
          "internalType": "uint256",
          "name": "totalCouponPayoff",
          "type": "uint256"
        },
        {
          "internalType": "uint256",
          "name": "vaultFinalPayoff",
          "type": "uint256"
        },
        {
          "internalType": "uint256",
          "name": "queuedWithdrawalsSharesAmount",
          "type": "uint256"
        },
        {
          "internalType": "uint256",
          "name": "queuedWithdrawalsCount",
          "type": "uint256"
        },
        {
          "internalType": "uint256",
          "name": "optionBarriersCount",
          "type": "uint256"
        },
        {
          "internalType": "uint256",
          "name": "leverage",
          "type": "uint256"
        },
        {
          "internalType": "address",
          "name": "vaultAddress",
          "type": "address"
        },
        {
          "internalType": "enum VaultStatus",
          "name": "vaultStatus",
          "type": "uint8"
        },
        {
          "internalType": "bool",
          "name": "isKnockedIn",
          "type": "bool"
        }
      ],
      "stateMutability": "view",
      "type": "function"
    },
    {
      "inputs": [
        {
          "internalType": "address",
          "name": "",
          "type": "address"
        },
        {
          "internalType": "uint256",
          "name": "",
          "type": "uint256"
        }
      ],
      "name": "withdrawalQueues",
      "outputs": [
        {
          "internalType": "uint256",
          "name": "amountShares",
          "type": "uint256"
        },
        {
          "internalType": "address",
          "name": "receiver",
          "type": "address"
        }
      ],
      "stateMutability": "view",
      "type": "function"
    },
    {
      "inputs": [],
      "name": "yieldFeeBps",
      "outputs": [
        {
          "internalType": "uint256",
          "name": "",
          "type": "uint256"
        }
      ],
      "stateMutability": "view",
      "type": "function"
    }
  ],
  "bytecode": "0x60a060405234620004d957620065e1803803806200001d81620004de565b928339610120828281010312620004d957620000398262000504565b91620000486020820162000504565b60408201519093906001600160401b038111620004d957820192808301601f85011215620004d9578351936001600160401b038511620004ae5762000097601f8601601f1916602001620004de565b9480865282850160208284010111620004d957620000bc916020808801910162000519565b60608301519360808401519560a08501519560c08601519760e08701516101008801519760018060401b038911620004d957868101601f8a8301011215620004d95780890151906001600160401b038211620004ae576200012360208360051b01620004de565b9960208b84815201918299810160208560051b848401010111620004d95780820160200192915b60208560051b82840101018410620004c45750505050506001600055620001826127106200017a8186106200053e565b83106200053e565b6200018f8a151562000574565b6200019c81151562000574565b600180546001600160a01b0319166001600160a01b038916179055608084905284516001600160401b038111620004ae57600254600181811c91168015620004a3575b60208210146200048d57601f811162000438575b50806020601f8211600114620003bf57600091620003b3575b508160011b916000199060031b1c1916176002555b8260035581600455896005558060065560005b8851811015620002aa576200024a818a620005aa565b516000526007806020526040600020600160ff1982541617905562000270828b620005aa565b51600052602052896001604060002001556000198114620002945760010162000234565b634e487b7160e01b600052601160045260246000fd5b509087610120928b8b610100620002d9604051809b60e082526020815194838660e08196015201910162000519565b601f801991011689019461010086019760208b015260408a01526060890152608088015260a08701526101008683030160c08701525180935201939060005b8181106200039c575050506001600160a01b039081169316917fa3da5171f0184ad75dfcff7e31f261915436f695fe67a7e23fd108bcc1b2ebcf919081900390a3604051615feb9081620005d6823960805181818161031c01528181610b5d01528181611c7001528181611f6f01528181613024015281816135c20152613cd60152f35b825186526020958601959092019160010162000318565b9050860151386200020c565b600260009081529250600080516020620065c1833981519152905b601f19831684106200041f576001935082601f1981161062000405575b5050811b0160025562000221565b88015160001960f88460031b161c191690553880620003f7565b88810151825560209384019360019092019101620003da565b6002600052600080516020620065c1833981519152601f830160051c81016020841062000485575b601f830160051c8201811062000478575050620001f3565b6000815560010162000460565b508062000460565b634e487b7160e01b600052602260045260246000fd5b90607f1690620001df565b634e487b7160e01b600052604160045260246000fd5b6020808094865181520194019392506200014a565b600080fd5b6040519190601f01601f191682016001600160401b03811183821017620004ae57604052565b51906001600160a01b0382168203620004d957565b60005b8381106200052d5750506000910152565b81810151838201526020016200051c565b156200054657565b60405162461bcd60e51b81526020600482015260066024820152651a18181d24a160d11b6044820152606490fd5b156200057c57565b60405162461bcd60e51b81526020600482015260066024820152653430303a495560d01b6044820152606490fd5b8051821015620005bf5760209160051b010190565b634e487b7160e01b600052603260045260246000fdfe60808060405260043610156200001457600080fd5b600090813560e01c908163013bbfd21462003eae5750806306fdde031462003db7578063086b48481462003bb6578063283aee581462003b5f5780632a80cda31462003ac65780632b6e104614620039c85780632b8fa44b146200363c5780632f87045c14620036115780633813c35a14620035f157806338d52e0f14620035aa5780633a64f1f5146200350f57806340e8d70314620031755780634609c4ff1462002f6e5780635239f4871462002eb157806357a925421462002d91578063596dfbe41462002c1d57806359c1c1421462002bfd578063645006ca1462002bdd57806377ce02011462002b425780638312f1491462002b225780638355e9c91462002a33578063840b7835146200292257806385b5b14d146200286e5780638e575a85146200269e5780638fef16d5146200249c57806396ad984f146200242757806396ce94bf14620023295780639842311a14620020f8578063a480ca791462001de3578063a622ee7c1462001ce2578063a63c16bb1462001bd3578063ae7326141462001b72578063b379e0bf1462001ad0578063b4d9fab414620019d7578063b732f2f114620018c8578063b7d1814514620015aa578063bcd0fb2f1462001482578063dc4f1e49146200104d578063e16c1e3d1462000cf6578063f14c1b79146200082c578063f343cff0146200073a578063fb0c18b214620004dc5763fe59551f146200022657600080fd5b34620004d9576080366003190112620004d9576001600160401b0390600435828111620004d5576200025d90369060040162004134565b602435838111620004d1576200027890369060040162004134565b600154604051630ddd3b3160e21b81523360048201526020959293604435936064359391926001600160a01b039289908290602490829087165afa908115620004c65790620002d091899162000492575b50620042a4565b620002dd851515620042fe565b83875260078852620002f660ff6040892054166200426f565b604051906112ef808301918211838310176200047e578291620003639162004cd08439847f000000000000000000000000000000000000000000000000000000000000000016815260608b82015262000353606082018762004035565b9060408183039101528862004035565b039087f08015620004735716948281526007875260046040822001805490600160401b8210156200045f5787969385600c60407f07f1052e1739f73da4d084bbe1c0487e548ac630147b598dbd9ab59bb157068a999660098e620004018e620003dd8b6200043b9f9c9b6001620004499d01815562004334565b90919082549060031b9160018060a01b039283811b93849216901b16911916179055565b8d83525220868155600d81018b6bffffffffffffffffffffffff60a01b825416179055015560405195869560808752608087019062004035565b908582038b87015262004035565b91604084015260608301520390a2604051908152f35b634e487b7160e01b83526041600452602483fd5b6040513d88823e3d90fd5b634e487b7160e01b89526041600452602489fd5b620004b791508a3d8c11620004be575b620004ae818362003f61565b810190620041b3565b38620002c9565b503d620004a2565b6040513d8a823e3d90fd5b8280fd5b5080fd5b80fd5b5034620004d957600319604036820112620004d557620004fb62004077565b60248035926001600160401b038411620007365760e0846004019185360301126200073657600154604051630ddd3b3160e21b81523360048201526020946001600160a01b0392909190869082908790829087165afa8015620004c6576200056b9189916200071b5750620042a4565b169384865260098452620005856040872054151562004383565b848652600984526040862060ff600d82015460a01c166009811015620007085780620005bc9115908115620006fc575b506200471f565b600e8101805490600160401b821015620006e95790620005e291600182018155620047c1565b620006d65790620005f684600b936200451b565b0180546000198114620006c357600101905562000617608482018362004483565b90946200062860a484018562004483565b60c4850135946002861015620006bf577f92c62627750f7b8794a1c6e3d86147b8a70fcd64b5ff58240c50808d68faf32698620006b99560646200069e93620006ad976040519c8d9c358d52820135908c0152604481013560408c0152013560608a015260e060808a015260e0890191620047de565b9186830360a0880152620047de565b9160c0840190620041a5565b0390a280f35b8a80fd5b634e487b7160e01b885260116004528488fd5b634e487b7160e01b885260048890528488fd5b634e487b7160e01b895260416004528589fd5b600291501438620005b5565b634e487b7160e01b885260216004528488fd5b620004b79150873d8911620004be57620004ae818362003f61565b8480fd5b5034620004d9576040366003190112620004d9576200075862004077565b602435906009821015620004d1576001546040516373561c3b60e01b8152336004820152916020916001600160a01b03919083908590602490829086165afa938415620004735760008051602062005fbf83398151915294620007c49188916200080a575b50620041cd565b169283855260098252620007de6040862054151562004383565b83855260098252620007f781600d6040882001620043b9565b62000806604051809262004181565ba280f35b620008259150853d8711620004be57620004ae818362003f61565b38620007bd565b5034620004d9576040366003190112620004d9576200084a62004077565b6024356200085762004a11565b600154604051630ddd3b3160e21b815233600482015290602090829060249082906001600160a01b03165afa801562000a6d576200089d91859162000cd95750620042a4565b6001600160a01b038216835260096020526040832054620008c090151562004383565b60018060a01b03821683526009602052604083209060ff600d83015460a01c16600981101562000cc55780600662000902921490811562000cb957506200471f565b6001600160a01b0383168452600a6020819052604085209083015490918082101562000cb157505b808560206040516200093c8162003f14565b82815201525b62000a78575050600a810154156200095d575b826001815580f35b60058101541580620009f7575b15620009b557600d01805460ff60a01b1916600160a31b179055604051600881526001600160a01b039091169060008051602062005fbf83398151915290602090a25b388062000955565b600d01805460ff60a01b1916600760a01b179055604051600781526001600160a01b039091169060008051602062005fbf83398151915290602090a2620009ad565b506040516318160ddd60e01b81526020816004816001600160a01b0387165afa90811562000a6d57849162000a30575b5015156200096a565b90506020813d60201162000a64575b8162000a4e6020938362003f61565b8101031262000a5f57513862000a27565b600080fd5b3d915062000a3f565b6040513d86823e3d90fd5b600a8301548060001981011162000c465762000a99906000190183620040a5565b506040519062000aa98262003f14565b8054908183526001808060a01b039101541660208301526040519063db006a7560e01b825260048201526020816024818a60018060a01b038b165af190811562000ca657879162000c6e575b5062000b0681600587015462004711565b6005860155600c850154875260076020526002604088200162000b2b82825462004711565b905562000b3e8251600987015462004711565b6009860155602082015162000b839082906001600160a01b03908116907f00000000000000000000000000000000000000000000000000000000000000001662004c7d565b62000b9381600687015462004711565b6006860155602082810151925160408051918252918101929092526001600160a01b03928316928716917fb725639f4649132349e51e17d76fbc44211d80a97a1966578878f86113f707219190a38154801562000c5a576000190162000c0562000bfe8285620040a5565b9062004c6b565b8255600a830154600019810190811162000c4657600a840155600019810190811162000c32578062000942565b634e487b7160e01b85526011600452602485fd5b634e487b7160e01b86526011600452602486fd5b634e487b7160e01b86526031600452602486fd5b90506020813d60201162000c9d575b8162000c8c6020938362003f61565b8101031262000a5f57513862000af5565b3d915062000c7d565b6040513d89823e3d90fd5b90506200092a565b600891501438620005b5565b634e487b7160e01b85526021600452602485fd5b620004b7915060203d602011620004be57620004ae818362003f61565b5034620004d957600319604036820112620004d55762000d1562004077565b906024838135936001600160401b0390818611620004d15761022086360395860112620004d15760018054604051632c9556a560e11b81523360048201526001600160a01b039892976020949092859083908a9082908e165afa91821562000ca6578a9262000d8d9189916200102b575b506200434d565b16978886526009845262000da76040872054151562004383565b826004013562000db9811515620042fe565b61018484013580885262000dd960ff604060079a8b8a522054166200426f565b8a8c526009865260408c20918255888501358a83015560448501356002830155606485013560038301556084850135600483015560a4850135600583015560c4850135600683015560e48501358883015561010485013560088301556101248501356009830155610144850135600a830155610164850135600b830155600c820155600d8101916101a4850135908116809103620010275782546001600160a01b0319161782556101c48401356009811015620010275762000e9c9083620043b9565b6101e48401359182151583036200102757805460ff60a81b191692151560a81b60ff60a81b1692909217909155600e019161020481013591602219018212156200101f570194600486013593841162001023578086018460051b360381136200101f57600160401b85116200100a57825485845580861062000f92575b509593959189528289209189946101021981360301915b88871062000f61578b8b7f101bd42603a86fc9bba62795f00899c5afb1147cb5db2a5bd9e0bb1e9b335de88280a280f35b8035908382121562000f8e5786899162000f81878e95870101896200451b565b0195019601959362000f30565b8c80fd5b808702908782040362000ff557858702878104870362000fe0578790856000528660002092830192015b82811062000fcc57505062000f19565b62000fd78162004449565b01879062000fbc565b83634e487b7160e01b60005260116004526000fd5b82634e487b7160e01b60005260116004526000fd5b50634e487b7160e01b60009081526041600452fd5b8980fd5b8880fd5b8b80fd5b620010469150873d8911620004be57620004ae818362003f61565b3862000d86565b5034620004d9576020366003190112620004d9576200106b62004077565b60606102006040516200107e8162003f44565b84815284602082015284604082015284838201528460808201528460a08201528460c08201528460e08201528461010082015284610120820152846101408201528461016082015284610180820152846101a0820152846101c0820152846101e0820152015260018060a01b031681526009602052604081209060405191620011078362003f44565b8054835260018101546020840152600281015460408401526003810154606084015260048101546080840152600581015460a0840152600681015460c0840152600781015460e084015260088101546101008401526009810154610120840152600a810154610140840152600b810154610160840152600c810154610180840152600d81015460018060a01b0381166101a0850152600960ff8260a01c1610156200146e578060ff809260a01c166101c086015260a81c1615156101e0840152600e810154906001600160401b0382116200045f5760405191620011f260208260051b018462003f61565b808352600e60208401920184526020842084925b828410620013aa57610200878787838301526040519283926020845280516020850152602081015160408501526040810151606085015260608101516080850152608081015160a085015260a081015160c085015260c081015160e085015260e08101516101008501526101008101516101208501526101208101516101408501526101408101516101608501526101608101516101808501526101808101516101a085015260018060a01b036101a0820151166101c0850152620012d66101c08201516101e086019062004181565b6101e081015115158285015201519061022080840152610240830182518091526102606020818601918360051b870101940192905b8282106200131b57505050500390f35b91936001919395506020809161025f1989820301855262001399885191825181528383015184820152604083015160408201526060830151606082015260c0806200138d6200137a608087015160e0608087015260e086019062004035565b60a087015185820360a087015262004035565b940151910190620041a5565b96019201920185949391926200130b565b6040518060e08101106001600160401b0360e083011117620014585760e0810160405282548152600183015460208201526002830154604082015260038301546060820152620013fd6004840162003f83565b6080820152620014106005840162003f83565b60a082015260ff600684015416600281101562001444576001928260209260c0600795015281520192019301929062001206565b634e487b7160e01b88526021600452602488fd5b634e487b7160e01b600052604160045260246000fd5b634e487b7160e01b83526021600452602483fd5b5034620004d95760209081600319360112620004d9576001600160a01b03620015098382620014b062004077565b169283855260098252620014ca6040862054151562004383565b83855260098252604080862060015491516324c697cb60e11b8152600481019190915291166001600160a01b0316602482015291829081906044820190565b038173__$d174d95facea876af0faf23442ada6b991$__5af49283156200159e579262001569575b507f9e0b21701a3582ca92bc583a213ae168fa62a833e1dff10d65717c05a202725e60408051848152600586820152a2604051908152f35b9091508281813d831162001596575b62001584818362003f61565b8101031262000a5f5751903862001531565b503d62001578565b604051903d90823e3d90fd5b5034620004d9576060366003190112620004d957620015c862004077565b9060248035926044356001600160401b038111620018c457620015f0903690600401620040e8565b600154604051630ddd3b3160e21b8152336004820152929660209490936001600160a01b0392869082908990829087165afa908115620004c657906200163e9189916200071b5750620042a4565b169384865260098452620016586040872054151562004383565b84865260098452604086209060ff600d83015460a01c166009811015620018b157806200168f9115908115620006fc57506200471f565b600e820191620017056004620016c2620016d1620016ae8988620047c1565b506040519283918c830195869101620047ff565b03601f19810183528262003f61565b5190208a8a620016fb8a60405180938b8383019687378b8201908382015203808452018262003f61565b519020146200488a565b825460001993908481019081116200189e57620017239082620047c1565b50620017308783620047c1565b6200188b5781810362001828575b5050805480156200181557840190620017588282620047c1565b620018005790600060068382600b979695558260018201558260028201558260038201556200178a60048201620043f7565b6200179860058201620043f7565b01555501908154928301928311620017ee5750917fdac7748a99ba25d9c2021272d8a96a40eeef70c99a8b0371a2d84712adc49e6295969791620006b993556040805195869586528501526040840191620047de565b634e487b7160e01b8852601160045287fd5b84634e487b7160e01b60005260006004526000fd5b634e487b7160e01b8a526031600452838afd5b600660ff81846200188395548555600181015460018601556002810154600286015560038101546003860155620018666004820160048701620048e1565b620018786005820160058701620048e1565b015416910162004502565b38806200173e565b634e487b7160e01b8b5260048b9052848bfd5b634e487b7160e01b8a526011600452838afd5b50634e487b7160e01b8752602160045286fd5b8380fd5b5034620004d9576020366003190112620004d9576001600160a01b0380620018ef62004077565b169081835260096020526200190a6040842054151562004383565b818352600960205282604081209173__$d174d95facea876af0faf23442ada6b991$__906001541690803b15620004d157604051636ac77ebf60e11b8152600481018590526001600160a01b039290921660248301528290829060449082905af48015620019cc57620019b4575b5050602060ff600d7f52ab8c7f7a3fa516caf660a33a7b7a6ac1a418271b69b3b1bd57b97c37e22cb193015460a81c166040519015158152a280f35b620019bf9062003f30565b620004d157823862001978565b6040513d84823e3d90fd5b5034620004d95760209081600319360112620004d957620019f762004077565b600154604051630ddd3b3160e21b81523360048201526001600160a01b03929185908290602490829087165afa90811562000a6d579062001a4091859162001ab55750620042a4565b168082526009835262001a596040832054151562004383565b80825260098352600d60408320019283549360ff8560a01c1694600986101562000cc55762001a9b60008051602062005fbf833981519152949596156200471f565b60ff60a01b1916600160a01b17905560405160018152a280f35b620004b79150863d8811620004be57620004ae818362003f61565b5034620004d9576020366003190112620004d9576001600160a01b0362001af662004077565b16808252600960205262001b106040832054151562004383565b81526009602052604081208173__$d174d95facea876af0faf23442ada6b991$__91823b15620004d55760246040518094819363192b847760e01b835260048301525af48015620019cc5762001b64575080f35b62001b6f9062003f30565b80f35b5034620004d9576020366003190112620004d957604060a0916004358152600760205220805490600181015490600360028201549101549160ff604051948181161515865260081c1615156020850152604084015260608301526080820152f35b5034620004d9576040366003190112620004d95762001bf162004077565b60243562001bfe62004a11565b6001600160a01b039182168084526009602052604084205490929062001c2690151562004383565b8060015416330362001cb4577fce0de3168916a71fc175ce3a005fafab3d9ffc19f20385e575c795e275e00bc59160066020928587526009845262001c96836040892092309033907f00000000000000000000000000000000000000000000000000000000000000001662004a68565b0162001ca4828254620042da565b9055604051908152a26001815580f35b60405162461bcd60e51b81526020600482015260066024820152653430333a435360d01b6044820152606490fd5b5034620004d9576020366003190112620004d9576001600160a01b0362001d0862004077565b16815260096020526040902080549060018101549060028101546003820154600483015460058401546006850154600786015490600887015492600988015494600a89015496600b8a015498600c8b01549a600d01549b604051809e81526020015260408d015260608c015260808b015260a08a015260c089015260e0880152610100870152610120860152610140850152610160840152610180830152600160a01b6001900381166101a08301526101c082018160a01c60ff169062001dcf9162004181565b60a81c60ff1615156101e082015261020090f35b5034620004d957602080600319360112620004d55762001e0262004077565b9062001e0d62004a11565b600154604051630ddd3b3160e21b81523360048201526001600160a01b0393909183908390602490829088165afa918215620020ed57849262001e58918791620020d25750620042a4565b16918284526009825262001e726040852054151562004383565b828452600982526040842091600d83019260ff845460a01c166009811015620020be57600562001ea391146200471f565b600354916004546040519363169fca8d60e31b85528360048601526024850152604484015260608360648173__$d174d95facea876af0faf23442ada6b991$__5af490811562000ca65787928894899362002070575b5088600460088301958654808210600014620020675750955b8489600154166040519384809263011a412160e61b82525afa9081156200205c577f0e57f8ca3155b8c5071ac6070c93859eb05a8d9a167296f44dba4bd14079d2169a62001f9589809460809d62001fe997899262002026575b507f00000000000000000000000000000000000000000000000000000000000000001662004c7d565b6006860162001fa684825462004711565b9055600360a11b60ff60a01b19825416179055600585019462001fe060026040600c89549401978854815260078b52200191825462004711565b90555462004711565b8092555489526007825262002007600260408b2001918254620042da565b9055604051938452830152604082015260066060820152a26001815580f35b6200204c9192508b3d8d1162002054575b62002043818362003f61565b810190620048c0565b903862001f6c565b503d62002037565b6040513d85823e3d90fd5b90509562001f12565b9350915092506060823d8211620020b5575b81620020916060938362003f61565b81010312620020b157815192604081840151930151939293913862001ef9565b8680fd5b3d915062002082565b634e487b7160e01b87526021600452602487fd5b620004b79150853d8711620004be57620004ae818362003f61565b6040513d87823e3d90fd5b5034620004d9576200210a366200408e565b600154604051632c9556a560e11b81523360048201526020916001600160a01b03919083908290602490829086165afa80156200047357620021549187916200230e57506200434d565b838552600792838352816200217082600460408a200162004334565b90549060031b1c1694858752600a84526040872054620020b15780875284845260408720600401546000199290838101908111620022fa5790620003dd85620021ca620021e694600460408e8981528d8d52200162004334565b90549060031b1c1691848b52888852600460408c200162004334565b8652838352600460408720019081548015620022e65701916200220a838362004334565b909182549160031b1b191690555582845260098152600e60408520858155856001820155856002820155856003820155856004820155856005820155856006820155858482015585600882015585600982015585600a82015585600b82015585600c82015585600d820155019081549185815582620022ad575b85857fe71f3a50e5ad81964f352c411f1d45e35438ecd1acecef59ac81d9fbbf6cbc0a8280a280f35b828402928484040362000c465785528420908101905b818110620022d2578062002284565b80620022df849262004449565b01620022c3565b634e487b7160e01b88526031600452602488fd5b634e487b7160e01b89526011600452602489fd5b620010469150843d8611620004be57620004ae818362003f61565b5034620004d9576040366003190112620004d9576200234762004077565b62002351620040d8565b600154604051632c9556a560e11b815233600482015291926020916001600160a01b03919083908590602490829086165afa93841562000473577fe8b41617589ff7cce1139d64a930d2f970b9c6e0a51da359d66de455fa1ce9db94620023c09188916200240c57506200434d565b169283855260098252620023da6040862054151562004383565b8385526009825260408520600d01805460ff60a81b191682151560a81b60ff60a81b161790556040519015158152a280f35b620010469150853d8711620004be57620004ae818362003f61565b5034620004d9576040366003190112620004d9576200244562004077565b6001600160a01b039081168252600a6020526040822080546024359190821015620018c457906200247691620040a5565b5080546001909101546040805192835292166001600160a01b03166020820152f35b0390f35b5034620004d95760a0366003190112620004d957620024ba62004077565b90602435916044356001600160401b038111620004d157620024e1903690600401620040e8565b91909360643560843560018060a01b038060015416946040518096630ddd3b3160e21b82523360048301528160246020998a935afa90811562002693579062002532918a91620026785750620042a4565b1694858752600985526200254c6040882054151562004383565b858752600985526040872083156200264a5782156200261c57976200260b91836001620025a088600e7fb9cc3d6efce78bb6174ce8cad53c412cf3fc2b4b1738f4c015c74eab6223ead79c9d9e01620047c1565b50620025eb8d6040518c810190620025c181620016c28460048901620047ff565b519020908c620016fb6040519182818101948b8d87378b8201908382015203808452018262003f61565b8760038201550155608060405197889788528701526080860191620047de565b91604084015260608301520390a280f35b60405162461bcd60e51b81526004810187905260066024820152651a18181d212b60d11b6044820152606490fd5b60405162461bcd60e51b81526004810187905260066024820152651a18181d29ab60d11b6044820152606490fd5b620004b79150883d8a11620004be57620004ae818362003f61565b6040513d8b823e3d90fd5b5034620004d95760a0366003190112620004d957620026bc62004077565b6024356044356064356084359160018060a01b038060015416956040518097630ddd3b3160e21b825233600483015281602460209a8b935afa801562002693576200270f918a91620028535750620042a4565b169485875260098152620027296040882054151562004383565b858752600981526040872060ff600d82015460a01c1660098110156200283f5760026200275791146200471f565b8054861062002811579185939185600460809795620027997f75c6fee771257d0c8f6faeed1a52849bd77886e7277a92a19ced50872a4d1dae9a861162004755565b62015180620027a9898762004711565b048380821015620027f957620027c6620027ce9260019262004711565b11156200478b565b876001820155846002820155856003820155015560405194855284015260408301526060820152a280f35b620027c66001916200280b9362004711565b620027ce565b60405162461bcd60e51b81526004810183905260066024820152650d0c0c0e951160d21b6044820152606490fd5b634e487b7160e01b89526021600452602489fd5b620004b79150893d8b11620004be57620004ae818362003f61565b5034620004d9576020366003190112620004d9576024600435602060018060a01b0360015416604051938480926373561c3b60e01b82523360048301525afa9081156200205c57620028ec6020927fa8f4f21b587a66a2ee5ea394d96ed718e67720a7ff387be57edf47ee591c8faf948691620029075750620041cd565b620028f981151562004239565b80600655604051908152a180f35b620008259150843d8111620004be57620004ae818362003f61565b5034620004d95762002934366200408e565b600154604051630ddd3b3160e21b81523360048201526020918290829060249082906001600160a01b03165afa8015620020ed576200297b91869162002a185750620042a4565b82845260078152816200299e6003604087200154600260408820015490620042da565b11620029e557916040917fcadc2f860c31c2aafe4c2e359b6295ccdce5787d0044255b0fd5adb1ccb22dbe938286526007815281600185882001558351928352820152a180f35b6064906040519062461bcd60e51b82526004820152600c60248201526b0d0c0c0e951bdbd4db585b1b60a21b6044820152fd5b620004b79150833d8511620004be57620004ae818362003f61565b5034620004d9576040366003190112620004d957602460043562002a56620040d8565b6001546040516373561c3b60e01b81523360048201529391929160209185919082906001600160a01b03165afa92831562000a6d577ff0f4fdbe67dbbfeb7651ea55f03378b0dabd8c1272a2d10391006dae7e765cfd9362002ac091869162002b065750620041cd565b808452600760205260408420805461ff0084151560081b169061ff00191617905562002b0060405192839283909291602090604083019483521515910152565b0390a180f35b62000825915060203d8111620004be57620004ae818362003f61565b5034620004d95780600319360112620004d9576020600654604051908152f35b5034620004d9576020366003190112620004d9576024600435602060018060a01b0360015416604051938480926373561c3b60e01b82523360048301525afa9081156200205c5762002bc06020927fda21b88dc331c96abf528dfef6a6a49a7c48ce61e82e4ab2fe8a64c01f9ee697948691620029075750620041cd565b62002bcf612710821062004203565b80600355604051908152a180f35b5034620004d95780600319360112620004d9576020600554604051908152f35b5034620004d95780600319360112620004d9576020600454604051908152f35b5034620004d9576040366003190112620004d95762002c3b62004077565b6024359062002c4962004a11565b6001600160a01b031680835260096020908152604084205462002c6e90151562004383565b600654831062002d6457818452600981526040842062002c918430338662004a68565b828552600a8252604085206040519062002cab8262003f14565b8582523384830152805490600160401b82101562002d50578162002cda91600162002ce19594018155620040a5565b90620049c7565b600a81018054906001820180921162002d3c57916009917f010c27d0c99728cd960c5b722003b7f1ffb3d2e930af4f84b0d67e3980207a1a9493550162002d2a858254620042da565b90556040519384523393a36001815580f35b634e487b7160e01b87526011600452602487fd5b634e487b7160e01b88526041600452602488fd5b6064906040519062461bcd60e51b8252600482015260066024820152653430303a574160d01b6044820152fd5b5034620004d957602080600319360112620004d55762002db062004077565b600154604051630ddd3b3160e21b81523360048201526001600160a01b03929184908290602490829087165afa8015620020ed5762002df7918691620020d25750620042a4565b16908183526009815262002e116040842054151562004383565b818352600981526040832090600d8201805460ff8160a01c166009811015620020be57927f1abd385578bb3adc021fd23b32b866f102cf1bd085b7d3d6dfe15f336d68e79d9492879262002e6a6007604097146200471f565b83600860028701968288549862002e838a151562004755565b89835581600184015555826003820155826007820155015561ffff60a01b191690558351928352820152a280f35b5034620004d957602080600319360112620004d5576004358252600781526004604083200160405192838383549182815201908193835284832090835b81811062002f50575050508462002f0791038562003f61565b60405193838594850191818652518092526040850193925b82811062002f2f57505050500390f35b83516001600160a01b03168552869550938101939281019260010162002f1f565b82546001600160a01b03168452928601926001928301920162002eee565b5034620004d95762002f80366200408e565b62002f8a62004a11565b81835260206007815262002fa560ff6040862054166200426f565b8284526007815260ff604085205460081c1615620031435760055482106200311657828452600781526003604085200162002fe2838254620042da565b905582845260078152620030066003604086200154600260408720015490620042da565b83855260078252600160408620015410620030e557620030528230337f00000000000000000000000000000000000000000000000000000000000000006001600160a01b031662004a68565b8284526008815260408420604051906200306c8262003f14565b8382523383830152805490600160401b821015620030d1578162002cda9160016200309b9594018155620040a5565b6040519283528201527fff465791f48805b0254fc0e26cc605e27ef7706d8ee0cf018f8696f58db8367960403392a26001815580f35b634e487b7160e01b87526041600452602487fd5b6064906040519062461bcd60e51b82526004820152600a6024820152693530303a546f6f42696760b01b6044820152fd5b6064906040519062461bcd60e51b8252600482015260066024820152653430303a444160d01b6044820152fd5b6064906040519062461bcd60e51b82526004820152600b60248201526a1a98181d2737ba27b832b760a91b6044820152fd5b5034620004d9576040366003190112620004d9576200319362004077565b602435620031a062004a11565b600154604051630ddd3b3160e21b815233600482015290602090829060249082906001600160a01b03165afa801562000a6d57620031e691859162000cd95750620042a4565b6001600160a01b0382168352600960205260408320546200320990151562004383565b60018060a01b03821683526009602052604083209060ff600d83015460a01c16600981101562000cc55760016200324191146200471f565b600582015415806200349e575b620018c457600c82015484526008602052604084205490808210156200349657505b805b620032db5750600c810154835260086020526040832054156200329757826001815580f35b600d01805460ff60a01b1916600160a11b179055604051600281526001600160a01b039091169060008051602062005fbf83398151915290602090a2388062000955565b600c82015480855260086020526040852080546000198101811062002d3c57906200330b916000190190620040a5565b5090815490865260076020526200332b6003604088200191825462004711565b905580546001820154604051636e553f6560e01b815260048101929092526001600160a01b0316602482015260208180604481010381896001600160a01b038a165af18015620004735762003465575b506200338d81546005850154620042da565b60058401558054600c84015486526007602052620033b460026040882001918254620042da565b9055620033c781546006850154620042da565b6006840155600181015490546040519081526001600160a01b03918216918516907f2cafaae37c2ab1f0e3f264b9a50cad356ccf3bec7627998815a33e2b7e649a5390602090a3600c82015484526008602052604084208054801562000c5a5760001901906200343c62000bfe8383620040a5565b55600019810190811162003451578062003272565b634e487b7160e01b84526011600452602484fd5b602090813d83116200348e575b6200347e818362003f61565b810103126200073657386200337b565b503d62003472565b905062003270565b506040516318160ddd60e01b81526020816004816001600160a01b0388165afa908115620020ed578591620034d7575b5015156200324e565b90506020813d60201162003506575b81620034f56020938362003f61565b8101031262000736575138620034ce565b3d9150620034e6565b5034620004d9576020366003190112620004d9576024600435602060018060a01b0360015416604051938480926373561c3b60e01b82523360048301525afa9081156200205c576200358d6020927ff70600f16834d4912dda5e9bdfdc5cce5d2601cf8ce7336ec725056128187c32948691620029075750620041cd565b6200359c612710821062004203565b80600455604051908152a180f35b5034620004d95780600319360112620004d9576040517f00000000000000000000000000000000000000000000000000000000000000006001600160a01b03168152602090f35b5034620004d95780600319360112620004d9576020600354604051908152f35b5034620004d95780600319360112620004d9576001546040516001600160a01b039091168152602090f35b5034620004d9576080366003190112620004d9576200365a62004077565b6001600160401b0390604435828111620018c4576200367e903690600401620040e8565b9091606435848111620039c4576200369b90369060040162004134565b6001546040516373561c3b60e01b81523360048201526001600160a01b039692939187169291602082602481875afa91821562002693578892620036e7918b91620039a75750620041cd565b16958688526009602052620037026040892054151562004383565b86885260096020526040882060ff600d82015460a01c1660098110156200399357906200373e826200374b9315908115620006fc57506200471f565b600e6024359101620047c1565b509060405193620037ab6020860186620037698260048801620047ff565b03966200377f601f199889810183528262003f61565b519020898c620016fb60208c604051938185928484019788378201908382015203808452018262003f61565b60206040518092635ab8b6bb60e11b82528260048301528180620037d3602482018c62004035565b03915afa90811562003988578a9162003964575b501615620039365760050191835191821162002d505762003815826200380e855462003ed7565b85620044b8565b602090601f8311600114620038a9575091817f2eb6cf0b30290a915c9f8b78a203ca54af121367170478efd2c55b468636569296959492620006b9948a916200389d575b508160011b916000199060031b1c19161790555b6200388e6040519485946024358652606060208701526060860191620047de565b90838203604085015262004035565b90508301513862003859565b8216908389526020892091895b8181106200391d575092620006b99492600192827f2eb6cf0b30290a915c9f8b78a203ca54af121367170478efd2c55b46863656929a9998961062003903575b5050811b0190556200386d565b85015160001960f88460031b161c191690553880620038f6565b9192602060018192868a015181550194019201620038b6565b60405162461bcd60e51b81526020600482015260066024820152651a18181d27a960d11b6044820152606490fd5b62003981915060203d602011620020545762002043818362003f61565b38620037e7565b6040513d8c823e3d90fd5b634e487b7160e01b8a52602160045260248afd5b62000825915060203d602011620004be57620004ae818362003f61565b8580fd5b5034620004d9576040366003190112620004d957600435620039e9620040d8565b6001546040516373561c3b60e01b8152336004820152602093918490829060249082906001600160a01b03165afa8015620020ed5762003a319186916200080a5750620041cd565b62003a3e8115156200426f565b8084526007835260ff60408520541662003a608315158092151514156200426f565b818552600884526040852054620007365760077f232627e76f6a1c2af10ad89b38d36cc4a09445de000f9792cd85a216ebc294eb9452604085209060ff8019835416911617905562002b0060405192839283909291602090604083019483521515910152565b5034620004d9576020366003190112620004d9576024600435602060018060a01b0360015416604051938480926373561c3b60e01b82523360048301525afa9081156200205c5762003b446020927fb443c8bd39a1b60d415144f9148c6f90c2b68a553eb90c62cef5e44979db009d948691620029075750620041cd565b62003b5181151562004239565b80600555604051908152a180f35b5034620004d95762003b71366200408e565b9082526008602052604082208054821015620004d15762003b939250620040a5565b508054600190910154604080519283526001600160a01b03909116602083015290f35b5034620004d9576060366003190112620004d95762003bd462004077565b6001600160a01b036024358181169283820362000736576044359162003bf962004a11565b83600154169360405192630ddd3b3160e21b845233600485015260209384816024818a5afa8015620026935760249262003c3e859288948d91620020d25750620042a4565b1696878a526009825262003c5860408b2054151562004383565b604051928380926361fbff1160e11b82528b60048301525afa908115620004c657889162003d95575b501562003d5f5784875260098352604087209160068301918254861162003d2d57859360039362003cfc7f670c6d2cbe2ae11af0c85d75a02c9bab189955b99625cd49da5666e7a28fc5c39860409895600d957f00000000000000000000000000000000000000000000000000000000000000001662004c7d565b62003d0986825462004711565b905501805460ff60a01b191660a084901b1790558351928352820152a36001815580f35b60405162461bcd60e51b815260048101869052600a6024820152693430303a546f6f42696760b01b6044820152606490fd5b60405162461bcd60e51b815260048101849052600e60248201526d0d0c0c0e939bdd105b1b1bddd95960921b6044820152606490fd5b62003db09150843d8611620004be57620004ae818362003f61565b3862003c81565b5034620004d95780600319360112620004d957604051908060025462003ddd8162003ed7565b8085529160019180831690811562003e81575060011462003e21575b620024988562003e0c8187038262003f61565b60405191829160208352602083019062004035565b9250600283527f405787fa12a823e0f2b7631cc41b3ba8828b3321ca811111fa75cd3aa3bb5ace5b82841062003e6857505050810160200162003e0c826200249862003df9565b8054602085870181019190915290930192810162003e49565b869550620024989693506020925062003e0c94915060ff191682840152151560051b820101929362003df9565b905034620004d5576020366003190112620004d557604060209260043581526008845220548152f35b90600182811c9216801562003f09575b602083101462003ef357565b634e487b7160e01b600052602260045260246000fd5b91607f169162003ee7565b604081019081106001600160401b038211176200145857604052565b6001600160401b0381116200145857604052565b61022081019081106001600160401b038211176200145857604052565b90601f801991011681019081106001600160401b038211176200145857604052565b906040519182600082549262003f998462003ed7565b90818452600194858116908160001462004010575060011462003fc9575b505062003fc79250038362003f61565b565b9093915060005260209081600020936000915b81831062003ff757505062003fc79350820101388062003fb7565b8554888401850152948501948794509183019162003fdc565b91505062003fc794506020925060ff191682840152151560051b820101388062003fb7565b919082519283825260005b84811062004062575050826000602080949584010152601f8019910116010190565b60208183018101518483018201520162004040565b600435906001600160a01b038216820362000a5f57565b604090600319011262000a5f576004359060243590565b8054821015620040c25760005260206000209060011b0190600090565b634e487b7160e01b600052603260045260246000fd5b60243590811515820362000a5f57565b9181601f8401121562000a5f578235916001600160401b03831162000a5f576020838186019501011162000a5f57565b6001600160401b0381116200145857601f01601f191660200190565b81601f8201121562000a5f578035906200414e8262004118565b926200415e604051948562003f61565b8284526020838301011162000a5f57816000926020809301838601378301015290565b9060098210156200418f5752565b634e487b7160e01b600052602160045260246000fd5b9060028210156200418f5752565b9081602091031262000a5f5751801515810362000a5f5790565b15620041d557565b60405162461bcd60e51b81526020600482015260066024820152653430333a4f4160d01b6044820152606490fd5b156200420b57565b60405162461bcd60e51b81526020600482015260066024820152651a18181d24a160d11b6044820152606490fd5b156200424157565b60405162461bcd60e51b81526020600482015260066024820152653430303a495560d01b6044820152606490fd5b156200427757565b60405162461bcd60e51b81526020600482015260056024820152640d0c0c0e9360da1b6044820152606490fd5b15620042ac57565b60405162461bcd60e51b81526020600482015260066024820152653430333a544160d01b6044820152606490fd5b91908201809211620042e857565b634e487b7160e01b600052601160045260246000fd5b156200430657565b60405162461bcd60e51b81526020600482015260066024820152653430303a565360d01b6044820152606490fd5b8054821015620040c25760005260206000200190600090565b156200435557565b60405162461bcd60e51b81526020600482015260066024820152653430333a444160d01b6044820152606490fd5b156200438b57565b60405162461bcd60e51b81526020600482015260066024820152653430303a564160d01b6044820152606490fd5b9060098110156200418f57815460ff60a01b191660a09190911b60ff60a01b16179055565b818110620043ea575050565b60008155600101620043de565b62004403815462003ed7565b90816200440e575050565b81601f6000931160011462004421575055565b818352602083206200443f91601f0160051c810190600101620043de565b8160208120915555565b60066000918281558260018201558260028201558260038201556200447160048201620043f7565b6200447f60058201620043f7565b0155565b903590601e198136030182121562000a5f57018035906001600160401b03821162000a5f5760200191813603831362000a5f57565b9190601f8111620044c857505050565b62003fc7926000526020600020906020601f840160051c83019310620044f7575b601f0160051c0190620043de565b9091508190620044e9565b9060028110156200418f5760ff80198354169116179055565b919091823581556020926001848201358184015560408201356002840155606082013560038401556004830162004556608084018462004483565b6001600160401b0392918382116200145857819062004582826200457b865462003ed7565b86620044b8565b600090601f8311600114620046ad57600092620046a1575b5050600019600383901b1c191690841b1790555b6005840191620045c260a085018562004483565b9283116200145857620045db836200457b865462003ed7565b600097601f8411600114620046355750829160c0969798839260009462004629575b50501b916000199060031b1c19161790555b0135600281101562000a5f57600662003fc7920162004502565b013592503880620045fd565b90601f939293198316988581528281209281905b8b8210620046895750508360c098999a106200466e575b505050811b0190556200460f565b0135600019600384901b60f8161c1916905538808062004660565b80878496829495870135815501950192019062004649565b0135905038806200459a565b8482528a822087945091601f198416815b8d828210620046fa5750508411620046df575b505050811b019055620045ae565b0135600019600384901b60f8161c19169055388080620046d1565b8385013586558a97909501949283019201620046be565b91908203918211620042e857565b156200472757565b60405162461bcd60e51b81526020600482015260066024820152653530303a575360d01b6044820152606490fd5b156200475d57565b60405162461bcd60e51b81526020600482015260066024820152653430303a544560d01b6044820152606490fd5b156200479357565b60405162461bcd60e51b81526020600482015260066024820152651a18181d2a2760d11b6044820152606490fd5b8054821015620040c2576000526007602060002091020190600090565b908060209392818452848401376000828201840152601f01601f1916010190565b600092918154620048108162003ed7565b926001918083169081156200486e57506001146200482f575b50505050565b90919293945060005260209081600020906000915b8583106200485c575050505001903880808062004829565b80548584015291830191810162004844565b60ff191684525050508115159091020191503880808062004829565b156200489257565b60405162461bcd60e51b81526020600482015260066024820152653430303a415360d01b6044820152606490fd5b9081602091031262000a5f57516001600160a01b038116810362000a5f5790565b90808214620049c357620048f6815462003ed7565b906001600160401b0382116200145857819062004919826200457b865462003ed7565b600090601f8311600114620049535760009262004947575b50508160011b916000199060031b1c1916179055565b01549050388062004931565b81526020808220858352818320935090601f1985169083905b828210620049a95750509084600195949392106200498f575b505050811b019055565b015460001960f88460031b161c1916905538808062004985565b84958192958501548155600180910196019401906200496c565b5050565b90620049fb57600190825181550190602060018060a01b03910151166bffffffffffffffffffffffff60a01b825416179055565b634e487b7160e01b600052600060045260246000fd5b60026000541462004a23576002600055565b60405162461bcd60e51b815260206004820152601f60248201527f5265656e7472616e637947756172643a207265656e7472616e742063616c6c006044820152606490fd5b6040516323b872dd60e01b60208201526001600160a01b03928316602482015292909116604483015260648083019390935291815260a08101918183106001600160401b03841117620014585762003fc7926040525b60405162004b44916001600160a01b031662004ada8262003f14565b6000806020958685527f5361666545524332303a206c6f772d6c6576656c2063616c6c206661696c656487860152868151910182855af13d1562004bc4573d9162004b258362004118565b9262004b35604051948562003f61565b83523d60008785013e62004bc8565b8051908162004b5257505050565b828062004b64938301019101620041b3565b1562004b6d5750565b6084906040519062461bcd60e51b82526004820152602a60248201527f5361666545524332303a204552433230206f7065726174696f6e20646964206e6044820152691bdd081cdd58d8d9595960b21b6064820152fd5b6060915b9192901562004c2d575081511562004bde575090565b3b1562004be85790565b60405162461bcd60e51b815260206004820152601d60248201527f416464726573733a2063616c6c20746f206e6f6e2d636f6e74726163740000006044820152606490fd5b82519091501562004c415750805190602001fd5b60405162461bcd60e51b81526020600482015290819062004c6790602483019062004035565b0390fd5b90620049fb5760018160008093550155565b60405163a9059cbb60e01b60208201526001600160a01b03909216602483015260448083019390935291815260808101916001600160401b03831182841017620014585762003fc79260405262004abe56fe6080604052346200038e57620012ef803803806200001d8162000393565b9283398101906060818303126200038e5780516001600160a01b039283821692918390036200038e5760208281015190926001600160401b03918281116200038e57836200006d918301620003b9565b9260408201518381116200038e57620000879201620003b9565b82518281116200028e576003918254916001958684811c9416801562000383575b888510146200036d578190601f9485811162000317575b508890858311600114620002b057600092620002a4575b505060001982861b1c191690861b1783555b80519384116200028e5760049586548681811c9116801562000283575b828210146200026e5783811162000223575b5080928511600114620001b55750938394918492600095620001a9575b50501b92600019911b1c19161790555b600580546001600160a01b0319808216339081179093556040519490939291167f8be0079c531659141344cd1fd0a4f28419497f9722a3daafe3b4186f6b6457e0600080a381600654161760065533906007541617600755610ec390816200042c8239f35b01519350388062000134565b92919084601f1981168860005285600020956000905b89838310620002085750505010620001ed575b50505050811b01905562000144565b01519060f884600019921b161c1916905538808080620001de565b858701518955909701969485019488935090810190620001cb565b87600052816000208480880160051c82019284891062000264575b0160051c019087905b8281106200025757505062000117565b6000815501879062000247565b925081926200023e565b602288634e487b7160e01b6000525260246000fd5b90607f169062000105565b634e487b7160e01b600052604160045260246000fd5b015190503880620000d6565b90889350601f19831691876000528a6000209260005b8c828210620003005750508411620002e7575b505050811b018355620000e8565b015160001983881b60f8161c19169055388080620002d9565b8385015186558c97909501949384019301620002c6565b90915085600052886000208580850160051c8201928b861062000363575b918a91869594930160051c01915b82811062000353575050620000bf565b600081558594508a910162000343565b9250819262000335565b634e487b7160e01b600052602260045260246000fd5b93607f1693620000a8565b600080fd5b6040519190601f01601f191682016001600160401b038111838210176200028e57604052565b919080601f840112156200038e5782516001600160401b0381116200028e57602090620003ef601f8201601f1916830162000393565b928184528282870101116200038e5760005b8181106200041757508260009394955001015290565b85810183015184820184015282016200040156fe6040608081526004908136101561001557600080fd5b600091823560e01c806301e1d114146109bb57806306fdde03146108c757806307a2d13a146108a7578063095ea7b31461087d57806318160ddd1461085e57806323b872dd14610794578063313ce5671461077857806338d52e0f1461074f57806339509351146106ff5780636e553f651461062e57806370a08231146105f7578063715018a61461059a5780638da5cb5b1461057157806395d89b411461046d578063a457c2d7146103c9578063a9059cbb14610398578063b1a635181461036f578063c6e6f59214610348578063db006a7514610223578063dd62ed3e146101d65763f2fde38b1461010857600080fd5b346101d25760203660031901126101d257610121610a21565b9061012a610a52565b6001600160a01b03918216928315610180575050600554826bffffffffffffffffffffffff60a01b821617600555167f8be0079c531659141344cd1fd0a4f28419497f9722a3daafe3b4186f6b6457e08380a380f35b906020608492519162461bcd60e51b8352820152602660248201527f4f776e61626c653a206e6577206f776e657220697320746865207a65726f206160448201526564647265737360d01b6064820152fd5b8280fd5b50503461021f578060031936011261021f57806020926101f4610a21565b6101fc610a3c565b6001600160a01b0391821683526001865283832091168252845220549051908152f35b5080fd5b5090346101d25760209283600319360112610345578235610242610a52565b61024b81610e56565b9333156102f85733835282865283832054908282106102aa575081903384528387520383832055806002540360025582519081527fddf252ad1be2c89b69c2b068fc378daa952ba7f163c4a11628f55a4df523b3ef853392a351908152f35b845162461bcd60e51b8152908101879052602260248201527f45524332303a206275726e20616d6f756e7420657863656564732062616c616e604482015261636560f01b6064820152608490fd5b835162461bcd60e51b8152908101869052602160248201527f45524332303a206275726e2066726f6d20746865207a65726f206164647265736044820152607360f81b6064820152608490fd5b80fd5b509134610345576020366003190112610345575061036860209235610e83565b9051908152f35b50503461021f578160031936011261021f5760075490516001600160a01b039091168152602090f35b50503461021f578060031936011261021f576020906103c26103b8610a21565b6024359033610b05565b5160018152f35b5082346103455782600319360112610345576103e3610a21565b918360243592338152600160205281812060018060a01b038616825260205220549082821061041c576020856103c28585038733610c73565b608490602086519162461bcd60e51b8352820152602560248201527f45524332303a2064656372656173656420616c6c6f77616e63652062656c6f77604482015264207a65726f60d81b6064820152fd5b5091903461021f578160031936011261021f57805191809380549160019083821c92828516948515610567575b60209586861081146105545785895290811561053057506001146104d8575b6104d487876104ca828c0383610aaa565b51918291826109d8565b0390f35b81529295507f8a35acfbc15ff81a39ae7d344fd709f28e8600b4aa8c65c6b64bfe7fe36bd19b5b82841061051d57505050826104d4946104ca928201019438806104b9565b80548685018801529286019281016104ff565b60ff19168887015250505050151560051b83010192506104ca826104d438806104b9565b634e487b7160e01b845260228352602484fd5b93607f169361049a565b50503461021f578160031936011261021f5760055490516001600160a01b039091168152602090f35b83346103455780600319360112610345576105b3610a52565b600580546001600160a01b0319811690915581906001600160a01b03167f8be0079c531659141344cd1fd0a4f28419497f9722a3daafe3b4186f6b6457e08280a380f35b50503461021f57602036600319011261021f5760209181906001600160a01b0361061f610a21565b16815280845220549051908152f35b5090346101d257806003193601126101d257610648610a3c565b91610651610a52565b61065b8135610e83565b926001600160a01b03169081156106bc575060209361067c84600254610ae2565b6002558181528085528281208481540190557fddf252ad1be2c89b69c2b068fc378daa952ba7f163c4a11628f55a4df523b3ef858451868152a351908152f35b606490602084519162461bcd60e51b8352820152601f60248201527f45524332303a206d696e7420746f20746865207a65726f2061646472657373006044820152fd5b50503461021f578060031936011261021f576103c2602092610748610722610a21565b338352600186528483206001600160a01b03821684528652918490205460243590610ae2565b9033610c73565b50503461021f578160031936011261021f5760065490516001600160a01b039091168152602090f35b50503461021f578160031936011261021f576020905160068152f35b5082903461021f57606036600319011261021f576107b0610a21565b6107b8610a3c565b91846044359460018060a01b0384168152600160205281812033825260205220549060001982036107f2575b6020866103c2878787610b05565b84821061081b5750918391610810602096956103c295033383610c73565b9193948193506107e4565b606490602087519162461bcd60e51b8352820152601d60248201527f45524332303a20696e73756666696369656e7420616c6c6f77616e63650000006044820152fd5b50503461021f578160031936011261021f576020906002549051908152f35b50503461021f578060031936011261021f576020906103c261089d610a21565b6024359033610c73565b509134610345576020366003190112610345575061036860209235610e56565b5090346101d257826003193601126101d257805191836003549060019082821c9282811680156109b1575b602095868610821461099e575084885290811561097c5750600114610923575b6104d486866104ca828b0383610aaa565b929550600383527fc2575a0e9e593c00f959f8c92f12db2869c3395a3b0502d05e2516446f71f85b5b82841061096957505050826104d4946104ca928201019438610912565b805486850188015292860192810161094c565b60ff191687860152505050151560051b83010192506104ca826104d438610912565b634e487b7160e01b845260229052602483fd5b93607f16936108f2565b50503461021f578160031936011261021f57602090610368610d75565b6020808252825181830181905290939260005b828110610a0d57505060409293506000838284010152601f8019910116010190565b8181018601518482016040015285016109eb565b600435906001600160a01b0382168203610a3757565b600080fd5b602435906001600160a01b0382168203610a3757565b6005546001600160a01b03163303610a6657565b606460405162461bcd60e51b815260206004820152602060248201527f4f776e61626c653a2063616c6c6572206973206e6f7420746865206f776e65726044820152fd5b90601f8019910116810190811067ffffffffffffffff821117610acc57604052565b634e487b7160e01b600052604160045260246000fd5b91908201809211610aef57565b634e487b7160e01b600052601160045260246000fd5b6001600160a01b03908116918215610c205716918215610bcf57600082815280602052604081205491808310610b7b57604082827fddf252ad1be2c89b69c2b068fc378daa952ba7f163c4a11628f55a4df523b3ef958760209652828652038282205586815220818154019055604051908152a3565b60405162461bcd60e51b815260206004820152602660248201527f45524332303a207472616e7366657220616d6f756e7420657863656564732062604482015265616c616e636560d01b6064820152608490fd5b60405162461bcd60e51b815260206004820152602360248201527f45524332303a207472616e7366657220746f20746865207a65726f206164647260448201526265737360e81b6064820152608490fd5b60405162461bcd60e51b815260206004820152602560248201527f45524332303a207472616e736665722066726f6d20746865207a65726f206164604482015264647265737360d81b6064820152608490fd5b6001600160a01b03908116918215610d245716918215610cd45760207f8c5be1e5ebec7d5bd14f71427d1e84f3dd0314c0f7b2291e5b200ac8c7c3b925918360005260018252604060002085600052825280604060002055604051908152a3565b60405162461bcd60e51b815260206004820152602260248201527f45524332303a20617070726f766520746f20746865207a65726f206164647265604482015261737360f01b6064820152608490fd5b60405162461bcd60e51b8152602060048201526024808201527f45524332303a20617070726f76652066726f6d20746865207a65726f206164646044820152637265737360e01b6064820152608490fd5b600754604051632988bb9f60e21b81523060048201526001600160a01b0391610200919082908290602490829087165afa918215610e1757600092610dbc575b5050905090565b81813d8311610e10575b610dd08183610aaa565b8101031261021f5760a0810151926101a08201519081160361021f5760096101c0820151101561021f576101e00151801515036103455750803880610db5565b503d610dc6565b6040513d6000823e3d90fd5b81810292918115918404141715610aef57565b8115610e40570490565b634e487b7160e01b600052601260045260246000fd5b6002548015610e7c57610e74610e7992610e6e610d75565b90610e23565b610e36565b90565b5050600090565b600254610e8e610d75565b9081158015610eae575b610ea957610e7490610e7993610e23565b505090565b508015610e9856fea164736f6c6343000811000a6a1f3b1dd190cbef98aa225e1538128368d4e91561cef35aaa0eacfacfafe26ea164736f6c6343000811000a405787fa12a823e0f2b7631cc41b3ba8828b3321ca811111fa75cd3aa3bb5ace",
  "linkReferences": {
    "contracts/LOVCalculations.sol": {
      "LOVCalculations": [
        {
          "length": 20,
          "start": 6883
        },
        {
          "length": 20,
          "start": 7920
        },
        {
          "length": 20,
          "start": 8436
        },
        {
          "length": 20,
          "start": 9382
        }
      ]
    }
  },
  "deployedLinkReferences": {
    "contracts/LOVCalculations.sol": {
      "LOVCalculations": [
        {
          "length": 20,
          "start": 5389
        },
        {
          "length": 20,
          "start": 6426
        },
        {
          "length": 20,
          "start": 6942
        },
        {
          "length": 20,
          "start": 7888
        }
      ]
    }
  }
}