{
  "_format": "hh-sol-artifact-1",
  "contractName": "LOVProduct",
  "sourceName": "contracts/LOVProduct.sol",
  "abi": [
    {
      "inputs": [
        {
          "internalType": "address",
          "name": "_cegaState",
          "type": "address"
        },
        {
          "internalType": "address",
          "name": "_asset",
          "type": "address"
        },
        {
          "internalType": "string",
          "name": "_name",
          "type": "string"
        },
        {
          "internalType": "uint256",
          "name": "_managementFeeBps",
          "type": "uint256"
        },
        {
          "internalType": "uint256",
          "name": "_yieldFeeBps",
          "type": "uint256"
        },
        {
          "internalType": "uint256",
          "name": "_maxDepositAmountLimit",
          "type": "uint256"
        },
        {
          "internalType": "uint256",
          "name": "_minDepositAmount",
          "type": "uint256"
        },
        {
          "internalType": "uint256",
          "name": "_minWithdrawalAmount",
          "type": "uint256"
        },
        {
          "internalType": "uint256[]",
          "name": "_initialLeverages",
          "type": "uint256[]"
        }
      ],
      "stateMutability": "nonpayable",
      "type": "constructor"
    },
    {
      "anonymous": false,
      "inputs": [
        {
          "indexed": true,
          "internalType": "address",
          "name": "vaultAddress",
          "type": "address"
        },
        {
          "indexed": false,
          "internalType": "uint256",
          "name": "amount",
          "type": "uint256"
        }
      ],
      "name": "AssetsReceivedFromCegaState",
      "type": "event"
    },
    {
      "anonymous": false,
      "inputs": [
        {
          "indexed": true,
          "internalType": "address",
          "name": "vaultAddress",
          "type": "address"
        },
        {
          "indexed": true,
          "internalType": "address",
          "name": "receiver",
          "type": "address"
        },
        {
          "indexed": false,
          "internalType": "uint256",
          "name": "amount",
          "type": "uint256"
        },
        {
          "indexed": false,
          "internalType": "enum VaultStatus",
          "name": "vaultStatus",
          "type": "uint8"
        }
      ],
      "name": "AssetsSentToTrade",
      "type": "event"
    },
    {
      "anonymous": false,
      "inputs": [
        {
          "indexed": true,
          "internalType": "address",
          "name": "vaultAddress",
          "type": "address"
        },
        {
          "indexed": false,
          "internalType": "bool",
          "name": "isKnockedIn",
          "type": "bool"
        }
      ],
      "name": "BarriersChecked",
      "type": "event"
    },
    {
      "anonymous": false,
      "inputs": [
        {
          "indexed": true,
          "internalType": "address",
          "name": "vaultAddress",
          "type": "address"
        },
        {
          "indexed": true,
          "internalType": "address",
          "name": "receiver",
          "type": "address"
        },
        {
          "indexed": false,
          "internalType": "uint256",
          "name": "amount",
          "type": "uint256"
        }
      ],
      "name": "DepositProcessed",
      "type": "event"
    },
    {
      "anonymous": false,
      "inputs": [
        {
          "indexed": true,
          "internalType": "address",
          "name": "receiver",
          "type": "address"
        },
        {
          "indexed": false,
          "internalType": "uint256",
          "name": "leverage",
          "type": "uint256"
        },
        {
          "indexed": false,
          "internalType": "uint256",
          "name": "amount",
          "type": "uint256"
        }
      ],
      "name": "DepositQueued",
      "type": "event"
    },
    {
      "anonymous": false,
      "inputs": [
        {
          "indexed": true,
          "internalType": "address",
          "name": "vaultAddress",
          "type": "address"
        },
        {
          "indexed": false,
          "internalType": "uint256",
          "name": "managementFee",
          "type": "uint256"
        },
        {
          "indexed": false,
          "internalType": "uint256",
          "name": "yieldFee",
          "type": "uint256"
        },
        {
          "indexed": false,
          "internalType": "uint256",
          "name": "totalFee",
          "type": "uint256"
        },
        {
          "indexed": false,
          "internalType": "enum VaultStatus",
          "name": "vaultStatus",
          "type": "uint8"
        }
      ],
      "name": "FeesCollected",
      "type": "event"
    },
    {
      "anonymous": false,
      "inputs": [
        {
          "indexed": false,
          "internalType": "uint256",
          "name": "leverage",
          "type": "uint256"
        },
        {
          "indexed": false,
          "internalType": "bool",
          "name": "isDepositQueueOpen",
          "type": "bool"
        }
      ],
      "name": "IsDepositQueueOpenUpdated",
      "type": "event"
    },
    {
      "anonymous": false,
      "inputs": [
        {
          "indexed": true,
          "internalType": "address",
          "name": "vaultAddress",
          "type": "address"
        },
        {
          "indexed": false,
          "internalType": "bool",
          "name": "isKnockIn",
          "type": "bool"
        }
      ],
      "name": "KnockInStatusUpdated",
      "type": "event"
    },
    {
      "anonymous": false,
      "inputs": [
        {
          "indexed": true,
          "internalType": "address",
          "name": "cegaState",
          "type": "address"
        },
        {
          "indexed": true,
          "internalType": "address",
          "name": "asset",
          "type": "address"
        },
        {
          "indexed": false,
          "internalType": "string",
          "name": "name",
          "type": "string"
        },
        {
          "indexed": false,
          "internalType": "uint256",
          "name": "managementFeeBps",
          "type": "uint256"
        },
        {
          "indexed": false,
          "internalType": "uint256",
          "name": "yieldFeeBps",
          "type": "uint256"
        },
        {
          "indexed": false,
          "internalType": "uint256",
          "name": "maxDepositAmountLimit",
          "type": "uint256"
        },
        {
          "indexed": false,
          "internalType": "uint256",
          "name": "minDepositAmount",
          "type": "uint256"
        },
        {
          "indexed": false,
          "internalType": "uint256",
          "name": "minWithdrawalAmount",
          "type": "uint256"
        },
        {
          "indexed": false,
          "internalType": "uint256[]",
          "name": "initialLeverages",
          "type": "uint256[]"
        }
      ],
      "name": "LOVProductCreated",
      "type": "event"
    },
    {
      "anonymous": false,
      "inputs": [
        {
          "indexed": false,
          "internalType": "uint256",
          "name": "leverage",
          "type": "uint256"
        },
        {
          "indexed": false,
          "internalType": "bool",
          "name": "isAllowed",
          "type": "bool"
        }
      ],
      "name": "LeverageUpdated",
      "type": "event"
    },
    {
      "anonymous": false,
      "inputs": [
        {
          "indexed": false,
          "internalType": "uint256",
          "name": "managementFeeBps",
          "type": "uint256"
        }
      ],
      "name": "ManagementFeeBpsUpdated",
      "type": "event"
    },
    {
      "anonymous": false,
      "inputs": [
        {
          "indexed": false,
          "internalType": "uint256",
          "name": "leverage",
          "type": "uint256"
        },
        {
          "indexed": false,
          "internalType": "uint256",
          "name": "maxDepositAmountLimit",
          "type": "uint256"
        }
      ],
      "name": "MaxDepositAmountLimitUpdated",
      "type": "event"
    },
    {
      "anonymous": false,
      "inputs": [
        {
          "indexed": false,
          "internalType": "uint256",
          "name": "minDepositAmount",
          "type": "uint256"
        }
      ],
      "name": "MinDepositAmountUpdated",
      "type": "event"
    },
    {
      "anonymous": false,
      "inputs": [
        {
          "indexed": false,
          "internalType": "uint256",
          "name": "minWithdrawalAmount",
          "type": "uint256"
        }
      ],
      "name": "MinWithdrawalAmountUpdated",
      "type": "event"
    },
    {
      "anonymous": false,
      "inputs": [
        {
          "indexed": true,
          "internalType": "address",
          "name": "vaultAddress",
          "type": "address"
        },
        {
          "indexed": false,
          "internalType": "uint256",
          "name": "barrierBps",
          "type": "uint256"
        },
        {
          "indexed": false,
          "internalType": "uint256",
          "name": "barrierAbsoluteValue",
          "type": "uint256"
        },
        {
          "indexed": false,
          "internalType": "uint256",
          "name": "strikeBps",
          "type": "uint256"
        },
        {
          "indexed": false,
          "internalType": "uint256",
          "name": "strikeAbsoluteValue",
          "type": "uint256"
        },
        {
          "indexed": false,
          "internalType": "string",
          "name": "asset",
          "type": "string"
        },
        {
          "indexed": false,
          "internalType": "string",
          "name": "oracleName",
          "type": "string"
        },
        {
          "indexed": false,
          "internalType": "enum OptionBarrierType",
          "name": "barrierType",
          "type": "uint8"
        }
      ],
      "name": "OptionBarrierAdded",
      "type": "event"
    },
    {
      "anonymous": false,
      "inputs": [
        {
          "indexed": true,
          "internalType": "address",
          "name": "vaultAddress",
          "type": "address"
        },
        {
          "indexed": false,
          "internalType": "uint256",
          "name": "index",
          "type": "uint256"
        },
        {
          "indexed": false,
          "internalType": "string",
          "name": "_asset",
          "type": "string"
        },
        {
          "indexed": false,
          "internalType": "string",
          "name": "_oracleName",
          "type": "string"
        }
      ],
      "name": "OptionBarrierOracleUpdated",
      "type": "event"
    },
    {
      "anonymous": false,
      "inputs": [
        {
          "indexed": true,
          "internalType": "address",
          "name": "vaultAddress",
          "type": "address"
        },
        {
          "indexed": false,
          "internalType": "uint256",
          "name": "index",
          "type": "uint256"
        },
        {
          "indexed": false,
          "internalType": "string",
          "name": "asset",
          "type": "string"
        }
      ],
      "name": "OptionBarrierRemoved",
      "type": "event"
    },
    {
      "anonymous": false,
      "inputs": [
        {
          "indexed": true,
          "internalType": "address",
          "name": "vaultAddress",
          "type": "address"
        },
        {
          "indexed": false,
          "internalType": "uint256",
          "name": "index",
          "type": "uint256"
        },
        {
          "indexed": false,
          "internalType": "string",
          "name": "_asset",
          "type": "string"
        },
        {
          "indexed": false,
          "internalType": "uint256",
          "name": "_strikeAbsoluteValue",
          "type": "uint256"
        },
        {
          "indexed": false,
          "internalType": "uint256",
          "name": "_barrierAbsoluteValue",
          "type": "uint256"
        }
      ],
      "name": "OptionBarrierUpated",
      "type": "event"
    },
    {
      "anonymous": false,
      "inputs": [
        {
          "indexed": true,
          "internalType": "address",
          "name": "vaultAddress",
          "type": "address"
        },
        {
          "indexed": false,
          "internalType": "uint256",
          "name": "_tradeDate",
          "type": "uint256"
        },
        {
          "indexed": false,
          "internalType": "uint256",
          "name": "_tradeExpiry",
          "type": "uint256"
        },
        {
          "indexed": false,
          "internalType": "uint256",
          "name": "_aprBps",
          "type": "uint256"
        },
        {
          "indexed": false,
          "internalType": "uint256",
          "name": "_tenorInDays",
          "type": "uint256"
        }
      ],
      "name": "TradeDataSet",
      "type": "event"
    },
    {
      "anonymous": false,
      "inputs": [
        {
          "indexed": true,
          "internalType": "address",
          "name": "vaultAddress",
          "type": "address"
        },
        {
          "indexed": false,
          "internalType": "string",
          "name": "_tokenSymbol",
          "type": "string"
        },
        {
          "indexed": false,
          "internalType": "string",
          "name": "_tokenName",
          "type": "string"
        },
        {
          "indexed": false,
          "internalType": "uint256",
          "name": "_vaultStart",
          "type": "uint256"
        },
        {
          "indexed": false,
          "internalType": "uint256",
          "name": "_leverage",
          "type": "uint256"
        }
      ],
      "name": "VaultCreated",
      "type": "event"
    },
    {
      "anonymous": false,
      "inputs": [
        {
          "indexed": true,
          "internalType": "address",
          "name": "vaultAddress",
          "type": "address"
        },
        {
          "indexed": false,
          "internalType": "uint256",
          "name": "finalPayoffAmount",
          "type": "uint256"
        },
        {
          "indexed": false,
          "internalType": "enum VaultStatus",
          "name": "vaultStatus",
          "type": "uint8"
        }
      ],
      "name": "VaultFinalPayoffCalculated",
      "type": "event"
    },
    {
      "anonymous": false,
      "inputs": [
        {
          "indexed": true,
          "internalType": "address",
          "name": "vaultAddress",
          "type": "address"
        }
      ],
      "name": "VaultMetadataUpdated",
      "type": "event"
    },
    {
      "anonymous": false,
      "inputs": [
        {
          "indexed": true,
          "internalType": "address",
          "name": "vaultAddress",
          "type": "address"
        }
      ],
      "name": "VaultRemoved",
      "type": "event"
    },
    {
      "anonymous": false,
      "inputs": [
        {
          "indexed": true,
          "internalType": "address",
          "name": "vaultAddress",
          "type": "address"
        },
        {
          "indexed": false,
          "internalType": "uint256",
          "name": "vaultStart",
          "type": "uint256"
        },
        {
          "indexed": false,
          "internalType": "enum VaultStatus",
          "name": "vaultStatus",
          "type": "uint8"
        }
      ],
      "name": "VaultRollover",
      "type": "event"
    },
    {
      "anonymous": false,
      "inputs": [
        {
          "indexed": true,
          "internalType": "address",
          "name": "vaultAddress",
          "type": "address"
        },
        {
          "indexed": false,
          "internalType": "enum VaultStatus",
          "name": "vaultStatus",
          "type": "uint8"
        }
      ],
      "name": "VaultStatusUpdated",
      "type": "event"
    },
    {
      "anonymous": false,
      "inputs": [
        {
          "indexed": true,
          "internalType": "address",
          "name": "vaultAddress",
          "type": "address"
        },
        {
          "indexed": true,
          "internalType": "address",
          "name": "receiver",
          "type": "address"
        },
        {
          "indexed": false,
          "internalType": "uint256",
          "name": "amountShares",
          "type": "uint256"
        },
        {
          "indexed": false,
          "internalType": "uint256",
          "name": "amountAssets",
          "type": "uint256"
        }
      ],
      "name": "WithdrawalProcessed",
      "type": "event"
    },
    {
      "anonymous": false,
      "inputs": [
        {
          "indexed": true,
          "internalType": "address",
          "name": "vaultAddress",
          "type": "address"
        },
        {
          "indexed": true,
          "internalType": "address",
          "name": "receiver",
          "type": "address"
        },
        {
          "indexed": false,
          "internalType": "uint256",
          "name": "amountShares",
          "type": "uint256"
        }
      ],
      "name": "WithdrawalQueued",
      "type": "event"
    },
    {
      "anonymous": false,
      "inputs": [
        {
          "indexed": false,
          "internalType": "uint256",
          "name": "yieldFeeBps",
          "type": "uint256"
        }
      ],
      "name": "YieldFeeBpsUpdated",
      "type": "event"
    },
    {
      "inputs": [
        {
          "internalType": "address",
          "name": "vaultAddress",
          "type": "address"
        },
        {
          "components": [
            {
              "internalType": "uint256",
              "name": "barrierBps",
              "type": "uint256"
            },
            {
              "internalType": "uint256",
              "name": "barrierAbsoluteValue",
              "type": "uint256"
            },
            {
              "internalType": "uint256",
              "name": "strikeBps",
              "type": "uint256"
            },
            {
              "internalType": "uint256",
              "name": "strikeAbsoluteValue",
              "type": "uint256"
            },
            {
              "internalType": "string",
              "name": "asset",
              "type": "string"
            },
            {
              "internalType": "string",
              "name": "oracleName",
              "type": "string"
            },
            {
              "internalType": "enum OptionBarrierType",
              "name": "barrierType",
              "type": "uint8"
            }
          ],
          "internalType": "struct OptionBarrier",
          "name": "optionBarrier",
          "type": "tuple"
        }
      ],
      "name": "addOptionBarrier",
      "outputs": [],
      "stateMutability": "nonpayable",
      "type": "function"
    },
    {
      "inputs": [
        {
          "internalType": "uint256",
          "name": "leverage",
          "type": "uint256"
        },
        {
          "internalType": "uint256",
          "name": "amount",
          "type": "uint256"
        }
      ],
      "name": "addToDepositQueue",
      "outputs": [],
      "stateMutability": "nonpayable",
      "type": "function"
    },
    {
      "inputs": [
        {
          "internalType": "address",
          "name": "vaultAddress",
          "type": "address"
        },
        {
          "internalType": "uint256",
          "name": "amountShares",
          "type": "uint256"
        }
      ],
      "name": "addToWithdrawalQueue",
      "outputs": [],
      "stateMutability": "nonpayable",
      "type": "function"
    },
    {
      "inputs": [],
      "name": "asset",
      "outputs": [
        {
          "internalType": "address",
          "name": "",
          "type": "address"
        }
      ],
      "stateMutability": "view",
      "type": "function"
    },
    {
      "inputs": [
        {
          "internalType": "address",
          "name": "vaultAddress",
          "type": "address"
        }
      ],
      "name": "calculateCurrentYield",
      "outputs": [],
      "stateMutability": "nonpayable",
      "type": "function"
    },
    {
      "inputs": [
        {
          "internalType": "address",
          "name": "vaultAddress",
          "type": "address"
        }
      ],
      "name": "calculateVaultFinalPayoff",
      "outputs": [
        {
          "internalType": "uint256",
          "name": "vaultFinalPayoff",
          "type": "uint256"
        }
      ],
      "stateMutability": "nonpayable",
      "type": "function"
    },
    {
      "inputs": [],
      "name": "cegaState",
      "outputs": [
        {
          "internalType": "contract ICegaState",
          "name": "",
          "type": "address"
        }
      ],
      "stateMutability": "view",
      "type": "function"
    },
    {
      "inputs": [
        {
          "internalType": "address",
          "name": "vaultAddress",
          "type": "address"
        }
      ],
      "name": "checkBarriers",
      "outputs": [],
      "stateMutability": "nonpayable",
      "type": "function"
    },
    {
      "inputs": [
        {
          "internalType": "address",
          "name": "vaultAddress",
          "type": "address"
        }
      ],
      "name": "collectFees",
      "outputs": [],
      "stateMutability": "nonpayable",
      "type": "function"
    },
    {
      "inputs": [
        {
          "internalType": "string",
          "name": "_tokenName",
          "type": "string"
        },
        {
          "internalType": "string",
          "name": "_tokenSymbol",
          "type": "string"
        },
        {
          "internalType": "uint256",
          "name": "_vaultStart",
          "type": "uint256"
        },
        {
          "internalType": "uint256",
          "name": "_leverage",
          "type": "uint256"
        }
      ],
      "name": "createVault",
      "outputs": [
        {
          "internalType": "address",
          "name": "vaultAddress",
          "type": "address"
        }
      ],
      "stateMutability": "nonpayable",
      "type": "function"
    },
    {
      "inputs": [
        {
          "internalType": "uint256",
          "name": "",
          "type": "uint256"
        },
        {
          "internalType": "uint256",
          "name": "",
          "type": "uint256"
        }
      ],
      "name": "depositQueues",
      "outputs": [
        {
          "internalType": "uint256",
          "name": "amount",
          "type": "uint256"
        },
        {
          "internalType": "address",
          "name": "receiver",
          "type": "address"
        }
      ],
      "stateMutability": "view",
      "type": "function"
    },
    {
      "inputs": [
        {
          "internalType": "uint256",
          "name": "leverage",
          "type": "uint256"
        }
      ],
      "name": "getDepositQueueCount",
      "outputs": [
        {
          "internalType": "uint256",
          "name": "",
          "type": "uint256"
        }
      ],
      "stateMutability": "view",
      "type": "function"
    },
    {
      "inputs": [
        {
          "internalType": "uint256",
          "name": "leverage",
          "type": "uint256"
        }
      ],
      "name": "getVaultAddresses",
      "outputs": [
        {
          "internalType": "address[]",
          "name": "",
          "type": "address[]"
        }
      ],
      "stateMutability": "view",
      "type": "function"
    },
    {
      "inputs": [
        {
          "internalType": "address",
          "name": "vaultAddress",
          "type": "address"
        }
      ],
      "name": "getVaultMetadata",
      "outputs": [
        {
          "components": [
            {
              "internalType": "uint256",
              "name": "vaultStart",
              "type": "uint256"
            },
            {
              "internalType": "uint256",
              "name": "tradeDate",
              "type": "uint256"
            },
            {
              "internalType": "uint256",
              "name": "tradeExpiry",
              "type": "uint256"
            },
            {
              "internalType": "uint256",
              "name": "aprBps",
              "type": "uint256"
            },
            {
              "internalType": "uint256",
              "name": "tenorInDays",
              "type": "uint256"
            },
            {
              "internalType": "uint256",
              "name": "underlyingAmount",
              "type": "uint256"
            },
            {
              "internalType": "uint256",
              "name": "currentAssetAmount",
              "type": "uint256"
            },
            {
              "internalType": "uint256",
              "name": "totalCouponPayoff",
              "type": "uint256"
            },
            {
              "internalType": "uint256",
              "name": "vaultFinalPayoff",
              "type": "uint256"
            },
            {
              "internalType": "uint256",
              "name": "queuedWithdrawalsSharesAmount",
              "type": "uint256"
            },
            {
              "internalType": "uint256",
              "name": "queuedWithdrawalsCount",
              "type": "uint256"
            },
            {
              "internalType": "uint256",
              "name": "optionBarriersCount",
              "type": "uint256"
            },
            {
              "internalType": "uint256",
              "name": "leverage",
              "type": "uint256"
            },
            {
              "internalType": "address",
              "name": "vaultAddress",
              "type": "address"
            },
            {
              "internalType": "enum VaultStatus",
              "name": "vaultStatus",
              "type": "uint8"
            },
            {
              "internalType": "bool",
              "name": "isKnockedIn",
              "type": "bool"
            },
            {
              "components": [
                {
                  "internalType": "uint256",
                  "name": "barrierBps",
                  "type": "uint256"
                },
                {
                  "internalType": "uint256",
                  "name": "barrierAbsoluteValue",
                  "type": "uint256"
                },
                {
                  "internalType": "uint256",
                  "name": "strikeBps",
                  "type": "uint256"
                },
                {
                  "internalType": "uint256",
                  "name": "strikeAbsoluteValue",
                  "type": "uint256"
                },
                {
                  "internalType": "string",
                  "name": "asset",
                  "type": "string"
                },
                {
                  "internalType": "string",
                  "name": "oracleName",
                  "type": "string"
                },
                {
                  "internalType": "enum OptionBarrierType",
                  "name": "barrierType",
                  "type": "uint8"
                }
              ],
              "internalType": "struct OptionBarrier[]",
              "name": "optionBarriers",
              "type": "tuple[]"
            }
          ],
          "internalType": "struct FCNVaultMetadata",
          "name": "",
          "type": "tuple"
        }
      ],
      "stateMutability": "view",
      "type": "function"
    },
    {
      "inputs": [
        {
          "internalType": "uint256",
          "name": "",
          "type": "uint256"
        }
      ],
      "name": "leverages",
      "outputs": [
        {
          "internalType": "bool",
          "name": "isAllowed",
          "type": "bool"
        },
        {
          "internalType": "bool",
          "name": "isDepositQueueOpen",
          "type": "bool"
        },
        {
          "internalType": "uint256",
          "name": "maxDepositAmountLimit",
          "type": "uint256"
        },
        {
          "internalType": "uint256",
          "name": "sumVaultUnderlyingAmounts",
          "type": "uint256"
        },
        {
          "internalType": "uint256",
          "name": "queuedDepositsTotalAmount",
          "type": "uint256"
        }
      ],
      "stateMutability": "view",
      "type": "function"
    },
    {
      "inputs": [],
      "name": "managementFeeBps",
      "outputs": [
        {
          "internalType": "uint256",
          "name": "",
          "type": "uint256"
        }
      ],
      "stateMutability": "view",
      "type": "function"
    },
    {
      "inputs": [],
      "name": "minDepositAmount",
      "outputs": [
        {
          "internalType": "uint256",
          "name": "",
          "type": "uint256"
        }
      ],
      "stateMutability": "view",
      "type": "function"
    },
    {
      "inputs": [],
      "name": "minWithdrawalAmount",
      "outputs": [
        {
          "internalType": "uint256",
          "name": "",
          "type": "uint256"
        }
      ],
      "stateMutability": "view",
      "type": "function"
    },
    {
      "inputs": [],
      "name": "name",
      "outputs": [
        {
          "internalType": "string",
          "name": "",
          "type": "string"
        }
      ],
      "stateMutability": "view",
      "type": "function"
    },
    {
      "inputs": [
        {
          "internalType": "address",
          "name": "vaultAddress",
          "type": "address"
        }
      ],
      "name": "openVaultDeposits",
      "outputs": [],
      "stateMutability": "nonpayable",
      "type": "function"
    },
    {
      "inputs": [
        {
          "internalType": "address",
          "name": "vaultAddress",
          "type": "address"
        },
        {
          "internalType": "uint256",
          "name": "maxProcessCount",
          "type": "uint256"
        }
      ],
      "name": "processDepositQueue",
      "outputs": [],
      "stateMutability": "nonpayable",
      "type": "function"
    },
    {
      "inputs": [
        {
          "internalType": "address",
          "name": "vaultAddress",
          "type": "address"
        },
        {
          "internalType": "uint256",
          "name": "maxProcessCount",
          "type": "uint256"
        }
      ],
      "name": "processWithdrawalQueue",
      "outputs": [],
      "stateMutability": "nonpayable",
      "type": "function"
    },
    {
      "inputs": [
        {
          "internalType": "address",
          "name": "vaultAddress",
          "type": "address"
        },
        {
          "internalType": "uint256",
          "name": "amount",
          "type": "uint256"
        }
      ],
      "name": "receiveAssetsFromCegaState",
      "outputs": [],
      "stateMutability": "nonpayable",
      "type": "function"
    },
    {
      "inputs": [
        {
          "internalType": "address",
          "name": "vaultAddress",
          "type": "address"
        },
        {
          "internalType": "uint256",
          "name": "index",
          "type": "uint256"
        },
        {
          "internalType": "string",
          "name": "_asset",
          "type": "string"
        }
      ],
      "name": "removeOptionBarrier",
      "outputs": [],
      "stateMutability": "nonpayable",
      "type": "function"
    },
    {
      "inputs": [
        {
          "internalType": "uint256",
          "name": "leverage",
          "type": "uint256"
        },
        {
          "internalType": "uint256",
          "name": "i",
          "type": "uint256"
        }
      ],
      "name": "removeVault",
      "outputs": [],
      "stateMutability": "nonpayable",
      "type": "function"
    },
    {
      "inputs": [
        {
          "internalType": "address",
          "name": "vaultAddress",
          "type": "address"
        }
      ],
      "name": "rolloverVault",
      "outputs": [],
      "stateMutability": "nonpayable",
      "type": "function"
    },
    {
      "inputs": [
        {
          "internalType": "address",
          "name": "vaultAddress",
          "type": "address"
        },
        {
          "internalType": "address",
          "name": "receiver",
          "type": "address"
        },
        {
          "internalType": "uint256",
          "name": "amount",
          "type": "uint256"
        }
      ],
      "name": "sendAssetsToTrade",
      "outputs": [],
      "stateMutability": "nonpayable",
      "type": "function"
    },
    {
      "inputs": [
        {
          "internalType": "uint256",
          "name": "_leverage",
          "type": "uint256"
        },
        {
          "internalType": "bool",
          "name": "_isDepositQueueOpen",
          "type": "bool"
        }
      ],
      "name": "setIsDepositQueueOpen",
      "outputs": [],
      "stateMutability": "nonpayable",
      "type": "function"
    },
    {
      "inputs": [
        {
          "internalType": "address",
          "name": "vaultAddress",
          "type": "address"
        },
        {
          "internalType": "bool",
          "name": "newState",
          "type": "bool"
        }
      ],
      "name": "setKnockInStatus",
      "outputs": [],
      "stateMutability": "nonpayable",
      "type": "function"
    },
    {
      "inputs": [
        {
          "internalType": "uint256",
          "name": "_managementFeeBps",
          "type": "uint256"
        }
      ],
      "name": "setManagementFeeBps",
      "outputs": [],
      "stateMutability": "nonpayable",
      "type": "function"
    },
    {
      "inputs": [
        {
          "internalType": "uint256",
          "name": "_leverage",
          "type": "uint256"
        },
        {
          "internalType": "uint256",
          "name": "_maxDepositAmountLimit",
          "type": "uint256"
        }
      ],
      "name": "setMaxDepositAmountLimit",
      "outputs": [],
      "stateMutability": "nonpayable",
      "type": "function"
    },
    {
      "inputs": [
        {
          "internalType": "uint256",
          "name": "_minDepositAmount",
          "type": "uint256"
        }
      ],
      "name": "setMinDepositAmount",
      "outputs": [],
      "stateMutability": "nonpayable",
      "type": "function"
    },
    {
      "inputs": [
        {
          "internalType": "uint256",
          "name": "_minWithdrawalAmount",
          "type": "uint256"
        }
      ],
      "name": "setMinWithdrawalAmount",
      "outputs": [],
      "stateMutability": "nonpayable",
      "type": "function"
    },
    {
      "inputs": [
        {
          "internalType": "address",
          "name": "vaultAddress",
          "type": "address"
        },
        {
          "internalType": "uint256",
          "name": "_tradeDate",
          "type": "uint256"
        },
        {
          "internalType": "uint256",
          "name": "_tradeExpiry",
          "type": "uint256"
        },
        {
          "internalType": "uint256",
          "name": "_aprBps",
          "type": "uint256"
        },
        {
          "internalType": "uint256",
          "name": "_tenorInDays",
          "type": "uint256"
        }
      ],
      "name": "setTradeData",
      "outputs": [],
      "stateMutability": "nonpayable",
      "type": "function"
    },
    {
      "inputs": [
        {
          "internalType": "address",
          "name": "vaultAddress",
          "type": "address"
        },
        {
          "components": [
            {
              "internalType": "uint256",
              "name": "vaultStart",
              "type": "uint256"
            },
            {
              "internalType": "uint256",
              "name": "tradeDate",
              "type": "uint256"
            },
            {
              "internalType": "uint256",
              "name": "tradeExpiry",
              "type": "uint256"
            },
            {
              "internalType": "uint256",
              "name": "aprBps",
              "type": "uint256"
            },
            {
              "internalType": "uint256",
              "name": "tenorInDays",
              "type": "uint256"
            },
            {
              "internalType": "uint256",
              "name": "underlyingAmount",
              "type": "uint256"
            },
            {
              "internalType": "uint256",
              "name": "currentAssetAmount",
              "type": "uint256"
            },
            {
              "internalType": "uint256",
              "name": "totalCouponPayoff",
              "type": "uint256"
            },
            {
              "internalType": "uint256",
              "name": "vaultFinalPayoff",
              "type": "uint256"
            },
            {
              "internalType": "uint256",
              "name": "queuedWithdrawalsSharesAmount",
              "type": "uint256"
            },
            {
              "internalType": "uint256",
              "name": "queuedWithdrawalsCount",
              "type": "uint256"
            },
            {
              "internalType": "uint256",
              "name": "optionBarriersCount",
              "type": "uint256"
            },
            {
              "internalType": "uint256",
              "name": "leverage",
              "type": "uint256"
            },
            {
              "internalType": "address",
              "name": "vaultAddress",
              "type": "address"
            },
            {
              "internalType": "enum VaultStatus",
              "name": "vaultStatus",
              "type": "uint8"
            },
            {
              "internalType": "bool",
              "name": "isKnockedIn",
              "type": "bool"
            },
            {
              "components": [
                {
                  "internalType": "uint256",
                  "name": "barrierBps",
                  "type": "uint256"
                },
                {
                  "internalType": "uint256",
                  "name": "barrierAbsoluteValue",
                  "type": "uint256"
                },
                {
                  "internalType": "uint256",
                  "name": "strikeBps",
                  "type": "uint256"
                },
                {
                  "internalType": "uint256",
                  "name": "strikeAbsoluteValue",
                  "type": "uint256"
                },
                {
                  "internalType": "string",
                  "name": "asset",
                  "type": "string"
                },
                {
                  "internalType": "string",
                  "name": "oracleName",
                  "type": "string"
                },
                {
                  "internalType": "enum OptionBarrierType",
                  "name": "barrierType",
                  "type": "uint8"
                }
              ],
              "internalType": "struct OptionBarrier[]",
              "name": "optionBarriers",
              "type": "tuple[]"
            }
          ],
          "internalType": "struct FCNVaultMetadata",
          "name": "metadata",
          "type": "tuple"
        }
      ],
      "name": "setVaultMetadata",
      "outputs": [],
      "stateMutability": "nonpayable",
      "type": "function"
    },
    {
      "inputs": [
        {
          "internalType": "address",
          "name": "vaultAddress",
          "type": "address"
        },
        {
          "internalType": "enum VaultStatus",
          "name": "_vaultStatus",
          "type": "uint8"
        }
      ],
      "name": "setVaultStatus",
      "outputs": [],
      "stateMutability": "nonpayable",
      "type": "function"
    },
    {
      "inputs": [
        {
          "internalType": "uint256",
          "name": "_yieldFeeBps",
          "type": "uint256"
        }
      ],
      "name": "setYieldFeeBps",
      "outputs": [],
      "stateMutability": "nonpayable",
      "type": "function"
    },
    {
      "inputs": [
        {
          "internalType": "uint256",
          "name": "_leverage",
          "type": "uint256"
        },
        {
          "internalType": "bool",
          "name": "_isAllowed",
          "type": "bool"
        }
      ],
      "name": "updateAllowedLeverage",
      "outputs": [],
      "stateMutability": "nonpayable",
      "type": "function"
    },
    {
      "inputs": [
        {
          "internalType": "address",
          "name": "vaultAddress",
          "type": "address"
        },
        {
          "internalType": "uint256",
          "name": "index",
          "type": "uint256"
        },
        {
          "internalType": "string",
          "name": "_asset",
          "type": "string"
        },
        {
          "internalType": "uint256",
          "name": "_strikeAbsoluteValue",
          "type": "uint256"
        },
        {
          "internalType": "uint256",
          "name": "_barrierAbsoluteValue",
          "type": "uint256"
        }
      ],
      "name": "updateOptionBarrier",
      "outputs": [],
      "stateMutability": "nonpayable",
      "type": "function"
    },
    {
      "inputs": [
        {
          "internalType": "address",
          "name": "vaultAddress",
          "type": "address"
        },
        {
          "internalType": "uint256",
          "name": "index",
          "type": "uint256"
        },
        {
          "internalType": "string",
          "name": "_asset",
          "type": "string"
        },
        {
          "internalType": "string",
          "name": "newOracleName",
          "type": "string"
        }
      ],
      "name": "updateOptionBarrierOracle",
      "outputs": [],
      "stateMutability": "nonpayable",
      "type": "function"
    },
    {
      "inputs": [
        {
          "internalType": "address",
          "name": "",
          "type": "address"
        }
      ],
      "name": "vaults",
      "outputs": [
        {
          "internalType": "uint256",
          "name": "vaultStart",
          "type": "uint256"
        },
        {
          "internalType": "uint256",
          "name": "tradeDate",
          "type": "uint256"
        },
        {
          "internalType": "uint256",
          "name": "tradeExpiry",
          "type": "uint256"
        },
        {
          "internalType": "uint256",
          "name": "aprBps",
          "type": "uint256"
        },
        {
          "internalType": "uint256",
          "name": "tenorInDays",
          "type": "uint256"
        },
        {
          "internalType": "uint256",
          "name": "underlyingAmount",
          "type": "uint256"
        },
        {
          "internalType": "uint256",
          "name": "currentAssetAmount",
          "type": "uint256"
        },
        {
          "internalType": "uint256",
          "name": "totalCouponPayoff",
          "type": "uint256"
        },
        {
          "internalType": "uint256",
          "name": "vaultFinalPayoff",
          "type": "uint256"
        },
        {
          "internalType": "uint256",
          "name": "queuedWithdrawalsSharesAmount",
          "type": "uint256"
        },
        {
          "internalType": "uint256",
          "name": "queuedWithdrawalsCount",
          "type": "uint256"
        },
        {
          "internalType": "uint256",
          "name": "optionBarriersCount",
          "type": "uint256"
        },
        {
          "internalType": "uint256",
          "name": "leverage",
          "type": "uint256"
        },
        {
          "internalType": "address",
          "name": "vaultAddress",
          "type": "address"
        },
        {
          "internalType": "enum VaultStatus",
          "name": "vaultStatus",
          "type": "uint8"
        },
        {
          "internalType": "bool",
          "name": "isKnockedIn",
          "type": "bool"
        }
      ],
      "stateMutability": "view",
      "type": "function"
    },
    {
      "inputs": [
        {
          "internalType": "address",
          "name": "",
          "type": "address"
        },
        {
          "internalType": "uint256",
          "name": "",
          "type": "uint256"
        }
      ],
      "name": "withdrawalQueues",
      "outputs": [
        {
          "internalType": "uint256",
          "name": "amountShares",
          "type": "uint256"
        },
        {
          "internalType": "address",
          "name": "receiver",
          "type": "address"
        }
      ],
      "stateMutability": "view",
      "type": "function"
    },
    {
      "inputs": [],
      "name": "yieldFeeBps",
      "outputs": [
        {
          "internalType": "uint256",
          "name": "",
          "type": "uint256"
        }
      ],
      "stateMutability": "view",
      "type": "function"
    }
  ],
  "bytecode": "0x60a060405234620004d957620065d7803803806200001d81620004de565b928339610120828281010312620004d957620000398262000504565b91620000486020820162000504565b60408201519093906001600160401b038111620004d957820192808301601f85011215620004d9578351936001600160401b038511620004ae5762000097601f8601601f1916602001620004de565b9480865282850160208284010111620004d957620000bc916020808801910162000519565b60608301519360808401519560a08501519560c08601519760e08701516101008801519760018060401b038911620004d957868101601f8a8301011215620004d95780890151906001600160401b038211620004ae576200012360208360051b01620004de565b9960208b84815201918299810160208560051b848401010111620004d95780820160200192915b60208560051b82840101018410620004c45750505050506001600055620001826127106200017a8186106200053e565b83106200053e565b6200018f8a151562000574565b6200019c81151562000574565b600180546001600160a01b0319166001600160a01b038916179055608084905284516001600160401b038111620004ae57600254600181811c91168015620004a3575b60208210146200048d57601f811162000438575b50806020601f8211600114620003bf57600091620003b3575b508160011b916000199060031b1c1916176002555b8260035581600455896005558060065560005b8851811015620002aa576200024a818a620005aa565b516000526007806020526040600020600160ff1982541617905562000270828b620005aa565b51600052602052896001604060002001556000198114620002945760010162000234565b634e487b7160e01b600052601160045260246000fd5b509087610120928b8b610100620002d9604051809b60e082526020815194838660e08196015201910162000519565b601f801991011689019461010086019760208b015260408a01526060890152608088015260a08701526101008683030160c08701525180935201939060005b8181106200039c575050506001600160a01b039081169316917fa3da5171f0184ad75dfcff7e31f261915436f695fe67a7e23fd108bcc1b2ebcf919081900390a3604051615fe19081620005d6823960805181818161031c01528181610b5d01528181611c8b01528181611f8a01528181613006015281816135c10152613ccc0152f35b825186526020958601959092019160010162000318565b9050860151386200020c565b600260009081529250600080516020620065b7833981519152905b601f19831684106200041f576001935082601f1981161062000405575b5050811b0160025562000221565b88015160001960f88460031b161c191690553880620003f7565b88810151825560209384019360019092019101620003da565b6002600052600080516020620065b7833981519152601f830160051c81016020841062000485575b601f830160051c8201811062000478575050620001f3565b6000815560010162000460565b508062000460565b634e487b7160e01b600052602260045260246000fd5b90607f1690620001df565b634e487b7160e01b600052604160045260246000fd5b6020808094865181520194019392506200014a565b600080fd5b6040519190601f01601f191682016001600160401b03811183821017620004ae57604052565b51906001600160a01b0382168203620004d957565b60005b8381106200052d5750506000910152565b81810151838201526020016200051c565b156200054657565b60405162461bcd60e51b81526020600482015260066024820152651a18181d24a160d11b6044820152606490fd5b156200057c57565b60405162461bcd60e51b81526020600482015260066024820152653430303a495560d01b6044820152606490fd5b8051821015620005bf5760209160051b010190565b634e487b7160e01b600052603260045260246000fdfe60808060405260043610156200001457600080fd5b600090813560e01c908163013bbfd21462003ea45750806306fdde031462003dad578063086b48481462003bac578063283aee581462003b555780632a80cda31462003abc5780632b6e104614620039c75780632b8fa44b146200363b5780632f87045c14620036105780633813c35a14620035f057806338d52e0f14620035a95780633a64f1f5146200350e57806340e8d70314620031575780634609c4ff1462002f505780635239f4871462002e9357806357a925421462002d73578063596dfbe41462002c1357806359c1c1421462002bf3578063645006ca1462002bd357806377ce02011462002b385780638312f1491462002b185780638355e9c91462002a29578063840b7835146200291857806385b5b14d14620028645780638e575a8514620026945780638fef16d5146200249257806396ad984f146200241d57806396ce94bf146200231f5780639842311a1462002113578063a480ca791462001dfe578063a622ee7c1462001cfd578063a63c16bb1462001bee578063ae7326141462001b8d578063b379e0bf1462001aeb578063b4d9fab414620019f2578063b732f2f114620018e3578063b7d1814514620015c5578063bcd0fb2f146200149d578063dc4f1e491462001068578063e16c1e3d1462000d11578063f14c1b79146200082c578063f343cff0146200073a578063fb0c18b214620004dc5763fe59551f146200022657600080fd5b34620004d9576080366003190112620004d9576001600160401b0390600435828111620004d5576200025d9036906004016200412a565b602435838111620004d157620002789036906004016200412a565b600154604051630ddd3b3160e21b81523360048201526020959293604435936064359391926001600160a01b039289908290602490829087165afa908115620004c65790620002d091899162000492575b506200429a565b620002dd851515620042f4565b83875260078852620002f660ff60408920541662004265565b604051906112ef808301918211838310176200047e578291620003639162004cc68439847f000000000000000000000000000000000000000000000000000000000000000016815260608b8201526200035360608201876200402b565b906040818303910152886200402b565b039087f08015620004735716948281526007875260046040822001805490600160401b8210156200045f5787969385600c60407f07f1052e1739f73da4d084bbe1c0487e548ac630147b598dbd9ab59bb157068a999660098e620004018e620003dd8b6200043b9f9c9b6001620004499d0181556200432a565b90919082549060031b9160018060a01b039283811b93849216901b16911916179055565b8d83525220868155600d81018b6bffffffffffffffffffffffff60a01b82541617905501556040519586956080875260808701906200402b565b908582038b8701526200402b565b91604084015260608301520390a2604051908152f35b634e487b7160e01b83526041600452602483fd5b6040513d88823e3d90fd5b634e487b7160e01b89526041600452602489fd5b620004b791508a3d8c11620004be575b620004ae818362003f57565b810190620041a9565b38620002c9565b503d620004a2565b6040513d8a823e3d90fd5b8280fd5b5080fd5b80fd5b5034620004d957600319604036820112620004d557620004fb6200406d565b60248035926001600160401b038411620007365760e0846004019185360301126200073657600154604051630ddd3b3160e21b81523360048201526020946001600160a01b0392909190869082908790829087165afa8015620004c6576200056b9189916200071b57506200429a565b169384865260098452620005856040872054151562004379565b848652600984526040862060ff600d82015460a01c166009811015620007085780620005bc9115908115620006fc575b5062004715565b600e8101805490600160401b821015620006e95790620005e291600182018155620047b7565b620006d65790620005f684600b9362004511565b0180546000198114620006c357600101905562000617608482018362004479565b90946200062860a484018562004479565b60c4850135946002861015620006bf577f92c62627750f7b8794a1c6e3d86147b8a70fcd64b5ff58240c50808d68faf32698620006b99560646200069e93620006ad976040519c8d9c358d52820135908c0152604481013560408c0152013560608a015260e060808a015260e0890191620047d4565b9186830360a0880152620047d4565b9160c08401906200419b565b0390a280f35b8a80fd5b634e487b7160e01b885260116004528488fd5b634e487b7160e01b885260048890528488fd5b634e487b7160e01b895260416004528589fd5b600291501438620005b5565b634e487b7160e01b885260216004528488fd5b620004b79150873d8911620004be57620004ae818362003f57565b8480fd5b5034620004d9576040366003190112620004d957620007586200406d565b602435906009821015620004d1576001546040516373561c3b60e01b8152336004820152916020916001600160a01b03919083908590602490829086165afa938415620004735760008051602062005fb583398151915294620007c49188916200080a575b50620041c3565b169283855260098252620007de6040862054151562004379565b83855260098252620007f781600d6040882001620043af565b62000806604051809262004177565ba280f35b620008259150853d8711620004be57620004ae818362003f57565b38620007bd565b5034620004d9576040366003190112620004d9576200084a6200406d565b6024356200085762004a07565b600154604051630ddd3b3160e21b815233600482015290602090829060249082906001600160a01b03165afa801562000a6d576200089d91859162000cf457506200429a565b6001600160a01b038216835260096020526040832054620008c090151562004379565b60018060a01b03821683526009602052604083209060ff600d83015460a01c16600981101562000ce05780600662000902921490811562000cd4575062004715565b6001600160a01b0383168452600a6020819052604085209083015490918082101562000ccc57505b808560206040516200093c8162003f0a565b82815201525b62000a78575050600a810154156200095d575b826001815580f35b60058101541580620009f7575b15620009b557600d01805460ff60a01b1916600160a31b179055604051600881526001600160a01b039091169060008051602062005fb583398151915290602090a25b388062000955565b600d01805460ff60a01b1916600760a01b179055604051600781526001600160a01b039091169060008051602062005fb583398151915290602090a2620009ad565b506040516318160ddd60e01b81526020816004816001600160a01b0387165afa90811562000a6d57849162000a30575b5015156200096a565b90506020813d60201162000a64575b8162000a4e6020938362003f57565b8101031262000a5f57513862000a27565b600080fd5b3d915062000a3f565b6040513d86823e3d90fd5b600a8301548060001981011162000cb85762000a999060001901836200409b565b506040519162000aa98362003f0a565b8154918284526001808060a01b039101541660208401526040519163db006a7560e01b835260048301526020826024818a60018060a01b038b165af191821562000cad57879262000c73575b5062000b0682600587015462004707565b6005860155600c850154875260076020526002604088200162000b2b83825462004707565b905562000b3e8351600987015462004707565b6009860155602083015162000b839083906001600160a01b03908116907f00000000000000000000000000000000000000000000000000000000000000001662004c73565b62000b9382600687015462004707565b60068601558354801562000c5f576000190162000bbc62000bb582876200409b565b9062004c61565b8455600a850154600019810190811162000c4b57600a8601558060001981011162000c37576000190191829160018060a01b0360208301511691519060405191825260208201527fb725639f4649132349e51e17d76fbc44211d80a97a1966578878f86113f70721604060018060a01b03891692a362000942565b634e487b7160e01b87526011600452602487fd5b634e487b7160e01b88526011600452602488fd5b634e487b7160e01b88526031600452602488fd5b9091506020813d60201162000ca4575b8162000c926020938362003f57565b8101031262000a5f5751903862000af5565b3d915062000c83565b6040513d89823e3d90fd5b634e487b7160e01b86526011600452602486fd5b90506200092a565b600891501438620005b5565b634e487b7160e01b85526021600452602485fd5b620004b7915060203d602011620004be57620004ae818362003f57565b5034620004d957600319604036820112620004d55762000d306200406d565b906024838135936001600160401b0390818611620004d15761022086360395860112620004d15760018054604051632c9556a560e11b81523360048201526001600160a01b039892976020949092859083908a9082908e165afa91821562000cad578a9262000da891899162001046575b5062004343565b16978886526009845262000dc26040872054151562004379565b826004013562000dd4811515620042f4565b61018484013580885262000df460ff604060079a8b8a5220541662004265565b8a8c526009865260408c20918255888501358a83015560448501356002830155606485013560038301556084850135600483015560a4850135600583015560c4850135600683015560e48501358883015561010485013560088301556101248501356009830155610144850135600a830155610164850135600b830155600c820155600d8101916101a4850135908116809103620010425782546001600160a01b0319161782556101c48401356009811015620010425762000eb79083620043af565b6101e48401359182151583036200104257805460ff60a81b191692151560a81b60ff60a81b1692909217909155600e019161020481013591602219018212156200103a57019460048601359384116200103e578086018460051b360381136200103a57600160401b85116200102557825485845580861062000fad575b509593959189528289209189946101021981360301915b88871062000f7c578b8b7f101bd42603a86fc9bba62795f00899c5afb1147cb5db2a5bd9e0bb1e9b335de88280a280f35b8035908382121562000fa95786899162000f9c878e958701018962004511565b0195019601959362000f4b565b8c80fd5b80870290878204036200101057858702878104870362000ffb578790856000528660002092830192015b82811062000fe757505062000f34565b62000ff2816200443f565b01879062000fd7565b83634e487b7160e01b60005260116004526000fd5b82634e487b7160e01b60005260116004526000fd5b50634e487b7160e01b60009081526041600452fd5b8980fd5b8880fd5b8b80fd5b620010619150873d8911620004be57620004ae818362003f57565b3862000da1565b5034620004d9576020366003190112620004d957620010866200406d565b6060610200604051620010998162003f3a565b84815284602082015284604082015284838201528460808201528460a08201528460c08201528460e08201528461010082015284610120820152846101408201528461016082015284610180820152846101a0820152846101c0820152846101e0820152015260018060a01b031681526009602052604081209060405191620011228362003f3a565b8054835260018101546020840152600281015460408401526003810154606084015260048101546080840152600581015460a0840152600681015460c0840152600781015460e084015260088101546101008401526009810154610120840152600a810154610140840152600b810154610160840152600c810154610180840152600d81015460018060a01b0381166101a0850152600960ff8260a01c16101562001489578060ff809260a01c166101c086015260a81c1615156101e0840152600e810154906001600160401b0382116200045f57604051916200120d60208260051b018462003f57565b808352600e60208401920184526020842084925b828410620013c557610200878787838301526040519283926020845280516020850152602081015160408501526040810151606085015260608101516080850152608081015160a085015260a081015160c085015260c081015160e085015260e08101516101008501526101008101516101208501526101208101516101408501526101408101516101608501526101608101516101808501526101808101516101a085015260018060a01b036101a0820151166101c0850152620012f16101c08201516101e086019062004177565b6101e081015115158285015201519061022080840152610240830182518091526102606020818601918360051b870101940192905b8282106200133657505050500390f35b91936001919395506020809161025f19898203018552620013b4885191825181528383015184820152604083015160408201526060830151606082015260c080620013a862001395608087015160e0608087015260e08601906200402b565b60a087015185820360a08701526200402b565b9401519101906200419b565b960192019201859493919262001326565b6040518060e08101106001600160401b0360e083011117620014735760e0810160405282548152600183015460208201526002830154604082015260038301546060820152620014186004840162003f79565b60808201526200142b6005840162003f79565b60a082015260ff60068401541660028110156200145f576001928260209260c0600795015281520192019301929062001221565b634e487b7160e01b88526021600452602488fd5b634e487b7160e01b600052604160045260246000fd5b634e487b7160e01b83526021600452602483fd5b5034620004d95760209081600319360112620004d9576001600160a01b03620015248382620014cb6200406d565b169283855260098252620014e56040862054151562004379565b83855260098252604080862060015491516324c697cb60e11b8152600481019190915291166001600160a01b0316602482015291829081906044820190565b038173__$d174d95facea876af0faf23442ada6b991$__5af4928315620015b9579262001584575b507f9e0b21701a3582ca92bc583a213ae168fa62a833e1dff10d65717c05a202725e60408051848152600586820152a2604051908152f35b9091508281813d8311620015b1575b6200159f818362003f57565b8101031262000a5f575190386200154c565b503d62001593565b604051903d90823e3d90fd5b5034620004d9576060366003190112620004d957620015e36200406d565b9060248035926044356001600160401b038111620018df576200160b903690600401620040de565b600154604051630ddd3b3160e21b8152336004820152929660209490936001600160a01b0392869082908990829087165afa908115620004c65790620016599189916200071b57506200429a565b169384865260098452620016736040872054151562004379565b84865260098452604086209060ff600d83015460a01c166009811015620018cc5780620016aa9115908115620006fc575062004715565b600e820191620017206004620016dd620016ec620016c98988620047b7565b506040519283918c830195869101620047f5565b03601f19810183528262003f57565b5190208a8a620017168a60405180938b8383019687378b8201908382015203808452018262003f57565b5190201462004880565b82546000199390848101908111620018b9576200173e9082620047b7565b506200174b8783620047b7565b620018a65781810362001843575b5050805480156200183057840190620017738282620047b7565b6200181b5790600060068382600b97969555826001820155826002820155826003820155620017a560048201620043ed565b620017b360058201620043ed565b01555501908154928301928311620018095750917fdac7748a99ba25d9c2021272d8a96a40eeef70c99a8b0371a2d84712adc49e6295969791620006b993556040805195869586528501526040840191620047d4565b634e487b7160e01b8852601160045287fd5b84634e487b7160e01b60005260006004526000fd5b634e487b7160e01b8a526031600452838afd5b600660ff81846200189e95548555600181015460018601556002810154600286015560038101546003860155620018816004820160048701620048d7565b620018936005820160058701620048d7565b0154169101620044f8565b388062001759565b634e487b7160e01b8b5260048b9052848bfd5b634e487b7160e01b8a526011600452838afd5b50634e487b7160e01b8752602160045286fd5b8380fd5b5034620004d9576020366003190112620004d9576001600160a01b03806200190a6200406d565b16908183526009602052620019256040842054151562004379565b818352600960205282604081209173__$d174d95facea876af0faf23442ada6b991$__906001541690803b15620004d157604051636ac77ebf60e11b8152600481018590526001600160a01b039290921660248301528290829060449082905af48015620019e757620019cf575b5050602060ff600d7f52ab8c7f7a3fa516caf660a33a7b7a6ac1a418271b69b3b1bd57b97c37e22cb193015460a81c166040519015158152a280f35b620019da9062003f26565b620004d157823862001993565b6040513d84823e3d90fd5b5034620004d95760209081600319360112620004d95762001a126200406d565b600154604051630ddd3b3160e21b81523360048201526001600160a01b03929185908290602490829087165afa90811562000a6d579062001a5b91859162001ad057506200429a565b168082526009835262001a746040832054151562004379565b80825260098352600d60408320019283549360ff8560a01c1694600986101562000ce05762001ab660008051602062005fb58339815191529495961562004715565b60ff60a01b1916600160a01b17905560405160018152a280f35b620004b79150863d8811620004be57620004ae818362003f57565b5034620004d9576020366003190112620004d9576001600160a01b0362001b116200406d565b16808252600960205262001b2b6040832054151562004379565b81526009602052604081208173__$d174d95facea876af0faf23442ada6b991$__91823b15620004d55760246040518094819363192b847760e01b835260048301525af48015620019e75762001b7f575080f35b62001b8a9062003f26565b80f35b5034620004d9576020366003190112620004d957604060a0916004358152600760205220805490600181015490600360028201549101549160ff604051948181161515865260081c1615156020850152604084015260608301526080820152f35b5034620004d9576040366003190112620004d95762001c0c6200406d565b60243562001c1962004a07565b6001600160a01b039182168084526009602052604084205490929062001c4190151562004379565b8060015416330362001ccf577fce0de3168916a71fc175ce3a005fafab3d9ffc19f20385e575c795e275e00bc59160066020928587526009845262001cb1836040892092309033907f00000000000000000000000000000000000000000000000000000000000000001662004a5e565b0162001cbf828254620042d0565b9055604051908152a26001815580f35b60405162461bcd60e51b81526020600482015260066024820152653430333a435360d01b6044820152606490fd5b5034620004d9576020366003190112620004d9576001600160a01b0362001d236200406d565b16815260096020526040902080549060018101549060028101546003820154600483015460058401546006850154600786015490600887015492600988015494600a89015496600b8a015498600c8b01549a600d01549b604051809e81526020015260408d015260608c015260808b015260a08a015260c089015260e0880152610100870152610120860152610140850152610160840152610180830152600160a01b6001900381166101a08301526101c082018160a01c60ff169062001dea9162004177565b60a81c60ff1615156101e082015261020090f35b5034620004d957602080600319360112620004d55762001e1d6200406d565b9062001e2862004a07565b600154604051630ddd3b3160e21b81523360048201526001600160a01b0393909183908390602490829088165afa9182156200210857849262001e73918791620020ed57506200429a565b16918284526009825262001e8d6040852054151562004379565b828452600982526040842091600d83019260ff845460a01c166009811015620020d957600562001ebe911462004715565b600354916004546040519363169fca8d60e31b85528360048601526024850152604484015260608360648173__$d174d95facea876af0faf23442ada6b991$__5af490811562000cad578792889489936200208b575b5088600460088301958654808210600014620020825750955b8489600154166040519384809263011a412160e61b82525afa90811562002077577f0e57f8ca3155b8c5071ac6070c93859eb05a8d9a167296f44dba4bd14079d2169a62001fb089809460809d6200200497899262002041575b507f00000000000000000000000000000000000000000000000000000000000000001662004c73565b6006860162001fc184825462004707565b9055600360a11b60ff60a01b19825416179055600585019462001ffb60026040600c89549401978854815260078b52200191825462004707565b90555462004707565b8092555489526007825262002022600260408b2001918254620042d0565b9055604051938452830152604082015260066060820152a26001815580f35b620020679192508b3d8d116200206f575b6200205e818362003f57565b810190620048b6565b903862001f87565b503d62002052565b6040513d85823e3d90fd5b90509562001f2d565b9350915092506060823d8211620020d0575b81620020ac6060938362003f57565b81010312620020cc57815192604081840151930151939293913862001f14565b8680fd5b3d91506200209d565b634e487b7160e01b87526021600452602487fd5b620004b79150853d8711620004be57620004ae818362003f57565b6040513d87823e3d90fd5b5034620004d957620021253662004084565b600154604051632c9556a560e11b81523360048201526020916001600160a01b03919083908290602490829086165afa801562000473576200216f91879162002304575062004343565b838552600792838352816200218b82600460408a20016200432a565b90549060031b1c169480875284845260046040882001549160001992838101908111620022f05790620003dd85620021d4620021f094600460408e8981528d8d5220016200432a565b90549060031b1c1691848b52888852600460408c20016200432a565b865283835260046040872001908154801562000c5f5701916200221483836200432a565b909182549160031b1b191690555582845260098152600e60408520858155856001820155856002820155856003820155856004820155856005820155856006820155858482015585600882015585600982015585600a82015585600b82015585600c82015585600d820155019081549185815582620022b7575b85857fe71f3a50e5ad81964f352c411f1d45e35438ecd1acecef59ac81d9fbbf6cbc0a8280a280f35b828402928484040362000cb85785528420908101905b818110620022dc57806200228e565b80620022e984926200443f565b01620022cd565b634e487b7160e01b89526011600452602489fd5b620010619150843d8611620004be57620004ae818362003f57565b5034620004d9576040366003190112620004d9576200233d6200406d565b62002347620040ce565b600154604051632c9556a560e11b815233600482015291926020916001600160a01b03919083908590602490829086165afa93841562000473577fe8b41617589ff7cce1139d64a930d2f970b9c6e0a51da359d66de455fa1ce9db94620023b691889162002402575062004343565b169283855260098252620023d06040862054151562004379565b8385526009825260408520600d01805460ff60a81b191682151560a81b60ff60a81b161790556040519015158152a280f35b620010619150853d8711620004be57620004ae818362003f57565b5034620004d9576040366003190112620004d9576200243b6200406d565b6001600160a01b039081168252600a6020526040822080546024359190821015620018df57906200246c916200409b565b5080546001909101546040805192835292166001600160a01b03166020820152f35b0390f35b5034620004d95760a0366003190112620004d957620024b06200406d565b90602435916044356001600160401b038111620004d157620024d7903690600401620040de565b91909360643560843560018060a01b038060015416946040518096630ddd3b3160e21b82523360048301528160246020998a935afa90811562002689579062002528918a916200266e57506200429a565b169485875260098552620025426040882054151562004379565b858752600985526040872083156200264057821562002612579762002601918360016200259688600e7fb9cc3d6efce78bb6174ce8cad53c412cf3fc2b4b1738f4c015c74eab6223ead79c9d9e01620047b7565b50620025e18d6040518c810190620025b781620016dd8460048901620047f5565b519020908c620017166040519182818101948b8d87378b8201908382015203808452018262003f57565b8760038201550155608060405197889788528701526080860191620047d4565b91604084015260608301520390a280f35b60405162461bcd60e51b81526004810187905260066024820152651a18181d212b60d11b6044820152606490fd5b60405162461bcd60e51b81526004810187905260066024820152651a18181d29ab60d11b6044820152606490fd5b620004b79150883d8a11620004be57620004ae818362003f57565b6040513d8b823e3d90fd5b5034620004d95760a0366003190112620004d957620026b26200406d565b6024356044356064356084359160018060a01b038060015416956040518097630ddd3b3160e21b825233600483015281602460209a8b935afa8015620026895762002705918a916200284957506200429a565b1694858752600981526200271f6040882054151562004379565b858752600981526040872060ff600d82015460a01c166009811015620028355760026200274d911462004715565b80548610620028075791859391856004608097956200278f7f75c6fee771257d0c8f6faeed1a52849bd77886e7277a92a19ced50872a4d1dae9a86116200474b565b620151806200279f898762004707565b048380821015620027ef57620027bc620027c49260019262004707565b111562004781565b876001820155846002820155856003820155015560405194855284015260408301526060820152a280f35b620027bc600191620028019362004707565b620027c4565b60405162461bcd60e51b81526004810183905260066024820152650d0c0c0e951160d21b6044820152606490fd5b634e487b7160e01b89526021600452602489fd5b620004b79150893d8b11620004be57620004ae818362003f57565b5034620004d9576020366003190112620004d9576024600435602060018060a01b0360015416604051938480926373561c3b60e01b82523360048301525afa9081156200207757620028e26020927fa8f4f21b587a66a2ee5ea394d96ed718e67720a7ff387be57edf47ee591c8faf948691620028fd5750620041c3565b620028ef8115156200422f565b80600655604051908152a180f35b620008259150843d8111620004be57620004ae818362003f57565b5034620004d9576200292a3662004084565b600154604051630ddd3b3160e21b81523360048201526020918290829060249082906001600160a01b03165afa801562002108576200297191869162002a0e57506200429a565b8284526007815281620029946003604087200154600260408820015490620042d0565b11620029db57916040917fcadc2f860c31c2aafe4c2e359b6295ccdce5787d0044255b0fd5adb1ccb22dbe938286526007815281600185882001558351928352820152a180f35b6064906040519062461bcd60e51b82526004820152600c60248201526b0d0c0c0e951bdbd4db585b1b60a21b6044820152fd5b620004b79150833d8511620004be57620004ae818362003f57565b5034620004d9576040366003190112620004d957602460043562002a4c620040ce565b6001546040516373561c3b60e01b81523360048201529391929160209185919082906001600160a01b03165afa92831562000a6d577ff0f4fdbe67dbbfeb7651ea55f03378b0dabd8c1272a2d10391006dae7e765cfd9362002ab691869162002afc5750620041c3565b808452600760205260408420805461ff0084151560081b169061ff00191617905562002af660405192839283909291602090604083019483521515910152565b0390a180f35b62000825915060203d8111620004be57620004ae818362003f57565b5034620004d95780600319360112620004d9576020600654604051908152f35b5034620004d9576020366003190112620004d9576024600435602060018060a01b0360015416604051938480926373561c3b60e01b82523360048301525afa908115620020775762002bb66020927fda21b88dc331c96abf528dfef6a6a49a7c48ce61e82e4ab2fe8a64c01f9ee697948691620028fd5750620041c3565b62002bc56127108210620041f9565b80600355604051908152a180f35b5034620004d95780600319360112620004d9576020600554604051908152f35b5034620004d95780600319360112620004d9576020600454604051908152f35b5034620004d9576040366003190112620004d95762002c316200406d565b6024359062002c3f62004a07565b6001600160a01b031680835260096020908152604084205462002c6490151562004379565b600654831062002d4657818452600981526040842062002c878430338662004a5e565b828552600a8252604085206040519062002ca18262003f0a565b8582523384830152805490600160401b82101562002d32578162002cd091600162002cd795940181556200409b565b90620049bd565b600a81018054906001820180921162000c3757916009917f010c27d0c99728cd960c5b722003b7f1ffb3d2e930af4f84b0d67e3980207a1a9493550162002d20858254620042d0565b90556040519384523393a36001815580f35b634e487b7160e01b88526041600452602488fd5b6064906040519062461bcd60e51b8252600482015260066024820152653430303a574160d01b6044820152fd5b5034620004d957602080600319360112620004d55762002d926200406d565b600154604051630ddd3b3160e21b81523360048201526001600160a01b03929184908290602490829087165afa8015620021085762002dd9918691620020ed57506200429a565b16908183526009815262002df36040842054151562004379565b818352600981526040832090600d8201805460ff8160a01c166009811015620020d957927f1abd385578bb3adc021fd23b32b866f102cf1bd085b7d3d6dfe15f336d68e79d9492879262002e4c60076040971462004715565b83600860028701968288549862002e658a15156200474b565b89835581600184015555826003820155826007820155015561ffff60a01b191690558351928352820152a280f35b5034620004d957602080600319360112620004d5576004358252600781526004604083200160405192838383549182815201908193835284832090835b81811062002f32575050508462002ee991038562003f57565b60405193838594850191818652518092526040850193925b82811062002f1157505050500390f35b83516001600160a01b03168552869550938101939281019260010162002f01565b82546001600160a01b03168452928601926001928301920162002ed0565b5034620004d95762002f623662004084565b62002f6c62004a07565b81835260206007815262002f8760ff60408620541662004265565b8284526007815260ff604085205460081c161562003125576005548210620030f857828452600781526003604085200162002fc4838254620042d0565b90558284526007815262002fe86003604086200154600260408720015490620042d0565b83855260078252600160408620015410620030c757620030348230337f00000000000000000000000000000000000000000000000000000000000000006001600160a01b031662004a5e565b8284526008815260408420604051906200304e8262003f0a565b8382523383830152805490600160401b821015620030b3578162002cd09160016200307d95940181556200409b565b6040519283528201527fff465791f48805b0254fc0e26cc605e27ef7706d8ee0cf018f8696f58db8367960403392a26001815580f35b634e487b7160e01b87526041600452602487fd5b6064906040519062461bcd60e51b82526004820152600a6024820152693530303a546f6f42696760b01b6044820152fd5b6064906040519062461bcd60e51b8252600482015260066024820152653430303a444160d01b6044820152fd5b6064906040519062461bcd60e51b82526004820152600b60248201526a1a98181d2737ba27b832b760a91b6044820152fd5b5034620004d9576040366003190112620004d957620031756200406d565b6024356200318262004a07565b600154604051630ddd3b3160e21b815233600482015290602090829060249082906001600160a01b03165afa801562000a6d57620031c891859162000cf457506200429a565b6001600160a01b038216835260096020526040832054620031eb90151562004379565b60018060a01b03821683526009602052604083209060ff600d83015460a01c16600981101562000ce057600162003223911462004715565b600582015415806200349d575b6200347057600c82015484526008602052604084205490808210156200346857505b805b620032bd5750600c810154835260086020526040832054156200327957826001815580f35b600d01805460ff60a01b1916600160a11b179055604051600281526001600160a01b039091169060008051602062005fb583398151915290602090a2388062000955565b600c82015480855260086020526040852080546000198101811062000c375790620032ed9160001901906200409b565b50918254918652600791826020526200330f6003604089200191825462004707565b90558254600184018054604051636e553f6560e01b815260048101939093526001600160a01b031660248301529290602081806044810103818b6001600160a01b038c165af18015620004c65762003437575b506200337484546005870154620042d0565b6005860155835490600c86015488526020526200339a60026040892001918254620042d0565b9055620033ad83546006860154620042d0565b6006850155600c84015486526008602052604086208054801562000c5f576000190190620033e062000bb583836200409b565b55600019810190811162000cb85790549154604051908152909182916001600160a01b03918216918616907f2cafaae37c2ab1f0e3f264b9a50cad356ccf3bec7627998815a33e2b7e649a5390602090a362003254565b602090813d831162003460575b62003450818362003f57565b81010312620020cc573862003362565b503d62003444565b905062003252565b60405162461bcd60e51b81526020600482015260056024820152641a98181d2d60d91b6044820152606490fd5b506040516318160ddd60e01b81526020816004816001600160a01b0388165afa90811562002108578591620034d6575b50151562003230565b90506020813d60201162003505575b81620034f46020938362003f57565b8101031262000736575138620034cd565b3d9150620034e5565b5034620004d9576020366003190112620004d9576024600435602060018060a01b0360015416604051938480926373561c3b60e01b82523360048301525afa90811562002077576200358c6020927ff70600f16834d4912dda5e9bdfdc5cce5d2601cf8ce7336ec725056128187c32948691620028fd5750620041c3565b6200359b6127108210620041f9565b80600455604051908152a180f35b5034620004d95780600319360112620004d9576040517f00000000000000000000000000000000000000000000000000000000000000006001600160a01b03168152602090f35b5034620004d95780600319360112620004d9576020600354604051908152f35b5034620004d95780600319360112620004d9576001546040516001600160a01b039091168152602090f35b5034620004d9576080366003190112620004d957620036596200406d565b6001600160401b0390604435828111620018df576200367d903690600401620040de565b9091606435848111620039c3576200369a9036906004016200412a565b6001546040516373561c3b60e01b81523360048201526001600160a01b039692939187169291602082602481875afa91821562002689578892620036e6918b91620039a65750620041c3565b16958688526009602052620037016040892054151562004379565b86885260096020526040882060ff600d82015460a01c1660098110156200399257906200373d826200374a9315908115620006fc575062004715565b600e6024359101620047b7565b509060405193620037aa6020860186620037688260048801620047f5565b03966200377e601f199889810183528262003f57565b519020898c6200171660208c604051938185928484019788378201908382015203808452018262003f57565b60206040518092635ab8b6bb60e11b82528260048301528180620037d2602482018c6200402b565b03915afa90811562003987578a9162003963575b501615620039355760050191835191821162002d325762003814826200380d855462003ecd565b85620044ae565b602090601f8311600114620038a8575091817f2eb6cf0b30290a915c9f8b78a203ca54af121367170478efd2c55b468636569296959492620006b9948a916200389c575b508160011b916000199060031b1c19161790555b6200388d6040519485946024358652606060208701526060860191620047d4565b9083820360408501526200402b565b90508301513862003858565b8216908389526020892091895b8181106200391c575092620006b99492600192827f2eb6cf0b30290a915c9f8b78a203ca54af121367170478efd2c55b46863656929a9998961062003902575b5050811b0190556200386c565b85015160001960f88460031b161c191690553880620038f5565b9192602060018192868a015181550194019201620038b5565b60405162461bcd60e51b81526020600482015260066024820152651a18181d27a960d11b6044820152606490fd5b62003980915060203d6020116200206f576200205e818362003f57565b38620037e6565b6040513d8c823e3d90fd5b634e487b7160e01b8a52602160045260248afd5b62000825915060203d602011620004be57620004ae818362003f57565b8580fd5b5034620004d9576040366003190112620004d9576024600435620039ea620040ce565b6001546040516373561c3b60e01b81523360048201529391929160209185919082906001600160a01b03165afa92831562000a6d577f232627e76f6a1c2af10ad89b38d36cc4a09445de000f9792cd85a216ebc294eb9362003a5491869162002afc5750620041c3565b62003a6181151562004265565b808452600760205260ff60408520541662003a8483151580921515141562004265565b8185526007602052604085209060ff8019835416911617905562002af660405192839283909291602090604083019483521515910152565b5034620004d9576020366003190112620004d9576024600435602060018060a01b0360015416604051938480926373561c3b60e01b82523360048301525afa908115620020775762003b3a6020927fb443c8bd39a1b60d415144f9148c6f90c2b68a553eb90c62cef5e44979db009d948691620028fd5750620041c3565b62003b478115156200422f565b80600555604051908152a180f35b5034620004d95762003b673662004084565b9082526008602052604082208054821015620004d15762003b8992506200409b565b508054600190910154604080519283526001600160a01b03909116602083015290f35b5034620004d9576060366003190112620004d95762003bca6200406d565b6001600160a01b036024358181169283820362000736576044359162003bef62004a07565b83600154169360405192630ddd3b3160e21b845233600485015260209384816024818a5afa8015620026895760249262003c34859288948d91620020ed57506200429a565b1696878a526009825262003c4e60408b2054151562004379565b604051928380926361fbff1160e11b82528b60048301525afa908115620004c657889162003d8b575b501562003d555784875260098352604087209160068301918254861162003d2357859360039362003cf27f670c6d2cbe2ae11af0c85d75a02c9bab189955b99625cd49da5666e7a28fc5c39860409895600d957f00000000000000000000000000000000000000000000000000000000000000001662004c73565b62003cff86825462004707565b905501805460ff60a01b191660a084901b1790558351928352820152a36001815580f35b60405162461bcd60e51b815260048101869052600a6024820152693430303a546f6f42696760b01b6044820152606490fd5b60405162461bcd60e51b815260048101849052600e60248201526d0d0c0c0e939bdd105b1b1bddd95960921b6044820152606490fd5b62003da69150843d8611620004be57620004ae818362003f57565b3862003c77565b5034620004d95780600319360112620004d957604051908060025462003dd38162003ecd565b8085529160019180831690811562003e77575060011462003e17575b6200248e8562003e028187038262003f57565b6040519182916020835260208301906200402b565b9250600283527f405787fa12a823e0f2b7631cc41b3ba8828b3321ca811111fa75cd3aa3bb5ace5b82841062003e5e57505050810160200162003e02826200248e62003def565b8054602085870181019190915290930192810162003e3f565b8695506200248e9693506020925062003e0294915060ff191682840152151560051b820101929362003def565b905034620004d5576020366003190112620004d557604060209260043581526008845220548152f35b90600182811c9216801562003eff575b602083101462003ee957565b634e487b7160e01b600052602260045260246000fd5b91607f169162003edd565b604081019081106001600160401b038211176200147357604052565b6001600160401b0381116200147357604052565b61022081019081106001600160401b038211176200147357604052565b90601f801991011681019081106001600160401b038211176200147357604052565b906040519182600082549262003f8f8462003ecd565b90818452600194858116908160001462004006575060011462003fbf575b505062003fbd9250038362003f57565b565b9093915060005260209081600020936000915b81831062003fed57505062003fbd9350820101388062003fad565b8554888401850152948501948794509183019162003fd2565b91505062003fbd94506020925060ff191682840152151560051b820101388062003fad565b919082519283825260005b84811062004058575050826000602080949584010152601f8019910116010190565b60208183018101518483018201520162004036565b600435906001600160a01b038216820362000a5f57565b604090600319011262000a5f576004359060243590565b8054821015620040b85760005260206000209060011b0190600090565b634e487b7160e01b600052603260045260246000fd5b60243590811515820362000a5f57565b9181601f8401121562000a5f578235916001600160401b03831162000a5f576020838186019501011162000a5f57565b6001600160401b0381116200147357601f01601f191660200190565b81601f8201121562000a5f5780359062004144826200410e565b9262004154604051948562003f57565b8284526020838301011162000a5f57816000926020809301838601378301015290565b906009821015620041855752565b634e487b7160e01b600052602160045260246000fd5b906002821015620041855752565b9081602091031262000a5f5751801515810362000a5f5790565b15620041cb57565b60405162461bcd60e51b81526020600482015260066024820152653430333a4f4160d01b6044820152606490fd5b156200420157565b60405162461bcd60e51b81526020600482015260066024820152651a18181d24a160d11b6044820152606490fd5b156200423757565b60405162461bcd60e51b81526020600482015260066024820152653430303a495560d01b6044820152606490fd5b156200426d57565b60405162461bcd60e51b81526020600482015260056024820152640d0c0c0e9360da1b6044820152606490fd5b15620042a257565b60405162461bcd60e51b81526020600482015260066024820152653430333a544160d01b6044820152606490fd5b91908201809211620042de57565b634e487b7160e01b600052601160045260246000fd5b15620042fc57565b60405162461bcd60e51b81526020600482015260066024820152653430303a565360d01b6044820152606490fd5b8054821015620040b85760005260206000200190600090565b156200434b57565b60405162461bcd60e51b81526020600482015260066024820152653430333a444160d01b6044820152606490fd5b156200438157565b60405162461bcd60e51b81526020600482015260066024820152653430303a564160d01b6044820152606490fd5b9060098110156200418557815460ff60a01b191660a09190911b60ff60a01b16179055565b818110620043e0575050565b60008155600101620043d4565b620043f9815462003ecd565b908162004404575050565b81601f6000931160011462004417575055565b818352602083206200443591601f0160051c810190600101620043d4565b8160208120915555565b60066000918281558260018201558260028201558260038201556200446760048201620043ed565b6200447560058201620043ed565b0155565b903590601e198136030182121562000a5f57018035906001600160401b03821162000a5f5760200191813603831362000a5f57565b9190601f8111620044be57505050565b62003fbd926000526020600020906020601f840160051c83019310620044ed575b601f0160051c0190620043d4565b9091508190620044df565b906002811015620041855760ff80198354169116179055565b91909182358155602092600184820135818401556040820135600284015560608201356003840155600483016200454c608084018462004479565b6001600160401b03929183821162001473578190620045788262004571865462003ecd565b86620044ae565b600090601f8311600114620046a35760009262004697575b5050600019600383901b1c191690841b1790555b6005840191620045b860a085018562004479565b9283116200147357620045d18362004571865462003ecd565b600097601f84116001146200462b5750829160c096979883926000946200461f575b50501b916000199060031b1c19161790555b0135600281101562000a5f57600662003fbd9201620044f8565b013592503880620045f3565b90601f939293198316988581528281209281905b8b82106200467f5750508360c098999a1062004664575b505050811b01905562004605565b0135600019600384901b60f8161c1916905538808062004656565b8087849682949587013581550195019201906200463f565b01359050388062004590565b8482528a822087945091601f198416815b8d828210620046f05750508411620046d5575b505050811b019055620045a4565b0135600019600384901b60f8161c19169055388080620046c7565b8385013586558a97909501949283019201620046b4565b91908203918211620042de57565b156200471d57565b60405162461bcd60e51b81526020600482015260066024820152653530303a575360d01b6044820152606490fd5b156200475357565b60405162461bcd60e51b81526020600482015260066024820152653430303a544560d01b6044820152606490fd5b156200478957565b60405162461bcd60e51b81526020600482015260066024820152651a18181d2a2760d11b6044820152606490fd5b8054821015620040b8576000526007602060002091020190600090565b908060209392818452848401376000828201840152601f01601f1916010190565b600092918154620048068162003ecd565b9260019180831690811562004864575060011462004825575b50505050565b90919293945060005260209081600020906000915b8583106200485257505050500190388080806200481f565b8054858401529183019181016200483a565b60ff19168452505050811515909102019150388080806200481f565b156200488857565b60405162461bcd60e51b81526020600482015260066024820152653430303a415360d01b6044820152606490fd5b9081602091031262000a5f57516001600160a01b038116810362000a5f5790565b90808214620049b957620048ec815462003ecd565b906001600160401b038211620014735781906200490f8262004571865462003ecd565b600090601f831160011462004949576000926200493d575b50508160011b916000199060031b1c1916179055565b01549050388062004927565b81526020808220858352818320935090601f1985169083905b8282106200499f57505090846001959493921062004985575b505050811b019055565b015460001960f88460031b161c191690553880806200497b565b849581929585015481556001809101960194019062004962565b5050565b90620049f157600190825181550190602060018060a01b03910151166bffffffffffffffffffffffff60a01b825416179055565b634e487b7160e01b600052600060045260246000fd5b60026000541462004a19576002600055565b60405162461bcd60e51b815260206004820152601f60248201527f5265656e7472616e637947756172643a207265656e7472616e742063616c6c006044820152606490fd5b6040516323b872dd60e01b60208201526001600160a01b03928316602482015292909116604483015260648083019390935291815260a08101918183106001600160401b03841117620014735762003fbd926040525b60405162004b3a916001600160a01b031662004ad08262003f0a565b6000806020958685527f5361666545524332303a206c6f772d6c6576656c2063616c6c206661696c656487860152868151910182855af13d1562004bba573d9162004b1b836200410e565b9262004b2b604051948562003f57565b83523d60008785013e62004bbe565b8051908162004b4857505050565b828062004b5a938301019101620041a9565b1562004b635750565b6084906040519062461bcd60e51b82526004820152602a60248201527f5361666545524332303a204552433230206f7065726174696f6e20646964206e6044820152691bdd081cdd58d8d9595960b21b6064820152fd5b6060915b9192901562004c23575081511562004bd4575090565b3b1562004bde5790565b60405162461bcd60e51b815260206004820152601d60248201527f416464726573733a2063616c6c20746f206e6f6e2d636f6e74726163740000006044820152606490fd5b82519091501562004c375750805190602001fd5b60405162461bcd60e51b81526020600482015290819062004c5d9060248301906200402b565b0390fd5b90620049f15760018160008093550155565b60405163a9059cbb60e01b60208201526001600160a01b03909216602483015260448083019390935291815260808101916001600160401b03831182841017620014735762003fbd9260405262004ab456fe6080604052346200038e57620012ef803803806200001d8162000393565b9283398101906060818303126200038e5780516001600160a01b039283821692918390036200038e5760208281015190926001600160401b03918281116200038e57836200006d918301620003b9565b9260408201518381116200038e57620000879201620003b9565b82518281116200028e576003918254916001958684811c9416801562000383575b888510146200036d578190601f9485811162000317575b508890858311600114620002b057600092620002a4575b505060001982861b1c191690861b1783555b80519384116200028e5760049586548681811c9116801562000283575b828210146200026e5783811162000223575b5080928511600114620001b55750938394918492600095620001a9575b50501b92600019911b1c19161790555b600580546001600160a01b0319808216339081179093556040519490939291167f8be0079c531659141344cd1fd0a4f28419497f9722a3daafe3b4186f6b6457e0600080a381600654161760065533906007541617600755610ec390816200042c8239f35b01519350388062000134565b92919084601f1981168860005285600020956000905b89838310620002085750505010620001ed575b50505050811b01905562000144565b01519060f884600019921b161c1916905538808080620001de565b858701518955909701969485019488935090810190620001cb565b87600052816000208480880160051c82019284891062000264575b0160051c019087905b8281106200025757505062000117565b6000815501879062000247565b925081926200023e565b602288634e487b7160e01b6000525260246000fd5b90607f169062000105565b634e487b7160e01b600052604160045260246000fd5b015190503880620000d6565b90889350601f19831691876000528a6000209260005b8c828210620003005750508411620002e7575b505050811b018355620000e8565b015160001983881b60f8161c19169055388080620002d9565b8385015186558c97909501949384019301620002c6565b90915085600052886000208580850160051c8201928b861062000363575b918a91869594930160051c01915b82811062000353575050620000bf565b600081558594508a910162000343565b9250819262000335565b634e487b7160e01b600052602260045260246000fd5b93607f1693620000a8565b600080fd5b6040519190601f01601f191682016001600160401b038111838210176200028e57604052565b919080601f840112156200038e5782516001600160401b0381116200028e57602090620003ef601f8201601f1916830162000393565b928184528282870101116200038e5760005b8181106200041757508260009394955001015290565b85810183015184820184015282016200040156fe6040608081526004908136101561001557600080fd5b600091823560e01c806301e1d114146109bb57806306fdde03146108c757806307a2d13a146108a7578063095ea7b31461087d57806318160ddd1461085e57806323b872dd14610794578063313ce5671461077857806338d52e0f1461074f57806339509351146106ff5780636e553f651461062e57806370a08231146105f7578063715018a61461059a5780638da5cb5b1461057157806395d89b411461046d578063a457c2d7146103c9578063a9059cbb14610398578063b1a635181461036f578063c6e6f59214610348578063db006a7514610223578063dd62ed3e146101d65763f2fde38b1461010857600080fd5b346101d25760203660031901126101d257610121610a21565b9061012a610a52565b6001600160a01b03918216928315610180575050600554826bffffffffffffffffffffffff60a01b821617600555167f8be0079c531659141344cd1fd0a4f28419497f9722a3daafe3b4186f6b6457e08380a380f35b906020608492519162461bcd60e51b8352820152602660248201527f4f776e61626c653a206e6577206f776e657220697320746865207a65726f206160448201526564647265737360d01b6064820152fd5b8280fd5b50503461021f578060031936011261021f57806020926101f4610a21565b6101fc610a3c565b6001600160a01b0391821683526001865283832091168252845220549051908152f35b5080fd5b5090346101d25760209283600319360112610345578235610242610a52565b61024b81610e56565b9333156102f85733835282865283832054908282106102aa575081903384528387520383832055806002540360025582519081527fddf252ad1be2c89b69c2b068fc378daa952ba7f163c4a11628f55a4df523b3ef853392a351908152f35b845162461bcd60e51b8152908101879052602260248201527f45524332303a206275726e20616d6f756e7420657863656564732062616c616e604482015261636560f01b6064820152608490fd5b835162461bcd60e51b8152908101869052602160248201527f45524332303a206275726e2066726f6d20746865207a65726f206164647265736044820152607360f81b6064820152608490fd5b80fd5b509134610345576020366003190112610345575061036860209235610e83565b9051908152f35b50503461021f578160031936011261021f5760075490516001600160a01b039091168152602090f35b50503461021f578060031936011261021f576020906103c26103b8610a21565b6024359033610b05565b5160018152f35b5082346103455782600319360112610345576103e3610a21565b918360243592338152600160205281812060018060a01b038616825260205220549082821061041c576020856103c28585038733610c73565b608490602086519162461bcd60e51b8352820152602560248201527f45524332303a2064656372656173656420616c6c6f77616e63652062656c6f77604482015264207a65726f60d81b6064820152fd5b5091903461021f578160031936011261021f57805191809380549160019083821c92828516948515610567575b60209586861081146105545785895290811561053057506001146104d8575b6104d487876104ca828c0383610aaa565b51918291826109d8565b0390f35b81529295507f8a35acfbc15ff81a39ae7d344fd709f28e8600b4aa8c65c6b64bfe7fe36bd19b5b82841061051d57505050826104d4946104ca928201019438806104b9565b80548685018801529286019281016104ff565b60ff19168887015250505050151560051b83010192506104ca826104d438806104b9565b634e487b7160e01b845260228352602484fd5b93607f169361049a565b50503461021f578160031936011261021f5760055490516001600160a01b039091168152602090f35b83346103455780600319360112610345576105b3610a52565b600580546001600160a01b0319811690915581906001600160a01b03167f8be0079c531659141344cd1fd0a4f28419497f9722a3daafe3b4186f6b6457e08280a380f35b50503461021f57602036600319011261021f5760209181906001600160a01b0361061f610a21565b16815280845220549051908152f35b5090346101d257806003193601126101d257610648610a3c565b91610651610a52565b61065b8135610e83565b926001600160a01b03169081156106bc575060209361067c84600254610ae2565b6002558181528085528281208481540190557fddf252ad1be2c89b69c2b068fc378daa952ba7f163c4a11628f55a4df523b3ef858451868152a351908152f35b606490602084519162461bcd60e51b8352820152601f60248201527f45524332303a206d696e7420746f20746865207a65726f2061646472657373006044820152fd5b50503461021f578060031936011261021f576103c2602092610748610722610a21565b338352600186528483206001600160a01b03821684528652918490205460243590610ae2565b9033610c73565b50503461021f578160031936011261021f5760065490516001600160a01b039091168152602090f35b50503461021f578160031936011261021f576020905160068152f35b5082903461021f57606036600319011261021f576107b0610a21565b6107b8610a3c565b91846044359460018060a01b0384168152600160205281812033825260205220549060001982036107f2575b6020866103c2878787610b05565b84821061081b5750918391610810602096956103c295033383610c73565b9193948193506107e4565b606490602087519162461bcd60e51b8352820152601d60248201527f45524332303a20696e73756666696369656e7420616c6c6f77616e63650000006044820152fd5b50503461021f578160031936011261021f576020906002549051908152f35b50503461021f578060031936011261021f576020906103c261089d610a21565b6024359033610c73565b509134610345576020366003190112610345575061036860209235610e56565b5090346101d257826003193601126101d257805191836003549060019082821c9282811680156109b1575b602095868610821461099e575084885290811561097c5750600114610923575b6104d486866104ca828b0383610aaa565b929550600383527fc2575a0e9e593c00f959f8c92f12db2869c3395a3b0502d05e2516446f71f85b5b82841061096957505050826104d4946104ca928201019438610912565b805486850188015292860192810161094c565b60ff191687860152505050151560051b83010192506104ca826104d438610912565b634e487b7160e01b845260229052602483fd5b93607f16936108f2565b50503461021f578160031936011261021f57602090610368610d75565b6020808252825181830181905290939260005b828110610a0d57505060409293506000838284010152601f8019910116010190565b8181018601518482016040015285016109eb565b600435906001600160a01b0382168203610a3757565b600080fd5b602435906001600160a01b0382168203610a3757565b6005546001600160a01b03163303610a6657565b606460405162461bcd60e51b815260206004820152602060248201527f4f776e61626c653a2063616c6c6572206973206e6f7420746865206f776e65726044820152fd5b90601f8019910116810190811067ffffffffffffffff821117610acc57604052565b634e487b7160e01b600052604160045260246000fd5b91908201809211610aef57565b634e487b7160e01b600052601160045260246000fd5b6001600160a01b03908116918215610c205716918215610bcf57600082815280602052604081205491808310610b7b57604082827fddf252ad1be2c89b69c2b068fc378daa952ba7f163c4a11628f55a4df523b3ef958760209652828652038282205586815220818154019055604051908152a3565b60405162461bcd60e51b815260206004820152602660248201527f45524332303a207472616e7366657220616d6f756e7420657863656564732062604482015265616c616e636560d01b6064820152608490fd5b60405162461bcd60e51b815260206004820152602360248201527f45524332303a207472616e7366657220746f20746865207a65726f206164647260448201526265737360e81b6064820152608490fd5b60405162461bcd60e51b815260206004820152602560248201527f45524332303a207472616e736665722066726f6d20746865207a65726f206164604482015264647265737360d81b6064820152608490fd5b6001600160a01b03908116918215610d245716918215610cd45760207f8c5be1e5ebec7d5bd14f71427d1e84f3dd0314c0f7b2291e5b200ac8c7c3b925918360005260018252604060002085600052825280604060002055604051908152a3565b60405162461bcd60e51b815260206004820152602260248201527f45524332303a20617070726f766520746f20746865207a65726f206164647265604482015261737360f01b6064820152608490fd5b60405162461bcd60e51b8152602060048201526024808201527f45524332303a20617070726f76652066726f6d20746865207a65726f206164646044820152637265737360e01b6064820152608490fd5b600754604051632988bb9f60e21b81523060048201526001600160a01b0391610200919082908290602490829087165afa918215610e1757600092610dbc575b5050905090565b81813d8311610e10575b610dd08183610aaa565b8101031261021f5760a0810151926101a08201519081160361021f5760096101c0820151101561021f576101e00151801515036103455750803880610db5565b503d610dc6565b6040513d6000823e3d90fd5b81810292918115918404141715610aef57565b8115610e40570490565b634e487b7160e01b600052601260045260246000fd5b6002548015610e7c57610e74610e7992610e6e610d75565b90610e23565b610e36565b90565b5050600090565b600254610e8e610d75565b9081158015610eae575b610ea957610e7490610e7993610e23565b505090565b508015610e9856fea164736f6c6343000811000a6a1f3b1dd190cbef98aa225e1538128368d4e91561cef35aaa0eacfacfafe26ea164736f6c6343000811000a405787fa12a823e0f2b7631cc41b3ba8828b3321ca811111fa75cd3aa3bb5ace",
  "linkReferences": {
    "contracts/LOVCalculations.sol": {
      "LOVCalculations": [
        {
          "length": 20,
          "start": 6910
        },
        {
          "length": 20,
          "start": 7947
        },
        {
          "length": 20,
          "start": 8463
        },
        {
          "length": 20,
          "start": 9409
        }
      ]
    }
  },
  "deployedLinkReferences": {
    "contracts/LOVCalculations.sol": {
      "LOVCalculations": [
        {
          "length": 20,
          "start": 5416
        },
        {
          "length": 20,
          "start": 6453
        },
        {
          "length": 20,
          "start": 6969
        },
        {
          "length": 20,
          "start": 7915
        }
      ]
    }
  }
}