{
  "_format": "hh-sol-artifact-1",
  "contractName": "Oracle",
  "sourceName": "contracts/Oracle.sol",
  "abi": [
    {
      "inputs": [
        {
          "internalType": "address",
          "name": "_cegaState",
          "type": "address"
        },
        {
          "internalType": "uint8",
          "name": "_decimals",
          "type": "uint8"
        },
        {
          "internalType": "string",
          "name": "_description",
          "type": "string"
        }
      ],
      "stateMutability": "nonpayable",
      "type": "constructor"
    },
    {
      "anonymous": false,
      "inputs": [
        {
          "indexed": true,
          "internalType": "address",
          "name": "cegaState",
          "type": "address"
        },
        {
          "indexed": false,
          "internalType": "uint8",
          "name": "decimals",
          "type": "uint8"
        },
        {
          "indexed": false,
          "internalType": "string",
          "name": "description",
          "type": "string"
        }
      ],
      "name": "OracleCreated",
      "type": "event"
    },
    {
      "anonymous": false,
      "inputs": [
        {
          "indexed": false,
          "internalType": "int256",
          "name": "answer",
          "type": "int256"
        },
        {
          "indexed": false,
          "internalType": "uint256",
          "name": "startedAt",
          "type": "uint256"
        },
        {
          "indexed": false,
          "internalType": "uint256",
          "name": "updatedAt",
          "type": "uint256"
        },
        {
          "indexed": false,
          "internalType": "uint80",
          "name": "answeredInRound",
          "type": "uint80"
        }
      ],
      "name": "RoundDataAdded",
      "type": "event"
    },
    {
      "anonymous": false,
      "inputs": [
        {
          "indexed": false,
          "internalType": "uint80",
          "name": "roundId",
          "type": "uint80"
        },
        {
          "indexed": false,
          "internalType": "int256",
          "name": "answer",
          "type": "int256"
        },
        {
          "indexed": false,
          "internalType": "uint256",
          "name": "startedAt",
          "type": "uint256"
        },
        {
          "indexed": false,
          "internalType": "uint256",
          "name": "updatedAt",
          "type": "uint256"
        },
        {
          "indexed": false,
          "internalType": "uint80",
          "name": "answeredInRound",
          "type": "uint80"
        }
      ],
      "name": "RoundDataUpdated",
      "type": "event"
    },
    {
      "inputs": [
        {
          "components": [
            {
              "internalType": "int256",
              "name": "answer",
              "type": "int256"
            },
            {
              "internalType": "uint256",
              "name": "startedAt",
              "type": "uint256"
            },
            {
              "internalType": "uint256",
              "name": "updatedAt",
              "type": "uint256"
            },
            {
              "internalType": "uint80",
              "name": "answeredInRound",
              "type": "uint80"
            }
          ],
          "internalType": "struct RoundData",
          "name": "_roundData",
          "type": "tuple"
        }
      ],
      "name": "addNextRoundData",
      "outputs": [],
      "stateMutability": "nonpayable",
      "type": "function"
    },
    {
      "inputs": [],
      "name": "cegaState",
      "outputs": [
        {
          "internalType": "contract ICegaState",
          "name": "",
          "type": "address"
        }
      ],
      "stateMutability": "view",
      "type": "function"
    },
    {
      "inputs": [],
      "name": "decimals",
      "outputs": [
        {
          "internalType": "uint8",
          "name": "",
          "type": "uint8"
        }
      ],
      "stateMutability": "view",
      "type": "function"
    },
    {
      "inputs": [],
      "name": "description",
      "outputs": [
        {
          "internalType": "string",
          "name": "",
          "type": "string"
        }
      ],
      "stateMutability": "view",
      "type": "function"
    },
    {
      "inputs": [
        {
          "internalType": "uint80",
          "name": "_roundId",
          "type": "uint80"
        }
      ],
      "name": "getRoundData",
      "outputs": [
        {
          "internalType": "uint80",
          "name": "roundId",
          "type": "uint80"
        },
        {
          "internalType": "int256",
          "name": "answer",
          "type": "int256"
        },
        {
          "internalType": "uint256",
          "name": "startedAt",
          "type": "uint256"
        },
        {
          "internalType": "uint256",
          "name": "updatedAt",
          "type": "uint256"
        },
        {
          "internalType": "uint80",
          "name": "answeredInRound",
          "type": "uint80"
        }
      ],
      "stateMutability": "view",
      "type": "function"
    },
    {
      "inputs": [],
      "name": "latestRoundData",
      "outputs": [
        {
          "internalType": "uint80",
          "name": "roundId",
          "type": "uint80"
        },
        {
          "internalType": "int256",
          "name": "answer",
          "type": "int256"
        },
        {
          "internalType": "uint256",
          "name": "startedAt",
          "type": "uint256"
        },
        {
          "internalType": "uint256",
          "name": "updatedAt",
          "type": "uint256"
        },
        {
          "internalType": "uint80",
          "name": "answeredInRound",
          "type": "uint80"
        }
      ],
      "stateMutability": "view",
      "type": "function"
    },
    {
      "inputs": [],
      "name": "nextRoundId",
      "outputs": [
        {
          "internalType": "uint80",
          "name": "",
          "type": "uint80"
        }
      ],
      "stateMutability": "view",
      "type": "function"
    },
    {
      "inputs": [
        {
          "internalType": "uint256",
          "name": "",
          "type": "uint256"
        }
      ],
      "name": "oracleData",
      "outputs": [
        {
          "internalType": "int256",
          "name": "answer",
          "type": "int256"
        },
        {
          "internalType": "uint256",
          "name": "startedAt",
          "type": "uint256"
        },
        {
          "internalType": "uint256",
          "name": "updatedAt",
          "type": "uint256"
        },
        {
          "internalType": "uint80",
          "name": "answeredInRound",
          "type": "uint80"
        }
      ],
      "stateMutability": "view",
      "type": "function"
    },
    {
      "inputs": [
        {
          "internalType": "uint80",
          "name": "roundId",
          "type": "uint80"
        },
        {
          "components": [
            {
              "internalType": "int256",
              "name": "answer",
              "type": "int256"
            },
            {
              "internalType": "uint256",
              "name": "startedAt",
              "type": "uint256"
            },
            {
              "internalType": "uint256",
              "name": "updatedAt",
              "type": "uint256"
            },
            {
              "internalType": "uint80",
              "name": "answeredInRound",
              "type": "uint80"
            }
          ],
          "internalType": "struct RoundData",
          "name": "_roundData",
          "type": "tuple"
        }
      ],
      "name": "updateRoundData",
      "outputs": [],
      "stateMutability": "nonpayable",
      "type": "function"
    },
    {
      "inputs": [],
      "name": "version",
      "outputs": [
        {
          "internalType": "uint256",
          "name": "",
          "type": "uint256"
        }
      ],
      "stateMutability": "view",
      "type": "function"
    }
  ],
  "bytecode": "0x604060808152346200028f5762000ba1803803806200001e81620002aa565b92833981016060828203126200028f5781516001600160a01b03811692908390036200028f57602091828201519160ff83168093036200028f57808601516001600160401b03918282116200028f570191601f918183850112156200028f578351908082116200029457601f19946200009d83860187168901620002aa565b92808452888401948982840101116200028f578489620000be9301620002d0565b60016002819055600380546001600160a01b0319168a1790556000805460ff1916881781558351919282116200027b5782548381811c9116801562000270575b8a8210146200025c5786811162000214575b50889086831160011462000198579282620001769360008051602062000b818339815191529b9a98969360609a9896916200018c575b50600019600383901b1c191690821b1790555b8a80519889978852870152518092818c88015287870190620002d0565b01168101030190a25161088b9081620002f68239f35b90508301513862000146565b908783168483528a8320925b818110620001fe5750938360008051602062000b818339815191529b9a9896938293620001769660609c9a9810620001e4575b5050811b01905562000159565b85015160001960f88460031b161c191690553880620001d7565b86830151845592850192918b01918b01620001a4565b8382528982208780850160051c8201928c861062000252575b0160051c019084905b8281106200024657505062000110565b83815501849062000236565b925081926200022d565b634e487b7160e01b82526022600452602482fd5b90607f1690620000fe565b634e487b7160e01b81526041600452602490fd5b600080fd5b634e487b7160e01b600052604160045260246000fd5b6040519190601f01601f191682016001600160401b038111838210176200029457604052565b60005b838110620002e45750506000910152565b8181015183820152602001620002d356fe608060408181526004918236101561001657600080fd5b600092833560e01c9182632f87045c146106fd57508163313ce567146106dd5781634002eda6146106b557816348c717af1461046c57816354fd4d501461044d5781637284e4161461030a5781639a6fc8f5146102a0578163aa4dea001461023a578163ebd0bb30146100c8575063feaf968c1461009357600080fd5b346100c457816003193601126100c4576100c0906100af61080d565b929593949190915195869586610775565b0390f35b5080fd5b919050346102365760a0366003190112610236576100e461075a565b6080366023190112610232576003548251632c9556a560e11b8152338582015290602090829060249082906001600160a01b03165afa9081156102285785916101fa575b50156101ce57610137816107a5565b9390936101bc5750602435918284556044358060018601556003606435958660028201550194608435916001600160501b038316938484036101b8577fce681dc19b73a559407cc81dcf28f71444f3d9d1c594f98cc28ced88903aa799976101b2956001600160501b03198254161790555195869586610775565b0390a180f35b8880fd5b634e487b7160e01b8552849052602484fd5b815162461bcd60e51b815260208185015260066024820152653430333a444160d01b6044820152606490fd5b61021b915060203d8111610221575b6102138183610722565b8101906107f5565b38610128565b503d610209565b83513d87823e3d90fd5b8380fd5b8280fd5b9050823461029d57602036600319011261029d578135915482101561029d5750610263906107a5565b508054600182015460028301546003909301549351918252602082015260408101919091526001600160501b039091166060820152608090f35b80fd5b82843461029d57602036600319011261029d57506102bc61075a565b6100c06102c8826107a5565b50549260016102d6846107a5565b50015460026102e4856107a5565b500154906001600160501b0360036102fb876107a5565b50015416925195869586610775565b82843461029d578060031936011261029d5781519080600180549081811c918181168015610443575b6020988985108214610430575091839189959388958652908160001461040f57506001146103b4575b505061036e9250959392950382610722565b82519382859384528251928382860152825b84811061039e57505050828201840152601f01601f19168101030190f35b8181018301518882018801528795508201610380565b8086527fb10e2d527612073b26eecdfd717e6a320cf44b4afac2b0732d9fcbe2b7fa0cf69492508591905b8183106103f757508894505082010161036e8861035c565b855488840185015294850194879450918301916103df565b91505061036e94925060ff191682840152151560051b82010186928861035c565b634e487b7160e01b875260229052602486fd5b92607f1692610333565b5050346100c457816003193601126100c4576020906002549051908152f35b8383346100c45760803660031901126100c4576003548151633b9033c960e01b81523385820152602092916024919084908290849082906001600160a01b03165afa908115610228578591610698575b501561066e576001600160501b03918260055416610630575b6201517f1942019342851161061e5782358095116105f557508554680100000000000000008110156105e357806001610510920188556107a5565b9290926105d357863593848455856001850155600360443594856002820155019060643598818a1692838b036105cf576001600160501b0319938482541617905560055493828516918383146105be5750506001011691161760055551918252602082019290925260408101919091526001600160501b03929092166060830152907fe7ddf63c860421e83a9bedde9a44e9769a4e116a96f51ad2ecb8e0506bb4f1e69080608081016101b2565b634e487b7160e01b8b526011905289fd5b8980fd5b634e487b7160e01b865285875285fd5b634e487b7160e01b8652604187528286fd5b6064926005918893519362461bcd60e51b8552840152820152640d0c0c0e9560da1b6044820152fd5b634e487b7160e01b8652601187528286fd5b61063861080d565b5092505050823510156104d5576005606492858893519362461bcd60e51b85528401528201526403430303a560dc1b6044820152fd5b6006906064938693519362461bcd60e51b8552840152820152653430333a534160d01b6044820152fd5b6106af9150843d8611610221576102138183610722565b866104bc565b5050346100c457816003193601126100c4576020906001600160501b03600554169051908152f35b5050346100c457816003193601126100c45760ff60209254169051908152f35b8490346100c457816003193601126100c4576003546001600160a01b03168152602090f35b90601f8019910116810190811067ffffffffffffffff82111761074457604052565b634e487b7160e01b600052604160045260246000fd5b600435906001600160501b038216820361077057565b600080fd5b93608093969591929660a08601976001600160501b03809516875260208701526040860152606085015216910152565b6004548110156107df57600460005260021b7f8a35acfbc15ff81a39ae7d344fd709f28e8600b4aa8c65c6b64bfe7fe36bd19b0190600090565b634e487b7160e01b600052603260045260246000fd5b90816020910312610770575180151581036107705790565b6001600160501b03906000198260055416019180831161086857610830836107a5565b505492600161083e826107a5565b50015492600261084d836107a5565b50015492600361085c846107a5565b50015416919493929190565b634e487b7160e01b600052601160045260246000fdfea164736f6c6343000811000a207c72da34bbf39f74f1c0ab663e53da0cf3efb11f309019cbcde043f8aedd19",
  "linkReferences": {},
  "deployedLinkReferences": {}
}