{
  "_format": "hh-sol-artifact-1",
  "contractName": "CegaViewer",
  "sourceName": "contracts/viewers/CegaViewer.sol",
  "abi": [
    {
      "inputs": [
        {
          "internalType": "address",
          "name": "productAddress",
          "type": "address"
        },
        {
          "internalType": "address",
          "name": "vaultAddress",
          "type": "address"
        },
        {
          "internalType": "uint256",
          "name": "managementFeeBps",
          "type": "uint256"
        },
        {
          "internalType": "uint256",
          "name": "yieldFeeBps",
          "type": "uint256"
        }
      ],
      "name": "calculateFees",
      "outputs": [
        {
          "internalType": "uint256",
          "name": "totalFee",
          "type": "uint256"
        },
        {
          "internalType": "uint256",
          "name": "managementFee",
          "type": "uint256"
        },
        {
          "internalType": "uint256",
          "name": "yieldFee",
          "type": "uint256"
        }
      ],
      "stateMutability": "view",
      "type": "function"
    },
    {
      "inputs": [
        {
          "internalType": "address",
          "name": "productAddress",
          "type": "address"
        },
        {
          "internalType": "address",
          "name": "vaultAddress",
          "type": "address"
        },
        {
          "internalType": "address",
          "name": "cegaStateAddress",
          "type": "address"
        }
      ],
      "name": "calculateKnockInRatio",
      "outputs": [
        {
          "internalType": "uint256",
          "name": "knockInRatio",
          "type": "uint256"
        }
      ],
      "stateMutability": "view",
      "type": "function"
    },
    {
      "inputs": [
        {
          "internalType": "address",
          "name": "fcnProductAddress",
          "type": "address"
        }
      ],
      "name": "getFCNProductInfo",
      "outputs": [
        {
          "components": [
            {
              "internalType": "address",
              "name": "asset",
              "type": "address"
            },
            {
              "internalType": "string",
              "name": "name",
              "type": "string"
            },
            {
              "internalType": "uint256",
              "name": "managementFeeBps",
              "type": "uint256"
            },
            {
              "internalType": "uint256",
              "name": "yieldFeeBps",
              "type": "uint256"
            },
            {
              "internalType": "bool",
              "name": "isDepositQueueOpen",
              "type": "bool"
            },
            {
              "internalType": "uint256",
              "name": "maxDepositAmountLimit",
              "type": "uint256"
            },
            {
              "internalType": "uint256",
              "name": "sumVaultUnderlyingAmounts",
              "type": "uint256"
            },
            {
              "internalType": "uint256",
              "name": "queuedDepositsTotalAmount",
              "type": "uint256"
            },
            {
              "internalType": "uint256",
              "name": "queuedDepositsCount",
              "type": "uint256"
            },
            {
              "internalType": "address[]",
              "name": "vaultAddresses",
              "type": "address[]"
            }
          ],
          "internalType": "struct FCNProductViewer.FCNProductInfo",
          "name": "",
          "type": "tuple"
        }
      ],
      "stateMutability": "view",
      "type": "function"
    },
    {
      "inputs": [
        {
          "internalType": "address",
          "name": "fcnProductAddress",
          "type": "address"
        },
        {
          "internalType": "address",
          "name": "userAddress",
          "type": "address"
        }
      ],
      "name": "getFCNProductUserQueuedDeposits",
      "outputs": [
        {
          "internalType": "uint256",
          "name": "totalQueuedDeposits",
          "type": "uint256"
        }
      ],
      "stateMutability": "view",
      "type": "function"
    },
    {
      "inputs": [
        {
          "internalType": "address",
          "name": "productAddress",
          "type": "address"
        },
        {
          "internalType": "uint256",
          "name": "inputAssets",
          "type": "uint256"
        },
        {
          "internalType": "uint256",
          "name": "inputShares",
          "type": "uint256"
        }
      ],
      "name": "getFCNVaultAssetInfo",
      "outputs": [
        {
          "components": [
            {
              "internalType": "address",
              "name": "vaultAddress",
              "type": "address"
            },
            {
              "internalType": "uint256",
              "name": "totalAssets",
              "type": "uint256"
            },
            {
              "internalType": "uint256",
              "name": "totalSupply",
              "type": "uint256"
            },
            {
              "internalType": "uint256",
              "name": "inputAssets",
              "type": "uint256"
            },
            {
              "internalType": "uint256",
              "name": "outputShares",
              "type": "uint256"
            },
            {
              "internalType": "uint256",
              "name": "inputShares",
              "type": "uint256"
            },
            {
              "internalType": "uint256",
              "name": "outputAssets",
              "type": "uint256"
            }
          ],
          "internalType": "struct FCNVaultAssetInfo[]",
          "name": "",
          "type": "tuple[]"
        }
      ],
      "stateMutability": "view",
      "type": "function"
    },
    {
      "inputs": [
        {
          "internalType": "address",
          "name": "productAddress",
          "type": "address"
        }
      ],
      "name": "getFCNVaultMetadata",
      "outputs": [
        {
          "components": [
            {
              "internalType": "uint256",
              "name": "vaultStart",
              "type": "uint256"
            },
            {
              "internalType": "uint256",
              "name": "tradeDate",
              "type": "uint256"
            },
            {
              "internalType": "uint256",
              "name": "tradeExpiry",
              "type": "uint256"
            },
            {
              "internalType": "uint256",
              "name": "aprBps",
              "type": "uint256"
            },
            {
              "internalType": "uint256",
              "name": "tenorInDays",
              "type": "uint256"
            },
            {
              "internalType": "uint256",
              "name": "underlyingAmount",
              "type": "uint256"
            },
            {
              "internalType": "uint256",
              "name": "currentAssetAmount",
              "type": "uint256"
            },
            {
              "internalType": "uint256",
              "name": "totalCouponPayoff",
              "type": "uint256"
            },
            {
              "internalType": "uint256",
              "name": "vaultFinalPayoff",
              "type": "uint256"
            },
            {
              "internalType": "uint256",
              "name": "queuedWithdrawalsSharesAmount",
              "type": "uint256"
            },
            {
              "internalType": "uint256",
              "name": "queuedWithdrawalsCount",
              "type": "uint256"
            },
            {
              "internalType": "uint256",
              "name": "optionBarriersCount",
              "type": "uint256"
            },
            {
              "internalType": "uint256",
              "name": "leverage",
              "type": "uint256"
            },
            {
              "internalType": "address",
              "name": "vaultAddress",
              "type": "address"
            },
            {
              "internalType": "enum VaultStatus",
              "name": "vaultStatus",
              "type": "uint8"
            },
            {
              "internalType": "bool",
              "name": "isKnockedIn",
              "type": "bool"
            },
            {
              "components": [
                {
                  "internalType": "uint256",
                  "name": "barrierBps",
                  "type": "uint256"
                },
                {
                  "internalType": "uint256",
                  "name": "barrierAbsoluteValue",
                  "type": "uint256"
                },
                {
                  "internalType": "uint256",
                  "name": "strikeBps",
                  "type": "uint256"
                },
                {
                  "internalType": "uint256",
                  "name": "strikeAbsoluteValue",
                  "type": "uint256"
                },
                {
                  "internalType": "string",
                  "name": "asset",
                  "type": "string"
                },
                {
                  "internalType": "string",
                  "name": "oracleName",
                  "type": "string"
                },
                {
                  "internalType": "enum OptionBarrierType",
                  "name": "barrierType",
                  "type": "uint8"
                }
              ],
              "internalType": "struct OptionBarrier[]",
              "name": "optionBarriers",
              "type": "tuple[]"
            }
          ],
          "internalType": "struct FCNVaultMetadata[]",
          "name": "",
          "type": "tuple[]"
        }
      ],
      "stateMutability": "view",
      "type": "function"
    },
    {
      "inputs": [
        {
          "internalType": "address",
          "name": "lovProductAddress",
          "type": "address"
        }
      ],
      "name": "getLOVProductInfo",
      "outputs": [
        {
          "components": [
            {
              "internalType": "address",
              "name": "asset",
              "type": "address"
            },
            {
              "internalType": "string",
              "name": "name",
              "type": "string"
            },
            {
              "internalType": "uint256",
              "name": "managementFeeBps",
              "type": "uint256"
            },
            {
              "internalType": "uint256",
              "name": "yieldFeeBps",
              "type": "uint256"
            }
          ],
          "internalType": "struct LOVProductViewer.LOVProductInfo",
          "name": "",
          "type": "tuple"
        }
      ],
      "stateMutability": "view",
      "type": "function"
    },
    {
      "inputs": [
        {
          "internalType": "address",
          "name": "fcnProductAddress",
          "type": "address"
        },
        {
          "internalType": "uint256",
          "name": "leverage",
          "type": "uint256"
        }
      ],
      "name": "getLOVProductQueuedDeposits",
      "outputs": [
        {
          "internalType": "uint256",
          "name": "totalQueuedDeposits",
          "type": "uint256"
        }
      ],
      "stateMutability": "view",
      "type": "function"
    },
    {
      "inputs": [
        {
          "internalType": "address",
          "name": "fcnProductAddress",
          "type": "address"
        },
        {
          "internalType": "address",
          "name": "userAddress",
          "type": "address"
        },
        {
          "internalType": "uint256",
          "name": "leverage",
          "type": "uint256"
        }
      ],
      "name": "getLOVProductUserQueuedDeposits",
      "outputs": [
        {
          "internalType": "uint256",
          "name": "totalQueuedDeposits",
          "type": "uint256"
        }
      ],
      "stateMutability": "view",
      "type": "function"
    },
    {
      "inputs": [
        {
          "internalType": "address",
          "name": "productAddress",
          "type": "address"
        },
        {
          "internalType": "uint256",
          "name": "leverage",
          "type": "uint256"
        },
        {
          "internalType": "uint256",
          "name": "inputAssets",
          "type": "uint256"
        },
        {
          "internalType": "uint256",
          "name": "inputShares",
          "type": "uint256"
        }
      ],
      "name": "getLOVVaultAssetInfo",
      "outputs": [
        {
          "components": [
            {
              "internalType": "address",
              "name": "vaultAddress",
              "type": "address"
            },
            {
              "internalType": "uint256",
              "name": "totalAssets",
              "type": "uint256"
            },
            {
              "internalType": "uint256",
              "name": "totalSupply",
              "type": "uint256"
            },
            {
              "internalType": "uint256",
              "name": "inputAssets",
              "type": "uint256"
            },
            {
              "internalType": "uint256",
              "name": "outputShares",
              "type": "uint256"
            },
            {
              "internalType": "uint256",
              "name": "inputShares",
              "type": "uint256"
            },
            {
              "internalType": "uint256",
              "name": "outputAssets",
              "type": "uint256"
            }
          ],
          "internalType": "struct FCNVaultAssetInfo[]",
          "name": "",
          "type": "tuple[]"
        }
      ],
      "stateMutability": "view",
      "type": "function"
    },
    {
      "inputs": [
        {
          "internalType": "address",
          "name": "productAddress",
          "type": "address"
        },
        {
          "internalType": "uint256",
          "name": "leverage",
          "type": "uint256"
        }
      ],
      "name": "getLOVVaultMetadata",
      "outputs": [
        {
          "components": [
            {
              "internalType": "uint256",
              "name": "vaultStart",
              "type": "uint256"
            },
            {
              "internalType": "uint256",
              "name": "tradeDate",
              "type": "uint256"
            },
            {
              "internalType": "uint256",
              "name": "tradeExpiry",
              "type": "uint256"
            },
            {
              "internalType": "uint256",
              "name": "aprBps",
              "type": "uint256"
            },
            {
              "internalType": "uint256",
              "name": "tenorInDays",
              "type": "uint256"
            },
            {
              "internalType": "uint256",
              "name": "underlyingAmount",
              "type": "uint256"
            },
            {
              "internalType": "uint256",
              "name": "currentAssetAmount",
              "type": "uint256"
            },
            {
              "internalType": "uint256",
              "name": "totalCouponPayoff",
              "type": "uint256"
            },
            {
              "internalType": "uint256",
              "name": "vaultFinalPayoff",
              "type": "uint256"
            },
            {
              "internalType": "uint256",
              "name": "queuedWithdrawalsSharesAmount",
              "type": "uint256"
            },
            {
              "internalType": "uint256",
              "name": "queuedWithdrawalsCount",
              "type": "uint256"
            },
            {
              "internalType": "uint256",
              "name": "optionBarriersCount",
              "type": "uint256"
            },
            {
              "internalType": "uint256",
              "name": "leverage",
              "type": "uint256"
            },
            {
              "internalType": "address",
              "name": "vaultAddress",
              "type": "address"
            },
            {
              "internalType": "enum VaultStatus",
              "name": "vaultStatus",
              "type": "uint8"
            },
            {
              "internalType": "bool",
              "name": "isKnockedIn",
              "type": "bool"
            },
            {
              "components": [
                {
                  "internalType": "uint256",
                  "name": "barrierBps",
                  "type": "uint256"
                },
                {
                  "internalType": "uint256",
                  "name": "barrierAbsoluteValue",
                  "type": "uint256"
                },
                {
                  "internalType": "uint256",
                  "name": "strikeBps",
                  "type": "uint256"
                },
                {
                  "internalType": "uint256",
                  "name": "strikeAbsoluteValue",
                  "type": "uint256"
                },
                {
                  "internalType": "string",
                  "name": "asset",
                  "type": "string"
                },
                {
                  "internalType": "string",
                  "name": "oracleName",
                  "type": "string"
                },
                {
                  "internalType": "enum OptionBarrierType",
                  "name": "barrierType",
                  "type": "uint8"
                }
              ],
              "internalType": "struct OptionBarrier[]",
              "name": "optionBarriers",
              "type": "tuple[]"
            }
          ],
          "internalType": "struct FCNVaultMetadata[]",
          "name": "",
          "type": "tuple[]"
        }
      ],
      "stateMutability": "view",
      "type": "function"
    },
    {
      "inputs": [
        {
          "internalType": "address",
          "name": "fcnVaultAddress",
          "type": "address"
        },
        {
          "internalType": "uint256",
          "name": "inputAssets",
          "type": "uint256"
        },
        {
          "internalType": "uint256",
          "name": "inputShares",
          "type": "uint256"
        }
      ],
      "name": "getSingleFCNVaultAssetInfo",
      "outputs": [
        {
          "components": [
            {
              "internalType": "address",
              "name": "vaultAddress",
              "type": "address"
            },
            {
              "internalType": "uint256",
              "name": "totalAssets",
              "type": "uint256"
            },
            {
              "internalType": "uint256",
              "name": "totalSupply",
              "type": "uint256"
            },
            {
              "internalType": "uint256",
              "name": "inputAssets",
              "type": "uint256"
            },
            {
              "internalType": "uint256",
              "name": "outputShares",
              "type": "uint256"
            },
            {
              "internalType": "uint256",
              "name": "inputShares",
              "type": "uint256"
            },
            {
              "internalType": "uint256",
              "name": "outputAssets",
              "type": "uint256"
            }
          ],
          "internalType": "struct FCNVaultAssetInfo",
          "name": "",
          "type": "tuple"
        }
      ],
      "stateMutability": "view",
      "type": "function"
    },
    {
      "inputs": [
        {
          "internalType": "address",
          "name": "productAddress",
          "type": "address"
        },
        {
          "internalType": "address",
          "name": "fcnVaultAddress",
          "type": "address"
        }
      ],
      "name": "getSingleFCNVaultMetadata",
      "outputs": [
        {
          "components": [
            {
              "internalType": "uint256",
              "name": "vaultStart",
              "type": "uint256"
            },
            {
              "internalType": "uint256",
              "name": "tradeDate",
              "type": "uint256"
            },
            {
              "internalType": "uint256",
              "name": "tradeExpiry",
              "type": "uint256"
            },
            {
              "internalType": "uint256",
              "name": "aprBps",
              "type": "uint256"
            },
            {
              "internalType": "uint256",
              "name": "tenorInDays",
              "type": "uint256"
            },
            {
              "internalType": "uint256",
              "name": "underlyingAmount",
              "type": "uint256"
            },
            {
              "internalType": "uint256",
              "name": "currentAssetAmount",
              "type": "uint256"
            },
            {
              "internalType": "uint256",
              "name": "totalCouponPayoff",
              "type": "uint256"
            },
            {
              "internalType": "uint256",
              "name": "vaultFinalPayoff",
              "type": "uint256"
            },
            {
              "internalType": "uint256",
              "name": "queuedWithdrawalsSharesAmount",
              "type": "uint256"
            },
            {
              "internalType": "uint256",
              "name": "queuedWithdrawalsCount",
              "type": "uint256"
            },
            {
              "internalType": "uint256",
              "name": "optionBarriersCount",
              "type": "uint256"
            },
            {
              "internalType": "uint256",
              "name": "leverage",
              "type": "uint256"
            },
            {
              "internalType": "address",
              "name": "vaultAddress",
              "type": "address"
            },
            {
              "internalType": "enum VaultStatus",
              "name": "vaultStatus",
              "type": "uint8"
            },
            {
              "internalType": "bool",
              "name": "isKnockedIn",
              "type": "bool"
            },
            {
              "components": [
                {
                  "internalType": "uint256",
                  "name": "barrierBps",
                  "type": "uint256"
                },
                {
                  "internalType": "uint256",
                  "name": "barrierAbsoluteValue",
                  "type": "uint256"
                },
                {
                  "internalType": "uint256",
                  "name": "strikeBps",
                  "type": "uint256"
                },
                {
                  "internalType": "uint256",
                  "name": "strikeAbsoluteValue",
                  "type": "uint256"
                },
                {
                  "internalType": "string",
                  "name": "asset",
                  "type": "string"
                },
                {
                  "internalType": "string",
                  "name": "oracleName",
                  "type": "string"
                },
                {
                  "internalType": "enum OptionBarrierType",
                  "name": "barrierType",
                  "type": "uint8"
                }
              ],
              "internalType": "struct OptionBarrier[]",
              "name": "optionBarriers",
              "type": "tuple[]"
            }
          ],
          "internalType": "struct FCNVaultMetadata",
          "name": "",
          "type": "tuple"
        }
      ],
      "stateMutability": "view",
      "type": "function"
    }
  ],
  "bytecode": "0x60808060405234610016576120de908161001c8239f35b600080fdfe608080604052600436101561001357600080fd5b60003560e01c9081630b3b4c88146116935750806336b09cac14611551578063523bca091461144c57806353798b5d146113b55780635571e700146112835780635643b5a114610d41578063699fc22914610b79578063747ac61014610a7b5780637a0bdfba1461089e5780637b1a973a1461062d578063a2e7f3e6146103db578063b67e1319146102b65763c2e7a8b7146100ae57600080fd5b3461021357602080600319360112610213576100c86117af565b90600060606040516100d981611b4f565b8281528184820152826040820152015260018060a01b03809216604051916338d52e0f60e01b83528083600481855afa92831561021f5760009361027f575b506040516306fdde0360e01b8152600081600481865afa90811561021f5760009161025c575b50604051631c09e1ad60e11b8152928284600481845afa93841561021f5760009461022b575b50908260049260405193848092632ce0e0a160e11b82525afa91821561021f576000926101e9575b506101d8919286604051966101a088611b4f565b1686528086019182526040860194855260608601938452604051968796828852511690860152516080604086015260a08501906117fe565b915160608401525160808301520390f35b91508282813d8311610218575b6102008183611b6b565b81010312610213576101d891519161018c565b600080fd5b503d6101f6565b6040513d6000823e3d90fd5b919093508282813d8311610255575b6102448183611b6b565b810103126102135790519282610164565b503d61023a565b61027991503d806000833e6102718183611b6b565b810190611bf6565b3861013e565b9080935081813d83116102af575b6102978183611b6b565b81010312610213576102a890611b8d565b9138610118565b503d61028d565b34610213576040366003190112610213576102cf6117af565b604051629ddfe960e11b815260248035600483018190526001600160a01b03909316926020838381875afa92831561021f576000936103a8575b5091906000926000945b83861061032557602085604051908152f35b909192936040516305075dcb60e31b81528360048201528685820152604081604481865afa91821561021f5761036f9261036992600091610379575b505190611d29565b95611cc3565b9493929190610313565b61039b915060403d6040116103a1575b6103938183611b6b565b810190611ce8565b89610361565b503d610389565b9092506020813d82116103d3575b816103c360209383611b6b565b8101031261021357519184610309565b3d91506103b6565b34610213576103e936611a45565b6040516393da89ef60e01b815291926001600160a01b0391906000908490600490829086165afa92831561021f57600093610608575b5061042a8351612081565b9160005b84518110156105f657816104428287611e14565b516040516278744560e21b815292911660208084600481855afa93841561021f576000946105c7575b506040516318160ddd60e01b81528181600481865afa90811561021f5760009161059a575b50604051906363737ac960e11b82528a600483015260249583838881885afa92831561021f5760009361056b575b508360405180986303d1689d60e11b82528b600483015281885afa93841561021f5760009461053a575b6105359750604051956104fa87611b33565b8652850152604084015289606084015260808301528560a083015260c08201526105248287611e14565b5261052f8186611e14565b50611cc3565b61042e565b80945087813d8311610564575b6105518183611b6b565b81010312610213576105359651936104e8565b503d610547565b9092508381813d8311610593575b6105838183611b6b565b810103126102135751918c6104be565b503d610579565b90508181813d83116105c0575b6105b18183611b6b565b8101031261021357518a610490565b503d6105a7565b9080945081813d83116105ef575b6105df8183611b6b565b810103126102135751928961046b565b503d6105d5565b604051806106048682611ab8565b0390f35b6106269193503d806000833e61061e8183611b6b565b810190611c41565b918461041f565b34610213576080366003190112610213576024600061064a6117af565b604051635239f48760e01b81528335600482015292839182906001600160a01b03165afa90811561021f57600091610883575b506106888151612081565b9060005b8151811015610875576001600160a01b036106a78284611e14565b516040516278744560e21b8152929116602083600481845afa92831561021f57600093610841575b506040516318160ddd60e01b815292602084600481855afa93841561021f5760009461080d575b506040516363737ac960e11b81526044356004820152602081602481865afa90811561021f576000916107db575b506040516303d1689d60e11b8152606435600482015294602086602481875afa92831561021f576000936107a5575b6107a096506040519461076586611b33565b8552602085015260408401526044356060840152608083015260643560a083015260c08201526107958286611e14565b5261052f8185611e14565b61068c565b92506020863d6020116107d3575b816107c060209383611b6b565b81010312610213576107a0955192610753565b3d91506107b3565b90506020813d602011610805575b816107f660209383611b6b565b81010312610213575187610724565b3d91506107e9565b9093506020813d602011610839575b8161082960209383611b6b565b81010312610213575192866106f6565b3d915061081c565b9092506020813d60201161086d575b8161085d60209383611b6b565b81010312610213575191856106cf565b3d9150610850565b604051806106048582611ab8565b61089891503d806000833e61061e8183611b6b565b8161067d565b3461021357606080600319360112610213576108b86117af565b906108c16117c5565b6044356001600160a01b0381811693929184900361021357602460009282604051978894859363dc4f1e4960e01b8552166004840152165afa92831561021f57600093610a56575b5090916101606102008201519101519060405180936304e9fccb60e01b825260648201958160048401528351809752608483019460848860051b8501019260209889809701916000905b8282106109ca57505050508394955060248401526044830152038173__$d174d95facea876af0faf23442ada6b991$__5af490811561021f5760009161099d575b50604051908152f35b90508181813d83116109c3575b6109b48183611b6b565b81010312610213575182610994565b503d6109aa565b9298939650939680600192966083198c8203018652610a418b5191825181528383015184820152604083015160408201528683015187820152610a32610a1f608060e0818701519185015260e08401906117fe565b60a08086015190848303908501526117fe565b9260c080910151910190611823565b99019301930193899693979489969392610953565b610a749193503d806000833e610a6c8183611b6b565b810190611e3e565b9183610909565b34610213576020366003190112610213576001600160a01b0380610a9d6117af565b6040516393da89ef60e01b81529116600082600481845afa91821561021f57600092610b5c575b50610acf8251611dc4565b9260005b8351811015610b4e5781610ae78286611e14565b5160405163dc4f1e4960e01b81529116600482015290600082602481875afa801561021f57610b2e92600091610b33575b50610b238288611e14565b5261052f8187611e14565b610ad3565b610b4891503d806000833e610a6c8183611b6b565b87610b18565b6040518061060487826119e3565b610b729192503d806000833e61061e8183611b6b565b9083610ac4565b3461021357610b8736611a45565b91610b90612049565b506040516278744560e21b8152926001600160a01b039190911691602091908285600481875afa94851561021f57600095610d12575b506040516318160ddd60e01b8152908382600481885afa91821561021f57600092610ce3575b506040516363737ac960e11b815260048101829052918483602481895afa92831561021f57600093610cb4575b506040516303d1689d60e11b8152600481018590529685886024818a5afa95861561021f57600096610c84575b60e0985060405197610c5789611b33565b885287015260408601526060850152608084015260a083015260c0820152610c826040518092611a6f565bf35b80965088813d8311610cad575b610c9b8183611b6b565b810103126102135760e0975195610c46565b503d610c91565b9092508481813d8311610cdc575b610ccc8183611b6b565b8101031261021357519187610c19565b503d610cc2565b9091508381813d8311610d0b575b610cfb8183611b6b565b8101031261021357519086610bec565b503d610cf1565b9094508281813d8311610d3a575b610d2a8183611b6b565b8101031261021357519385610bc6565b503d610d20565b3461021357602036600319011261021357610d5a6117af565b6060610120604051610d6b81611b00565b600081528260208201526000604082015260008382015260006080820152600060a0820152600060c0820152600060e082015260006101008201520152604051906338d52e0f60e01b825260208260048160018060a01b0385165afa91821561021f57600092611247575b506040516306fdde0360e01b81526000816004816001600160a01b0386165afa90811561021f5760009161122c575b50604051631c09e1ad60e11b81526020816004816001600160a01b0387165afa90811561021f576000916111fa575b50604051632ce0e0a160e11b81526020816004816001600160a01b0388165afa90811561021f576000916111c8575b50604051637ca0c88960e11b81526020816004816001600160a01b0389165afa90811561021f5760009161118e575b5060405163155c062d60e11b8152906020826004816001600160a01b038a165afa91821561021f5760009261115a575b50604051637b14896360e11b8152926020846004816001600160a01b038b165afa93841561021f57600094611126575b50604051630dd86a9f60e31b8152946020866004816001600160a01b038c165afa95861561021f576000966110f2575b50604051633cb2f02960e21b8152966020886004816001600160a01b038d165afa97881561021f576000986110bb575b506040516393da89ef60e01b8152986000908a9060049082906001600160a01b03165afa98891561021f5760009961109e575b5060405199610f938b611b00565b60018060a01b03168a5260208a0152604089015260608801521515608087015260a086015260c085015260e084015261010083015261012082015260405180916020825260018060a01b038151166020830152610120611004602083015161014060408601526101608501906117fe565b9160408101516060850152606081015160808501526080810151151560a085015260a081015160c085015260c081015160e085015260e081015161010085015261010081015182850152015190601f19838203016101408401526020808351928381520192019060005b81811061107c575050500390f35b82516001600160a01b031684528594506020938401939092019160010161106e565b6110b49199503d806000833e61061e8183611b6b565b978a610f85565b9897506020893d6020116110ea575b816110d760209383611b6b565b8101031261021357975196976000610f52565b3d91506110ca565b9095506020813d60201161111e575b8161110e60209383611b6b565b8101031261021357519489610f22565b3d9150611101565b9093506020813d602011611152575b8161114260209383611b6b565b8101031261021357519288610ef2565b3d9150611135565b9091506020813d602011611186575b8161117660209383611b6b565b8101031261021357519087610ec2565b3d9150611169565b90506020813d6020116111c0575b816111a960209383611b6b565b81010312610213576111ba90611c1c565b86610e92565b3d915061119c565b90506020813d6020116111f2575b816111e360209383611b6b565b81010312610213575185610e63565b3d91506111d6565b90506020813d602011611224575b8161121560209383611b6b565b81010312610213575184610e34565b3d9150611208565b61124191503d806000833e6102718183611b6b565b83610e05565b9091506020813d60201161127b575b8161126360209383611b6b565b810103126102135761127490611b8d565b9082610dd6565b3d9150611256565b346102135760603660031901126102135761129c6117af565b6112a46117c5565b604051629ddfe960e11b815260448035600483018190526020946001600160a01b03908116949392909160249190878584818a5afa94851561021f57600095611386575b506000969495841694875b878110611304578989604051908152f35b6040516305075dcb60e31b815283600482015281868201526040818681865afa90811561021f57600091611367575b5087878c8301511614611350575b5061134b90611cc3565b6112f3565b61134b9199611360915190611d29565b9890611341565b611380915060403d6040116103a1576103938183611b6b565b8b611333565b9094508781813d83116113ae575b61139e8183611b6b565b81010312610213575193886112e8565b503d611394565b34610213576040366003190112610213576113ce6117af565b60006113d86117c5565b916113e1611d36565b5060405163dc4f1e4960e01b81526001600160a01b0393841660048201529283916024918391165afa801561021f5761060491600091611431575b50604051918291602083526020830190611846565b61144691503d806000833e610a6c8183611b6b565b8261141c565b34610213576040366003190112610213576001600160a01b038061146e6117af565b1660405190635239f48760e01b82526024803560048401526000838281855afa92831561021f57600093611534575b506114a88351611dc4565b9360005b845181101561152657816114c08287611e14565b5160405163dc4f1e4960e01b815291166004820152906000828581885afa801561021f576115069260009161150b575b506114fb8289611e14565b5261052f8188611e14565b6114ac565b61152091503d806000833e610a6c8183611b6b565b886114f0565b6040518061060488826119e3565b61154a9193503d806000833e61061e8183611b6b565b918461149d565b346102135760803660031901126102135761156a6117af565b60006115746117c5565b60405163dc4f1e4960e01b81526001600160a01b0391821660048201529283916024918391165afa90811561021f57600091611678575b5060a081015190805190610100604082015191015191604051936376ce2ac760e01b85526004850152602484015260448301526064820152604435608482015260643560a482015260608160c48173__$d174d95facea876af0faf23442ada6b991$__5af4801561021f5760009060008091611638575b6060935060405192835260208301526040820152f35b5050506060813d8211611670575b8161165360609383611b6b565b810103126102135780516020820151604090920151606092611622565b3d9150611646565b61168d91503d806000833e610a6c8183611b6b565b816115ab565b34610213576040366003190112610213576116ac6117af565b906116b56117c5565b633cb2f02960e21b82526020926001600160a01b0390811692908482600481875afa91821561021f57600092611780575b506000939192811691845b848110611702578686604051908152f35b6040516320ca428f60e21b8152816004820152604081602481865afa90811561021f57600091611761575b50848489830151161461174a575b5061174590611cc3565b6116f1565b611745919661175a915190611d29565b959061173b565b61177a915060403d6040116103a1576103938183611b6b565b8861172d565b9091508481813d83116117a8575b6117988183611b6b565b81010312610213575190856116e6565b503d61178e565b600435906001600160a01b038216820361021357565b602435906001600160a01b038216820361021357565b60005b8381106117ee5750506000910152565b81810151838201526020016117de565b90602091611817815180928185528580860191016117db565b601f01601f1916010190565b9060028210156118305752565b634e487b7160e01b600052602160045260246000fd5b9061022090818101918351825260209182850151838201526040808601518183015260609283870151848401526080808801518185015260a090818901518286015260c092838a01518487015260e090818b015182880152610100808c015190880152610120808c015190880152610140808c015190880152610160808c015190880152610180808c0151908801526101a060018060a01b03818d015116908801526101c0808c015190600982101561183057889b9a999b97969594939701526101e0808c0151151590880152610200809b01519a87015289518098526102409487868801968a60051b8901019b01996000975b8a89106119505750505050505050505050505090565b909192939495969798999a9b8a80898f6001948b808f8d6119b08e8e8e6119cd998f966119c29761023f19908c03019052519a8b518a528c8c01518d8b0152808c0151908a0152808b01519089015280828b0151928901528701906117fe565b908088015190868303908701526117fe565b940151910190611823565b9e0199019901979a99989695949392919061193a565b602080820190808352835180925260408301928160408460051b8301019501936000915b848310611a175750505050505090565b9091929394958480611a35600193603f198682030187528a51611846565b9801930193019194939290611a07565b6060906003190112610213576004356001600160a01b038116810361021357906024359060443590565b60c0809160018060a01b0381511684526020810151602085015260408101516040850152606081015160608501526080810151608085015260a081015160a08501520151910152565b6020908160408183019282815285518094520193019160005b828110611adf575050505090565b909192938260e082611af46001948951611a6f565b01950193929101611ad1565b610140810190811067ffffffffffffffff821117611b1d57604052565b634e487b7160e01b600052604160045260246000fd5b60e0810190811067ffffffffffffffff821117611b1d57604052565b6080810190811067ffffffffffffffff821117611b1d57604052565b90601f8019910116810190811067ffffffffffffffff821117611b1d57604052565b51906001600160a01b038216820361021357565b81601f8201121561021357805167ffffffffffffffff8111611b1d5760405192611bd5601f8301601f191660200185611b6b565b8184526020828401011161021357611bf391602080850191016117db565b90565b9060208282031261021357815167ffffffffffffffff811161021357611bf39201611ba1565b5190811515820361021357565b67ffffffffffffffff8111611b1d5760051b60200190565b60209081818403126102135780519067ffffffffffffffff821161021357019180601f84011215610213578251611c7781611c29565b93611c856040519586611b6b565b818552838086019260051b820101928311610213578301905b828210611cac575050505090565b838091611cb884611b8d565b815201910190611c9e565b6000198114611cd25760010190565b634e487b7160e01b600052601160045260246000fd5b9081604091031261021357604051906040820182811067ffffffffffffffff821117611b1d5760405280518252611d2190602001611b8d565b602082015290565b91908201809211611cd257565b60405190610220820182811067ffffffffffffffff821117611b1d57604052606061020083600080825280602083015280604083015280848301528060808301528060a08301528060c08301528060e08301528061010083015280610120830152806101408301528061016083015280610180830152806101a0830152806101c08301526101e08201520152565b90611dce82611c29565b611ddb6040519182611b6b565b8281528092611dec601f1991611c29565b019060005b828110611dfd57505050565b602090611e08611d36565b82828501015201611df1565b8051821015611e285760209160051b010190565b634e487b7160e01b600052603260045260246000fd5b906020808383031261021357825167ffffffffffffffff9384821161021357019061022093848385031261021357604093845195860186811083821117611b1d57855283518652828401518387015284840151858701526060908185015182880152608095868601518789015260a080870151818a015260c09384880151858b015260e09182890151838c0152610100808a0151908c0152610120808a0151908c0152610140808a0151908c0152610160808a0151908c0152610180808a0151908c01526101a0611f10818b01611b8d565b908c01526101c0808a0151906009821015610213578c01526101e0611f36818b01611c1c565b908c015261020098898101519088821161021357019685601f8901121561021357875195611f6387611c29565b9b8a8088519e8f90611f759082611b6b565b8a8152019860051b8b010199828b11610213578b8101985b8b8a10611fa7575050505050505050505050505082015290565b89518581116102135782019088601f198387030112610213578951918e611fcd84611b33565b8082015184528b82015190840152888101518b840152848101518984015287810151878111610213578f879061200592840101611ba1565b858401528c81015190878211610213578f87612025918d94840101611ba1565b89850152015190600282101561021357828f93928e85940152815201990198611f8d565b6040519061205682611b33565b8160c06000918281528260208201528260408201528260608201528260808201528260a08201520152565b9061208b82611c29565b6120986040519182611b6b565b82815280926120a9601f1991611c29565b019060005b8281106120ba57505050565b6020906120c5612049565b828285010152016120ae56fea164736f6c6343000811000a",
  "linkReferences": {
    "contracts/LOVCalculations.sol": {
      "LOVCalculations": [
        {
          "length": 20,
          "start": 2444
        },
        {
          "length": 20,
          "start": 5655
        }
      ]
    }
  },
  "deployedLinkReferences": {
    "contracts/LOVCalculations.sol": {
      "LOVCalculations": [
        {
          "length": 20,
          "start": 2416
        },
        {
          "length": 20,
          "start": 5627
        }
      ]
    }
  }
}