{
  "_format": "hh-sol-artifact-1",
  "contractName": "AddressManager",
  "sourceName": "contracts/aux/AddressManager.sol",
  "abi": [
    {
      "inputs": [
        {
          "internalType": "address",
          "name": "aclManager",
          "type": "address"
        }
      ],
      "stateMutability": "nonpayable",
      "type": "constructor"
    },
    {
      "anonymous": false,
      "inputs": [
        {
          "indexed": true,
          "internalType": "bytes32",
          "name": "id",
          "type": "bytes32"
        },
        {
          "indexed": true,
          "internalType": "address",
          "name": "oldAddress",
          "type": "address"
        },
        {
          "indexed": true,
          "internalType": "address",
          "name": "newAddress",
          "type": "address"
        }
      ],
      "name": "AddressSet",
      "type": "event"
    },
    {
      "anonymous": false,
      "inputs": [
        {
          "indexed": false,
          "internalType": "address",
          "name": "asset",
          "type": "address"
        },
        {
          "indexed": false,
          "internalType": "address",
          "name": "proxy",
          "type": "address"
        }
      ],
      "name": "AssetProxyUpdated",
      "type": "event"
    },
    {
      "anonymous": false,
      "inputs": [
        {
          "indexed": true,
          "internalType": "bytes32",
          "name": "id",
          "type": "bytes32"
        },
        {
          "indexed": true,
          "internalType": "address",
          "name": "proxyAddress",
          "type": "address"
        },
        {
          "components": [
            {
              "internalType": "address",
              "name": "implAddress",
              "type": "address"
            },
            {
              "internalType": "enum ICegaEntry.ProxyImplementationAction",
              "name": "action",
              "type": "uint8"
            },
            {
              "internalType": "bytes4[]",
              "name": "functionSelectors",
              "type": "bytes4[]"
            }
          ],
          "indexed": true,
          "internalType": "struct ICegaEntry.ProxyImplementation[]",
          "name": "implementationParams",
          "type": "tuple[]"
        }
      ],
      "name": "CegaEntryCreated",
      "type": "event"
    },
    {
      "anonymous": false,
      "inputs": [
        {
          "components": [
            {
              "internalType": "address",
              "name": "implAddress",
              "type": "address"
            },
            {
              "internalType": "enum ICegaEntry.ProxyImplementationAction",
              "name": "action",
              "type": "uint8"
            },
            {
              "internalType": "bytes4[]",
              "name": "functionSelectors",
              "type": "bytes4[]"
            }
          ],
          "indexed": true,
          "internalType": "struct ICegaEntry.ProxyImplementation[]",
          "name": "implementationParams",
          "type": "tuple[]"
        },
        {
          "indexed": false,
          "internalType": "address",
          "name": "_init",
          "type": "address"
        },
        {
          "indexed": false,
          "internalType": "bytes",
          "name": "_calldata",
          "type": "bytes"
        }
      ],
      "name": "CegaEntryUpdated",
      "type": "event"
    },
    {
      "inputs": [],
      "name": "getACLManager",
      "outputs": [
        {
          "internalType": "address",
          "name": "",
          "type": "address"
        }
      ],
      "stateMutability": "view",
      "type": "function"
    },
    {
      "inputs": [
        {
          "internalType": "bytes32",
          "name": "id",
          "type": "bytes32"
        }
      ],
      "name": "getAddress",
      "outputs": [
        {
          "internalType": "address",
          "name": "",
          "type": "address"
        }
      ],
      "stateMutability": "view",
      "type": "function"
    },
    {
      "inputs": [
        {
          "internalType": "address",
          "name": "asset",
          "type": "address"
        }
      ],
      "name": "getAssetWrappingProxy",
      "outputs": [
        {
          "internalType": "address",
          "name": "",
          "type": "address"
        }
      ],
      "stateMutability": "view",
      "type": "function"
    },
    {
      "inputs": [],
      "name": "getCegaEntry",
      "outputs": [
        {
          "internalType": "address",
          "name": "",
          "type": "address"
        }
      ],
      "stateMutability": "view",
      "type": "function"
    },
    {
      "inputs": [],
      "name": "getCegaFeeReceiver",
      "outputs": [
        {
          "internalType": "address",
          "name": "",
          "type": "address"
        }
      ],
      "stateMutability": "view",
      "type": "function"
    },
    {
      "inputs": [],
      "name": "getCegaOracle",
      "outputs": [
        {
          "internalType": "address",
          "name": "",
          "type": "address"
        }
      ],
      "stateMutability": "view",
      "type": "function"
    },
    {
      "inputs": [],
      "name": "getRedepositManager",
      "outputs": [
        {
          "internalType": "address",
          "name": "",
          "type": "address"
        }
      ],
      "stateMutability": "view",
      "type": "function"
    },
    {
      "inputs": [],
      "name": "getTradeWinnerNFT",
      "outputs": [
        {
          "internalType": "address",
          "name": "",
          "type": "address"
        }
      ],
      "stateMutability": "view",
      "type": "function"
    },
    {
      "inputs": [
        {
          "internalType": "bytes32",
          "name": "id",
          "type": "bytes32"
        },
        {
          "internalType": "address",
          "name": "newAddress",
          "type": "address"
        }
      ],
      "name": "setAddress",
      "outputs": [],
      "stateMutability": "nonpayable",
      "type": "function"
    },
    {
      "inputs": [
        {
          "internalType": "address",
          "name": "asset",
          "type": "address"
        },
        {
          "internalType": "address",
          "name": "proxy",
          "type": "address"
        }
      ],
      "name": "setAssetWrappingProxy",
      "outputs": [],
      "stateMutability": "nonpayable",
      "type": "function"
    },
    {
      "inputs": [
        {
          "internalType": "address",
          "name": "newAddress",
          "type": "address"
        }
      ],
      "name": "setCegaEntry",
      "outputs": [],
      "stateMutability": "nonpayable",
      "type": "function"
    },
    {
      "inputs": [
        {
          "internalType": "address",
          "name": "newAddress",
          "type": "address"
        }
      ],
      "name": "setCegaFeeReceiver",
      "outputs": [],
      "stateMutability": "nonpayable",
      "type": "function"
    },
    {
      "inputs": [
        {
          "internalType": "address",
          "name": "newAddress",
          "type": "address"
        }
      ],
      "name": "setCegaOracle",
      "outputs": [],
      "stateMutability": "nonpayable",
      "type": "function"
    },
    {
      "inputs": [
        {
          "internalType": "address",
          "name": "newAddress",
          "type": "address"
        }
      ],
      "name": "setRedepositManager",
      "outputs": [],
      "stateMutability": "nonpayable",
      "type": "function"
    },
    {
      "inputs": [
        {
          "internalType": "address",
          "name": "newAddress",
          "type": "address"
        }
      ],
      "name": "setTradeWinnerNFT",
      "outputs": [],
      "stateMutability": "nonpayable",
      "type": "function"
    },
    {
      "inputs": [
        {
          "components": [
            {
              "internalType": "address",
              "name": "implAddress",
              "type": "address"
            },
            {
              "internalType": "enum ICegaEntry.ProxyImplementationAction",
              "name": "action",
              "type": "uint8"
            },
            {
              "internalType": "bytes4[]",
              "name": "functionSelectors",
              "type": "bytes4[]"
            }
          ],
          "internalType": "struct ICegaEntry.ProxyImplementation[]",
          "name": "implementationParams",
          "type": "tuple[]"
        },
        {
          "internalType": "address",
          "name": "_init",
          "type": "address"
        },
        {
          "internalType": "bytes",
          "name": "_calldata",
          "type": "bytes"
        }
      ],
      "name": "updateCegaEntryImpl",
      "outputs": [],
      "stateMutability": "nonpayable",
      "type": "function"
    }
  ],
  "bytecode": "0x60806040523462000031575b6200001f62000019620000f7565b6200011a565b60405161325c6200022d823961325c90f35b6200003a600080fd5b6200000b565b600080fd5b50634e487b7160e01b600052604160045260246000fd5b90601f01601f191681019081106001600160401b038211176200007e57604052565b6200008862000045565b604052565b90620000a46200009c60405190565b92836200005c565b565b6001600160a01b031690565b90565b6001600160a01b038116036200004057565b90505190620000a482620000b5565b90620000b29160208183031215620000c757620000f1600080fd5b620000c7565b620000b262003489803803806200010e816200008d565b928339810190620000d6565b620000a4906a20a1a62fa6a0a720a3a2a960a91b620001a1565b546001600160a01b031690565b620000b290620000a6906001600160a01b031682565b620000b29062000141565b620000b29062000157565b9062000181620000b26200019d9262000162565b82546001600160a01b0319166001600160a01b03919091161790565b9055565b906000620001e382620001dd85620001cd620001c7828790600052602052604060002090565b62000134565b9490600052602052604060002090565b6200016d565b6200021b62000214620002147f9ef0e8c8e52743bb38b83b17d9429141d494b8041ca6d616a6c77cebae9cd8b79590565b9262000162565b926200022660405190565b600090a456fe608060405260043610156200001a575b62000018600080fd5b005b60003560e01c806316f1f968146200018957806321f8a721146200017e5780632508a5721462000173578063371c01c814620001685780633d977de5146200015d5780634479850d14620001525780634af2a6d8146200014757806351f57e0c146200013c578063707cd716146200013157806374bd1b841462000126578063af96230f146200011b578063b6d48ff51462000110578063ca446dd91462000105578063ce8fed1114620000fa578063cf84778114620000ef5763d415148a036200000f57620000e9620006d1565b6200000f565b50620000e96200069f565b50620000e962000671565b50620000e962000642565b50620000e9620005e2565b50620000e9620005b4565b50620000e962000586565b50620000e962000554565b50620000e962000522565b50620000e9620004f4565b50620000e9620004c2565b50620000e962000359565b50620000e96200032b565b50620000e9620002d6565b50620000e96200024d565b50620000e9620001c3565b600080fd5b6000910312620001a557565b620001ae600080fd5b565b6001600160a01b031690565b90565b9052565b503462000204575b620001d836600462000199565b62000200620001e6620007c8565b604051918291826001600160a01b03909116815260200190565b0390f35b6200020d600080fd5b620001cb565b805b036200019457565b90503590620001ae8262000213565b90620001bc91602081830312156200021d5762000247600080fd5b6200021d565b503462000270575b62000200620001e66200026a3660046200022c565b620007ec565b62000279600080fd5b62000255565b6001600160a01b03811662000215565b90503590620001ae826200027f565b9190620001bc90604084820312620002c7575b620002bd81856200028f565b936020016200028f565b620002d0600080fd5b620002b1565b5034620002fb575b620002f6620002ef3660046200029e565b9062000dc1565b604051005b62000304600080fd5b620002de565b90620001bc91602081830312156200028f5762000325600080fd5b6200028f565b50346200034a575b620002f6620003443660046200030a565b62000b19565b62000353600080fd5b62000333565b50346200037c575b6200036e36600462000199565b62000200620001e662000741565b62000385600080fd5b62000361565b909182601f83011215620003cf575b602082359267ffffffffffffffff8411620003c0575b019260208302840111620001a557565b620003c9600080fd5b620003b0565b620003d8600080fd5b6200039a565b909182601f830112156200041f575b602082359267ffffffffffffffff841162000410575b019282840111620001a557565b62000419600080fd5b62000403565b62000428600080fd5b620003ed565b620004919192606082850312620004b3575b6200046084833567ffffffffffffffff8111620004a4575b84016200038b565b9390946200047281602086016200028f565b9360408101359067ffffffffffffffff821162000495575b01620003de565b9091565b6200049e600080fd5b6200048a565b620004ad600080fd5b62000458565b620004bc600080fd5b62000440565b5034620004e5575b620002f6620004db3660046200042e565b939290926200113f565b620004ee600080fd5b620004ca565b503462000513575b620002f66200050d3660046200030a565b62000b76565b6200051c600080fd5b620004fc565b503462000545575b6200053736600462000199565b62000200620001e66200075f565b6200054e600080fd5b6200052a565b503462000577575b6200056936600462000199565b62000200620001e662000784565b62000580600080fd5b6200055c565b5034620005a5575b620002f66200059f3660046200030a565b62000c8a565b620005ae600080fd5b6200058e565b5034620005d3575b620002f6620005cd3660046200030a565b62000c2c565b620005dc600080fd5b620005bc565b503462000605575b62000200620001e6620005ff3660046200030a565b6200083f565b6200060e600080fd5b620005ea565b9190620001bc9060408482031262000633575b620002bd81856200021d565b6200063c600080fd5b62000627565b503462000662575b620002f66200065b36600462000614565b9062000cd5565b6200066b600080fd5b6200064a565b503462000690575b620002f66200068a3660046200030a565b62000bce565b62000699600080fd5b62000679565b5034620006c2575b620006b436600462000199565b62000200620001e662000713565b620006cb600080fd5b620006a7565b5034620006f4575b620006e636600462000199565b62000200620001e6620007a3565b620006fd600080fd5b620006d9565b905b600052602052604060002090565b620001bc6200073460006a434547415f4f5241434c4560a81b5b9062000703565b546001600160a01b031690565b620001bc62000734600069434547415f454e54525960b01b6200072d565b620001bc6200073460007021a2a3a0afa322a2afa922a1a2a4ab22a960791b6200072d565b620001bc6200073460006a20a1a62fa6a0a720a3a2a960a91b6200072d565b620001bc620007346000702922a222a827a9a4aa2fa6a0a720a3a2a960791b6200072d565b620001bc6200073460006f151490511157d5d25393915497d3919560821b6200072d565b62000734620001bc91620007fe600090565b50600062000703565b620001bc90620001b0906001600160a01b031682565b620001bc9062000807565b620001bc906200081d565b90620007059062000828565b62000734620001bc9162000851600090565b50600162000833565b601f01601f191690565b50634e487b7160e01b600052604160045260246000fd5b90601f01601f1916810190811067ffffffffffffffff8211176200089e57604052565b620008a862000864565b604052565b80151562000215565b90505190620001ae82620008ad565b90620001bc9160208183031215620008b657620008e0600080fd5b620008b6565b506040513d6000823e3d90fd5b90620001ae6200090260405190565b92836200087b565b6200092b60209167ffffffffffffffff81116200092f57601f01601f191690565b0190565b6200085a62000864565b906200094f62000949836200090a565b620008f3565b918252565b62000960600162000939565b601960f91b602082015290565b620001bc62000954565b620001bc6200096d565b60005b838110620009955750506000910152565b818101518382015260200162000984565b620009cb6200085a6020936200092b93620009bf815190565b80835293849260200190565b9586910162000981565b6020808252620001bc92910190620009a6565b15620009f15750565b62000a169062000a0060405190565b62461bcd60e51b815291829160048301620009d5565b0390fd5b620001ae9062000ab562000a8d602062000a5362000a4d806200073460006a20a1a62fa6a0a720a3a2a960a91b6200072d565b62000828565b63279ee9ef9062000a76339262000a6960405190565b9586948593849360e01b90565b83526001600160a01b031660048301526024820190565b03915afa90811562000af0575b60009162000abb575b5062000aae62000977565b90620009e8565b62000b00565b62000ae1915060203d811162000ae8575b62000ad881836200087b565b810190620008c5565b3862000aa3565b503d62000acc565b62000afa620008e6565b62000a9a565b620001ae9069434547415f454e54525960b01b6200155c565b620001ae9062000a1a565b620001ae9062000b5762000a8d602062000a5362000a4d806200073460006a20a1a62fa6a0a720a3a2a960a91b6200072d565b620001ae906f151490511157d5d25393915497d3919560821b6200155c565b620001ae9062000b24565b620001ae9062000bb462000a8d602062000a5362000a4d806200073460006a20a1a62fa6a0a720a3a2a960a91b6200072d565b620001ae906a434547415f4f5241434c4560a81b6200155c565b620001ae9062000b81565b620001ae9062000c0c62000a8d602062000a5362000a4d806200073460006a20a1a62fa6a0a720a3a2a960a91b6200072d565b620001ae90702922a222a827a9a4aa2fa6a0a720a3a2a960791b6200155c565b620001ae9062000bd9565b620001ae9062000c6a62000a8d602062000a5362000a4d806200073460006a20a1a62fa6a0a720a3a2a960a91b6200072d565b620001ae907021a2a3a0afa322a2afa922a1a2a4ab22a960791b6200155c565b620001ae9062000c37565b620001ae919062000cc962000a8d602062000a5362000a4d806200073460006a20a1a62fa6a0a720a3a2a960a91b6200072d565b90620001ae916200155c565b90620001ae9162000c95565b620001ae919062000d1562000a8d602062000a5362000a4d806200073460006a20a1a62fa6a0a720a3a2a960a91b6200072d565b62000d69565b9062000d2f620001bc62000d4b9262000828565b82546001600160a01b0319166001600160a01b03919091161790565b9055565b6001600160a01b0391821681529116602082015260400190565b9062000d828162000d7c84600162000833565b62000d1b565b7fdf5cc1e6ccbcc3e630a094ac1ffa53de2bfc5b96d3a0dba579eddbc66c3956889162000dbc62000db260405190565b9283928362000d4f565b0390a1565b90620001ae9162000ce1565b620001ae949392919062000e0462000a8d602062000a5362000a4d806200073460006a20a1a62fa6a0a720a3a2a960a91b6200072d565b620010cd565b50620001bc9060208101906200028f565b600311156200019457565b90503590620001ae8262000e1b565b50620001bc90602081019062000e26565b50634e487b7160e01b600052602160045260246000fd5b6003111562000e6857565b620001ae62000e46565b90620001ae8262000e5d565b620001bc9062000e72565b620001bf9062000e7e565b906200092b8160209362000e89565b9035601e19368390030181121562000eed575b016020813591019167ffffffffffffffff821162000ede575b6020820236038313620001a557565b62000ee7600080fd5b62000ecf565b62000ef6600080fd5b62000eb6565b6001600160e01b0319811662000215565b90503590620001ae8262000efc565b50620001bc90602081019062000f0d565b906000825b82821062000f41575050505090565b9091929362000f7562000f6e60019262000f5c888662000f1c565b6001600160e01b031916815260200190565b9560200190565b9392019062000f32565b90620001bc929162000f2d565b62000fde62000fd262000fbd620001bc9462000fac600086018662000e0a565b6001600160a01b0316815260200190565b62000fcc602085018562000e35565b62000e94565b91604081019062000ea3565b9062000f7f565b90620001bc9162000f8c565b9035605e19368390030181121562001007570190565b6200092b600080fd5b906000825b82821062001024575050505090565b909192936200104562000f6e6001926200103f888662000ff1565b62000fe5565b9392019062001015565b9091620001bc9262001010565b620010746200106a60405190565b928392836200104f565b03902090565b90826000939282370152565b91906200085a81620010a0816200092b9560209181520190565b80956200107a565b6001600160a01b03919091168152604060208201819052620001bc9391019162001086565b929190620011256200113a91620010fd878686848a620010f769434547415f454e54525960b01b90565b620012cb565b7f29dda07dbc47d3fd27020fc00e7b26144d02d1ba982143b6622f3e8a405ed342956200105c565b946200113060405190565b93849384620010a8565b0390a2565b90620001ae9493929162000dcd565b620001b0620001bc620001bc9290565b620001bc906200114e565b818352602090920191906000825b82821062001186575050505090565b90919293620011a162000f6e60019262000f5c888662000f1c565b9392019062001177565b620001bc9160608101916200120090620011d7620011ca828062000e0a565b6001600160a01b03168452565b620011f5620011ea602083018362000e35565b602085019062000e89565b604081019062000ea3565b91604081850391015262001169565b90620001bc91620011ab565b818352916020019081620012326020830284019490565b92836000925b848410620012495750505050505090565b90919293949560206200127a6200127383856001950388526200126d8b8862000ff1565b6200120f565b9860200190565b94019401929493919062001238565b6060808252620001bc969495939192620012bd92620012ab928501916200121b565b6001600160a01b039095166020830152565b604081850391015262001086565b9492939093600090620012e362000734888462000703565b620012f2620001b0846200115e565b6001600160a01b038216036200148d57509162000d7c878388620013d595620013ae620014109998620013ba6200138662000a4d62000a4d62001375620013393062000828565b604051918291611c6e830183811067ffffffffffffffff8211176200147d575b611c6e620015b985396001600160a01b03909116815260200190565b039088f08015620014735762000828565b9c8d99635a833991938b3b1562001464575b8d620013a360405190565b988997889760e01b90565b87526004870162001289565b038183895af1801562001454575b62001421575b5062000703565b62001409620014027f09523ab67156b124f7a934ad79a5a6806193d4de9641681697483b9095fe5e749690565b9362000828565b936200105c565b926200141b60405190565b600090a4565b6200144590823d84116200144c575b6200143c81836200087b565b81019062000199565b38620013ce565b503d62001430565b6200145e620008e6565b620013c8565b6200146d600080fd5b62001398565b62000a4d620008e6565b6200148762000864565b62001359565b8597509184818886620013ae8387620014df6200113a9b9d620014bf62000a4d9b9e9b62000a4d620011259e62000828565b95635a83399193873b156200154d575b6040519a8b998a98899760e01b90565b03925af180156200153d575b6200151b575b50507f29dda07dbc47d3fd27020fc00e7b26144d02d1ba982143b6622f3e8a405ed342956200105c565b816200153592903d106200144c576200143c81836200087b565b3880620014f1565b62001547620008e6565b620014eb565b62001556600080fd5b620014cf565b906000620015808262000d7c856200157962000734828762000703565b9462000703565b62001410620015b1620015b17f9ef0e8c8e52743bb38b83b17d9429141d494b8041ca6d616a6c77cebae9cd8b79590565b926200082856fe60806040526200001862000012620000e1565b62000104565b6040516119e46200028a82396119e490f35b50634e487b7160e01b600052604160045260246000fd5b90601f01601f191681019081106001600160401b038211176200006357604052565b6200006d6200002a565b604052565b90620000896200008160405190565b928362000041565b565b600080fd5b6001600160a01b031690565b90565b6001600160a01b038116036200008b57565b9050519062000089826200009f565b906200009c9160208183031215620000b157620000db600080fd5b620000b1565b6200009c62001c6e80380380620000f88162000072565b928339810190620000c0565b62000089906200017c565b546001600160a01b031690565b6200009c9062000090906001600160a01b031682565b6200009c906200011c565b6200009c9062000132565b906200015c6200009c62000178926200013d565b82546001600160a01b0319166001600160a01b03919091161790565b9055565b6004620001886200027f565b0190620001a1816200019a846200010f565b9362000148565b620001d8620001d17f8be0079c531659141344cd1fd0a4f28419497f9722a3daafe3b4186f6b6457e0936200013d565b916200013d565b91620001e360405190565b600090a3565b6200009c6200009c6200009c9290565b6200009c90620001e9565b50634e487b7160e01b600052601160045260246000fd5b919082039182116200022957565b6200008962000204565b6200009c62000279620002667f11cac52ac9aac3f05b98c564845f9cbef3a9feb42b2c77780d0605eb87044b24620001f9565b620002726001620001e9565b906200021b565b620001e9565b6200009c6200023356fe6080604052600436101561001e575b361561001c5761001c6105b5565b005b60003560e01c635a8339910361000e57610036610192565b61000e565b600080fd5b909182601f83011215610089575b602082359267ffffffffffffffff841161007c575b01926020830284011161007257565b61007a600080fd5b565b610084600080fd5b610063565b610091600080fd5b61004e565b6001600160a01b031690565b90565b6001600160a01b0381165b0361003b57565b9050359061007a826100a5565b909182601f83011215610100575b602082359267ffffffffffffffff84116100f3575b01928284011161007257565b6100fb600080fd5b6100e7565b610108600080fd5b6100d2565b6101679192606082850312610185575b61013a84833567ffffffffffffffff8111610178575b8401610040565b93909461014a81602086016100b7565b9360408101359067ffffffffffffffff821161016b575b016100c4565b9091565b610173600080fd5b610161565b610180600080fd5b610133565b61018d600080fd5b61011d565b50346101b5575b6101b06101a736600461010d565b9392909261047f565b604051005b6101bd600080fd5b610199565b601f01601f191690565b50634e487b7160e01b600052604160045260246000fd5b90601f01601f1916810190811067ffffffffffffffff82111761020557604052565b61020d6101cc565b604052565b9061007a61021f60405190565b92836101e3565b6020809167ffffffffffffffff811161023e57020190565b6102466101cc565b020190565b6003111561003b57565b9050359061007a8261024b565b6001600160e01b031981166100b0565b9050359061007a82610262565b9092919261029461028f82610226565b610212565b93818552602080860192028301928184116102d2575b915b8383106102b95750505050565b602080916102c78486610272565b8152019201916102ac565b6102da600080fd5b6102aa565b906100a29181601f820112156102fb575b60208135910161027f565b610303600080fd5b6102f0565b919061036290606084820312610376575b6103236060610212565b93600061033083836100b7565b90860152602061034283828401610255565b9086015260408101359067ffffffffffffffff8211610369575b016102df565b6040830152565b610371600080fd5b61035c565b61037e600080fd5b610319565b9092919261039361028f82610226565b93818552602080860192028301928184116103f3575b80925b8484106103ba575050505050565b602080916103db85873567ffffffffffffffff81116103e6575b8601610308565b8152019301926103ac565b6103ee600080fd5b6103d4565b6103fb600080fd5b6103a9565b6100a2913691610383565b61042a60209167ffffffffffffffff811161042e57601f01601f191690565b0190565b6101c26101cc565b90826000939282370152565b92919061007a9161045561028f8361040b565b94828652602086019183820111156104365761046f600080fd5b610436565b6100a2913691610442565b9361049861049e9261007a9661049361067d565b610400565b93610474565b916108f1565b6100a26100a26100a29290565b6100a2906104a4565b50634e487b7160e01b600052601160045260246000fd5b919082039182116104de57565b61007a6104ba565b6100a26105256105157f11cac52ac9aac3f05b98c564845f9cbef3a9feb42b2c77780d0605eb87044b246104b1565b61051f60016104a4565b906104d1565b6104a4565b906001600160e01b0319165b600052602052604060002090565b6100966100a26100a29290565b6100a290610544565b1561056157565b60405162461bcd60e51b815260206004820152602260248201527f43656761456e7472793a2046756e6374696f6e20646f6573206e6f74206578696044820152611cdd60f21b6064820152608490fd5b0390fd5b506105e860006105da816105c76104e6565b83356001600160e01b031916910161052a565b01546001600160a01b031690565b600080809261060d6105fc61009684610551565b6001600160a01b038316141561055a565b368280378136915af43d82803e15610623573d90f35b3d90fd5b1561062e57565b60405162461bcd60e51b815260206004820152602160248201527f43656761456e7472793a204d75737420626520636f6e7472616374206f776e656044820152603960f91b6064820152608490fd5b61007a336106a161069461009660046105da6106a7565b916001600160a01b031690565b14610627565b6100a26104e6565b60019060001981146106bf570190565b61042a6104ba565b50634e487b7160e01b600052603260045260246000fd5b90602080916106eb845190565b8110156106f9575b02010190565b6107016106c7565b6106f3565b50634e487b7160e01b600052602160045260246000fd5b6003111561072757565b61007a610706565b9061007a8261071d565b6100a2905161072f565b9052565b6100a29061072f565b61074390610747565b90610779610772610768845190565b8084529260200190565b9260200190565b9060005b81811061078a5750505090565b9091926107b16107aa60019286516001600160e01b031916815260200190565b9460200190565b92910161077d565b80516001600160a01b031682526100a29160608101916040906107e460208201516020850190610750565b0151906040818403910152610759565b906100a2916107b9565b9061081461080a835190565b8083529160200190565b90816108266020830284019460200190565b926000915b83831061083a57505050505090565b9091929394602061085d610856838560019503875289516107f4565b9760200190565b930193019193929061082b565b60005b83811061087d5750506000910152565b818101518382015260200161086d565b6108ae6101c260209361042a936108a2815190565b80835293849260200190565b9586910161086a565b60608082526100a294926108e4916108d291908401906107fe565b6001600160a01b039094166020830152565b604081840391015261088d565b92909160005b6109026100a2865190565b811015610a5c5761091f602061091883886106de565b5101610739565b9060009161092c8361072f565b6109358261072f565b0361097d575061097361095e6109789361094f848a6106de565b5101516001600160a01b031690565b604061096a848a6106de565b51015190610c3d565b6106af565b6108f7565b610987600161072f565b6109908261072f565b036109bf57506109736109aa6109789361094f848a6106de565b60406109b6848a6106de565b51015190610e40565b6109d26109cc600261072f565b9161072f565b03610a00576109736109eb6109789361094f848a6106de565b60406109f7848a6106de565b51015190610fa8565b60405162461bcd60e51b815260206004820152602e60248201527f43656761456e7472793a20496e636f72726563742050726f7879496d706c656d60448201526d32b73a30ba34b7b720b1ba34b7b760911b6064820152608490fd5b5090929161007a92817f7994b9362f6f8b2522d7dfbe2519931ad73d1308b8bcfbc600db6de899c3d52891610a9d85610a9460405190565b938493846108b7565b0390a161184d565b15610aac57565b60405162461bcd60e51b815260206004820152603060248201527f43656761456e7472793a204e6f2073656c6563746f727320696e20696d706c6560448201526f1b595b9d185d1a5bdb881d1bc818dd5d60821b6064820152608490fd5b15610b1157565b60405162461bcd60e51b815260206004820152603160248201527f43656761456e7472793a2041646420696d706c656d656e746174696f6e2063616044820152706e2774206265206164647265737328302960781b6064820152608490fd5b6100a290610096906001600160a01b031682565b6100a290610b70565b6100a290610b84565b9061053690610b8d565b610bad6100a26100a29290565b6001600160601b031690565b15610bc057565b60405162461bcd60e51b815260206004820152603160248201527f43656761456e7472793a2043616e2774206164642066756e6374696f6e207468604482015270617420616c72656164792065786973747360781b6064820152608490fd5b6001906001600160601b03166001600160601b0381146106bf570190565b9190610c47815190565b610c63600091610c5d610c59846104a4565b9190565b11610aa5565b610c6b6106a7565b610c7482610551565b610c926001600160a01b0382166001600160a01b0388161415610b0a565b610cb0610cab84610ca68960018701610b96565b015490565b610ba0565b9384610ccb610cbe86610ba0565b916001600160601b031690565b14610d5e575b6000945b610ce06100a2835190565b861015610d5457610d4881610d438a610d4e9489610d3d610d25826105da8f610d1c8f91610d0e908f6106de565b516001600160e01b03191690565b9586910161052a565b610d376001600160a01b038c16610694565b14610bb9565b896112a9565b610c1f565b956106af565b94610cd5565b5050505050509050565b610d68878461115e565b610cd1565b15610d7457565b60405162461bcd60e51b815260206004820152603560248201527f43656761456e7472793a205265706c61636520696d706c656d656e746174696f6044820152746e2063616e2774206265206164647265737328302960581b6064820152608490fd5b15610dde57565b60405162461bcd60e51b815260206004820152603460248201527f43656761456e7472793a2043616e2774207265706c6163652066756e6374696f60448201527337103bb4ba341039b0b6b290333ab731ba34b7b760611b6064820152608490fd5b8151919291610e57600091610c5d610c59846104a4565b610e5f6106a7565b90610e80610e6f61009683610551565b6001600160a01b0385161415610d6d565b610e94610cab82610ca68660018701610b96565b9485610ea2610cbe84610ba0565b14610f27575b6000955b610eb76100a2835190565b871015610f1e57610f1281610d4387610f189487610d3d8a610eee8f6105da610ee4610d0e87938f6106de565b809681950161052a565b610f0c6001600160a01b0387166001600160a01b0383161415610dd7565b8c61152a565b966106af565b95610eac565b50505050509050565b610f31848461115e565b610ea8565b15610f3d57565b60405162461bcd60e51b815260206004820152603b60248201527f43656761456e7472793a2052656d6f766520696d706c656d656e746174696f6e60448201527f2061646472657373206d757374206265206164647265737328302900000000006064820152608490fd5b81516000939290610fbf90610c5d610c59876104a4565b610fe0610fca6106a7565b92610fda61069461009688610551565b14610f36565b60005b610fee6100a2835190565b8110156110245780610973611009610d0e61101f94866106de565b611019886105da83828a0161052a565b8661152a565b610fe3565b5050509050565b9061103861028f8361040b565b918252565b611047602961102b565b7f43656761456e7472793a204e657720696d706c656d656e746174696f6e20686160208201526873206e6f20636f646560b81b604082015290565b6100a261103d565b90600019905b9181191691161790565b906110aa6100a26110b1926104a4565b825461108a565b9055565b6110d56001916110c3815490565b8410156110de57600052602060002090565b91020190600090565b6110e66106c7565b600052602060002090565b916001600160a01b0360089290920291821b911b611090565b921b90565b91906111206100a26110b193610b8d565b9083546110f1565b9061114b61007a92805490600160401b821015611151575b6001820181556110b5565b9061110f565b6111596101cc565b611140565b9061119b61007a92611177611171611082565b84611995565b6100a260028201916001611195868261118e875490565b9401610b96565b0161109a565b611128565b906001600160a01b03199060a01b611090565b610bad6100a26100a2926001600160601b031690565b906111d96100a26110b1926111b3565b82546111a0565b60086112056004929493946111f3815490565b8610156110de57600052602060002090565b8185040193060290565b9190600861109091029161110a63ffffffff841b90565b919061124561123f6110b1936001600160e01b03191690565b60e01c90565b90835461120f565b9061127061007a92805490600160401b821015611276575b6001820181556111e0565b90611226565b61127e6101cc565b611265565b906001600160a01b0390611090565b906112a26100a26110b192610b8d565b8254611283565b8184936112e66000946112e18661042a61007a9a60016112eb996112db85820199866112d58a8d61052a565b016111c9565b01610b96565b61124d565b61052a565b01611292565b156112f857565b60405162461bcd60e51b815260206004820152603360248201527f43656761456e7472793a2043616e27742072656d6f76652066756e6374696f6e604482015272081d1a185d08191bd95cdb89dd08195e1a5cdd606a1b6064820152608490fd5b1561136057565b60405162461bcd60e51b815260206004820152602a60248201527f43656761456e7472793a2043616e27742072656d6f766520696d6d757461626c6044820152693290333ab731ba34b7b760b11b6064820152608490fd5b6100a29060a01c610bad565b6100a290546113b8565b6100a26100a26100a2926001600160601b031690565b6100a2916008021c60e01b90565b906100a291546113e4565b50634e487b7160e01b600052603160045260246000fd5b61007a91600091611226565b600161142a825490565b8015611449575b039061144661144083836111e0565b90611414565b55565b6114516113fd565b611431565b50634e487b7160e01b600052600060045260246000fd5b61007a9161147b5760009055565b611483611456565b60009055565b6100a29081565b6100a29054611489565b6100a2916008021c610096565b906100a2915461149a565b61007a9160009161110f565b60016114c8825490565b80156114e4575b03906114466114de83836110b5565b906114b2565b6114ec6113fd565b6114cf565b9160001960089290920291821b911b611090565b91906115166100a26110b1936104a4565b9083546114f1565b61007a91600091611505565b6115bf909291928360009361155561154461009687610551565b6001600160a01b03841614156112f1565b61157561156461009630610b8d565b6001600160a01b0384161415611359565b6115f0856115eb8186019361159c61159784611591848961052a565b016113c4565b6113ce565b946115ae84610ca68960018c01610b96565b87858a60019c8d9461051f866104a4565b809a6115c88290565b81036116a0575b50506115e692506112e69361042a91019e8f610b96565b611420565b61146d565b6115fc610c59866104a4565b14611609575b5050505050565b61166194611656611651600261165b950161162e611625825490565b61051f896104a4565b6116428861163c8888610b96565b01611490565b8882820361166b575b50505090565b6114be565b610b96565b0161151e565b3880808080611602565b61119561168461167e61169895876110b5565b906114a7565b6116928161114b86896110b5565b88610b96565b38808861164b565b610cab8561127083876116cb6116d76116d16116df99846116e69f6116cb906112d59e01998a610b96565b016111e0565b906113f2565b9a8b95610b96565b928561052a565b8887858a89386115cf565b156116f857565b60405162461bcd60e51b815260206004820152603960248201527f43656761456e7472793a205f63616c6c6461746120697320656d70747920627560448201527f74205f696e6974206973206e6f742061646472657373283029000000000000006064820152608490fd5b61176d602461102b565b7f43656761456e7472793a205f696e6974206164647265737320686173206e6f20602082015263636f646560e01b604082015290565b6100a2611763565b3d156117c5576117ba3d61102b565b903d6000602084013e565b606090565b60208082526100a29291019061088d565b156117e257565b60405162461bcd60e51b815260206004820152603860248201527f43656761456e7472793a205f696e69742069732061646472657373283029206260448201527f75745f63616c6c64617461206973206e6f7420656d70747900000000000000006064820152608490fd5b60009061185c61009683610551565b6001600160a01b038216036118895750611883610c5961187d61007a945190565b926104a4565b146117db565b819290816118ab61189985945190565b6118a5610c59866104a4565b116116f1565b6118b761009630610b8d565b6001600160a01b0383160361196a575b602081019051915af4906118e16118dc6117ab565b921590565b6118e9575050565b6118f7610c5961187d845190565b111561191a576105b1906040515b62461bcd60e51b8152918291600483016117ca565b60405162461bcd60e51b815260206004820152602260248201527f43656761456e7472793a205f696e69742066756e6374696f6e20726576657274604482015261195960f21b6064820152608490fd5b61197b6119756117a3565b83611995565b6118c7565b156119885750565b6105b19061190560405190565b61007a91903b6119a8610c5960006104a4565b1161198056fea264697066735822122010c9db00388ad0a5cf84eac02767ae4380a3b4713a04b66c6b83699082d5fe7f64736f6c63430008110033a2646970667358221220821622110f818bb929e197318c011cd6ea9a73c3c3d7cfa26a0a50475a4fbe8964736f6c63430008110033",
  "linkReferences": {},
  "deployedLinkReferences": {}
}