{
  "_format": "hh-sol-artifact-1",
  "contractName": "AddressManager",
  "sourceName": "contracts/aux/AddressManager.sol",
  "abi": [
    {
      "inputs": [
        {
          "internalType": "address",
          "name": "aclManager",
          "type": "address"
        }
      ],
      "stateMutability": "nonpayable",
      "type": "constructor"
    },
    {
      "anonymous": false,
      "inputs": [
        {
          "indexed": true,
          "internalType": "bytes32",
          "name": "id",
          "type": "bytes32"
        },
        {
          "indexed": true,
          "internalType": "address",
          "name": "oldAddress",
          "type": "address"
        },
        {
          "indexed": true,
          "internalType": "address",
          "name": "newAddress",
          "type": "address"
        }
      ],
      "name": "AddressSet",
      "type": "event"
    },
    {
      "anonymous": false,
      "inputs": [
        {
          "indexed": false,
          "internalType": "address",
          "name": "asset",
          "type": "address"
        },
        {
          "indexed": false,
          "internalType": "address",
          "name": "proxy",
          "type": "address"
        }
      ],
      "name": "AssetProxyUpdated",
      "type": "event"
    },
    {
      "anonymous": false,
      "inputs": [
        {
          "indexed": true,
          "internalType": "bytes32",
          "name": "id",
          "type": "bytes32"
        },
        {
          "indexed": true,
          "internalType": "address",
          "name": "proxyAddress",
          "type": "address"
        },
        {
          "components": [
            {
              "internalType": "address",
              "name": "implAddress",
              "type": "address"
            },
            {
              "internalType": "enum ICegaEntry.ProxyImplementationAction",
              "name": "action",
              "type": "uint8"
            },
            {
              "internalType": "bytes4[]",
              "name": "functionSelectors",
              "type": "bytes4[]"
            }
          ],
          "indexed": true,
          "internalType": "struct ICegaEntry.ProxyImplementation[]",
          "name": "implementationParams",
          "type": "tuple[]"
        }
      ],
      "name": "CegaEntryCreated",
      "type": "event"
    },
    {
      "anonymous": false,
      "inputs": [
        {
          "components": [
            {
              "internalType": "address",
              "name": "implAddress",
              "type": "address"
            },
            {
              "internalType": "enum ICegaEntry.ProxyImplementationAction",
              "name": "action",
              "type": "uint8"
            },
            {
              "internalType": "bytes4[]",
              "name": "functionSelectors",
              "type": "bytes4[]"
            }
          ],
          "indexed": true,
          "internalType": "struct ICegaEntry.ProxyImplementation[]",
          "name": "implementationParams",
          "type": "tuple[]"
        },
        {
          "indexed": false,
          "internalType": "address",
          "name": "_init",
          "type": "address"
        },
        {
          "indexed": false,
          "internalType": "bytes",
          "name": "_calldata",
          "type": "bytes"
        }
      ],
      "name": "CegaEntryUpdated",
      "type": "event"
    },
    {
      "inputs": [],
      "name": "getACLManager",
      "outputs": [
        {
          "internalType": "address",
          "name": "",
          "type": "address"
        }
      ],
      "stateMutability": "view",
      "type": "function"
    },
    {
      "inputs": [
        {
          "internalType": "bytes32",
          "name": "id",
          "type": "bytes32"
        }
      ],
      "name": "getAddress",
      "outputs": [
        {
          "internalType": "address",
          "name": "",
          "type": "address"
        }
      ],
      "stateMutability": "view",
      "type": "function"
    },
    {
      "inputs": [
        {
          "internalType": "address",
          "name": "asset",
          "type": "address"
        }
      ],
      "name": "getAssetWrappingProxy",
      "outputs": [
        {
          "internalType": "address",
          "name": "",
          "type": "address"
        }
      ],
      "stateMutability": "view",
      "type": "function"
    },
    {
      "inputs": [],
      "name": "getCegaEntry",
      "outputs": [
        {
          "internalType": "address",
          "name": "",
          "type": "address"
        }
      ],
      "stateMutability": "view",
      "type": "function"
    },
    {
      "inputs": [],
      "name": "getCegaFeeReceiver",
      "outputs": [
        {
          "internalType": "address",
          "name": "",
          "type": "address"
        }
      ],
      "stateMutability": "view",
      "type": "function"
    },
    {
      "inputs": [],
      "name": "getCegaOracle",
      "outputs": [
        {
          "internalType": "address",
          "name": "",
          "type": "address"
        }
      ],
      "stateMutability": "view",
      "type": "function"
    },
    {
      "inputs": [],
      "name": "getRedepositManager",
      "outputs": [
        {
          "internalType": "address",
          "name": "",
          "type": "address"
        }
      ],
      "stateMutability": "view",
      "type": "function"
    },
    {
      "inputs": [],
      "name": "getTradeWinnerNFT",
      "outputs": [
        {
          "internalType": "address",
          "name": "",
          "type": "address"
        }
      ],
      "stateMutability": "view",
      "type": "function"
    },
    {
      "inputs": [
        {
          "internalType": "address",
          "name": "newAddress",
          "type": "address"
        }
      ],
      "name": "setACLManager",
      "outputs": [],
      "stateMutability": "nonpayable",
      "type": "function"
    },
    {
      "inputs": [
        {
          "internalType": "bytes32",
          "name": "id",
          "type": "bytes32"
        },
        {
          "internalType": "address",
          "name": "newAddress",
          "type": "address"
        }
      ],
      "name": "setAddress",
      "outputs": [],
      "stateMutability": "nonpayable",
      "type": "function"
    },
    {
      "inputs": [
        {
          "internalType": "address",
          "name": "asset",
          "type": "address"
        },
        {
          "internalType": "address",
          "name": "proxy",
          "type": "address"
        }
      ],
      "name": "setAssetWrappingProxy",
      "outputs": [],
      "stateMutability": "nonpayable",
      "type": "function"
    },
    {
      "inputs": [
        {
          "internalType": "address",
          "name": "newAddress",
          "type": "address"
        }
      ],
      "name": "setCegaEntry",
      "outputs": [],
      "stateMutability": "nonpayable",
      "type": "function"
    },
    {
      "inputs": [
        {
          "internalType": "address",
          "name": "newAddress",
          "type": "address"
        }
      ],
      "name": "setCegaFeeReceiver",
      "outputs": [],
      "stateMutability": "nonpayable",
      "type": "function"
    },
    {
      "inputs": [
        {
          "internalType": "address",
          "name": "newAddress",
          "type": "address"
        }
      ],
      "name": "setCegaOracle",
      "outputs": [],
      "stateMutability": "nonpayable",
      "type": "function"
    },
    {
      "inputs": [
        {
          "internalType": "address",
          "name": "newAddress",
          "type": "address"
        }
      ],
      "name": "setRedepositManager",
      "outputs": [],
      "stateMutability": "nonpayable",
      "type": "function"
    },
    {
      "inputs": [
        {
          "internalType": "address",
          "name": "newAddress",
          "type": "address"
        }
      ],
      "name": "setTradeWinnerNFT",
      "outputs": [],
      "stateMutability": "nonpayable",
      "type": "function"
    },
    {
      "inputs": [
        {
          "components": [
            {
              "internalType": "address",
              "name": "implAddress",
              "type": "address"
            },
            {
              "internalType": "enum ICegaEntry.ProxyImplementationAction",
              "name": "action",
              "type": "uint8"
            },
            {
              "internalType": "bytes4[]",
              "name": "functionSelectors",
              "type": "bytes4[]"
            }
          ],
          "internalType": "struct ICegaEntry.ProxyImplementation[]",
          "name": "implementationParams",
          "type": "tuple[]"
        },
        {
          "internalType": "address",
          "name": "_init",
          "type": "address"
        },
        {
          "internalType": "bytes",
          "name": "_calldata",
          "type": "bytes"
        }
      ],
      "name": "updateCegaEntryImpl",
      "outputs": [],
      "stateMutability": "nonpayable",
      "type": "function"
    }
  ],
  "bytecode": "0x60806040523462000031575b6200001f62000019620000f7565b6200011a565b6040516132f96200022d82396132f990f35b6200003a600080fd5b6200000b565b600080fd5b50634e487b7160e01b600052604160045260246000fd5b90601f01601f191681019081106001600160401b038211176200007e57604052565b6200008862000045565b604052565b90620000a46200009c60405190565b92836200005c565b565b6001600160a01b031690565b90565b6001600160a01b038116036200004057565b90505190620000a482620000b5565b90620000b29160208183031215620000c757620000f1600080fd5b620000c7565b620000b262003526803803806200010e816200008d565b928339810190620000d6565b620000a4906a20a1a62fa6a0a720a3a2a960a91b620001a1565b546001600160a01b031690565b620000b290620000a6906001600160a01b031682565b620000b29062000141565b620000b29062000157565b9062000181620000b26200019d9262000162565b82546001600160a01b0319166001600160a01b03919091161790565b9055565b906000620001e382620001dd85620001cd620001c7828790600052602052604060002090565b62000134565b9490600052602052604060002090565b6200016d565b6200021b62000214620002147f9ef0e8c8e52743bb38b83b17d9429141d494b8041ca6d616a6c77cebae9cd8b79590565b9262000162565b926200022660405190565b600090a456fe608060405260043610156200001a575b62000018600080fd5b005b60003560e01c806316f1f96814620001a057806321f8a72114620001955780632508a572146200018a578063371c01c8146200017f5780633d977de514620001745780634479850d14620001695780634af2a6d8146200015e57806351f57e0c1462000153578063707cd716146200014857806374bd1b84146200013d578063af96230f1462000132578063b6d48ff51462000127578063ca446dd9146200011c578063ce8fed111462000111578063cf8477811462000106578063d415148a14620000fb5763ed301ca9036200000f57620000f56200071a565b6200000f565b50620000f5620006e8565b50620000f5620006b6565b50620000f562000688565b50620000f562000659565b50620000f5620005f9565b50620000f5620005cb565b50620000f56200059d565b50620000f56200056b565b50620000f562000539565b50620000f56200050b565b50620000f5620004d9565b50620000f562000370565b50620000f562000342565b50620000f5620002ed565b50620000f562000264565b50620000f5620001da565b600080fd5b6000910312620001bc57565b620001c5600080fd5b565b6001600160a01b031690565b90565b9052565b50346200021b575b620001ef366004620001b0565b62000217620001fd6200080d565b604051918291826001600160a01b03909116815260200190565b0390f35b62000224600080fd5b620001e2565b805b03620001ab57565b90503590620001c5826200022a565b90620001d3916020818303121562000234576200025e600080fd5b62000234565b503462000287575b62000217620001fd6200028136600462000243565b62000831565b62000290600080fd5b6200026c565b6001600160a01b0381166200022c565b90503590620001c58262000296565b9190620001d390604084820312620002de575b620002d48185620002a6565b93602001620002a6565b620002e7600080fd5b620002c8565b503462000312575b6200030d62000306366004620002b5565b9062000e5e565b604051005b6200031b600080fd5b620002f5565b90620001d39160208183031215620002a6576200033c600080fd5b620002a6565b503462000361575b6200030d6200035b36600462000321565b62000b5e565b6200036a600080fd5b6200034a565b503462000393575b62000385366004620001b0565b62000217620001fd62000786565b6200039c600080fd5b62000378565b909182601f83011215620003e6575b602082359267ffffffffffffffff8411620003d7575b019260208302840111620001bc57565b620003e0600080fd5b620003c7565b620003ef600080fd5b620003b1565b909182601f8301121562000436575b602082359267ffffffffffffffff841162000427575b019282840111620001bc57565b62000430600080fd5b6200041a565b6200043f600080fd5b62000404565b620004a89192606082850312620004ca575b6200047784833567ffffffffffffffff8111620004bb575b8401620003a2565b939094620004898160208601620002a6565b9360408101359067ffffffffffffffff8211620004ac575b01620003f5565b9091565b620004b5600080fd5b620004a1565b620004c4600080fd5b6200046f565b620004d3600080fd5b62000457565b5034620004fc575b6200030d620004f236600462000445565b93929092620011dc565b62000505600080fd5b620004e1565b50346200052a575b6200030d6200052436600462000321565b62000bbb565b62000533600080fd5b62000513565b50346200055c575b6200054e366004620001b0565b62000217620001fd620007a4565b62000565600080fd5b62000541565b50346200058e575b62000580366004620001b0565b62000217620001fd620007c9565b62000597600080fd5b62000573565b5034620005bc575b6200030d620005b636600462000321565b62000ccf565b620005c5600080fd5b620005a5565b5034620005ea575b6200030d620005e436600462000321565b62000c71565b620005f3600080fd5b620005d3565b50346200061c575b62000217620001fd6200061636600462000321565b62000884565b62000625600080fd5b62000601565b9190620001d3906040848203126200064a575b620002d4818562000234565b62000653600080fd5b6200063e565b503462000679575b6200030d620006723660046200062b565b9062000d72565b62000682600080fd5b62000661565b5034620006a7575b6200030d620006a136600462000321565b62000c13565b620006b0600080fd5b62000690565b5034620006d9575b620006cb366004620001b0565b62000217620001fd62000758565b620006e2600080fd5b620006be565b50346200070b575b620006fd366004620001b0565b62000217620001fd620007e8565b62000714600080fd5b620006f0565b503462000739575b6200030d6200073336600462000321565b62000d27565b62000742600080fd5b62000722565b905b600052602052604060002090565b620001d36200077960006a434547415f4f5241434c4560a81b5b9062000748565b546001600160a01b031690565b620001d362000779600069434547415f454e54525960b01b62000772565b620001d36200077960007021a2a3a0afa322a2afa922a1a2a4ab22a960791b62000772565b620001d36200077960006a20a1a62fa6a0a720a3a2a960a91b62000772565b620001d3620007796000702922a222a827a9a4aa2fa6a0a720a3a2a960791b62000772565b620001d36200077960006f151490511157d5d25393915497d3919560821b62000772565b62000779620001d39162000843600090565b50600062000748565b620001d390620001c7906001600160a01b031682565b620001d3906200084c565b620001d39062000862565b906200074a906200086d565b62000779620001d39162000896600090565b50600162000878565b601f01601f191690565b50634e487b7160e01b600052604160045260246000fd5b90601f01601f1916810190811067ffffffffffffffff821117620008e357604052565b620008ed620008a9565b604052565b8015156200022c565b90505190620001c582620008f2565b90620001d39160208183031215620008fb5762000925600080fd5b620008fb565b506040513d6000823e3d90fd5b90620001c56200094760405190565b9283620008c0565b6200097060209167ffffffffffffffff81116200097457601f01601f191690565b0190565b6200089f620008a9565b90620009946200098e836200094f565b62000938565b918252565b620009a560016200097e565b601960f91b602082015290565b620001d362000999565b620001d3620009b2565b60005b838110620009da5750506000910152565b8181015183820152602001620009c9565b62000a106200089f602093620009709362000a04815190565b80835293849260200190565b95869101620009c6565b6020808252620001d392910190620009eb565b1562000a365750565b62000a5b9062000a4560405190565b62461bcd60e51b81529182916004830162000a1a565b0390fd5b620001c59062000afa62000ad2602062000a9862000a92806200077960006a20a1a62fa6a0a720a3a2a960a91b62000772565b6200086d565b63279ee9ef9062000abb339262000aae60405190565b9586948593849360e01b90565b83526001600160a01b031660048301526024820190565b03915afa90811562000b35575b60009162000b00575b5062000af3620009bc565b9062000a2d565b62000b45565b62000b26915060203d811162000b2d575b62000b1d8183620008c0565b8101906200090a565b3862000ae8565b503d62000b11565b62000b3f6200092b565b62000adf565b620001c59069434547415f454e54525960b01b620015f9565b620001c59062000a5f565b620001c59062000b9c62000ad2602062000a9862000a92806200077960006a20a1a62fa6a0a720a3a2a960a91b62000772565b620001c5906f151490511157d5d25393915497d3919560821b620015f9565b620001c59062000b69565b620001c59062000bf962000ad2602062000a9862000a92806200077960006a20a1a62fa6a0a720a3a2a960a91b62000772565b620001c5906a434547415f4f5241434c4560a81b620015f9565b620001c59062000bc6565b620001c59062000c5162000ad2602062000a9862000a92806200077960006a20a1a62fa6a0a720a3a2a960a91b62000772565b620001c590702922a222a827a9a4aa2fa6a0a720a3a2a960791b620015f9565b620001c59062000c1e565b620001c59062000caf62000ad2602062000a9862000a92806200077960006a20a1a62fa6a0a720a3a2a960a91b62000772565b620001c5907021a2a3a0afa322a2afa922a1a2a4ab22a960791b620015f9565b620001c59062000c7c565b620001c59062000d0d62000ad2602062000a9862000a92806200077960006a20a1a62fa6a0a720a3a2a960a91b62000772565b620001c5906a20a1a62fa6a0a720a3a2a960a91b620015f9565b620001c59062000cda565b620001c5919062000d6662000ad2602062000a9862000a92806200077960006a20a1a62fa6a0a720a3a2a960a91b62000772565b90620001c591620015f9565b90620001c59162000d32565b620001c5919062000db262000ad2602062000a9862000a92806200077960006a20a1a62fa6a0a720a3a2a960a91b62000772565b62000e06565b9062000dcc620001d362000de8926200086d565b82546001600160a01b0319166001600160a01b03919091161790565b9055565b6001600160a01b0391821681529116602082015260400190565b9062000e1f8162000e1984600162000878565b62000db8565b7fdf5cc1e6ccbcc3e630a094ac1ffa53de2bfc5b96d3a0dba579eddbc66c3956889162000e5962000e4f60405190565b9283928362000dec565b0390a1565b90620001c59162000d7e565b620001c5949392919062000ea162000ad2602062000a9862000a92806200077960006a20a1a62fa6a0a720a3a2a960a91b62000772565b6200116a565b50620001d3906020810190620002a6565b60031115620001ab57565b90503590620001c58262000eb8565b50620001d390602081019062000ec3565b50634e487b7160e01b600052602160045260246000fd5b6003111562000f0557565b620001c562000ee3565b90620001c58262000efa565b620001d39062000f0f565b620001d69062000f1b565b90620009708160209362000f26565b9035601e19368390030181121562000f8a575b016020813591019167ffffffffffffffff821162000f7b575b6020820236038313620001bc57565b62000f84600080fd5b62000f6c565b62000f93600080fd5b62000f53565b6001600160e01b031981166200022c565b90503590620001c58262000f99565b50620001d390602081019062000faa565b906000825b82821062000fde575050505090565b90919293620010126200100b60019262000ff9888662000fb9565b6001600160e01b031916815260200190565b9560200190565b9392019062000fcf565b90620001d3929162000fca565b6200107b6200106f6200105a620001d39462001049600086018662000ea7565b6001600160a01b0316815260200190565b62001069602085018562000ed2565b62000f31565b91604081019062000f40565b906200101c565b90620001d39162001029565b9035605e193683900301811215620010a4570190565b62000970600080fd5b906000825b828210620010c1575050505090565b90919293620010e26200100b600192620010dc88866200108e565b62001082565b93920190620010b2565b9091620001d392620010ad565b620011116200110760405190565b92839283620010ec565b03902090565b90826000939282370152565b91906200089f816200113d81620009709560209181520190565b809562001117565b6001600160a01b03919091168152604060208201819052620001d39391019162001123565b929190620011c2620011d7916200119a878686848a6200119469434547415f454e54525960b01b90565b62001368565b7f29dda07dbc47d3fd27020fc00e7b26144d02d1ba982143b6622f3e8a405ed34295620010f9565b94620011cd60405190565b9384938462001145565b0390a2565b90620001c59493929162000e6a565b620001c7620001d3620001d39290565b620001d390620011eb565b818352602090920191906000825b82821062001223575050505090565b909192936200123e6200100b60019262000ff9888662000fb9565b9392019062001214565b620001d39160608101916200129d906200127462001267828062000ea7565b6001600160a01b03168452565b6200129262001287602083018362000ed2565b602085019062000f26565b604081019062000f40565b91604081850391015262001206565b90620001d39162001248565b818352916020019081620012cf6020830284019490565b92836000925b848410620012e65750505050505090565b9091929394956020620013176200131083856001950388526200130a8b886200108e565b620012ac565b9860200190565b940194019294939190620012d5565b6060808252620001d39694959391926200135a926200134892850191620012b8565b6001600160a01b039095166020830152565b604081850391015262001123565b94929390936000906200138062000779888462000748565b6200138f620001c784620011fb565b6001600160a01b038216036200152a57509162000e1987838862001472956200144b620014ad9998620014576200142362000a9262000a9262001412620013d6306200086d565b604051918291611c6e830183811067ffffffffffffffff8211176200151a575b611c6e6200165685396001600160a01b03909116815260200190565b039088f0801562001510576200086d565b9c8d99631f931c1c938b3b1562001501575b8d6200144060405190565b988997889760e01b90565b87526004870162001326565b038183895af18015620014f1575b620014be575b5062000748565b620014a66200149f7f09523ab67156b124f7a934ad79a5a6806193d4de9641681697483b9095fe5e749690565b936200086d565b93620010f9565b92620014b860405190565b600090a4565b620014e290823d8411620014e9575b620014d98183620008c0565b810190620001b0565b386200146b565b503d620014cd565b620014fb6200092b565b62001465565b6200150a600080fd5b62001435565b62000a926200092b565b62001524620008a9565b620013f6565b85975091848188866200144b83876200157c620011d79b9d6200155c62000a929b9e9b62000a92620011c29e6200086d565b95631f931c1c93873b15620015ea575b6040519a8b998a98899760e01b90565b03925af18015620015da575b620015b8575b50507f29dda07dbc47d3fd27020fc00e7b26144d02d1ba982143b6622f3e8a405ed34295620010f9565b81620015d292903d10620014e957620014d98183620008c0565b38806200158e565b620015e46200092b565b62001588565b620015f3600080fd5b6200156c565b9060006200161d8262000e19856200161662000779828762000748565b9462000748565b620014ad6200164e6200164e7f9ef0e8c8e52743bb38b83b17d9429141d494b8041ca6d616a6c77cebae9cd8b79590565b926200086d56fe60806040526200001862000012620000e1565b62000104565b6040516119e46200028a82396119e490f35b50634e487b7160e01b600052604160045260246000fd5b90601f01601f191681019081106001600160401b038211176200006357604052565b6200006d6200002a565b604052565b90620000896200008160405190565b928362000041565b565b600080fd5b6001600160a01b031690565b90565b6001600160a01b038116036200008b57565b9050519062000089826200009f565b906200009c9160208183031215620000b157620000db600080fd5b620000b1565b6200009c62001c6e80380380620000f88162000072565b928339810190620000c0565b62000089906200017c565b546001600160a01b031690565b6200009c9062000090906001600160a01b031682565b6200009c906200011c565b6200009c9062000132565b906200015c6200009c62000178926200013d565b82546001600160a01b0319166001600160a01b03919091161790565b9055565b6004620001886200027f565b0190620001a1816200019a846200010f565b9362000148565b620001d8620001d17f8be0079c531659141344cd1fd0a4f28419497f9722a3daafe3b4186f6b6457e0936200013d565b916200013d565b91620001e360405190565b600090a3565b6200009c6200009c6200009c9290565b6200009c90620001e9565b50634e487b7160e01b600052601160045260246000fd5b919082039182116200022957565b6200008962000204565b6200009c62000279620002667f11cac52ac9aac3f05b98c564845f9cbef3a9feb42b2c77780d0605eb87044b24620001f9565b620002726001620001e9565b906200021b565b620001e9565b6200009c6200023356fe6080604052600436101561001e575b361561001c5761001c61052f565b005b60003560e01c631f931c1c0361000e57610036610192565b61000e565b600080fd5b909182601f83011215610089575b602082359267ffffffffffffffff841161007c575b01926020830284011161007257565b61007a600080fd5b565b610084600080fd5b610063565b610091600080fd5b61004e565b6001600160a01b031690565b90565b6001600160a01b0381165b0361003b57565b9050359061007a826100a5565b909182601f83011215610100575b602082359267ffffffffffffffff84116100f3575b01928284011161007257565b6100fb600080fd5b6100e7565b610108600080fd5b6100d2565b6101679192606082850312610185575b61013a84833567ffffffffffffffff8111610178575b8401610040565b93909461014a81602086016100b7565b9360408101359067ffffffffffffffff821161016b575b016100c4565b9091565b610173600080fd5b610161565b610180600080fd5b610133565b61018d600080fd5b61011d565b50346101b5575b6101b06101a736600461010d565b9392909261047f565b604051005b6101bd600080fd5b610199565b601f01601f191690565b50634e487b7160e01b600052604160045260246000fd5b90601f01601f1916810190811067ffffffffffffffff82111761020557604052565b61020d6101cc565b604052565b9061007a61021f60405190565b92836101e3565b6020809167ffffffffffffffff811161023e57020190565b6102466101cc565b020190565b6003111561003b57565b9050359061007a8261024b565b6001600160e01b031981166100b0565b9050359061007a82610262565b9092919261029461028f82610226565b610212565b93818552602080860192028301928184116102d2575b915b8383106102b95750505050565b602080916102c78486610272565b8152019201916102ac565b6102da600080fd5b6102aa565b906100a29181601f820112156102fb575b60208135910161027f565b610303600080fd5b6102f0565b919061036290606084820312610376575b6103236060610212565b93600061033083836100b7565b90860152602061034283828401610255565b9086015260408101359067ffffffffffffffff8211610369575b016102df565b6040830152565b610371600080fd5b61035c565b61037e600080fd5b610319565b9092919261039361028f82610226565b93818552602080860192028301928184116103f3575b80925b8484106103ba575050505050565b602080916103db85873567ffffffffffffffff81116103e6575b8601610308565b8152019301926103ac565b6103ee600080fd5b6103d4565b6103fb600080fd5b6103a9565b6100a2913691610383565b61042a60209167ffffffffffffffff811161042e57601f01601f191690565b0190565b6101c26101cc565b90826000939282370152565b92919061007a9161045561028f8361040b565b94828652602086019183820111156104365761046f600080fd5b610436565b6100a2913691610442565b9361049861049e9261007a96610493610685565b610400565b93610474565b916108f1565b906001600160e01b0319165b600052602052604060002090565b6100966100a26100a29290565b6100a2906104be565b156104db57565b60405162461bcd60e51b815260206004820152602260248201527f43656761456e7472793a2046756e6374696f6e20646f6573206e6f74206578696044820152611cdd60f21b6064820152608490fd5b0390fd5b50610562600061055481610541610627565b83356001600160e01b03191691016104a4565b01546001600160a01b031690565b6000808092610587610576610096846104cb565b6001600160a01b03831614156104d4565b368280378136915af43d82803e1561059d573d90f35b3d90fd5b6100a26100a26100a29290565b6100a2906105a1565b50634e487b7160e01b600052601160045260246000fd5b919082039182116105db57565b61007a6105b7565b6100a26106226106127f11cac52ac9aac3f05b98c564845f9cbef3a9feb42b2c77780d0605eb87044b246105ae565b61061c60016105a1565b906105ce565b6105a1565b6100a26105e3565b1561063657565b60405162461bcd60e51b815260206004820152602160248201527f43656761456e7472793a204d75737420626520636f6e7472616374206f776e656044820152603960f91b6064820152608490fd5b61007a336106a961069c6100966004610554610627565b916001600160a01b031690565b1461062f565b60019060001981146106bf570190565b61042a6105b7565b50634e487b7160e01b600052603260045260246000fd5b90602080916106eb845190565b8110156106f9575b02010190565b6107016106c7565b6106f3565b50634e487b7160e01b600052602160045260246000fd5b6003111561072757565b61007a610706565b9061007a8261071d565b6100a2905161072f565b9052565b6100a29061072f565b61074390610747565b90610779610772610768845190565b8084529260200190565b9260200190565b9060005b81811061078a5750505090565b9091926107b16107aa60019286516001600160e01b031916815260200190565b9460200190565b92910161077d565b80516001600160a01b031682526100a29160608101916040906107e460208201516020850190610750565b0151906040818403910152610759565b906100a2916107b9565b9061081461080a835190565b8083529160200190565b90816108266020830284019460200190565b926000915b83831061083a57505050505090565b9091929394602061085d610856838560019503875289516107f4565b9760200190565b930193019193929061082b565b60005b83811061087d5750506000910152565b818101518382015260200161086d565b6108ae6101c260209361042a936108a2815190565b80835293849260200190565b9586910161086a565b60608082526100a294926108e4916108d291908401906107fe565b6001600160a01b039094166020830152565b604081840391015261088d565b92909160005b6109026100a2865190565b811015610a5c5761091f602061091883886106de565b5101610739565b9060009161092c8361072f565b6109358261072f565b0361097d575061097361095e6109789361094f848a6106de565b5101516001600160a01b031690565b604061096a848a6106de565b51015190610c3d565b6106af565b6108f7565b610987600161072f565b6109908261072f565b036109bf57506109736109aa6109789361094f848a6106de565b60406109b6848a6106de565b51015190610e40565b6109d26109cc600261072f565b9161072f565b03610a00576109736109eb6109789361094f848a6106de565b60406109f7848a6106de565b51015190610fa8565b60405162461bcd60e51b815260206004820152602e60248201527f43656761456e7472793a20496e636f72726563742050726f7879496d706c656d60448201526d32b73a30ba34b7b720b1ba34b7b760911b6064820152608490fd5b5090929161007a92817f8faa70878671ccd212d20771b795c50af8fd3ff6cf27f4bde57e5d4de0aeb67391610a9d85610a9460405190565b938493846108b7565b0390a161183c565b15610aac57565b60405162461bcd60e51b815260206004820152603060248201527f43656761456e7472793a204e6f2073656c6563746f727320696e20696d706c6560448201526f1b595b9d185d1a5bdb881d1bc818dd5d60821b6064820152608490fd5b15610b1157565b60405162461bcd60e51b815260206004820152603160248201527f43656761456e7472793a2041646420696d706c656d656e746174696f6e2063616044820152706e2774206265206164647265737328302960781b6064820152608490fd5b6100a290610096906001600160a01b031682565b6100a290610b70565b6100a290610b84565b906104b090610b8d565b610bad6100a26100a29290565b6001600160601b031690565b15610bc057565b60405162461bcd60e51b815260206004820152603160248201527f43656761456e7472793a2043616e2774206164642066756e6374696f6e207468604482015270617420616c72656164792065786973747360781b6064820152608490fd5b6001906001600160601b03166001600160601b0381146106bf570190565b9190610c47815190565b610c63600091610c5d610c59846105a1565b9190565b11610aa5565b610c6b610627565b610c74826104cb565b610c926001600160a01b0382166001600160a01b0388161415610b0a565b610cb0610cab84610ca68960018701610b96565b015490565b610ba0565b9384610ccb610cbe86610ba0565b916001600160601b031690565b14610d5e575b6000945b610ce06100a2835190565b861015610d5457610d4881610d438a610d4e9489610d3d610d25826105548f610d1c8f91610d0e908f6106de565b516001600160e01b03191690565b958691016104a4565b610d376001600160a01b038c1661069c565b14610bb9565b896112a9565b610c1f565b956106af565b94610cd5565b5050505050509050565b610d68878461115e565b610cd1565b15610d7457565b60405162461bcd60e51b815260206004820152603560248201527f43656761456e7472793a205265706c61636520696d706c656d656e746174696f6044820152746e2063616e2774206265206164647265737328302960581b6064820152608490fd5b15610dde57565b60405162461bcd60e51b815260206004820152603460248201527f43656761456e7472793a2043616e2774207265706c6163652066756e6374696f60448201527337103bb4ba341039b0b6b290333ab731ba34b7b760611b6064820152608490fd5b8151919291610e57600091610c5d610c59846105a1565b610e5f610627565b90610e80610e6f610096836104cb565b6001600160a01b0385161415610d6d565b610e94610cab82610ca68660018701610b96565b9485610ea2610cbe84610ba0565b14610f27575b6000955b610eb76100a2835190565b871015610f1e57610f1281610d4387610f189487610d3d8a610eee8f610554610ee4610d0e87938f6106de565b80968195016104a4565b610f0c6001600160a01b0387166001600160a01b0383161415610dd7565b8c61152a565b966106af565b95610eac565b50505050509050565b610f31848461115e565b610ea8565b15610f3d57565b60405162461bcd60e51b815260206004820152603b60248201527f43656761456e7472793a2052656d6f766520696d706c656d656e746174696f6e60448201527f2061646472657373206d757374206265206164647265737328302900000000006064820152608490fd5b81516000939290610fbf90610c5d610c59876105a1565b610fe0610fca610627565b92610fda61069c610096886104cb565b14610f36565b60005b610fee6100a2835190565b8110156110245780610973611009610d0e61101f94866106de565b6110198861055483828a016104a4565b8661152a565b610fe3565b5050509050565b9061103861028f8361040b565b918252565b611047602961102b565b7f43656761456e7472793a204e657720696d706c656d656e746174696f6e20686160208201526873206e6f20636f646560b81b604082015290565b6100a261103d565b90600019905b9181191691161790565b906110aa6100a26110b1926105a1565b825461108a565b9055565b6110d56001916110c3815490565b8410156110de57600052602060002090565b91020190600090565b6110e66106c7565b600052602060002090565b916001600160a01b0360089290920291821b911b611090565b921b90565b91906111206100a26110b193610b8d565b9083546110f1565b9061114b61007a92805490600160401b821015611151575b6001820181556110b5565b9061110f565b6111596101cc565b611140565b9061119b61007a92611177611171611082565b84611995565b6100a260028201916001611195868261118e875490565b9401610b96565b0161109a565b611128565b906001600160a01b03199060a01b611090565b610bad6100a26100a2926001600160601b031690565b906111d96100a26110b1926111b3565b82546111a0565b60086112056004929493946111f3815490565b8610156110de57600052602060002090565b8185040193060290565b9190600861109091029161110a63ffffffff841b90565b919061124561123f6110b1936001600160e01b03191690565b60e01c90565b90835461120f565b9061127061007a92805490600160401b821015611276575b6001820181556111e0565b90611226565b61127e6101cc565b611265565b906001600160a01b0390611090565b906112a26100a26110b192610b8d565b8254611283565b8184936112e66000946112e18661042a61007a9a60016112eb996112db85820199866112d58a8d6104a4565b016111c9565b01610b96565b61124d565b6104a4565b01611292565b156112f857565b60405162461bcd60e51b815260206004820152603360248201527f43656761456e7472793a2043616e27742072656d6f76652066756e6374696f6e604482015272081d1a185d08191bd95cdb89dd08195e1a5cdd606a1b6064820152608490fd5b1561136057565b60405162461bcd60e51b815260206004820152602a60248201527f43656761456e7472793a2043616e27742072656d6f766520696d6d757461626c6044820152693290333ab731ba34b7b760b11b6064820152608490fd5b6100a29060a01c610bad565b6100a290546113b8565b6100a26100a26100a2926001600160601b031690565b6100a2916008021c60e01b90565b906100a291546113e4565b50634e487b7160e01b600052603160045260246000fd5b61007a91600091611226565b600161142a825490565b8015611449575b039061144661144083836111e0565b90611414565b55565b6114516113fd565b611431565b50634e487b7160e01b600052600060045260246000fd5b61007a9161147b5760009055565b611483611456565b60009055565b6100a29081565b6100a29054611489565b6100a2916008021c610096565b906100a2915461149a565b61007a9160009161110f565b60016114c8825490565b80156114e4575b03906114466114de83836110b5565b906114b2565b6114ec6113fd565b6114cf565b9160001960089290920291821b911b611090565b91906115166100a26110b1936105a1565b9083546114f1565b61007a91600091611505565b6115bf9092919283600093611555611544610096876104cb565b6001600160a01b03841614156112f1565b61157561156461009630610b8d565b6001600160a01b0384161415611359565b6115f0856115eb8186019361159c6115978461159184896104a4565b016113c4565b6113ce565b946115ae84610ca68960018c01610b96565b87858a60019c8d9461061c866105a1565b809a6115c88290565b81036116a0575b50506115e692506112e69361042a91019e8f610b96565b611420565b61146d565b6115fc610c59866105a1565b14611609575b5050505050565b61166194611656611651600261165b950161162e611625825490565b61061c896105a1565b6116428861163c8888610b96565b01611490565b8882820361166b575b50505090565b6114be565b610b96565b0161151e565b3880808080611602565b61119561168461167e61169895876110b5565b906114a7565b6116928161114b86896110b5565b88610b96565b38808861164b565b610cab8561127083876116cb6116d76116d16116df99846116e69f6116cb906112d59e01998a610b96565b016111e0565b906113f2565b9a8b95610b96565b92856104a4565b8887858a89386115cf565b156116f857565b60405162461bcd60e51b815260206004820152603960248201527f43656761456e7472793a205f63616c6c6461746120697320656d70747920627560448201527f74205f696e6974206973206e6f742061646472657373283029000000000000006064820152608490fd5b61176d602461102b565b7f43656761456e7472793a205f696e6974206164647265737320686173206e6f20602082015263636f646560e01b604082015290565b6100a2611763565b3d156117c5576117ba3d61102b565b903d6000602084013e565b606090565b156117d157565b60405162461bcd60e51b815260206004820152603960248201527f43656761456e7472793a205f696e69742069732061646472657373283029206260448201527f7574205f63616c6c64617461206973206e6f7420656d707479000000000000006064820152608490fd5b60009061184b610096836104cb565b6001600160a01b038216036118785750611872610c5961186c61007a945190565b926105a1565b146117ca565b8192908161189a61188885945190565b611894610c59866105a1565b116116f1565b6118a661009630610b8d565b6001600160a01b03831603611944575b602081019051915af4906118d06118cb6117ab565b921590565b6118d8575050565b6118e6610c5961186c845190565b11156118f457602081519101fd5b60405162461bcd60e51b815260206004820152602260248201527f43656761456e7472793a205f696e69742066756e6374696f6e20726576657274604482015261195960f21b6064820152608490fd5b61195561194f6117a3565b83611995565b6118b6565b60208082526100a29291019061088d565b156119735750565b61052b9061198060405190565b62461bcd60e51b81529182916004830161195a565b9061007a913b6119a8610c5960006105a1565b1161196b56fea2646970667358221220f34eae10a2ac28fdcfb6e83c0b3053e313573f3ba178999b7e790744bba7621d64736f6c63430008110033a2646970667358221220b4ae3b9980b362646a05dcad69eee2ac29a0bcad0427d7a96a8711ddff9e994664736f6c63430008110033",
  "linkReferences": {},
  "deployedLinkReferences": {}
}