{
  "_format": "hh-sol-artifact-1",
  "contractName": "AddressManager",
  "sourceName": "contracts/aux/AddressManager.sol",
  "abi": [
    {
      "inputs": [
        {
          "internalType": "address",
          "name": "aclManager",
          "type": "address"
        }
      ],
      "stateMutability": "nonpayable",
      "type": "constructor"
    },
    {
      "anonymous": false,
      "inputs": [
        {
          "indexed": true,
          "internalType": "bytes32",
          "name": "id",
          "type": "bytes32"
        },
        {
          "indexed": true,
          "internalType": "address",
          "name": "oldAddress",
          "type": "address"
        },
        {
          "indexed": true,
          "internalType": "address",
          "name": "newAddress",
          "type": "address"
        }
      ],
      "name": "AddressSet",
      "type": "event"
    },
    {
      "anonymous": false,
      "inputs": [
        {
          "indexed": false,
          "internalType": "address",
          "name": "asset",
          "type": "address"
        },
        {
          "indexed": false,
          "internalType": "address",
          "name": "proxy",
          "type": "address"
        }
      ],
      "name": "AssetProxyUpdated",
      "type": "event"
    },
    {
      "anonymous": false,
      "inputs": [
        {
          "indexed": true,
          "internalType": "bytes32",
          "name": "id",
          "type": "bytes32"
        },
        {
          "indexed": true,
          "internalType": "address",
          "name": "proxyAddress",
          "type": "address"
        },
        {
          "components": [
            {
              "internalType": "address",
              "name": "implAddress",
              "type": "address"
            },
            {
              "internalType": "enum ICegaEntry.ProxyImplementationAction",
              "name": "action",
              "type": "uint8"
            },
            {
              "internalType": "bytes4[]",
              "name": "functionSelectors",
              "type": "bytes4[]"
            }
          ],
          "indexed": true,
          "internalType": "struct ICegaEntry.ProxyImplementation[]",
          "name": "implementationParams",
          "type": "tuple[]"
        }
      ],
      "name": "CegaEntryCreated",
      "type": "event"
    },
    {
      "anonymous": false,
      "inputs": [
        {
          "components": [
            {
              "internalType": "address",
              "name": "implAddress",
              "type": "address"
            },
            {
              "internalType": "enum ICegaEntry.ProxyImplementationAction",
              "name": "action",
              "type": "uint8"
            },
            {
              "internalType": "bytes4[]",
              "name": "functionSelectors",
              "type": "bytes4[]"
            }
          ],
          "indexed": true,
          "internalType": "struct ICegaEntry.ProxyImplementation[]",
          "name": "implementationParams",
          "type": "tuple[]"
        },
        {
          "indexed": false,
          "internalType": "address",
          "name": "_init",
          "type": "address"
        },
        {
          "indexed": false,
          "internalType": "bytes",
          "name": "_calldata",
          "type": "bytes"
        }
      ],
      "name": "CegaEntryUpdated",
      "type": "event"
    },
    {
      "inputs": [],
      "name": "getACLManager",
      "outputs": [
        {
          "internalType": "address",
          "name": "",
          "type": "address"
        }
      ],
      "stateMutability": "view",
      "type": "function"
    },
    {
      "inputs": [
        {
          "internalType": "bytes32",
          "name": "id",
          "type": "bytes32"
        }
      ],
      "name": "getAddress",
      "outputs": [
        {
          "internalType": "address",
          "name": "",
          "type": "address"
        }
      ],
      "stateMutability": "view",
      "type": "function"
    },
    {
      "inputs": [
        {
          "internalType": "address",
          "name": "asset",
          "type": "address"
        }
      ],
      "name": "getAssetWrappingProxy",
      "outputs": [
        {
          "internalType": "address",
          "name": "",
          "type": "address"
        }
      ],
      "stateMutability": "view",
      "type": "function"
    },
    {
      "inputs": [],
      "name": "getCegaEntry",
      "outputs": [
        {
          "internalType": "address",
          "name": "",
          "type": "address"
        }
      ],
      "stateMutability": "view",
      "type": "function"
    },
    {
      "inputs": [],
      "name": "getCegaFeeReceiver",
      "outputs": [
        {
          "internalType": "address",
          "name": "",
          "type": "address"
        }
      ],
      "stateMutability": "view",
      "type": "function"
    },
    {
      "inputs": [],
      "name": "getCegaOracle",
      "outputs": [
        {
          "internalType": "address",
          "name": "",
          "type": "address"
        }
      ],
      "stateMutability": "view",
      "type": "function"
    },
    {
      "inputs": [],
      "name": "getRedepositManager",
      "outputs": [
        {
          "internalType": "address",
          "name": "",
          "type": "address"
        }
      ],
      "stateMutability": "view",
      "type": "function"
    },
    {
      "inputs": [],
      "name": "getTradeWinnerNFT",
      "outputs": [
        {
          "internalType": "address",
          "name": "",
          "type": "address"
        }
      ],
      "stateMutability": "view",
      "type": "function"
    },
    {
      "inputs": [
        {
          "internalType": "address",
          "name": "newAddress",
          "type": "address"
        }
      ],
      "name": "setACLManager",
      "outputs": [],
      "stateMutability": "nonpayable",
      "type": "function"
    },
    {
      "inputs": [
        {
          "internalType": "bytes32",
          "name": "id",
          "type": "bytes32"
        },
        {
          "internalType": "address",
          "name": "newAddress",
          "type": "address"
        }
      ],
      "name": "setAddress",
      "outputs": [],
      "stateMutability": "nonpayable",
      "type": "function"
    },
    {
      "inputs": [
        {
          "internalType": "address",
          "name": "asset",
          "type": "address"
        },
        {
          "internalType": "address",
          "name": "proxy",
          "type": "address"
        }
      ],
      "name": "setAssetWrappingProxy",
      "outputs": [],
      "stateMutability": "nonpayable",
      "type": "function"
    },
    {
      "inputs": [
        {
          "internalType": "address",
          "name": "newAddress",
          "type": "address"
        }
      ],
      "name": "setCegaEntry",
      "outputs": [],
      "stateMutability": "nonpayable",
      "type": "function"
    },
    {
      "inputs": [
        {
          "internalType": "address",
          "name": "newAddress",
          "type": "address"
        }
      ],
      "name": "setCegaFeeReceiver",
      "outputs": [],
      "stateMutability": "nonpayable",
      "type": "function"
    },
    {
      "inputs": [
        {
          "internalType": "address",
          "name": "newAddress",
          "type": "address"
        }
      ],
      "name": "setCegaOracle",
      "outputs": [],
      "stateMutability": "nonpayable",
      "type": "function"
    },
    {
      "inputs": [
        {
          "internalType": "address",
          "name": "newAddress",
          "type": "address"
        }
      ],
      "name": "setRedepositManager",
      "outputs": [],
      "stateMutability": "nonpayable",
      "type": "function"
    },
    {
      "inputs": [
        {
          "internalType": "address",
          "name": "newAddress",
          "type": "address"
        }
      ],
      "name": "setTradeWinnerNFT",
      "outputs": [],
      "stateMutability": "nonpayable",
      "type": "function"
    },
    {
      "inputs": [
        {
          "components": [
            {
              "internalType": "address",
              "name": "implAddress",
              "type": "address"
            },
            {
              "internalType": "enum ICegaEntry.ProxyImplementationAction",
              "name": "action",
              "type": "uint8"
            },
            {
              "internalType": "bytes4[]",
              "name": "functionSelectors",
              "type": "bytes4[]"
            }
          ],
          "internalType": "struct ICegaEntry.ProxyImplementation[]",
          "name": "implementationParams",
          "type": "tuple[]"
        },
        {
          "internalType": "address",
          "name": "_init",
          "type": "address"
        },
        {
          "internalType": "bytes",
          "name": "_calldata",
          "type": "bytes"
        }
      ],
      "name": "updateCegaEntryImpl",
      "outputs": [],
      "stateMutability": "nonpayable",
      "type": "function"
    }
  ],
  "bytecode": "0x60806040523462000030576200001e62000018620000d0565b620000f3565b604051612f71620002038239612f7190f35b5f80fd5b634e487b7160e01b5f52604160045260245ffd5b90601f01601f191681019081106001600160401b038211176200006a57604052565b62000034565b90620000876200007f60405190565b928362000048565b565b6001600160a01b031690565b90565b6001600160a01b038116036200003057565b90505190620000878262000098565b9060208282031262000030576200009591620000aa565b620000956200317480380380620000e78162000070565b928339810190620000b9565b62000087906a20a1a62fa6a0a720a3a2a960a91b6200017a565b546001600160a01b031690565b620000959062000089906001600160a01b031682565b62000095906200011a565b620000959062000130565b906200015a6200009562000176926200013b565b82546001600160a01b0319166001600160a01b03919091161790565b9055565b90620001d1620001ca620001c3620001a46200019e865f905f5260205260405f2090565b6200010d565b946200009585620001bd835f905f5260205260405f2090565b62000146565b936200013b565b916200013b565b917f9ef0e8c8e52743bb38b83b17d9429141d494b8041ca6d616a6c77cebae9cd8b7620001fd60405190565b5f90a456fe6080604052600436101562000012575f80fd5b5f3560e01c806316f1f968146200014257806321f8a721146200013c5780632508a5721462000136578063371c01c814620001305780633d977de5146200012a5780634479850d14620001245780634af2a6d8146200011e57806351f57e0c1462000118578063707cd716146200011257806374bd1b84146200010c578063af96230f1462000106578063b6d48ff51462000100578063ca446dd914620000fa578063ce8fed1114620000f4578063cf84778114620000ee578063d415148a14620000e85763ed301ca9036200015357620004fe565b620004dd565b620004bc565b6200049f565b62000481565b62000440565b62000423565b62000406565b620003e5565b620003c4565b620003a7565b62000386565b6200029a565b6200027d565b62000243565b620001db565b6200016c565b5f9103126200015357565b5f80fd5b6001600160a01b031690565b90565b9052565b565b3462000153576200017f36600462000148565b620001a76200018d62000529565b604051918291826001600160a01b03909116815260200190565b0390f35b805b036200015357565b905035906200016a82620001ab565b9060208282031262000153576200016391620001b5565b346200015357620001a76200018d620001f6366004620001c4565b6200055a565b6001600160a01b038116620001ad565b905035906200016a82620001fc565b91906040838203126200015357620001639060206200023b82866200020c565b94016200020c565b346200015357620002616200025a3660046200021b565b90620008a2565b604051005b90602082820312620001535762000163916200020c565b346200015357620002616200029436600462000266565b62000934565b346200015357620002ad36600462000148565b620001a76200018d6200093f565b909182601f83011215620001535781359167ffffffffffffffff8311620001535760200192602083028401116200015357565b909182601f83011215620001535781359167ffffffffffffffff8311620001535760200192600183028401116200015357565b91906060838203126200015357823567ffffffffffffffff81116200015357816200034e918501620002bb565b9290936200036083602083016200020c565b92604082013567ffffffffffffffff81116200015357620003829201620002ee565b9091565b346200015357620002616200039d36600462000321565b9392909262000cd2565b34620001535762000261620003be36600462000266565b62000d6d565b346200015357620003d736600462000148565b620001a76200018d62000d78565b346200015357620003f836600462000148565b620001a76200018d62000d9b565b346200015357620002616200041d36600462000266565b62000e45565b346200015357620002616200043a36600462000266565b62000edd565b346200015357620001a76200018d6200045b36600462000266565b62000ee8565b91906040838203126200015357620001639060206200023b8286620001b5565b346200015357620002616200049836600462000461565b9062000f7c565b34620001535762000261620004b636600462000266565b6200100f565b346200015357620004cf36600462000148565b620001a76200018d6200101a565b346200015357620004f036600462000148565b620001a76200018d62001037565b346200015357620002616200051536600462000266565b620010e1565b905b5f5260205260405f2090565b620001636200054d6f151490511157d5d25393915497d3919560821b5b5f6200051b565b546001600160a01b031690565b6200054d62000163916200056b5f90565b505f6200051b565b620001639062000157906001600160a01b031682565b620001639062000573565b620001639062000589565b634e487b7160e01b5f52604160045260245ffd5b90601f01601f1916810190811067ffffffffffffffff821117620005d657604052565b6200059f565b801515620001ad565b905051906200016a82620005dc565b9060208282031262000153576200016391620005e5565b6040513d5f823e3d90fd5b906200016a6200062560405190565b9283620005b3565b67ffffffffffffffff8111620005d657602090601f01601f19160190565b0190565b90620006656200065f836200062d565b62000616565b918252565b6200067660016200064f565b601960f91b602082015290565b620001636200066a565b6200016362000683565b5f5b838110620006a95750505f910152565b818101518382015260200162000699565b620006df620006e96020936200064b93620006d3815190565b80835293849260200190565b9586910162000697565b601f01601f191690565b60208082526200016392910190620006ba565b156200070f5750565b62000734906200071e60405190565b62461bcd60e51b815291829160048301620006f3565b0390fd5b90620007616200075b806200054d6a20a1a62fa6a0a720a3a2a960a91b62000546565b62000594565b9160206200076e60405190565b63279ee9ef60e01b815233600482015293849060249082905afa928315620007f0576200016a93620007b4915f91620007ba575b50620007ad6200068d565b9062000706565b62000836565b620007e1915060203d602011620007e8575b620007d88183620005b3565b810190620005f4565b5f620007a2565b503d620007cc565b6200060b565b906200051d9062000594565b906200081662000163620008329262000594565b82546001600160a01b0319166001600160a01b03919091161790565b9055565b907fdf5cc1e6ccbcc3e630a094ac1ffa53de2bfc5b96d3a0dba579eddbc66c3956889162000871826200086b836001620007f6565b62000802565b6200089d6200087f60405190565b928392836001600160a01b0391821681529116602082015260400190565b0390a1565b906200016a9162000738565b620008d06200075b806200054d6a20a1a62fa6a0a720a3a2a960a91b62000546565b906020620008dd60405190565b63279ee9ef60e01b815233600482015292839060249082905afa918215620007f0576200016a926200091b915f91620007ba5750620007ad6200068d565b6200016a9069434547415f454e54525960b01b620010ec565b6200016a90620008ae565b620001636200054d69434547415f454e54525960b01b62000546565b93929190620009816200075b806200054d6a20a1a62fa6a0a720a3a2a960a91b62000546565b9460206200098e60405190565b63279ee9ef60e01b815233600482015296879060249082905afa958615620007f0576200016a96620009cc915f91620007ba5750620007ad6200068d565b62000c61565b50620001639060208101906200020c565b600311156200015357565b905035906200016a82620009e3565b5062000163906020810190620009ee565b634e487b7160e01b5f52602160045260245ffd5b6003111562000a2d57565b62000a0e565b906200016a8262000a22565b620001639062000a33565b620001669062000a3f565b906200064b8160209362000a4a565b9035601e1936839003018112156200015357016020813591019167ffffffffffffffff8211620001535760208202360383136200015357565b6001600160e01b03198116620001ad565b905035906200016a8262000a9d565b506200016390602081019062000aae565b905f825b82821062000ae1575050505090565b9091929362000b1562000b0e60019262000afc888662000abd565b6001600160e01b031916815260200190565b9560200190565b9392019062000ad2565b9062000163929162000ace565b62000b7d62000b7162000b5c620001639462000b4b5f860186620009d2565b6001600160a01b0316815260200190565b62000b6b6020850185620009fd565b62000a55565b91604081019062000a64565b9062000b1f565b90620001639162000b2c565b9035605e19368390030181121562000153570190565b905f825b82821062000bb9575050505090565b9091929362000bda62000b0e60019262000bd4888662000b90565b62000b84565b9392019062000baa565b9091620001639262000ba6565b62000c0962000bff60405190565b9283928362000be4565b03902090565b90825f939282370152565b9190620006e98162000c34816200064b9560209181520190565b809562000c0f565b6001600160a01b03919091168152604060208201819052620001639391019162000c1a565b62000cb87f29dda07dbc47d3fd27020fc00e7b26144d02d1ba982143b6622f3e8a405ed34294939262000ccd9262000cb2888787858562000cac69434547415f454e54525960b01b90565b620012d5565b62000bf1565b9462000cc360405190565b9384938462000c3c565b0390a2565b906200016a949392916200095b565b62000d036200075b806200054d6a20a1a62fa6a0a720a3a2a960a91b62000546565b90602062000d1060405190565b63279ee9ef60e01b815233600482015292839060249082905afa918215620007f0576200016a9262000d4e915f91620007ba5750620007ad6200068d565b6200016a906f151490511157d5d25393915497d3919560821b620010ec565b6200016a9062000ce1565b620001636200054d7021a2a3a0afa322a2afa922a1a2a4ab22a960791b62000546565b620001636200054d6a20a1a62fa6a0a720a3a2a960a91b62000546565b62000dda6200075b806200054d6a20a1a62fa6a0a720a3a2a960a91b62000546565b90602062000de760405190565b63279ee9ef60e01b815233600482015292839060249082905afa918215620007f0576200016a9262000e25915f91620007ba5750620007ad6200068d565b6200016a907021a2a3a0afa322a2afa922a1a2a4ab22a960791b620010ec565b6200016a9062000db8565b62000e726200075b806200054d6a20a1a62fa6a0a720a3a2a960a91b62000546565b90602062000e7f60405190565b63279ee9ef60e01b815233600482015292839060249082905afa918215620007f0576200016a9262000ebd915f91620007ba5750620007ad6200068d565b6200016a90702922a222a827a9a4aa2fa6a0a720a3a2a960791b620010ec565b6200016a9062000e50565b6200054d620001639162000ef95f90565b506001620007f6565b9062000f256200075b806200054d6a20a1a62fa6a0a720a3a2a960a91b62000546565b91602062000f3260405190565b63279ee9ef60e01b815233600482015293849060249082905afa928315620007f0576200016a9362000f70915f91620007ba5750620007ad6200068d565b906200016a91620010ec565b906200016a9162000f02565b62000faa6200075b806200054d6a20a1a62fa6a0a720a3a2a960a91b62000546565b90602062000fb760405190565b63279ee9ef60e01b815233600482015292839060249082905afa918215620007f0576200016a9262000ff5915f91620007ba5750620007ad6200068d565b6200016a906a434547415f4f5241434c4560a81b620010ec565b6200016a9062000f88565b620001636200054d6a434547415f4f5241434c4560a81b62000546565b620001636200054d702922a222a827a9a4aa2fa6a0a720a3a2a960791b62000546565b6200107c6200075b806200054d6a20a1a62fa6a0a720a3a2a960a91b62000546565b9060206200108960405190565b63279ee9ef60e01b815233600482015292839060249082905afa918215620007f0576200016a92620010c7915f91620007ba5750620007ad6200068d565b6200016a906a20a1a62fa6a0a720a3a2a960a91b620010ec565b6200016a906200105a565b9062001129620011226200111b620011096200054d865f6200051b565b9462000163856200086b835f6200051b565b9362000594565b9162000594565b917f9ef0e8c8e52743bb38b83b17d9429141d494b8041ca6d616a6c77cebae9cd8b76200115560405190565b5f90a4565b6200015762000163620001639290565b62000163906200115a565b818352602090920191905f825b82821062001191575050505090565b90919293620011ac62000b0e60019262000afc888662000abd565b9392019062001182565b620001639160608101916200120b90620011e2620011d58280620009d2565b6001600160a01b03168452565b62001200620011f56020830183620009fd565b602085019062000a4a565b604081019062000a64565b91604081850391015262001175565b906200016391620011b6565b8183529160200190816200123d6020830284019490565b92835f925b848410620012535750505050505090565b9091929394956020620012846200127d8385600195038852620012778b8862000b90565b6200121a565b9860200190565b94019401929493919062001242565b606080825262000163969495939192620012c792620012b59285019162001226565b6001600160a01b039095166020830152565b604081850391015262000c1a565b9294909394620012ea6200054d855f6200051b565b620012f9620001575f6200116a565b6001600160a01b03821603620014375750620013153062000594565b60405190611a53820182811067ffffffffffffffff821117620005d65782916200135591611a53620014e985396001600160a01b03909116815260200190565b03905ff08015620007f0576200075b6200075b620013739262000594565b95863b1562000153575f91620013a76200138c60405190565b94859384936307e4c70760e21b8552888b6004870162001293565b038183895af18015620007f057620013e993620013e292620013db9262001415575b5062000163876200086b835f6200051b565b9462000594565b9262000bf1565b917f09523ab67156b124f7a934ad79a5a6806193d4de9641681697483b9095fe5e746200115560405190565b62001430905f620014278183620005b3565b81019062000148565b5f620013c9565b620014509193929694506200075b6200075b9162000594565b90813b1562000153575f8385938383896200148a8c6200146f60405190565b998a97889687956307e4c70760e21b87526004870162001293565b03925af1908115620007f0577f29dda07dbc47d3fd27020fc00e7b26144d02d1ba982143b6622f3e8a405ed3429562000ccd9362000cb893620014cf575b5062000bf1565b620014e1905f620014278183620005b3565b5f620014c856fe60806040526200001862000012620000ca565b620000ed565b6040516117ea6200026982396117ea90f35b634e487b7160e01b5f52604160045260245ffd5b90601f01601f191681019081106001600160401b038211176200006057604052565b6200002a565b906200007d6200007560405190565b92836200003e565b565b6001600160a01b031690565b90565b6001600160a01b03811603620000a057565b5f80fd5b905051906200007d826200008e565b90602082820312620000a0576200008b91620000a4565b6200008b62001a5380380380620000e18162000066565b928339810190620000b3565b6200007d9062000165565b546001600160a01b031690565b6200008b906200007f906001600160a01b031682565b6200008b9062000105565b6200008b906200011b565b90620001456200008b620001619262000126565b82546001600160a01b0319166001600160a01b03919091161790565b9055565b6200019e620001976004620001796200025e565b0162000191846200018a83620000f8565b9262000131565b62000126565b9162000126565b907f8be0079c531659141344cd1fd0a4f28419497f9722a3daafe3b4186f6b6457e0620001ca60405190565b5f90a3565b6200008b6200008b6200008b9290565b6200008b90620001cf565b634e487b7160e01b5f52601160045260245ffd5b919082039182116200020c57565b620001ea565b6200008b62000258620002457f11cac52ac9aac3f05b98c564845f9cbef3a9feb42b2c77780d0605eb87044b24620001df565b620002516001620001cf565b90620001fe565b620001cf565b6200008b6200021256fe60806040526004361015610015575b3661041857005b5f3560e01c631f931c1c0361000e57610119565b909182601f830112156100595781359167ffffffffffffffff831161005957602001926020830284011161005957565b5f80fd5b6001600160a01b031690565b90565b6001600160a01b0381165b0361005957565b9050359061008b8261006c565b565b909182601f830112156100595781359167ffffffffffffffff831161005957602001926001830284011161005957565b919060608382031261005957823567ffffffffffffffff811161005957816100e6918501610029565b9290936100f6836020830161007e565b92604082013567ffffffffffffffff811161005957610115920161008d565b9091565b346100595761013561012c3660046100bd565b9392909261036a565b604051005b634e487b7160e01b5f52604160045260245ffd5b90601f01601f1916810190811067ffffffffffffffff82111761017057604052565b61013a565b9061008b61018260405190565b928361014e565b67ffffffffffffffff81116101705760208091020190565b6003111561005957565b9050359061008b826101a1565b6001600160e01b03198116610077565b9050359061008b826101b8565b909291926101ea6101e582610189565b610175565b938185526020808601920283019281841161005957915b83831061020e5750505050565b6020809161021c84866101c8565b815201920191610201565b9080601f8301121561005957816020610069933591016101d5565b919091606081840312610059576102596060610175565b92610264818361007e565b845261027381602084016101ab565b6020850152604082013567ffffffffffffffff8111610059576102969201610227565b6040830152565b9291906102ac6101e582610189565b93818552602080860192028101918383116100595781905b8382106102d2575050505050565b813567ffffffffffffffff8111610059576020916102f38784938701610242565b8152019101906102c4565b61006991369161029d565b67ffffffffffffffff811161017057602090601f01601f19160190565b0190565b90825f939282370152565b909291926103456101e582610309565b93818552818301116100595761008b91602085019061032a565b610069913691610335565b936103836103899261008b9661037e6104db565b6102fe565b9361035f565b91610719565b906001600160e01b0319165b5f5260205260405f2090565b61005d6100696100699290565b610069906103a7565b156103c457565b60405162461bcd60e51b815260206004820152602260248201527f43656761456e7472793a2046756e6374696f6e20646f6573206e6f74206578696044820152611cdd60f21b6064820152608490fd5b0390fd5b5f8061044b8161043d8161042a610945565b83356001600160e01b031916910161038f565b01546001600160a01b031690565b61046b61045a61005d846103b4565b6001600160a01b03831614156103bd565b368280378136915af43d5f803e15610481573d5ff35b3d5ffd5b1561048c57565b60405162461bcd60e51b815260206004820152602160248201527f43656761456e7472793a204d75737420626520636f6e7472616374206f776e656044820152603960f91b6064820152608490fd5b61008b6104ee61005d600461043d610945565b3314610485565b60010190565b634e487b7160e01b5f52603260045260245ffd5b90610518825190565b811015610529576020809102010190565b6104fb565b634e487b7160e01b5f52602160045260245ffd5b6003111561054c57565b61052e565b9061008b82610542565b6100699051610551565b9052565b61006990610551565b61056590610569565b9061059b61059461058a845190565b8084529260200190565b9260200190565b905f5b8181106105ab5750505090565b9091926105d26105cb60019286516001600160e01b031916815260200190565b9460200190565b92910161059e565b80516001600160a01b0316825261006991606081019160409061060560208201516020850190610572565b015190604081840391015261057b565b90610069916105da565b9061063561062b835190565b8083529160200190565b90816106476020830284019460200190565b925f915b83831061065a57505050505090565b9091929394602061067d61067683856001950387528951610615565b9760200190565b930193019193929061064b565b5f5b83811061069b5750505f910152565b818101518382015260200161068c565b6106cc6106d5602093610326936106c0815190565b80835293849260200190565b9586910161068a565b601f01601f191690565b6060808252610069949261070c916106fa919084019061061f565b6001600160a01b039094166020830152565b60408184039101526106ab565b9290915f5b610729610069865190565b81101561087d57610746602061073f838861050f565b510161055b565b61074f5f610551565b61075882610551565b0361079c5750806104f56107825f610773610797958a61050f565b5101516001600160a01b031690565b604061078e848a61050f565b51015190610ddc565b61071e565b6107a66001610551565b6107af82610551565b036107df5750806104f56107ca5f610773610797958a61050f565b60406107d6848a61050f565b51015190610c03565b6107f26107ec6002610551565b91610551565b0361082157806104f561080c5f610773610797958a61050f565b6040610818848a61050f565b51015190610a24565b60405162461bcd60e51b815260206004820152602e60248201527f43656761456e7472793a20496e636f72726563742050726f7879496d706c656d60448201526d32b73a30ba34b7b720b1ba34b7b760911b6064820152608490fd5b509092917f8faa70878671ccd212d20771b795c50af8fd3ff6cf27f4bde57e5d4de0aeb6738161008b946108bd856108b460405190565b938493846106df565b0390a161101f565b6100696100696100699290565b610069906108c5565b634e487b7160e01b5f52601160045260245ffd5b919082039182116108fc57565b6108db565b6100696109406109307f11cac52ac9aac3f05b98c564845f9cbef3a9feb42b2c77780d0605eb87044b246108d2565b61093a60016108c5565b906108ef565b6108c5565b610069610901565b1561095457565b60405162461bcd60e51b815260206004820152603060248201527f43656761456e7472793a204e6f2073656c6563746f727320696e20696d706c6560448201526f1b595b9d185d1a5bdb881d1bc818dd5d60821b6064820152608490fd5b156109b957565b60405162461bcd60e51b815260206004820152603b60248201527f43656761456e7472793a2052656d6f766520696d706c656d656e746174696f6e60448201527f2061646472657373206d757374206265206164647265737328302900000000006064820152608490fd5b9190610a47610a31825190565b610a41610a3d5f6108c5565b9190565b1161094d565b610a75610a52610945565b93610a6f610a6261005d5f6103b4565b916001600160a01b031690565b146109b2565b5f5b610a82610069835190565b811015610ac457806104f5610aab610a9d610abf948661050f565b516001600160e01b03191690565b610ab95f61043d838a61038f565b8761145c565b610a77565b50509050565b15610ad157565b60405162461bcd60e51b815260206004820152603560248201527f43656761456e7472793a205265706c61636520696d706c656d656e746174696f6044820152746e2063616e2774206265206164647265737328302960581b6064820152608490fd5b6100699061005d906001600160a01b031682565b61006990610b34565b61006990610b48565b9061039b90610b51565b610b716100696100699290565b6001600160601b031690565b15610b8457565b60405162461bcd60e51b815260206004820152603460248201527f43656761456e7472793a2043616e2774207265706c6163652066756e6374696f60448201527337103bb4ba341039b0b6b290333ab731ba34b7b760611b6064820152608490fd5b6001600160601b03166001600160601b0381146108fc5760010190565b919091610c11610a31845190565b610c19610945565b610c39610c2861005d5f6103b4565b6001600160a01b0384161415610aca565b610c57610c525f610c4d8560018601610b5a565b015490565b610b64565b9384610c72610c655f610b64565b916001600160601b031690565b14610d01575b5f945b610c86610069835190565b861015610cf957610cec81610ce786610cf3945f610ce189610cbd838f610cb3610a9d61043d928f61050f565b809681950161038f565b610cdb6001600160a01b0387166001600160a01b0383161415610b7d565b8b61145c565b88611725565b610be6565b9560010190565b94610c7b565b505050509050565b610d0b83836116a0565b610c78565b15610d1757565b60405162461bcd60e51b815260206004820152603160248201527f43656761456e7472793a2041646420696d706c656d656e746174696f6e2063616044820152706e2774206265206164647265737328302960781b6064820152608490fd5b15610d7d57565b60405162461bcd60e51b815260206004820152603160248201527f43656761456e7472793a2043616e2774206164642066756e6374696f6e207468604482015270617420616c72656164792065786973747360781b6064820152608490fd5b919091610dea610a31845190565b610df2610945565b610dfb5f6103b4565b90610e1a6001600160a01b0383166001600160a01b0385161415610d10565b610e2e610c525f610c4d8660018601610b5a565b9485610e3c610c655f610b64565b14610eb4575b5f955b610e50610069835190565b871015610eab57610e9e81610ce787610ea5945f610ce1610e86828f8c610e7d610a9d61043d938f61050f565b9586910161038f565b610e986001600160a01b038d16610a62565b14610d76565b9660010190565b95610e45565b50505050509050565b610ebe84836116a0565b610e42565b15610eca57565b60405162461bcd60e51b815260206004820152603960248201527f43656761456e7472793a205f63616c6c6461746120697320656d70747920627560448201527f74205f696e6974206973206e6f742061646472657373283029000000000000006064820152608490fd5b90610f426101e583610309565b918252565b610f516024610f35565b7f43656761456e7472793a205f696e6974206164647265737320686173206e6f20602082015263636f646560e01b604082015290565b610069610f47565b3d15610fa857610f9e3d610f35565b903d5f602084013e565b606090565b15610fb457565b60405162461bcd60e51b815260206004820152603960248201527f43656761456e7472793a205f696e69742069732061646472657373283029206260448201527f7574205f63616c6c64617461206973206e6f7420656d707479000000000000006064820152608490fd5b61102b61005d5f6103b4565b6001600160a01b0382160361105257505161008b9061104c610a3d5f6108c5565b14610fad565b815f929161107461106285945190565b61106e610a3d866108c5565b11610ec3565b61108061005d30610b51565b6001600160a01b0382160361111c575b602082519201905af46110a96110a4610f8f565b911590565b6110b05750565b80516110be610a3d5f6108c5565b11156110cc57602081519101fd5b60405162461bcd60e51b815260206004820152602260248201527f43656761456e7472793a205f696e69742066756e6374696f6e20726576657274604482015261195960f21b6064820152608490fd5b61112d611127610f87565b8261179c565b611090565b1561113957565b60405162461bcd60e51b815260206004820152603360248201527f43656761456e7472793a2043616e27742072656d6f76652066756e6374696f6e604482015272081d1a185d08191bd95cdb89dd08195e1a5cdd606a1b6064820152608490fd5b156111a157565b60405162461bcd60e51b815260206004820152602a60248201527f43656761456e7472793a2043616e27742072656d6f766520696d6d757461626c6044820152693290333ab731ba34b7b760b11b6064820152608490fd5b6100699060a01c610b71565b61006990546111f9565b610069610069610069926001600160601b031690565b80549192918310156105295760086112426004925f5260205f2090565b8185040193060290565b610069916008021c60e01b90565b90610069915461124c565b9190600861128191029161127c63ffffffff841b90565b921b90565b9181191691161790565b91906112aa6112a46112b2936001600160e01b03191690565b60e01c90565b908354611265565b9055565b906001600160a01b03199060a01b611281565b610b71610069610069926001600160601b031690565b906112ef6100696112b2926112c9565b82546112b6565b634e487b7160e01b5f52603160045260245ffd5b61008b915f9161128b565b80548015611337575f19019061133461132e8383611225565b9061130a565b55565b6112f6565b634e487b7160e01b5f525f60045260245ffd5b905f0361135b575f9055565b61133c565b6100699081565b6100699054611360565b8054821015610529576113896001915f5260205f2090565b910201905f90565b610069916008021c61005d565b906100699154611391565b916001600160a01b0360089290920291821b911b611281565b91906113d36100696112b293610b51565b9083546113a9565b905f1990611281565b906113f46100696112b2926108c5565b82546113db565b61008b915f916113c2565b80548015611337575f19019061133461141f8383611371565b906113fb565b915f1960089290920291821b911b611281565b91906114496100696112b2936108c5565b908354611425565b61008b915f91611438565b909161147e61146d61005d5f6103b4565b6001600160a01b0385161415611132565b61149e61148d61005d30610b51565b6001600160a01b038516141561119a565b816114bb6114b65f6114b0858561038f565b01611205565b61120f565b6115175f6115126114d382610c4d8a60018901610b5a565b956114e360019761093a896108c5565b94898888888085036115d3575b5091509150019761150d611508856103268d8d610b5a565b611315565b61038f565b61134f565b611523610a3d5f6108c5565b1461152f575b50505050565b611589935f9361157e6115796002611583950161155661154d825490565b61093a896108c5565b61156a886115648888610b5a565b01611367565b88828203611592575b50505090565b611406565b610b5a565b01611451565b5f808080611529565b6115c56115ab6115a56115cb9587611371565b9061139e565b6115bf816115b98689611371565b906113c2565b88610b5a565b016113e4565b5f8088611573565b84610c5285611613611626988c6115ff61160b61160561161999846115ff819e6116209e01998a610b5a565b01611225565b9061125a565b9a8b95610b5a565b9061128b565b928c61038f565b016112df565b5f898888886114f0565b61163a6029610f35565b7f43656761456e7472793a204e657720696d706c656d656e746174696f6e20686160208201526873206e6f20636f646560b81b604082015290565b610069611630565b90815491600160401b83101561017057826115b991600161008b95018155611371565b906116d761008b926116b96116b3611675565b8461179c565b610069600282019160016115c586826116d0875490565b9401610b5a565b61167d565b90815491600160401b831015610170578261161391600161008b95018155611225565b906001600160a01b0390611281565b9061171e6100696112b292610b51565b82546116ff565b81849361150d5f946117568661032661008b9a600161175b9961175085820199866116208a8d61038f565b01610b5a565b6116dc565b0161170e565b6020808252610069929101906106ab565b1561177a5750565b6104149061178760405190565b62461bcd60e51b815291829160048301611761565b9061008b913b6117ae610a3d5f6108c5565b1161177256fea2646970667358221220b503253768454b2b35fe1ea1298f38ff58be0cdea5cab2e5657a79f80bfe332864736f6c63430008180033a2646970667358221220b9fc79d6bd9d7c914077cbd33f6be3a0a01a979912dc9556226e64cde273cb9f64736f6c63430008180033",
  "linkReferences": {},
  "deployedLinkReferences": {}
}