{
  "_format": "hh-sol-artifact-1",
  "contractName": "OracleEntry",
  "sourceName": "contracts/oracle-entry/OracleEntry.sol",
  "abi": [
    {
      "inputs": [
        {
          "internalType": "contract IAddressManager",
          "name": "_addressManager",
          "type": "address"
        }
      ],
      "stateMutability": "nonpayable",
      "type": "constructor"
    },
    {
      "anonymous": false,
      "inputs": [
        {
          "indexed": false,
          "internalType": "enum IOracleEntry.DataSource",
          "name": "dataSource",
          "type": "uint8"
        },
        {
          "indexed": false,
          "internalType": "address",
          "name": "adapter",
          "type": "address"
        }
      ],
      "name": "DataSourceAdapterSet",
      "type": "event"
    },
    {
      "inputs": [],
      "name": "TARGET_DECIMALS",
      "outputs": [
        {
          "internalType": "uint8",
          "name": "",
          "type": "uint8"
        }
      ],
      "stateMutability": "view",
      "type": "function"
    },
    {
      "inputs": [
        {
          "internalType": "enum IOracleEntry.DataSource",
          "name": "",
          "type": "uint8"
        }
      ],
      "name": "adapters",
      "outputs": [
        {
          "internalType": "address",
          "name": "",
          "type": "address"
        }
      ],
      "stateMutability": "view",
      "type": "function"
    },
    {
      "inputs": [],
      "name": "addressManager",
      "outputs": [
        {
          "internalType": "contract IAddressManager",
          "name": "",
          "type": "address"
        }
      ],
      "stateMutability": "view",
      "type": "function"
    },
    {
      "inputs": [
        {
          "internalType": "address",
          "name": "baseAsset",
          "type": "address"
        },
        {
          "internalType": "address",
          "name": "quoteAsset",
          "type": "address"
        },
        {
          "internalType": "uint40",
          "name": "timestamp",
          "type": "uint40"
        },
        {
          "internalType": "enum IOracleEntry.DataSource",
          "name": "dataSource",
          "type": "uint8"
        }
      ],
      "name": "getPrice",
      "outputs": [
        {
          "internalType": "uint128",
          "name": "",
          "type": "uint128"
        }
      ],
      "stateMutability": "view",
      "type": "function"
    },
    {
      "inputs": [
        {
          "internalType": "address",
          "name": "asset",
          "type": "address"
        },
        {
          "internalType": "uint40",
          "name": "timestamp",
          "type": "uint40"
        },
        {
          "internalType": "enum IOracleEntry.DataSource",
          "name": "dataSource",
          "type": "uint8"
        }
      ],
      "name": "getSinglePrice",
      "outputs": [
        {
          "internalType": "uint128",
          "name": "",
          "type": "uint128"
        }
      ],
      "stateMutability": "view",
      "type": "function"
    },
    {
      "inputs": [],
      "name": "getTargetDecimals",
      "outputs": [
        {
          "internalType": "uint8",
          "name": "",
          "type": "uint8"
        }
      ],
      "stateMutability": "pure",
      "type": "function"
    },
    {
      "inputs": [
        {
          "internalType": "enum IOracleEntry.DataSource",
          "name": "dataSource",
          "type": "uint8"
        },
        {
          "internalType": "address",
          "name": "adapter",
          "type": "address"
        }
      ],
      "name": "setDataSourceAdapter",
      "outputs": [],
      "stateMutability": "nonpayable",
      "type": "function"
    }
  ],
  "bytecode": "0x60806040523462000031575b6200001f62000019620000f7565b6200017a565b604051610a16620001888239610a1690f35b6200003a600080fd5b6200000b565b600080fd5b50634e487b7160e01b600052604160045260246000fd5b90601f01601f191681019081106001600160401b038211176200007e57604052565b6200008862000045565b604052565b90620000a46200009c60405190565b92836200005c565b565b6001600160a01b031690565b90565b6001600160a01b038116036200004057565b90505190620000a482620000b5565b90620000b29160208183031215620000c757620000f1600080fd5b620000c7565b620000b262000b9e803803806200010e816200008d565b928339810190620000d6565b620000b290620000a6906001600160a01b031682565b620000b2906200011a565b620000b29062000130565b906200015a620000b262000176926200013b565b82546001600160a01b0319166001600160a01b03919091161790565b9055565b620000a49060006200014656fe60806040526004361015610018575b610016600080fd5b005b60003560e01c80633ab76e9f1461009b5780638670588b146100805780639a53369814610092578063bb1e145214610089578063c0dd700214610080578063fc6d4515146100775763ffc959330361000e5761007261041d565b61000e565b506100726103b6565b5061007261018e565b506100726102ea565b50610072610264565b5061007261012f565b600080fd5b60009103126100b457565b6100bc600080fd5b565b6100d3916008021c5b6001600160a01b031690565b90565b906100d391546100be565b6100d36000806100d6565b6100d3906100c7906001600160a01b031682565b6100d3906100ec565b6100d390610100565b61011b90610109565b9052565b6020810192916100bc9190610112565b503461015c575b6101413660046100a9565b61015861014c6100e1565b6040519182918261011f565b0390f35b610164600080fd5b610136565b6101766100d36100d39290565b60ff1690565b6100d36012610169565b6100d361017c565b50346101bf575b6101a03660046100a9565b6101586101ab610186565b6040519182918260ff909116815260200190565b6101c7600080fd5b610195565b6101d5816100c7565b036100a457565b905035906100bc826101cc565b64ffffffffff81166101d5565b905035906100bc826101e9565b600211156100a457565b905035906100bc82610203565b608081830312610257575b61022f82826101dc565b926100d361024084602085016101dc565b9361024e81604086016101f6565b9360600161020d565b61025f600080fd5b610225565b503461029f575b61015861028561027c36600461021a565b929190916105c7565b604051918291826001600160801b03909116815260200190565b6102a7600080fd5b61026b565b90916060828403126102dd575b6100d36102c684846101dc565b936102d481602086016101f6565b9360400161020d565b6102e5600080fd5b6102b9565b5034610308575b6101586102856103023660046102ac565b91610508565b610310600080fd5b6102f1565b906100d3916020818303121561020d5761032d600080fd5b61020d565b50634e487b7160e01b600052602160045260246000fd5b6002111561035357565b6100bc610332565b906100bc82610349565b6100d39061035b565b9061037890610365565b600052602052604060002090565b6100d39061039860019160009261036e565b6100d6565b61011b906100c7565b6020810192916100bc919061039d565b50346103df575b6101586103d36103ce366004610315565b610386565b604051918291826103a6565b6103e7600080fd5b6103bd565b91906100d390604084820312610410575b610407818561020d565b936020016101dc565b610418600080fd5b6103fd565b503461043d575b6104386104323660046103ec565b90610951565b604051005b610445600080fd5b610424565b601f01601f191690565b50634e487b7160e01b600052604160045260246000fd5b90601f01601f1916810190811067ffffffffffffffff82111761048d57604052565b610495610454565b604052565b6001600160801b0381166101d5565b905051906100bc8261049a565b906100d391602081830312156104a9576104ce600080fd5b6104a9565b9160206100bc9294936104ee6040820196600083019061039d565b019064ffffffffff169052565b506040513d6000823e3d90fd5b6105256105206020939461051a600090565b50610999565b610109565b61054663307767d061055161053960405190565b9687958694859460e01b90565b8452600484016104d3565b03915afa908115610590575b600091610568575090565b6100d3915060203d8111610589575b610581818361046b565b8101906104b6565b503d610577565b6105986104fb565b61055d565b6040906104ee6100bc94969593966105bd6060840198600085019061039d565b602083019061039d565b9092916105fe6105de61052060209561051a600090565b91610551636d7110b4916105f160405190565b9788968795869560e01b90565b85526004850161059d565b6100d3906100c7565b6100d39054610609565b905051906100bc826101cc565b906100d3916020818303121561061c57610641600080fd5b61061c565b8015156101d5565b905051906100bc82610646565b906100d3916020818303121561064e57610673600080fd5b61064e565b906100bc61068560405190565b928361046b565b6106ab60209167ffffffffffffffff81116106af57601f01601f191690565b0190565b61044a610454565b906106c96106c48361068c565b610678565b918252565b6106d860016106b7565b601960f91b602082015290565b6100d36106ce565b6100d36106e5565b60005b8381106107085750506000910152565b81810151838201526020016106f8565b61073961044a6020936106ab9361072d815190565b80835293849260200190565b958691016106f5565b60208082526100d392910190610718565b1561075b5750565b61077d9061076860405190565b62461bcd60e51b815291829160048301610742565b0390fd5b906100bc9161082b61080860206107dc6105206107bd836107a56105206000610612565b63707cd716906107b460405190565b93849260e01b90565b825260049082905afa908115610898575b60009161086b575b50610109565b63279ee9ef906107fd33926107f060405190565b9586948593849360e01b90565b8352600483016103a6565b03915afa90811561085e575b600091610830575b506108256106ed565b90610753565b610900565b610851915060203d8111610857575b610849818361046b565b81019061065b565b3861081c565b503d61083f565b6108666104fb565b610814565b61088b9150843d8111610891575b610883818361046b565b810190610629565b386107d6565b503d610879565b6108a06104fb565b6107ce565b906108b56100d36108d192610109565b82546001600160a01b0319166001600160a01b03919091161790565b9055565b61011b90610365565b9160206100bc9294936108f9604082019660008301906108d5565b019061039d565b906109158161091084600161036e565b6108a5565b7f3d110c66cfaa8f5065ff586e0816b985ae9a6de1b1ab7e77ace741a27e853f759161094c61094360405190565b928392836108de565b0390a1565b906100bc91610781565b6100c76100d36100d39290565b6100d39061095b565b61097b60026106b7565b61064760f31b602082015290565b6100d3610971565b6100d3610989565b6109b86109b36100d3926109ab600090565b50600161036e565b610612565b6105206109cd6109c86000610968565b6100c7565b6109d6836100c7565b141561082561099156fea26469706673582212206675705d8df8003b8ecd620f8f7c5a87bc7031f364b8735c91259bdd856a2d6364736f6c63430008110033",
  "linkReferences": {},
  "deployedLinkReferences": {}
}