{
  "_format": "hh-sol-artifact-1",
  "contractName": "OracleEntry",
  "sourceName": "contracts/oracle-entry/OracleEntry.sol",
  "abi": [
    {
      "inputs": [
        {
          "internalType": "contract IAddressManager",
          "name": "_addressManager",
          "type": "address"
        }
      ],
      "stateMutability": "nonpayable",
      "type": "constructor"
    },
    {
      "anonymous": false,
      "inputs": [
        {
          "indexed": false,
          "internalType": "enum IOracleEntry.DataSource",
          "name": "dataSource",
          "type": "uint8"
        },
        {
          "indexed": false,
          "internalType": "address",
          "name": "adapter",
          "type": "address"
        }
      ],
      "name": "DataSourceAdapterSet",
      "type": "event"
    },
    {
      "inputs": [],
      "name": "TARGET_DECIMALS",
      "outputs": [
        {
          "internalType": "uint8",
          "name": "",
          "type": "uint8"
        }
      ],
      "stateMutability": "view",
      "type": "function"
    },
    {
      "inputs": [
        {
          "internalType": "enum IOracleEntry.DataSource",
          "name": "",
          "type": "uint8"
        }
      ],
      "name": "adapters",
      "outputs": [
        {
          "internalType": "address",
          "name": "",
          "type": "address"
        }
      ],
      "stateMutability": "view",
      "type": "function"
    },
    {
      "inputs": [],
      "name": "addressManager",
      "outputs": [
        {
          "internalType": "contract IAddressManager",
          "name": "",
          "type": "address"
        }
      ],
      "stateMutability": "view",
      "type": "function"
    },
    {
      "inputs": [
        {
          "internalType": "address",
          "name": "baseAsset",
          "type": "address"
        },
        {
          "internalType": "address",
          "name": "quoteAsset",
          "type": "address"
        },
        {
          "internalType": "uint40",
          "name": "timestamp",
          "type": "uint40"
        },
        {
          "internalType": "enum IOracleEntry.DataSource",
          "name": "dataSource",
          "type": "uint8"
        }
      ],
      "name": "getPrice",
      "outputs": [
        {
          "internalType": "uint128",
          "name": "",
          "type": "uint128"
        }
      ],
      "stateMutability": "view",
      "type": "function"
    },
    {
      "inputs": [
        {
          "internalType": "address",
          "name": "asset",
          "type": "address"
        },
        {
          "internalType": "uint40",
          "name": "timestamp",
          "type": "uint40"
        },
        {
          "internalType": "enum IOracleEntry.DataSource",
          "name": "dataSource",
          "type": "uint8"
        }
      ],
      "name": "getSinglePrice",
      "outputs": [
        {
          "internalType": "uint128",
          "name": "",
          "type": "uint128"
        }
      ],
      "stateMutability": "view",
      "type": "function"
    },
    {
      "inputs": [],
      "name": "getTargetDecimals",
      "outputs": [
        {
          "internalType": "uint8",
          "name": "",
          "type": "uint8"
        }
      ],
      "stateMutability": "pure",
      "type": "function"
    },
    {
      "inputs": [
        {
          "internalType": "enum IOracleEntry.DataSource",
          "name": "dataSource",
          "type": "uint8"
        },
        {
          "internalType": "address",
          "name": "adapter",
          "type": "address"
        }
      ],
      "name": "setDataSourceAdapter",
      "outputs": [],
      "stateMutability": "nonpayable",
      "type": "function"
    }
  ],
  "bytecode": "0x60806040523462000030576200001e62000018620000d0565b62000153565b6040516108d56200016082396108d590f35b5f80fd5b634e487b7160e01b5f52604160045260245ffd5b90601f01601f191681019081106001600160401b038211176200006a57604052565b62000034565b90620000876200007f60405190565b928362000048565b565b6001600160a01b031690565b90565b6001600160a01b038116036200003057565b90505190620000878262000098565b9060208282031262000030576200009591620000aa565b6200009562000a3580380380620000e78162000070565b928339810190620000b9565b620000959062000089906001600160a01b031682565b6200009590620000f3565b620000959062000109565b9062000133620000956200014f9262000114565b82546001600160a01b0319166001600160a01b03919091161790565b9055565b62000087905f6200011f56fe60806040526004361015610011575f80fd5b5f3560e01c80633ab76e9f1461007b5780638670588b1461006c5780639a53369814610076578063bb1e145214610071578063c0dd70021461006c578063fc6d4515146100675763ffc959330361008a5761035e565b610314565b610150565b61026b565b610209565b610100565b5f91031261008a57565b5f80fd5b6100a3916008021c5b6001600160a01b031690565b90565b906100a3915461008e565b6100a35f806100a6565b6100a390610097906001600160a01b031682565b6100a3906100bb565b6100a3906100cf565b6100ea906100d8565b9052565b6020810192916100fe91906100e1565b565b3461008a57610110366004610080565b61012761011b6100b1565b604051918291826100ee565b0390f35b6101386100a36100a39290565b60ff1690565b6100a3601261012b565b6100a361013e565b3461008a57610160366004610080565b61012761016b610148565b6040519182918260ff909116815260200190565b61018881610097565b0361008a57565b905035906100fe8261017f565b64ffffffffff8116610188565b905035906100fe8261019c565b6002111561008a57565b905035906100fe826101b6565b60808183031261008a576101e1828261018f565b926100a36101f2846020850161018f565b93606061020282604087016101a9565b94016101c0565b3461008a5761012761022861021f3660046101cd565b92919091610428565b604051918291826001600160801b03909116815260200190565b909160608284031261008a576100a361025b848461018f565b93604061020282602087016101a9565b3461008a57610127610228610281366004610242565b916104c9565b9060208282031261008a576100a3916101c0565b634e487b7160e01b5f52602160045260245ffd5b600211156102b957565b61029b565b906100fe826102af565b6100a3906102be565b906102db906102c8565b5f5260205260405f2090565b5f6102f66100a39260016102d1565b6100a6565b6100ea90610097565b6020810192916100fe91906102fb565b3461008a5761012761032f61032a366004610287565b6102e7565b60405191829182610304565b919060408382031261008a576100a390602061035782866101c0565b940161018f565b3461008a5761037761037136600461033b565b90610812565b604051005b634e487b7160e01b5f52604160045260245ffd5b90601f01601f1916810190811067ffffffffffffffff8211176103b257604052565b61037c565b6001600160801b038116610188565b905051906100fe826103b7565b9060208282031261008a576100a3916103c6565b6040906104106100fe949695939661040660608401985f8501906102fb565b60208301906102fb565b019064ffffffffff169052565b6040513d5f823e3d90fd5b6020929161044861044361046c9661043d5f90565b5061085a565b6100d8565b9161045260405190565b95869485938493631b5c442d60e21b8552600485016103e7565b03915afa9081156104aa575f91610481575090565b6100a3915060203d6020116104a3575b61049b8183610390565b8101906103d3565b503d610491565b61041d565b9160206100fe92949361041060408201965f8301906102fb565b906020916104de61044361046c9561043d5f90565b906104e860405190565b8095819482936104fc63307767d060e01b90565b8452600484016104af565b6100a390610097565b6100a39054610507565b905051906100fe8261017f565b9060208282031261008a576100a39161051a565b801515610188565b905051906100fe8261053b565b9060208282031261008a576100a391610543565b906100fe61057160405190565b9283610390565b67ffffffffffffffff81116103b257602090601f01601f19160190565b0190565b906105ab6105a683610578565b610564565b918252565b6105ba6001610599565b601960f91b602082015290565b6100a36105b0565b6100a36105c7565b5f5b8381106105e85750505f910152565b81810151838201526020016105d9565b6106196106226020936105959361060d815190565b80835293849260200190565b958691016105d7565b601f01601f191690565b60208082526100a3929101906105f8565b156106455750565b6106679061065260405190565b62461bcd60e51b81529182916004830161062c565b0390fd5b906106786104435f610510565b602061068360405190565b63383e6b8b60e11b815291829060049082905afa9081156104aa576106b391610443915f91610738575b506100d8565b9160206106bf60405190565b93849063279ee9ef60e01b825281806106db3360048301610304565b03915afa9283156104aa576100fe93610704915f91610709575b506106fe6105cf565b9061063d565b6107c1565b61072b915060203d602011610731575b6107238183610390565b810190610550565b5f6106f5565b503d610719565b61075a915060203d602011610760575b6107528183610390565b810190610527565b5f6106ad565b503d610748565b906107776100a3610793926100d8565b82546001600160a01b0319166001600160a01b03919091161790565b9055565b6100ea906102c8565b9160206100fe9294936107ba60408201965f830190610797565b01906102fb565b907f3d110c66cfaa8f5065ff586e0816b985ae9a6de1b1ab7e77ace741a27e853f75916107f8826107f38360016102d1565b610767565b61080d61080460405190565b928392836107a0565b0390a1565b906100fe9161066b565b6100976100a36100a39290565b6100a39061081c565b61083c6002610599565b61064760f31b602082015290565b6100a3610832565b6100a361084a565b6108786108736100a39261086b5f90565b5060016102d1565b610510565b61044361088c6108875f610829565b610097565b61089583610097565b14156106fe61085256fea26469706673582212205677ea975d350a1794924a1714718520b49c1d59ed0d3f2ac9561c5a0c692c1364736f6c63430008180033",
  "linkReferences": {},
  "deployedLinkReferences": {}
}