{
  "_format": "hh-sol-artifact-1",
  "contractName": "PythAdapter",
  "sourceName": "contracts/oracle-entry/adapters/PythAdapter.sol",
  "abi": [
    {
      "inputs": [
        {
          "internalType": "contract IAddressManager",
          "name": "_addressManager",
          "type": "address"
        },
        {
          "internalType": "contract IPyth",
          "name": "_pyth",
          "type": "address"
        }
      ],
      "stateMutability": "nonpayable",
      "type": "constructor"
    },
    {
      "anonymous": false,
      "inputs": [
        {
          "indexed": false,
          "internalType": "address",
          "name": "asset",
          "type": "address"
        },
        {
          "indexed": false,
          "internalType": "bytes32",
          "name": "priceId",
          "type": "bytes32"
        }
      ],
      "name": "AssetPriceIdSet",
      "type": "event"
    },
    {
      "anonymous": false,
      "inputs": [
        {
          "indexed": false,
          "internalType": "address",
          "name": "asset",
          "type": "address"
        },
        {
          "indexed": false,
          "internalType": "uint40",
          "name": "timestamp",
          "type": "uint40"
        },
        {
          "indexed": false,
          "internalType": "uint128",
          "name": "price",
          "type": "uint128"
        }
      ],
      "name": "AssetPriceUpdated",
      "type": "event"
    },
    {
      "inputs": [],
      "name": "MAX_TIME_AFTER",
      "outputs": [
        {
          "internalType": "uint8",
          "name": "",
          "type": "uint8"
        }
      ],
      "stateMutability": "view",
      "type": "function"
    },
    {
      "inputs": [],
      "name": "MIN_TIME_BEFORE",
      "outputs": [
        {
          "internalType": "uint8",
          "name": "",
          "type": "uint8"
        }
      ],
      "stateMutability": "view",
      "type": "function"
    },
    {
      "inputs": [],
      "name": "TARGET_DECIMALS",
      "outputs": [
        {
          "internalType": "uint8",
          "name": "",
          "type": "uint8"
        }
      ],
      "stateMutability": "view",
      "type": "function"
    },
    {
      "inputs": [],
      "name": "addressManager",
      "outputs": [
        {
          "internalType": "contract IAddressManager",
          "name": "",
          "type": "address"
        }
      ],
      "stateMutability": "view",
      "type": "function"
    },
    {
      "inputs": [
        {
          "internalType": "address",
          "name": "",
          "type": "address"
        },
        {
          "internalType": "uint40",
          "name": "",
          "type": "uint40"
        }
      ],
      "name": "assetPrices",
      "outputs": [
        {
          "internalType": "uint128",
          "name": "",
          "type": "uint128"
        }
      ],
      "stateMutability": "view",
      "type": "function"
    },
    {
      "inputs": [
        {
          "internalType": "address",
          "name": "",
          "type": "address"
        }
      ],
      "name": "assetToPriceId",
      "outputs": [
        {
          "internalType": "bytes32",
          "name": "",
          "type": "bytes32"
        }
      ],
      "stateMutability": "view",
      "type": "function"
    },
    {
      "inputs": [
        {
          "internalType": "address",
          "name": "baseAsset",
          "type": "address"
        },
        {
          "internalType": "address",
          "name": "quoteAsset",
          "type": "address"
        },
        {
          "internalType": "uint40",
          "name": "timestamp",
          "type": "uint40"
        }
      ],
      "name": "getPrice",
      "outputs": [
        {
          "internalType": "uint128",
          "name": "",
          "type": "uint128"
        }
      ],
      "stateMutability": "view",
      "type": "function"
    },
    {
      "inputs": [
        {
          "internalType": "address",
          "name": "asset",
          "type": "address"
        },
        {
          "internalType": "uint40",
          "name": "timestamp",
          "type": "uint40"
        }
      ],
      "name": "getSinglePrice",
      "outputs": [
        {
          "internalType": "uint128",
          "name": "",
          "type": "uint128"
        }
      ],
      "stateMutability": "view",
      "type": "function"
    },
    {
      "inputs": [
        {
          "internalType": "bytes32",
          "name": "",
          "type": "bytes32"
        }
      ],
      "name": "priceIdToAsset",
      "outputs": [
        {
          "internalType": "address",
          "name": "",
          "type": "address"
        }
      ],
      "stateMutability": "view",
      "type": "function"
    },
    {
      "inputs": [],
      "name": "pyth",
      "outputs": [
        {
          "internalType": "contract IPyth",
          "name": "",
          "type": "address"
        }
      ],
      "stateMutability": "view",
      "type": "function"
    },
    {
      "inputs": [
        {
          "internalType": "address",
          "name": "asset",
          "type": "address"
        },
        {
          "internalType": "bytes32",
          "name": "priceId",
          "type": "bytes32"
        }
      ],
      "name": "setAssetPriceId",
      "outputs": [],
      "stateMutability": "nonpayable",
      "type": "function"
    },
    {
      "inputs": [
        {
          "internalType": "uint40",
          "name": "timestamp",
          "type": "uint40"
        },
        {
          "internalType": "address[]",
          "name": "assets",
          "type": "address[]"
        },
        {
          "internalType": "bytes[]",
          "name": "updateDatas",
          "type": "bytes[]"
        }
      ],
      "name": "updateAssetPrices",
      "outputs": [],
      "stateMutability": "payable",
      "type": "function"
    }
  ],
  "bytecode": "0x60c0604052346200005357620000216200001862000105565b9060805260a052565b60405161146d6200012d823960805181818161035a0152610ff0015260a0518181816105850152610c90015261146d90f35b5f80fd5b634e487b7160e01b5f52604160045260245ffd5b90601f01601f191681019081106001600160401b038211176200008d57604052565b62000057565b90620000aa620000a260405190565b92836200006b565b565b90565b6001600160a01b031690565b620000c681620000af565b036200005357565b90505190620000aa82620000bb565b91906040838203126200005357620000ac906020620000fd8286620000ce565b9401620000ce565b620001286200159a803803806200011c8162000093565b928339810190620000dd565b909156fe60806040526004361015610011575f80fd5b5f3560e01c80630d4702e1146100d05780632c9c20ea146100cb578063307767d0146100c657806330a209f2146100c15780633ab76e9f146100bc578063574badaf146100b75780636d7110b4146100b25780638670588b146100ad578063a856bd1d146100a8578063f4a22d40146100a3578063f529bd371461009e5763f98d06f0036100e557610570565b610557565b610518565b610498565b61046b565b61043d565b6103df565b610345565b6102fd565b610298565b61024a565b610182565b64ffffffffff81165b036100e557565b5f80fd5b905035906100f6826100d5565b565b909182601f830112156100e55781359167ffffffffffffffff83116100e55760200192602083028401116100e557565b6060818303126100e55761013c82826100e9565b92602082013567ffffffffffffffff81116100e5578361015d9184016100f8565b929093604082013567ffffffffffffffff81116100e55761017e92016100f8565b9091565b610199610190366004610128565b93929092610bd5565b604051005b0390f35b6001600160a01b031690565b90565b6001600160a01b0381166100de565b905035906100f6826101b1565b906020828203126100e5576101ae916101c0565b6101ae906101a2906001600160a01b031682565b6101ae906101e1565b6101ae906101f5565b90610211906101fe565b5f5260205260405f2090565b6101ae916008021c81565b906101ae915461021d565b5f6102416101ae9282610207565b610228565b9052565b346100e55761019e6102656102603660046101cd565b610233565b6040519182918290815260200190565b91906040838203126100e5576101ae90602061029182866101c0565b94016100e9565b346100e55761019e6102b46102ae366004610275565b90610e4b565b604051918291826001600160801b03909116815260200190565b5f9103126100e557565b6102e56101ae6101ae9290565b60ff1690565b6101ae60046102d8565b6101ae6102eb565b346100e55761030d3660046102ce565b61019e6103186102f5565b6040519182918260ff909116815260200190565b610246906101fe565b6020810192916100f6919061032c565b346100e5576103553660046102ce565b61019e7f00000000000000000000000000000000000000000000000000000000000000005b60405191829182610335565b806100de565b905035906100f682610386565b906020828203126100e5576101ae9161038c565b90610211565b6101ae916008021c6101a2565b906101ae91546103b3565b5f6103da6101ae9260016103ad565b6103c0565b346100e55761019e6103fa6103f5366004610399565b6103cb565b604051918291826001600160a01b03909116815260200190565b90916060828403126100e5576101ae61042d84846101c0565b93604061029182602087016101c0565b346100e55761019e6102b4610453366004610414565b91610ee8565b6101ae60126102d8565b6101ae610459565b346100e55761047b3660046102ce565b61019e610318610463565b6101ae600a6102d8565b6101ae610486565b346100e5576104a83660046102ce565b61019e610318610490565b6104c76101ae6101ae9264ffffffffff1690565b64ffffffffff1690565b90610211906104b3565b6101ae916008021c5b6001600160801b031690565b906101ae91546104db565b6105136101ae9261050e5f936002610207565b6104d1565b6104f0565b346100e55761019e6102b461052e366004610275565b906104fb565b91906040838203126100e5576101ae90602061055082866101c0565b940161038c565b346100e55761019961056a366004610534565b906111c1565b346100e5576105803660046102ce565b61019e7f000000000000000000000000000000000000000000000000000000000000000061037a565b634e487b7160e01b5f52604160045260245ffd5b90601f01601f1916810190811067ffffffffffffffff8211176105df57604052565b6105a9565b906100f66105f160405190565b92836105bd565b67ffffffffffffffff81116105df5760208091020190565b9061062261061d836105f8565b6105e4565b918252565b369037565b906100f661064261063c84610610565b936105f8565b601f190160208401610627565b6101ae6101ae6101ae9290565b634e487b7160e01b5f52603260045260245ffd5b9190811015610680576020020190565b61065c565b356101ae816101b1565b6101ae9081565b6101ae905461068f565b906106a9825190565b811015610680576020809102010190565b67ffffffffffffffff81116105df57602090601f01601f19160190565b0190565b9061062261061d836106ba565b6106f260026106db565b61033360f41b602082015290565b6101ae6106e8565b6101ae610700565b5f5b8381106107215750505f910152565b8181015183820152602001610712565b61075261075b6020936106d793610746815190565b80835293849260200190565b95869101610710565b601f01601f191690565b60208082526101ae92910190610731565b1561077e5750565b6107a09061078b60405190565b62461bcd60e51b815291829160048301610765565b0390fd5b6104c76101ae6101ae9260ff1690565b634e487b7160e01b5f52601160045260245ffd5b6107df9064ffffffffff165b9164ffffffffff1690565b90039064ffffffffff82116107f057565b6107b4565b6108059064ffffffffff166107d4565b019064ffffffffff82116107f057565b905051906100f682610386565b6100de8160070b90565b905051906100f682610822565b67ffffffffffffffff81166100de565b905051906100f682610839565b6100de8160030b90565b905051906100f682610856565b91906080838203126100e5576108c090606061088960806105e4565b94610894838261082c565b86526108a38360208301610849565b60208701526108b58360408301610860565b604087015201610815565b6060830152565b9190610120838203126100e5576109099060a06108e460606105e4565b946108ef8382610815565b86526108fe836020830161086d565b60208701520161086d565b6040830152565b9092919261092061061d826105f8565b938185526101206020860192028301928184116100e557915b8383106109465750505050565b60206101209161095684866108c7565b815201920191610939565b9080601f830112156100e55781516101ae92602001610910565b906020828203126100e557815167ffffffffffffffff81116100e5576101ae9201610961565b90825f939282370152565b919061075b816109c3816106d79560209181520190565b80956109a1565b906101ae92916109ac565b9035601e1936839003018112156100e557016020813591019167ffffffffffffffff82116100e5573682900383136100e557565b818352916020019081610a1f6020830284019490565b92835f925b848410610a345750505050505090565b9091929394956020610a61610a5a8385600195038852610a548b886109d5565b906109ca565b9860200190565b940194019294939190610a24565b90610a8f610a88610a7e845190565b8084529260200190565b9260200190565b905f5b818110610a9f5750505090565b909192610abc610ab56001928651815260200190565b9460200190565b929101610a92565b610ad86101ae6101ae9264ffffffffff1690565b67ffffffffffffffff1690565b61024690610ac4565b90610b226100f695979694610b14610b2d9360609660808701918783035f890152610a09565b908482036020860152610a6f565b966040830190610ae5565b0190610ae5565b6040513d5f823e3d90fd5b6101ae906101a2565b6101ae9054610b3f565b906001600160801b03905b9181191691161790565b6104e46101ae6101ae926001600160801b031690565b90610b8d6101ae610b9492610b67565b8254610b52565b9055565b6001600160a01b0390911681526060810193926100f6929091604091610bc69064ffffffffff166020830152565b01906001600160801b03169052565b90919294610be8610be38590565b61062c565b94610bf25f61064f565b610bfd6101ae885190565b811015610c7e5780610c3c610c2f610c2a610c24610c1f610c79968c8c610670565b610685565b5f610207565b610696565b610c39838b6106a0565b52565b610c73610c50610c4c838b6106a0565b5190565b610c63610c5f6101ae5f61064f565b9190565b1415610c6d610708565b90610776565b60010190565b610bf2565b509350935f9250949094610d02610cb47f00000000000000000000000000000000000000000000000000000000000000006101fe565b91610d0d634716e9c591610cd7610cd1610ccc6102eb565b6107a4565b8b6107c8565b610ceb610ce5610ccc610486565b8c6107f5565b91610cf560405190565b998a988997889760e01b90565b875260048701610aee565b039134905af1908115610dfe575f91610ddc575b50610d2b5f61064f565b610d366101ae835190565b811015610dd657610dd1907ffa8d519a18af34167cd7d94556769581daeb4c9172b27c9bc9230a28101726b485610d8a610d856001610d7f5f610d79888b6106a0565b51015190565b906103ad565b610b48565b610dc8610da46020610d9c878a6106a0565b5101516112a4565b610dbc81610db78661050e876002610207565b610b7d565b60405193849384610b98565b0390a160010190565b610d2b565b50509050565b610df891503d805f833e610df081836105bd565b81019061097b565b5f610d21565b610b34565b6101ae906104e4565b6101ae9054610e03565b6104e46101ae6101ae9290565b610e2d60026106db565b61323960f01b602082015290565b6101ae610e23565b6101ae610e3b565b610e6a9161050e610e6592610e5d5f90565b506002610207565b610e0c565b6101ae610e765f610e16565b6001600160801b0383165b1415610c6d610e43565b60ff16604d81116107f057600a0a90565b6101ae6101ae6101ae926001600160801b031690565b818102929181159184041417156107f057565b634e487b7160e01b5f52601260045260245ffd5b8115610ee3570490565b610ec5565b90610f6e610f63610f34610e658661050e610f11610e656101ae9a61050e610f749b610e5d5f90565b96610f2d610f1e5f610e16565b6001600160801b038a16610e81565b6002610207565b92610f50610f415f610e16565b6001600160801b038616610e81565b610f69610f63610f5e610459565b610e8b565b91610e9c565b610eb2565b90610ed9565b611413565b905051906100f6826101b1565b906020828203126100e5576101ae91610f79565b8015156100de565b905051906100f682610f9a565b906020828203126100e5576101ae91610fa2565b610fcd60016106db565b601960f91b602082015290565b6101ae610fc3565b6101ae610fda565b906110147f00000000000000000000000000000000000000000000000000000000000000006101fe565b602061101f60405190565b63383e6b8b60e11b815291829060049082905afa908115610dfe576110549161104f915f916110cd575b506101fe565b6101fe565b91602061106060405190565b63279ee9ef60e01b815233600482015293849060249082905afa928315610dfe576100f693611099915f9161109e575b50610c6d610fe2565b61115d565b6110c0915060203d6020116110c6575b6110b881836105bd565b810190610faf565b5f611090565b503d6110ae565b6110ef915060203d6020116110f5575b6110e781836105bd565b810190610f86565b5f611049565b503d6110dd565b905f1990610b5d565b906111136101ae610b949290565b82546110fc565b906001600160a01b0390610b5d565b906111396101ae610b94926101fe565b825461111a565b6001600160a01b0390911681526040810192916100f69160200152565b907fdda5ab6f86c954c0f369d01676ea1b65055760f40962f2c34882ab417152da19916111938261118e835f610207565b611105565b6111a7816111a28460016103ad565b611129565b6111bc6111b360405190565b92839283611140565b0390a1565b906100f691610fea565b6111d86101ae6101ae9290565b60070b90565b6111eb6101ae6101ae9290565b60030b90565b6111fb60026106db565b61333160f01b602082015290565b6101ae6111f1565b6101ae611209565b6112289060030b5b9160030b90565b02906112348260030b90565b9182036107f057565b61124d6101ae6101ae9260030b90565b63ffffffff1690565b6102e56101ae6101ae9263ffffffff1690565b610ad86101ae6101ae9260070b90565b60ff908116911690039060ff82116107f057565b6101ae6101ae6101ae9267ffffffffffffffff1690565b805160070b6112bc6112b55f6111cb565b9160070b90565b12801561139c575b801561137f575b61136c576112ff6112fa6112f56112e6604085015160030b90565b6112f05f196111de565b611219565b61123d565b611256565b611307610459565b9060ff811660ff8316106113475790610f69611341610f5e610f749461133b6113365f6101ae99015160070b90565b611269565b94611279565b9161128d565b611367611341610f5e610f749461133b6113365f6101ae99015160070b90565b610ed9565b6107a0611377611211565b60405161078b565b50604081015160030b61139661122160fe196111de565b126112cb565b50604081015160030b6113b16112215f6111de565b136112c4565b156113be57565b60405162461bcd60e51b815260206004820152602760248201527f53616665436173743a2076616c756520646f65736e27742066697420696e20316044820152663238206269747360c81b6064820152608490fd5b6101ae9061143261142a6001600160801b03610e9c565b8211156113b7565b610e1656fea26469706673582212206dacafd860d51e48853e5eaa13e76f37b62afd2ac64313495310f6488ae2336564736f6c63430008180033",
  "linkReferences": {},
  "deployedLinkReferences": {}
}