{
  "_format": "hh-sol-artifact-1",
  "contractName": "PythAdapter",
  "sourceName": "contracts/oracle-entry/adapters/PythAdapter.sol",
  "abi": [
    {
      "inputs": [
        {
          "internalType": "contract IAddressManager",
          "name": "_addressManager",
          "type": "address"
        },
        {
          "internalType": "contract IPyth",
          "name": "_pyth",
          "type": "address"
        }
      ],
      "stateMutability": "nonpayable",
      "type": "constructor"
    },
    {
      "anonymous": false,
      "inputs": [
        {
          "indexed": false,
          "internalType": "address",
          "name": "asset",
          "type": "address"
        },
        {
          "indexed": false,
          "internalType": "bytes32",
          "name": "priceId",
          "type": "bytes32"
        }
      ],
      "name": "AssetPriceIdSet",
      "type": "event"
    },
    {
      "anonymous": false,
      "inputs": [
        {
          "indexed": false,
          "internalType": "address",
          "name": "asset",
          "type": "address"
        },
        {
          "indexed": false,
          "internalType": "uint40",
          "name": "timestamp",
          "type": "uint40"
        },
        {
          "indexed": false,
          "internalType": "uint128",
          "name": "price",
          "type": "uint128"
        }
      ],
      "name": "AssetPriceUpdated",
      "type": "event"
    },
    {
      "inputs": [],
      "name": "MAX_TIME_AFTER",
      "outputs": [
        {
          "internalType": "uint8",
          "name": "",
          "type": "uint8"
        }
      ],
      "stateMutability": "view",
      "type": "function"
    },
    {
      "inputs": [],
      "name": "MIN_TIME_BEFORE",
      "outputs": [
        {
          "internalType": "uint8",
          "name": "",
          "type": "uint8"
        }
      ],
      "stateMutability": "view",
      "type": "function"
    },
    {
      "inputs": [],
      "name": "TARGET_DECIMALS",
      "outputs": [
        {
          "internalType": "uint8",
          "name": "",
          "type": "uint8"
        }
      ],
      "stateMutability": "view",
      "type": "function"
    },
    {
      "inputs": [],
      "name": "addressManager",
      "outputs": [
        {
          "internalType": "contract IAddressManager",
          "name": "",
          "type": "address"
        }
      ],
      "stateMutability": "view",
      "type": "function"
    },
    {
      "inputs": [
        {
          "internalType": "address",
          "name": "",
          "type": "address"
        },
        {
          "internalType": "uint40",
          "name": "",
          "type": "uint40"
        }
      ],
      "name": "assetPrices",
      "outputs": [
        {
          "internalType": "uint128",
          "name": "",
          "type": "uint128"
        }
      ],
      "stateMutability": "view",
      "type": "function"
    },
    {
      "inputs": [
        {
          "internalType": "address",
          "name": "",
          "type": "address"
        }
      ],
      "name": "assetToPriceId",
      "outputs": [
        {
          "internalType": "bytes32",
          "name": "",
          "type": "bytes32"
        }
      ],
      "stateMutability": "view",
      "type": "function"
    },
    {
      "inputs": [
        {
          "internalType": "address",
          "name": "baseAsset",
          "type": "address"
        },
        {
          "internalType": "address",
          "name": "quoteAsset",
          "type": "address"
        },
        {
          "internalType": "uint40",
          "name": "timestamp",
          "type": "uint40"
        }
      ],
      "name": "getPrice",
      "outputs": [
        {
          "internalType": "uint128",
          "name": "",
          "type": "uint128"
        }
      ],
      "stateMutability": "view",
      "type": "function"
    },
    {
      "inputs": [
        {
          "internalType": "address",
          "name": "asset",
          "type": "address"
        },
        {
          "internalType": "uint40",
          "name": "timestamp",
          "type": "uint40"
        }
      ],
      "name": "getSinglePrice",
      "outputs": [
        {
          "internalType": "uint128",
          "name": "",
          "type": "uint128"
        }
      ],
      "stateMutability": "view",
      "type": "function"
    },
    {
      "inputs": [
        {
          "internalType": "bytes32",
          "name": "",
          "type": "bytes32"
        }
      ],
      "name": "priceIdToAsset",
      "outputs": [
        {
          "internalType": "address",
          "name": "",
          "type": "address"
        }
      ],
      "stateMutability": "view",
      "type": "function"
    },
    {
      "inputs": [],
      "name": "pyth",
      "outputs": [
        {
          "internalType": "contract IPyth",
          "name": "",
          "type": "address"
        }
      ],
      "stateMutability": "view",
      "type": "function"
    },
    {
      "inputs": [
        {
          "internalType": "address",
          "name": "asset",
          "type": "address"
        },
        {
          "internalType": "bytes32",
          "name": "priceId",
          "type": "bytes32"
        }
      ],
      "name": "setAssetPriceId",
      "outputs": [],
      "stateMutability": "nonpayable",
      "type": "function"
    },
    {
      "inputs": [
        {
          "internalType": "uint40",
          "name": "timestamp",
          "type": "uint40"
        },
        {
          "internalType": "address[]",
          "name": "assets",
          "type": "address[]"
        },
        {
          "internalType": "bytes[]",
          "name": "updateDatas",
          "type": "bytes[]"
        }
      ],
      "name": "updateAssetPrices",
      "outputs": [],
      "stateMutability": "payable",
      "type": "function"
    }
  ],
  "bytecode": "0x60c06040523462000054575b620000226200001962000132565b9060805260a052565b6040516117506200015a82396080518181816104300152610b4e015260a0518181816106f501526113a3015261175090f35b6200005d600080fd5b6200000b565b600080fd5b50634e487b7160e01b600052604160045260246000fd5b90601f01601f191681019081106001600160401b03821117620000a157604052565b620000ab62000068565b604052565b90620000c7620000bf60405190565b92836200007f565b565b90565b6001600160a01b031690565b620000e381620000cc565b036200006357565b90505190620000c782620000d8565b9190620000c99060408482031262000123575b620001198185620000eb565b93602001620000eb565b6200012c600080fd5b6200010d565b62000155620018aa803803806200014981620000b0565b928339810190620000fa565b909156fe60806040526004361015610018575b610016600080fd5b005b60003560e01c80630d4702e1146101085780632c9c20ea146100ff578063307767d0146100f657806330a209f2146100ed5780633ab76e9f146100e4578063574badaf146100db5780636d7110b4146100d25780638670588b146100c9578063a856bd1d146100c0578063f4a22d40146100b7578063f529bd37146100ae5763f98d06f00361000e576100a96106de565b61000e565b506100a96106b6565b506100a961065a565b506100a96105c9565b506100a961058d565b506100a9610550565b506100a96104ce565b506100a9610419565b506100a96103c2565b506100a961034d565b506100a96102e2565b506100a961020d565b600080fd5b64ffffffffff81165b0361011157565b9050359061013382610116565b565b909182601f8301121561017c575b602082359267ffffffffffffffff841161016f575b01926020830284011161016757565b610133600080fd5b610177600080fd5b610158565b610184600080fd5b610143565b90606082820312610200575b61019f8183610126565b926101e26101c383602086013567ffffffffffffffff81116101f3575b8601610135565b93909460408101359067ffffffffffffffff82116101e6575b01610135565b9091565b6101ee600080fd5b6101dc565b6101fb600080fd5b6101bc565b610208600080fd5b610195565b5061022561021c366004610189565b939290926112f3565b604051005b0390f35b6001600160a01b031690565b90565b6001600160a01b03811661011f565b905035906101338261023d565b9061023a916020818303121561024c57610271600080fd5b61024c565b61023a9061022e906001600160a01b031682565b61023a90610276565b61023a9061028a565b906102a690610293565b600052602052604060002090565b61023a916008021c81565b9061023a91546102b4565b60006102d961023a928261029c565b6102bf565b9052565b503461030f575b61022a6102ff6102fa366004610259565b6102ca565b6040519182918290815260200190565b610317600080fd5b6102e9565b919061023a90604084820312610340575b610337818561024c565b93602001610126565b610348600080fd5b61032d565b5034610385575b61022a61036b61036536600461031c565b906108a0565b604051918291826001600160801b03909116815260200190565b61038d600080fd5b610354565b600091031261016757565b6103aa61023a61023a9290565b60ff1690565b61023a600461039d565b61023a6103b0565b50346103f3575b6103d4366004610392565b61022a6103df6103ba565b6040519182918260ff909116815260200190565b6103fb600080fd5b6103c9565b6102de90610293565b6020810192916101339190610400565b503461045c575b61042b366004610392565b61022a7f00000000000000000000000000000000000000000000000000000000000000005b60405191829182610409565b610464600080fd5b610420565b8061011f565b9050359061013382610469565b9061023a916020818303121561046f57610494600080fd5b61046f565b906102a6565b61023a916008021c61022e565b9061023a915461049f565b61023a906104c9600191600092610499565b6104ac565b5034610505575b61022a6104eb6104e636600461047c565b6104b7565b604051918291826001600160a01b03909116815260200190565b61050d600080fd5b6104d5565b9091606082840312610543575b61023a61052c848461024c565b9361053a816020860161024c565b93604001610126565b61054b600080fd5b61051f565b503461056e575b61022a61036b610568366004610512565b91610987565b610576600080fd5b610557565b61023a601261039d565b61023a61057b565b50346105aa575b61059f366004610392565b61022a6103df610585565b6105b2600080fd5b610594565b61023a600a61039d565b61023a6105b7565b50346105e6575b6105db366004610392565b61022a6103df6105c1565b6105ee600080fd5b6105d0565b61060761023a61023a9264ffffffffff1690565b64ffffffffff1690565b906102a6906105f3565b61023a916008021c5b6001600160801b031690565b9061023a915461061b565b61065561023a9261065060029360009461029c565b610611565b610630565b5034610678575b61022a61036b61067236600461031c565b9061063b565b610680600080fd5b610661565b919061023a906040848203126106a9575b6106a0818561024c565b9360200161046f565b6106b1600080fd5b610696565b50346106d1575b6102256106cb366004610685565b90610d4e565b6106d9600080fd5b6106bd565b5034610719575b6106f0366004610392565b61022a7f0000000000000000000000000000000000000000000000000000000000000000610450565b610721600080fd5b6106e5565b61023a90610624565b61023a9054610726565b61062461023a61023a9290565b601f01601f191690565b50634e487b7160e01b600052604160045260246000fd5b90601f01601f1916810190811067ffffffffffffffff82111761078957604052565b610791610750565b604052565b906101336107a360405190565b9283610767565b6107c960209167ffffffffffffffff81116107cd57601f01601f191690565b0190565b610746610750565b906107e76107e2836107aa565b610796565b918252565b6107f660026107d5565b61323960f01b602082015290565b61023a6107ec565b61023a610804565b60005b8381106108275750506000910152565b8181015183820152602001610817565b6108586107466020936107c99361084c815190565b80835293849260200190565b95869101610814565b602080825261023a92910190610837565b1561087a5750565b61089c9061088760405190565b62461bcd60e51b815291829160048301610861565b0390fd5b6108c0916106506108bb926108b3600090565b50600261029c565b61072f565b61023a6108cd6000610739565b6001600160801b0383165b14156108e261080c565b90610872565b50634e487b7160e01b600052601160045260246000fd5b60ff16604d8111610911575b600a0a90565b6109196108e8565b61090b565b61023a61023a61023a926001600160801b031690565b8181029291811591840414171561094757565b6101336108e8565b50634e487b7160e01b600052601260045260246000fd5b90610970565b9190565b90811561097b570490565b61098361094f565b0490565b610a17610a0c610a1d936109f96109ea6109e46108bb61023a996109a9600090565b506106506109c06108bb8361065060029d8e61029c565b9660009a6109df6109d08d610739565b6001600160801b038b166108d8565b61029c565b95610739565b6001600160801b0386166108d8565b610a12610a0c610a0761057b565b6108ff565b9161091e565b610934565b90610966565b610a7e565b15610a2957565b60405162461bcd60e51b815260206004820152602760248201527f53616665436173743a2076616c756520646f65736e27742066697420696e20316044820152663238206269747360c81b6064820152608490fd5b61023a90610a9d610a956001600160801b0361091e565b821115610a22565b610739565b905051906101338261023d565b9061023a9160208183031215610aa257610ac7600080fd5b610aa2565b506040513d6000823e3d90fd5b80151561011f565b9050519061013382610ad9565b9061023a9160208183031215610ae157610b06600080fd5b610ae1565b610b1560016107d5565b601960f91b602082015290565b61023a610b0b565b61023a610b22565b9061013391610c03610be66020610bae610ba9610b8a83610b727f0000000000000000000000000000000000000000000000000000000000000000610293565b63707cd71690610b8160405190565b93849260e01b90565b825260049082905afa908115610c70575b600091610c43575b50610293565b610293565b63279ee9ef90610bcf3392610bc260405190565b9586948593849360e01b90565b83526001600160a01b031660048301526024820190565b03915afa908115610c36575b600091610c08575b506108e2610b2a565b610ce9565b610c29915060203d8111610c2f575b610c218183610767565b810190610aee565b38610bfa565b503d610c17565b610c3e610acc565b610bf2565b610c639150843d8111610c69575b610c5b8183610767565b810190610aaf565b38610ba3565b503d610c51565b610c78610acc565b610b9b565b90600019905b9181191691161790565b90610c9b61023a610ca29290565b8254610c7d565b9055565b906001600160a01b0390610c83565b90610cc561023a610ca292610293565b8254610ca6565b6001600160a01b0390911681526040810192916101339160200152565b90610cfe81610cf984600061029c565b610c8d565b610d1282610d0d836001610499565b610cb5565b7fdda5ab6f86c954c0f369d01676ea1b65055760f40962f2c34882ab417152da1991610d49610d4060405190565b92839283610ccc565b0390a1565b9061013391610b32565b6020809167ffffffffffffffff8111610d7057020190565b610d78610750565b020190565b906107e76107e283610d58565b369037565b90610133610da5610d9f84610d7d565b93610d58565b601f190160208401610d8a565b61023a61023a61023a9290565b6001906000198114610dcf570190565b6107c96108e8565b50634e487b7160e01b600052603260045260246000fd5b91602091811015610dfe57020190565b610d78610dd7565b3561023a8161023d565b61023a9081565b61023a9054610e10565b9060208091610e2e845190565b811015610e3c575b02010190565b610e44610dd7565b610e36565b610e5360026107d5565b61033360f41b602082015290565b61023a610e49565b61023a610e61565b61060761023a61023a9260ff1690565b610e989064ffffffffff165b9164ffffffffff1690565b90039064ffffffffff821161094757565b610eb99064ffffffffff16610e8d565b019064ffffffffff821161094757565b9050519061013382610469565b61011f8160070b90565b9050519061013382610ed6565b67ffffffffffffffff811661011f565b9050519061013382610eed565b61011f8160030b90565b9050519061013382610f0a565b919091608081840312610f81575b610f7b610f3c6080610796565b936000610f498285610ee0565b908601526020610f5b82828601610efd565b908601526040610f6d82828601610f14565b908601526060809301610ec9565b90830152565b610f89600080fd5b610f2f565b9190610fd59061012084820312610fdc575b610faa6060610796565b936000610fb78383610ec9565b908601526020610fc983828401610f21565b9086015260a001610f21565b6040830152565b610fe4600080fd5b610fa0565b90929192610ff96107e282610d58565b9381855261012060208601920283019281841161103b575b915b8383106110205750505050565b6020610120916110308486610f8e565b815201920191611013565b611043600080fd5b611011565b9061023a9181601f82011215611064575b602081519101610fe9565b61106c600080fd5b611059565b9061023a916020818303126110a7575b80519067ffffffffffffffff821161109a575b01611048565b6110a2600080fd5b611094565b6110af600080fd5b611081565b90826000939282370152565b9190610746816110d7816107c99560209181520190565b80956110b4565b9061023a92916110c0565b9035601e19368390030181121561112c575b016020813591019167ffffffffffffffff821161111f575b36829003831361016757565b611127600080fd5b611113565b611134600080fd5b6110fb565b81835291602001908161114f6020830284019490565b92836000925b8484106111655750505050505090565b909192939495602061119261118b83856001950388526111858b886110e9565b906110de565b9860200190565b940194019294939190611155565b906111c06111b96111af845190565b8084529260200190565b9260200190565b9060005b8181106111d15750505090565b9091926111ee6111e76001928651815260200190565b9460200190565b9291016111c4565b61120a61023a61023a9264ffffffffff1690565b67ffffffffffffffff1690565b6102de906111f6565b90611255610133959796946112476112609360609660808701918783036000890152611139565b9084820360208601526111a0565b966040830190611217565b0190611217565b61023a9061022e565b61023a9054611267565b906001600160801b0390610c83565b61062461023a61023a926001600160801b031690565b906112af61023a610ca292611289565b825461127a565b6001600160a01b0390911681526060810193926101339290916040916112e49064ffffffffff166020830152565b01906001600160801b03169052565b9492939261130083610d8f565b9360009661130d88610db2565b8861131961023a895190565b821015611392579061138861138d9261137e61096c61023a611378611374878f8f8f61135d6113576113528661136f9561136295610dee565b610e06565b8b61029c565b610e17565b61136c8484610e21565b52565b610e21565b5190565b93610db2565b14156108e2610e69565b610dbf565b61130d565b9450509350939490946114166113c77f0000000000000000000000000000000000000000000000000000000000000000610293565b91634716e9c561142134926113eb6113e56113e06103b0565b610e71565b8a610e81565b6113ff6113f96113e06105b7565b8b610ea9565b9161140960405190565b9b8c998a98899760e01b90565b875260048701611220565b03925af191821561151c575b6000926114f8575b5061143f84610db2565b61144a61023a845190565b8110156114f1576114ec9061147c61147760016114718961146b868a610e21565b51015190565b90610499565b611270565b83611494602061148c8589610e21565b510151611602565b916114ad836114a88461065085600261029c565b61129f565b6114e47ffa8d519a18af34167cd7d94556769581daeb4c9172b27c9bc9230a28101726b4936114db60405190565b938493846112b6565b0390a1610dbf565b61143f565b5050509050565b6115159192503d8086833e61150d8183610767565b810190611071565b9038611435565b611524610acc565b61142d565b61153661023a61023a9290565b60070b90565b61154961023a61023a9290565b60030b90565b61155960026107d5565b61333160f01b602082015290565b61023a61154f565b61023a611567565b6115869060030b5b9160030b90565b02906115928260030b90565b91820361094757565b6115ab61023a61023a9260030b90565b63ffffffff1690565b6103aa61023a61023a9263ffffffff1690565b61120a61023a61023a9260070b90565b60ff908116911690039060ff821161094757565b61023a61023a61023a9267ffffffffffffffff1690565b805160070b9060009161161e61161784611529565b9160070b90565b1280156116ff575b80156116e2575b6116cf5761166261165d611658841961165361164d604087015160030b90565b9161153c565b611577565b61159b565b6115b4565b61166a61057b565b9160ff821660ff8416106116aa576116a4610a07610a1d949361169e61169961023a98610a1296015160070b90565b6115c7565b946115d7565b916115eb565b6116a4610a07610a1d9461169e61169961023a986116ca96015160070b90565b610966565b61089c6116da61156f565b604051610887565b50604081015160030b6116f961157f60fe1961153c565b1261162d565b50604081015160030b61171461157f8461153c565b1361162656fea26469706673582212206c5680c856c613375462df27d6ac7b6527c163038d7f0661827c96ef6e9172d264736f6c63430008110033",
  "linkReferences": {},
  "deployedLinkReferences": {}
}