{
  "_format": "hh-sol-artifact-1",
  "contractName": "Treasury",
  "sourceName": "contracts/treasuries/Treasury.sol",
  "abi": [
    {
      "inputs": [
        {
          "internalType": "contract IAddressManager",
          "name": "_addressManager",
          "type": "address"
        }
      ],
      "stateMutability": "nonpayable",
      "type": "constructor"
    },
    {
      "anonymous": false,
      "inputs": [
        {
          "indexed": true,
          "internalType": "address",
          "name": "asset",
          "type": "address"
        },
        {
          "indexed": true,
          "internalType": "address",
          "name": "receiver",
          "type": "address"
        },
        {
          "indexed": false,
          "internalType": "uint256",
          "name": "amount",
          "type": "uint256"
        }
      ],
      "name": "StuckAssetsAdded",
      "type": "event"
    },
    {
      "anonymous": false,
      "inputs": [
        {
          "indexed": true,
          "internalType": "address",
          "name": "asset",
          "type": "address"
        },
        {
          "indexed": true,
          "internalType": "address",
          "name": "receiver",
          "type": "address"
        },
        {
          "indexed": false,
          "internalType": "uint256",
          "name": "amount",
          "type": "uint256"
        }
      ],
      "name": "Withdrawn",
      "type": "event"
    },
    {
      "inputs": [],
      "name": "addressManager",
      "outputs": [
        {
          "internalType": "contract IAddressManager",
          "name": "",
          "type": "address"
        }
      ],
      "stateMutability": "view",
      "type": "function"
    },
    {
      "inputs": [
        {
          "internalType": "address",
          "name": "",
          "type": "address"
        },
        {
          "internalType": "address",
          "name": "",
          "type": "address"
        }
      ],
      "name": "stuckAssets",
      "outputs": [
        {
          "internalType": "uint256",
          "name": "",
          "type": "uint256"
        }
      ],
      "stateMutability": "view",
      "type": "function"
    },
    {
      "inputs": [
        {
          "internalType": "address",
          "name": "asset",
          "type": "address"
        },
        {
          "internalType": "address",
          "name": "receiver",
          "type": "address"
        },
        {
          "internalType": "uint256",
          "name": "amount",
          "type": "uint256"
        },
        {
          "internalType": "bool",
          "name": "trustedReceiver",
          "type": "bool"
        }
      ],
      "name": "withdraw",
      "outputs": [],
      "stateMutability": "nonpayable",
      "type": "function"
    },
    {
      "inputs": [
        {
          "internalType": "address",
          "name": "asset",
          "type": "address"
        },
        {
          "internalType": "address",
          "name": "receiver",
          "type": "address"
        }
      ],
      "name": "withdrawStuckAssets",
      "outputs": [],
      "stateMutability": "nonpayable",
      "type": "function"
    },
    {
      "stateMutability": "payable",
      "type": "receive"
    }
  ],
  "bytecode": "0x60a06040523462000040575b6200001f62000019620000fa565b6200011d565b604051610a3062000177823960805181818160fe01526104920152610a3090f35b62000049600080fd5b6200000b565b600080fd5b50634e487b7160e01b600052604160045260246000fd5b90601f01601f191681019081106001600160401b038211176200008d57604052565b6200009762000054565b604052565b90620000b3620000ab60405190565b92836200006b565b565b90565b6001600160a01b038116036200004f57565b90505190620000b382620000b8565b90620000b59160208183031215620000ca57620000f4600080fd5b620000ca565b620000b562000ba78038038062000111816200009c565b928339810190620000d9565b6200012762000160565b608052565b620000b5620000b5620000b59290565b620000b560016200012c565b90620000b5620000b56200015c926200012c565b9055565b620000b36200016e6200013c565b60006200014856fe6080604052600436101561001e575b361561001c5761001c600080fd5b005b60003560e01c80633ab76e9f1461006e578063827c852b14610065578063934785b71461005c5763c76bfb850361000e576100576102ad565b61000e565b5061005761027d565b506100576101cf565b506100576100e3565b600080fd5b600091031261008757565b61008f600080fd5b565b6100a5906100a8906001600160a01b031682565b90565b6001600160a01b031690565b6100a590610091565b6100a5906100b4565b6100cf906100bd565b9052565b60208101929161008f91906100c6565b5034610127575b6100f536600461007c565b604051806101237f0000000000000000000000000000000000000000000000000000000000000000826100d3565b0390f35b61012f600080fd5b6100ea565b61013d816100a8565b0361007757565b9050359061008f82610134565b91906100a590604084820312610175575b61016c8185610144565b93602001610144565b61017d600080fd5b610162565b9061018c906100bd565b600052602052604060002090565b6100a5916008021c81565b906100a5915461019a565b6101ca6100a5926101c5600193600094610182565b610182565b6101a5565b50346101fe575b6101236101ed6101e7366004610151565b906101b0565b6040515b9182918290815260200190565b610206600080fd5b6101d6565b8061013d565b9050359061008f8261020b565b80151561013d565b9050359061008f8261021e565b608081830312610270575b6102488282610144565b926100a56102598460208501610144565b936102678160408601610211565b93606001610226565b610278600080fd5b61023e565b50346102a0575b61029b610292366004610233565b9291909161071c565b604051005b6102a8600080fd5b610284565b50346102c8575b61029b6102c2366004610151565b90610854565b6102d0600080fd5b6102b4565b906102e99392916102e4610789565b610482565b61008f6107bb565b601f01601f191690565b50634e487b7160e01b600052604160045260246000fd5b90601f01601f1916810190811067ffffffffffffffff82111761033457604052565b61033c6102fb565b604052565b9050519061008f82610134565b906100a5916020818303121561034157610366600080fd5b610341565b506040513d6000823e3d90fd5b9061008f61038560405190565b9283610312565b6103ab60209167ffffffffffffffff81116103af57601f01601f191690565b0190565b6102f16102fb565b906103c96103c48361038c565b610378565b918252565b6103d860026103b7565b61199960f11b602082015290565b6100a56103ce565b6100a56103e6565b60005b8381106104095750506000910152565b81810151838201526020016103f9565b61043a6102f16020936103ab9361042e815190565b80835293849260200190565b958691016103f6565b60208082526100a592910190610419565b1561045c5750565b61047e9061046960405190565b62461bcd60e51b815291829160048301610443565b0390fd5b9061008f939291610515336104b67f00000000000000000000000000000000000000000000000000000000000000006100bd565b906104f3633d977de56104d26104cb60405190565b9160e01b90565b8152602081600481875afa90811561059a575b60009161056c575b506100a8565b6104fc826100a8565b1491821561051a575b505061050f6103ee565b90610454565b61062d565b610564919250610541602061055e9263d415148a9061053860405190565b93849260e01b90565b825260049082905afa90811561059a5760009161056c57506100a8565b916100a8565b143880610505565b61058d915060203d8111610593575b6105858183610312565b81019061034e565b386104ed565b503d61057b565b6105a261036b565b6104e5565b6100a56100a56100a59290565b6100a59081565b6100a590546105b4565b50634e487b7160e01b600052601160045260246000fd5b919082018092116105e957565b61008f6105c5565b906100a56100a5610601926105a7565b9055565b61060f60026103b7565b61323760f01b602082015290565b6100a5610605565b6100a561061d565b90919260001461064d57916106459161008f936108e5565b61050f610625565b813b61066061065c60006105a7565b9190565b148061070b575b156106b1576106ac6106a261069c7fd1c19fbcd4551a5edfb66d43d2e337c04837afda3482b42bdf569a8fccdae5fb936100bd565b936100bd565b936101f160405190565b0390a3565b6106db6106c3836101c5846001610182565b6106d5856106d0836105bb565b6105dc565b906105f1565b6106ac6106a261069c7f1a5106f32fcb3669c98f2e348b7f2d5f7d335939278a0a7c459a1b2eb8822e63936100bd565b506107178383836108e5565b610667565b9061008f9392916102d5565b6100a560026105a7565b6020808252601f908201527f5265656e7472616e637947756172643a207265656e7472616e742063616c6c00604082015260600190565b1561077057565b60405162461bcd60e51b81528061047e60048201610732565b61008f61079660006105bb565b6107aa6107a1610728565b91821415610769565b60006105f1565b6100a560016105a7565b61008f6107aa6107b1565b906102e9916107d3610789565b9061081e9161082461064560016107ea8482610182565b946107fe6107f9338098610182565b6105bb565b968792610819886101c58961081360006105a7565b94610182565b6105f1565b846108e5565b6106ac6106a261069c7fd1c19fbcd4551a5edfb66d43d2e337c04837afda3482b42bdf569a8fccdae5fb936100bd565b9061008f916107c6565b6100a86100a56100a59290565b6100a59061085e565b6100cf906100a8565b91602061008f92949361089860408201966000830190610874565b0152565b3d156108b6576108ab3d6103b7565b903d6000602084013e565b606090565b9050519061008f8261021e565b906100a591602081830312156108bb576108e0600080fd5b6108bb565b90916000916108fb6108f68461086b565b6100a8565b610904826100a8565b03610941575061091c61091783946100bd565b6100bd565b9061092660405190565b9081610931816100a5565b03925af161093d61089c565b5090565b92829161097d839261096e61095560405190565b63a9059cbb60e01b60208201529384926024840161087d565b60208201810382520382610312565b80519060200182865af19161099861099361089c565b931590565b9081156109e4575b506109df576109b961065c6109b3845190565b926105a7565b149081156109c5575090565b6100a5915060206109d4825190565b8183010191016108c8565b905090565b90503b6109f361065c836105a7565b14386109a056fea2646970667358221220607f97c9525a98a7409332297180e284d2e2fcce2560b150c79eccb0e55e396064736f6c63430008110033",
  "linkReferences": {},
  "deployedLinkReferences": {}
}