{
  "_format": "hh-sol-artifact-1",
  "contractName": "Treasury",
  "sourceName": "contracts/treasuries/Treasury.sol",
  "abi": [
    {
      "inputs": [
        {
          "internalType": "contract IAddressManager",
          "name": "_addressManager",
          "type": "address"
        }
      ],
      "stateMutability": "nonpayable",
      "type": "constructor"
    },
    {
      "anonymous": false,
      "inputs": [
        {
          "indexed": true,
          "internalType": "address",
          "name": "asset",
          "type": "address"
        },
        {
          "indexed": true,
          "internalType": "address",
          "name": "receiver",
          "type": "address"
        },
        {
          "indexed": false,
          "internalType": "uint256",
          "name": "amount",
          "type": "uint256"
        }
      ],
      "name": "StuckAssetsAdded",
      "type": "event"
    },
    {
      "anonymous": false,
      "inputs": [
        {
          "indexed": true,
          "internalType": "address",
          "name": "asset",
          "type": "address"
        },
        {
          "indexed": true,
          "internalType": "address",
          "name": "receiver",
          "type": "address"
        },
        {
          "indexed": false,
          "internalType": "uint256",
          "name": "amount",
          "type": "uint256"
        }
      ],
      "name": "Withdrawn",
      "type": "event"
    },
    {
      "inputs": [],
      "name": "addressManager",
      "outputs": [
        {
          "internalType": "contract IAddressManager",
          "name": "",
          "type": "address"
        }
      ],
      "stateMutability": "view",
      "type": "function"
    },
    {
      "inputs": [
        {
          "internalType": "address",
          "name": "",
          "type": "address"
        },
        {
          "internalType": "address",
          "name": "",
          "type": "address"
        }
      ],
      "name": "stuckAssets",
      "outputs": [
        {
          "internalType": "uint256",
          "name": "",
          "type": "uint256"
        }
      ],
      "stateMutability": "view",
      "type": "function"
    },
    {
      "inputs": [
        {
          "internalType": "address",
          "name": "asset",
          "type": "address"
        },
        {
          "internalType": "address",
          "name": "receiver",
          "type": "address"
        },
        {
          "internalType": "uint256",
          "name": "amount",
          "type": "uint256"
        },
        {
          "internalType": "bool",
          "name": "trustedReceiver",
          "type": "bool"
        }
      ],
      "name": "withdraw",
      "outputs": [],
      "stateMutability": "nonpayable",
      "type": "function"
    },
    {
      "inputs": [
        {
          "internalType": "address",
          "name": "asset",
          "type": "address"
        },
        {
          "internalType": "address",
          "name": "receiver",
          "type": "address"
        }
      ],
      "name": "withdrawStuckAssets",
      "outputs": [],
      "stateMutability": "nonpayable",
      "type": "function"
    },
    {
      "stateMutability": "payable",
      "type": "receive"
    }
  ],
  "bytecode": "0x60a0604052346200003f576200001e62000018620000d3565b620000f6565b6040516109536200014f823960805181818160d901526103e9015261095390f35b5f80fd5b634e487b7160e01b5f52604160045260245ffd5b90601f01601f191681019081106001600160401b038211176200007957604052565b62000043565b90620000966200008e60405190565b928362000057565b565b90565b6001600160a01b038116036200003f57565b9050519062000096826200009b565b906020828203126200003f576200009891620000ad565b6200009862000aa280380380620000ea816200007f565b928339810190620000bc565b6200010062000139565b608052565b6200009862000098620000989290565b62000098600162000105565b906200009862000098620001359262000105565b9055565b620000966200014762000115565b5f6200012156fe6080604052600436101561001a575b3615610018575f80fd5b005b5f3560e01c80633ab76e9f14610059578063827c852b14610054578063934785b71461004f5763c76bfb850361000e5761023d565b61021c565b61018b565b6100c0565b5f91031261006857565b5f80fd5b61008090610083906001600160a01b031682565b90565b6001600160a01b031690565b6100809061006c565b6100809061008f565b6100aa90610098565b9052565b6020810192916100be91906100a1565b565b34610068576100d036600461005e565b604051806100fe7f0000000000000000000000000000000000000000000000000000000000000000826100ae565b0390f35b61010b81610083565b0361006857565b905035906100be82610102565b91906040838203126100685761008090602061013b8286610112565b9401610112565b9061014c90610098565b5f5260205260405f2090565b610080916008021c81565b906100809154610158565b610186610080926101815f936001610142565b610142565b610163565b34610068576100fe6101a76101a136600461011f565b9061016e565b6040515b9182918290815260200190565b8061010b565b905035906100be826101b8565b80151561010b565b905035906100be826101cb565b608081830312610068576101f48282610112565b926100806102058460208501610112565b93606061021582604087016101be565b94016101d3565b346100685761023861022f3660046101e0565b9291909161065e565b604051005b346100685761023861025036600461011f565b906106f2565b9061026a93929161026561075d565b6103e1565b6100be61078d565b634e487b7160e01b5f52604160045260245ffd5b90601f01601f1916810190811067ffffffffffffffff8211176102a857604052565b610272565b905051906100be82610102565b9060208282031261006857610080916102ad565b6040513d5f823e3d90fd5b906100be6102e660405190565b9283610286565b67ffffffffffffffff81116102a857602090601f01601f19160190565b0190565b9061032061031b836102ed565b6102d9565b918252565b61032f600261030e565b61199960f11b602082015290565b610080610325565b61008061033d565b5f5b83811061035e5750505f910152565b818101518382015260200161034f565b61038f61039860209361030a93610383815190565b80835293849260200190565b9586910161034d565b601f01601f191690565b60208082526100809291019061036e565b156103bb5750565b6103dd906103c860405190565b62461bcd60e51b8152918291600483016103a2565b0390fd5b92919061040d7f0000000000000000000000000000000000000000000000000000000000000000610098565b9361041760405190565b633d977de560e01b8152602081600481895afa80156104ec57610441915f916104bd575b50610083565b61044a33610083565b1494851561046e575b506104696100be95610463610345565b906103b3565b610571565b9450602061047b60405190565b636a0a8a4560e11b815295869060049082905afa80156104ec576104ac610469916100be975f916104bd5750610083565b6104b533610083565b149550610453565b6104df915060203d6020116104e5575b6104d78183610286565b8101906102ba565b5f61043b565b503d6104cd565b6102ce565b6100806100806100809290565b6100809081565b61008090546104fe565b634e487b7160e01b5f52601160045260245ffd5b9190820180921161053057565b61050f565b90610080610080610545926104f1565b9055565b610553600261030e565b61323760f01b602082015290565b610080610549565b610080610561565b9091925f146105905791610588916100be93610814565b610463610569565b813b6105a261059e5f6104f1565b9190565b148061064d575b156105f3576105ee6105e46105de7fd1c19fbcd4551a5edfb66d43d2e337c04837afda3482b42bdf569a8fccdae5fb93610098565b93610098565b936101ab60405190565b0390a3565b6105ee6105e46105de83610648610630876101817f1a5106f32fcb3669c98f2e348b7f2d5f7d335939278a0a7c459a1b2eb8822e63986001610142565b6106428961063d83610505565b610523565b90610535565b610098565b50610659838383610814565b6105a9565b906100be939291610256565b9061026a9161067761075d565b6106c59061064861058861069e610699610692856001610142565b3390610142565b610505565b80956106bf6106ac5f6104f1565b6106ba610692886001610142565b610535565b84610814565b7fd1c19fbcd4551a5edfb66d43d2e337c04837afda3482b42bdf569a8fccdae5fb6105ee6105e433610098565b906100be9161066a565b61008060026104f1565b6020808252601f908201527f5265656e7472616e637947756172643a207265656e7472616e742063616c6c00604082015260600190565b1561074457565b60405162461bcd60e51b8152806103dd60048201610706565b6100be6107695f610505565b61077d6107746106fc565b9182141561073d565b5f610535565b61008060016104f1565b6100be61077d610783565b6100836100806100809290565b61008090610798565b6100aa90610083565b9160206100be9294936107d160408201965f8301906107ae565b0152565b3d156107ee576107e43d61030e565b903d5f602084013e565b606090565b905051906100be826101cb565b9060208282031261006857610080916107f3565b91906108276108225f6107a5565b610083565b61083084610083565b0361086b575f9250906108466106488493610098565b9061085060405190565b908161085b81610080565b03925af16108676107d5565b5090565b5f916108a6839261089761087e60405190565b63a9059cbb60e01b6020820152938492602484016107b7565b60208201810382520382610286565b60208151910182855af1906108c16108bc6107d5565b921590565b908115610907575b506109025780516108dc61059e5f6104f1565b149081156108e8575090565b610080915060206108f7825190565b818301019101610800565b505f90565b90503b61091661059e5f6104f1565b145f6108c956fea26469706673582212203f338e2c445e0dafb407a32661844124ece55c41c8037b41420d177c6d0d6a4064736f6c63430008180033",
  "linkReferences": {},
  "deployedLinkReferences": {}
}